:100000000C9466040C949E040C949E040C949E0420
:100010000C949E040C949E040C949E040C949E04D8
:100020000C949E040C949E040C94F3320C94203493
:100030000C94A8320C949E040C949E040C949E0480
:100040000C949E040C949E040C949E040C949E04A8
:100050000C949E040C94CF320C949E040C949E0439
:100060000C949E040C949E040C949E040C949E0488
:100070000C949E040C949E040C949E040C949E0478
:100080000C949E040C949E040C949E040C949E0468
:100090000C949E040C949E040C949E040C949E0458
:1000A0000C949E040C949E040C949E040631FF094B
:1000B00074A1010975150026FF00952075088102BD
:1000C0000976150026FF00952075089102C00501EC
:1000D0000902A10185020901A100050919012905EB
:1000E00015002501950575018102950175038101B2
:1000F0000501093009311581257F950275088106B2
:1001000009381581257F950175088106050C0A3887
:10011000021581257F950175088106C0C00501097A
:1001200080A101850319012AB700150126B70095A2
:100130000175108100C0050C0901A1018504190198
:100140002AA002150126A002950175108100C005A4
:10015000010906A1018506050719E029E715002513
:10016000019508750181020507190029EF15002581
:100170000195F0750181020508190129059505759C
:10018000019102950175039101C00660FF0961A10B
:10019000010962150026FF00952075088102096398
:1001A000150026FF00952075089102C0050109067B
:1001B000A101050719E029E715002501950875013A
:1001C00081029501750881010507190029FF1500B5
:1001D00026FF009506750881000508190129059577
:1001E0000575019102950175039101C000000000A1
:1001F00000000000000000000000000000000000FF
:1002000000000000000000000000000000000000EE
:100210007E0F00D4FFFFFFC7000000780000000041
:10022000000000002A2B2800000000000000000051
:100230000000000000000029000000002C1E3420F7
:10024000212224342627252E362D3738271E1F201D
:100250002122232425263333362E37381F04050662
:100260000708090A0B0C0D0E0F10111213141516A6
:100270001718191A1B1C1D2F3130232D35040506A4
:100280000708090A0B0C0D0E0F1011121314151686
:100290001718191A1B1C1D2F3130354C09027B0011
:1002A000040100A0FA090400000103010100092172
:1002B0001101000122400007058103080001090423
:1002C00001000203000000092111010001222200A7
:1002D000070582032000010705030320000109042C
:1002E0000200010300000009211101000122BC00ED
:1002F0000705840320000109040300020300000035
:1003000009211101000122220007058503200001B7
:100310000705050320000112010002000000080487
:100320002000CB0001010203011C0376006900617B
:10033000006C003A00660036003400630032006250
:10034000003300630000001C03730070006C006148
:1003500000790074006F007200610069006400346D
:1003600000300000000C0346007200650079006157
:10037000000000040309045B435D005B445D005B17
:10038000535D005B575D005B525D00A900AA00ABA6
:1003900000AC00C95CCA5C50004F000000150008AA
:1003A000000C0018000000000014001A0017000ADA
:1003B000001200130000000000090007000E000DED
:1003C000000000000004001600050028000F0033A4
:1003D00000000000001900060036001000000000B8
:1003E000001D001B001C000B00370038000000003F
:1003F000002900E100E5004C000000AE002B00E009
:100400000011002C0034002A00000000000100014F
:1004100000010001000000000001000100010001D6
:1004200000010001000000000001000100010001C6
:1004300000000000000100010001000100010001B6
:1004400000000000000100010001000100000000A8
:100450000001000100010001000100010000000096
:100460000001000100010001000000010001000185
:100470000001000100010001000000000001000176
:100480000001000100000000000100010001000166
:100490000001000100000000000100010001000156
:1004A0000000000000010001000100010001000146
:1004B0000000000000010001000100010000000038
:1004C0000001000100010001000100010000000026
:1004D0000001000100010001000000010001000115
:1004E0000001000100010001000000000001000106
:1004F00000010001000000000001000100010001F6
:1005000000010001000000000001000100010001E5
:1005100000000000000100010001000100010001D5
:1005200000000000000100010001000100000000C7
:1005300000010001000100010001000100000000B5
:1005400000010001000100010000000100010001A4
:100550000001000100010001000000000101010193
:10056000010101010102020202020202020203036E
:10057000030303030303040404040404040505053E
:100580000505060606060607070707070808080800
:10059000090909090A0A0A0B0B0B0C0C0C0D0D0DAD
:1005A0000E0E0E0F0F0F1010111111121213131443
:1005B00014151516161717181819191A1A1B1B1CBB
:1005C0001D1D1E1E1F202021222223242425262615
:1005D000272829292A2B2C2D2D2E2F30313232334A
:1005E0003435363738393A3B3C3D3E3F4041424353
:1005F0004445464748494A4C4D4E4F505153545537
:100600005658595A5B5D5E5F616264656668696BE6
:100610006C6D6F7072737577787A7B7D7E80828364
:100620008587888A8C8E8F91939596989A9C9EA0A8
:10063000A2A3A5A7A9ABADAFB1B3B5B7BABCBEC0B5
:10064000C2C4C6C9CBCDCFD1D4D6D8DBDDDFE2E47E
:10065000E7E9EBEEF0F3F5F8FAFDFF290A0025755E
:10066000002F002575005D2800256400200025640A
:1006700000200025640020002564007C0025303225
:1006800058006D6F7573656B6579205B62746E7C65
:10069000782079207620685D287265702F61636C00
:1006A000293A205B005B735D000A00253038620048
:1006B0003A200025303258000A722F632030313240
:1006C00033343536370A00FD377A585A000004E6CD
:1006D000D6B4460200210116000000742FE5A3E005
:1006E000078701A55D003D888986D3DC0AE842C3FF
:1006F000249258425AFA4B42162C5F542BA3199B52
:10070000CDF09E3ED52B7388208A2702C28DB95624
:10071000A604C979CB2CA4B52A6AE9D5772AD313C4
:10072000CAA1FA8B577507A964E1E9A1773CEEA04D
:10073000769F6681A6BA5F7E1CFD869362D0F65CCA
:10074000553D3600137D77550C4DCC5DAA784C9203
:100750002B7DDA3860DC83EFBECC12ABDFA63243F0
:10076000025525B7C153CFA813690F53606DBCDC88
:100770006D9B7F8E93B690D29792DE33609ECD01B3
:100780009DE41AFAD35647A9DA0675C83BE0EA4C4D
:10079000A0E657A9B3A6EC62B2AD4C570CB2A8F6CE
:1007A00096166BF4C0403BB01146D10A31E0072DDC
:1007B000008F1AA61BAA9ACB6EBF18FDBD94579541
:1007C0002A08D50EB02450E4E27751FB0E2BDA5CF8
:1007D00099C6F4B03BE13AB3A8417ED28AF5E3E58D
:1007E000E46157EC7D969F9952E6156478F1EB9E93
:1007F000B8B3D49DC63E9A009107DC98D246D75133
:10080000B1B9F29A2FF4FA7C2BEB26FBA00AC1D6E1
:100810006125B1AA0FA1CCA3EDEA38A93AA7A30498
:100820009B7E8438D7794B544F63194A107F3673B7
:100830001D1CD05D2CD60058C5EA9E3F4AC7977E46
:1008400079A28D5B224EC5207230495EAD741ADCF0
:1008500061B0469D492D1A6F79659293F1D144910B
:1008600048DC0F722D1E3AD9D1DC05AC4B9C1EBE64
:10087000F002E8366F9EB13B96C0A8898F74BAFE2D
:100880008B6594AD5C41769A2A43D100000000311B
:10089000856DBD9A00CF120001C103880F0000F5DD
:1008A000BAF07DB1C467FB020000000004595A0091
:1008B000000000010006000200010006000200071F
:1008C0000003000C0004000D0005000011241FBEF1
:1008D000CFEFDAE0DEBFCDBF04B603FE18C08091D3
:1008E000B8049091B904A091BA04B091BB048730C8
:1008F000904BA740B04B59F41092B8041092B90431
:100900001092BA041092BB04E0E0F8E3099511E0FC
:10091000A0E0B1E0E6EEFBE602C005900D92AA3F32
:10092000B107D9F724E0AAEFB1E001C01D92A83BBE
:10093000B207E1F70E94D9290C9468350C940000A5
:10094000FF93EF93E091FA01F091FB01309709F0EA
:100950000995EF91FF910895FC018591803011F088
:10096000EFDFFBCF0895FF27E0E230E247FF0CC046
:10097000419597FF09C0EDE260957095809590953F
:10098000611D711D811D911D27FF02C0219530E35E
:1009900050E2AA27660F771F881F991FAA1FA41766
:1009A00010F0A41B63955A95A9F7AA3008F0A95F27
:1009B000A05DAF93F395611571058105910541F730
:1009C000ED3211F4EF93F395F21718F43F93F3958A
:1009D000FBCF8F91B5DFFA95E1F70895E991F99191
:1009E0008591803021F0853219F0AADFF9CF089582
:1009F00020E0E89455915532C1F3503311F46894D6
:100A000055915A3348F4505390F3220F022E220F7F
:100A1000220F200D250FF4CF0EF421958991999185
:100A2000533619F3533729F1533559F1BC0188274F
:100A30009927E8945C3621F48991999168945591AD
:100A4000543639F446EF7EF077FF0DC08FEF9FEFFD
:100A50000AC055374AE039F0583540E121F05236A6
:100A600042E009F00895FF93EF937DDFEF91FF914E
:100A7000B7CFFF93EF93FC0181918030B9F360DF32
:100A8000FBCFFF93EF9368DFF1CFDF93CF93CDB729
:100A9000DEB72596A3DFCF91DF9108959C019A954B
:100AA00081159F4118F5F901EE27F270832F8170AF
:100AB000B90166277470A9014427587034FF0CC02F
:100AC0008295807FEF2B09F08062672B09F08064AC
:100AD000452B69F080680895EF2B09F08260672B41
:100AE00009F08460452B19F08860089580E008952E
:100AF000CF93DF93EB010E944E05FE010995DF9134
:100B0000CF910895829594E0899F900111242C7CC7
:100B1000869586958373282B30E0C901880F991F2D
:100B20008A7A359527952575822B08959B016770E4
:100B300091E001C0990F6A95EAF763E03695279531
:100B40006A95E1F7B901660F771F260F371FFA0183
:100B5000E20FF31F40E050E0682F70E08191DF0169
:100B600011979B01042E02C0369527950A94E2F74F
:100B7000217021952827292328272C934F5F5F4F29
:100B80004330510559F708959C01A82FA77083E0C1
:100B9000369527958A95E1F7C901880F991F820F2D
:100BA000931FFB01E80FF91F40E050E080E0219126
:100BB00030E00A2E02C0369527950A94E2F721709C
:100BC0003327042E01C0220F0A94EAF7822B4F5FCD
:100BD0005F4F4330510559F70895282F862F903FD6
:100BE00079F0983070F4273058F4622F70E027E0E5
:100BF000929F600D711D112441EC53E00E949605F7
:100C000008959C5F9230E0F7622F70E04EEB53E066
:100C1000F5CF903FC9F0983080F48730A8F4282FA2
:100C200030E061EC73E0A901E7E09E9F400D511DAB
:100C30001124CA010E94C40508959C5F923020F4DB
:100C40006EEB73E090E0F6CF80E0089580917F0432
:100C500090917E04981301C008958F5F8770FACF3A
:100C6000909111019923C1F09091B60497FF14C09F
:100C7000E82FE695E695E695803FF8F4F0E0E4503D
:100C8000FE4F877021E030E001C0220F8A95EAF71D
:100C90008281822B82830895AEEFB1E0EFEF90E086
:100CA0002D91821751F0EF3F19F4211101C0E92F66
:100CB0009F5F9630A9F7EF3F09F408950E2E000CC0
:100CC000FF0BE450FE4FE6CF909111019923E1F024
:100CD0009091B60497FF18C0E82FE695E695E69543
:100CE000803FF0F4F0E0E450FE4F877021E030E008
:100CF000A90102C0440F551F8A95E2F7CA018095E9
:100D00009281892382830895EEEFF1E09191891316
:100D100003C0DF0111971C9252E0E430F507B1F7F0
:100D20000895982F9095809174048923809374047A
:100D3000089580917304882331F010927304109207
:100D40007D0410927C0408959091B60492FF06C031
:100D5000282F28712830F9F4877F846093FF06C01C
:100D6000282F28712831F1F4877E84612091B704FF
:100D700020FF06C0382F38713830D9F4877F816062
:100D800021FF06C0282F28712831D1F4877E816188
:100D900094FD877E0895282F24712430F9F68B7FE7
:100DA0008860DCCF282F2471243101F78B7E886185
:100DB000DDCF382F3171313019F78E7F8860E0CF69
:100DC000282F2171213121F78E7E8861E1CFCF93C9
:100DD000DF93EC01803E910509F472C090F58133F8
:100DE000910509F4B8C088F48932910509F4A8C0C6
:100DF0008A32910509F4B6C0019709F472C0CE0198
:100E00000497813A9105D0F46CC08933910509F4B7
:100E10004BC08238910509F447C08533910509F428
:100E20008AC0883A910530F4853A910540F3A49739
:100E3000D06457C08F3B910508F403C1C0E0D0E0F7
:100E400050C0843E910509F45BC070F4823E910568
:100E500009F443C0833E910509F447C0C03FD10562
:100E600008F487C0D0653DC0863E910509F453C0A3
:100E7000873E910509F454C0811523E5920708F0D7
:100E800090C0811542E5940708F0FBC08F3F9105A3
:100E900029F320F3811551E5950708F46FC0D82F89
:100EA000CC27C16FD06A1DC08091B60483708111B8
:100EB00018C18091B70483FF14C0C9E2D0E011C00B
:100EC0008091B60480FD44C09091B70490FF09C0A2
:100ED000C3EED0E084FDB2CF04C08091B60482FDA1
:100EE000F7CFCE01DF91CF9108958091B60482FDB6
:100EF000F5C09091B70490FDF4C084FFF2CF9ECF6F
:100F00008091B70481FFEDCF8091B604C7EED0E0A9
:100F100084FD94CFE6CF8091B60483FDF7CFE1CF77
:100F20008091B60483FDE0C09091B70491FFE5CFB6
:100F3000C4EED0E0D6CF8091B60485FFD2CFBDCF2E
:100F40008091B60485FDD3C08091B70483FFC9CFDB
:100F5000C9E3D0E0C6CF8091B60486FFC2CFCAE213
:100F6000D0E0BFCF8091B60486FFBBCFC1E3D0E015
:100F7000B8CFCE01805E9109079745CF811560E516
:100F8000960708F069C0C11580E2D80708F4A9CF18
:100F9000CE0190548115904108F050CFDF70D06A97
:100FA000A0CF811549E59407A8F5811558E5950767
:100FB00008F081C0811565E59607D8F4C11584E570
:100FC000D80708F073C08C2F8695869520E2829F03
:100FD000C0011124C370DD2721E030E0A90102C067
:100FE000440F551FCA95E2F7EA01C82BD92BDA68DE
:100FF00078CF95558F3F910511F008F01FCF8C2FBA
:101000000E94A406C82FD0E0DC2FCC27CC27DF71AC
:10101000D06267CFC1158AE5D80708F451C0CE0168
:1010200090568115904208F009CF8D2F8F710E9444
:10103000A40690E0982F882788279F718C2BEC01BD
:10104000E7CFC85AD0E0CC0FDD1FC453DE4F099064
:10105000D881C02DD46445CF86958695837040E2B3
:10106000849FC0011124C37021E030E0A90102C0B7
:10107000440F551FCA95E2F7EA01C82BD92BDD684A
:1010800030CF8695869550E2859FC0011124C370AC
:10109000DD2721E030E0A90102C0440F551FCA95A9
:1010A000E2F7EA01C82BD92BDC681BCFDC2FCC2759
:1010B000C46FD06A16CFD82FCC27C06FD06A11CF9B
:1010C0008C2F8F700E94A40634E0D695C7953A9570
:1010D000E1F7CF709C2FEC01D06903CFC2EED0E0D6
:1010E00000CFC0EED0E0FDCEC6EED0E0FACEC5E334
:1010F000D0E0F7CEF894E82FE295EF70F0E041A150
:101100008F7021E030E0B90102C0660F771F8A9529
:10111000E2F7CB01962F9095942391A392A1892B6E
:1011200082A3789408958091D60380FD14C081FD38
:1011300014C082FD16C08091D803882381F08E31BF
:1011400080F420E5829FC00111246EE170E00E94CE
:101150008934862F089584E1089588E2089588E00F
:10116000089580E508958091D60380FD17C081FD24
:1011700017C082FD19C08091D703882399F0883267
:1011800098F428E0829FC001112468E270E00E9478
:1011900089346115710551F0862F089562E0FCCF06
:1011A00064E0FACF61E0F8CF68E0F6CF81E008951F
:1011B000E0E1E80F803F08F444C0F0E0E659FA4C63
:1011C0000C949D340E94930881958093DC030895CC
:1011D0000E949308FACF0E94930881958093DB03C5
:1011E00008950E949308FACF0E94B3088093DD030C
:1011F00008950E94B3088195F9CF0E94B3088195A4
:101200008093DE0308950E94B308FACF8091DA0339
:1012100081608093DA0308958091DA038260F9CFC8
:101220008091DA038460F5CF8091DA038860F1CF92
:101230008091DA038061EDCF8091D6038160809345
:10124000D60308958091D6038260F9CF8091D603AA
:101250008460F5CF2091DD039091DE034091DC03A3
:101260003091DB03803FB1F447FD1092DC038091A5
:10127000DB039091DC03892B811102C01092D8030B
:101280008091DD039091DE03892B811102C01092C1
:10129000D7030895813F19F414163CF3E8CF823F39
:1012A00029F437FFE4CF1092DB03E1CF833F19F439
:1012B0001316CCF3DCCF893F29F41216C4F6109232
:1012C000DD03D5CF8A3F19F427FFD1CFF8CF8B3F6D
:1012D00029F497FFCCCF1092DE03C9CF8C3F19F4CD
:1012E0001916CCF3C4CFECE0E80F843F08F4BFCF6D
:1012F000F0E0E658FA4C0C949D348091DA038E7F2E
:101300008093DA03B4CF8091DA038D7FF9CF809197
:10131000DA038B7FF5CF8091DA03877FF1CF80915D
:10132000DA038F7EEDCF8091D6038E7F8093D60334
:101330009ECF8091D6038D7FF9CF8091D6038B7F8E
:10134000F5CFA0E0B0E0E7EAF9E00C94B234E82F82
:10135000F0E0E55AFA4F711109C0E4918E2F7E2F0B
:101360006E2FCDB7DEB7EAE00C94CE34262F30E0F6
:10137000C72FD0E0F491EF2F86E0829F8001839FFA
:10138000100D1124EE24EA94F12CC801B7010E943B
:101390007534AB01220F331F65E5649FC001659F63
:1013A000900D1124281B390B822F880F280FC7019D
:1013B0008C1B9D0BF89FD001F99FB00D11248B2F32
:1013C0002C9FB0012D9F700D1124672F7727570197
:1013D000A61AB70AFA9D6001FB9DD00C11247D2D41
:1013E0005701A21AB10895012C9F50012D9FB00CF6
:1013F0003C9FB00C1124AB2CBB24EA18FB08FE9DCB
:10140000E001FF9DD00D112443305105C1F00C3F88
:1014100093E0190750F44130510509F4A1CF42304F
:10142000510589F07E2FED2F9BCF4430510571F08F
:1014300046305105B9F3EB2F8D2D7F2F91CFED2D38
:101440007B2F8F2F8DCF7B2F8D2F8ACF7D2FEB2F53
:10145000F8CF1F93172F922FE42FF0E0EE0FFF1F0E
:10146000EA56FE4F408124EE429F412D1124E72F82
:10147000F0E050E09A01245E3F4F291B310937FF0D
:1014800003C031952195310993E0220F331F9A95BE
:10149000E1F7E21BF30BF7FF02C0E0E0F0E07E2F84
:1014A000719F712D11241F910895EF920F931F9337
:1014B000CF93DF93D62FC72F182FDA01F9010E191A
:1014C000080F9B2F90783097C9F037FF04C0222770
:1014D00033272E1B3F0BBD01620F731FB7FD1BC0CF
:1014E000CD01821B930B55E0880F991F5A95E1F7A8
:1014F0000E94893490E2961BF7FD9195091B019F8C
:10150000012D11246D2F7C2F802FDF91CF911F9102
:101510000F91EF900895CB0145E0880F991F4A95F0
:10152000E1F7B9016A1B7B0B0E94893490E6E3CF97
:10153000622F08950E94540B08950E945F0B089536
:10154000962F20916D0423702223A1F0882399F017
:10155000873098F48F73880F880F20916D04237063
:10156000822B80936D041092130160916C04692B9F
:1015700060936C04089581E0EECF86E0ECCF80911B
:101580006D04869586958F5F873008F081E061E075
:101590000E94A00A089590916D04969596958FEFFC
:1015A000890F913009F486E061E00E94A00A089555
:1015B000922F20916D042370222359F080936E04A2
:1015C00060936F044093700420916C04292B209346
:1015D0006C040895EDE6F4E0818190E021E0438120
:1015E000628108960E94D80A0895EDE6F4E08181B0
:1015F00021E0438162818850990B0E94D80A0895A6
:10160000EDE6F4E0628120E1620F08F46FEF818182
:1016100021E0438190E00E94D80A0895EDE6F4E0CD
:10162000628120E1621B08F460E0818121E0438156
:1016300090E00E94D80A0895EDE6F4E0438120E1AD
:10164000420F08F44FEF818121E0628190E00E9417
:10165000D80A0895EDE6F4E0438120E1421B08F446
:1016600040E0818121E0628190E00E94D80A0895E3
:10167000EDE6F4E0248130E1230F08F42FEF24831A
:1016800080916C04816080936C040895EDE6F4E031
:10169000248130E1231B08F420E0248380916C0432
:1016A000816080936C040895FC01EE0FFF1FE80F2A
:1016B000F91FE351FD4F6183408322830895FF9218
:1016C0000F931F93CF93DF93182F062FF42EC0E0B4
:1016D000D0E02F2D402F612FCE010E94540B219678
:1016E000C231D105B1F7CDB7DEB7E5E00C94D33404
:1016F000FA01882311F009950895FB01FCCF8115AB
:101700002CE5920741F42091970330919803232B05
:1017100011F480E090E00895EAEFF3E080E090E0DB
:101720006BE176E242E456E227EB36E277836683AA
:1017300051874087338722879587848701963E9615
:101740008830910599F70895FC01848186238111E1
:101750000AC082818823B9F06823908593FF05C071
:1017600081E061110FC080E00895282F22952F702D
:101770008F70282B962F92959F706F70962B81E01B
:101780002913F1CF089581E0FDCFE0919C03F09102
:101790009D03309729F00190F081E02D099508957F
:1017A00080E008952091560230915702281739079A
:1017B00071F09093570280935602E0919C03F09150
:1017C0009D03309721F00680F781E02D099508955B
:1017D00020915402309155022817390771F09093E7
:1017E000550280935402E0919C03F0919D03309741
:1017F00021F00084F185E02D099508952FB7F89424
:101800008091400390914103A0914203B091430322
:101810002FBF0895A4E0B0E0E0E1FCE00C94BA34FE
:101820008FB7F894209140033091410340914203D7
:101830005091430329833A834B835C838FBF698133
:101840007A818B819C812496E2E00C94D6340F93AC
:101850001F93CF93DF93D82FC92F4091F00350915E
:10186000F1036091F2037091F3032FB7F894809124
:10187000400390914103A0914203B09143032FBFD5
:10188000841B950BA60BB70B843F9140A105B105B6
:1018900028F56091F0037091F1038091F20390912B
:1018A000F30304EF11E020E030E06093480370930D
:1018B000490380934A0390934B030093440310938E
:1018C00045032093460330934703D093EE03C09320
:1018D000EF03DF91CF911F910F9108950E940A0CA1
:1018E00002E310E020E030E0E0CF9C014FB7F89435
:1018F0008091400390914103A0914203B091430332
:101900004FBF821B930B0895809153020895089551
:10191000FC019B0180912C0290912D028617970764
:1019200040F0672B29F48091E8008E778093E800DF
:10193000C90140E0009741F4411106C08091E800E0
:1019400082FF2FC080E0089520919B032223A9F1FC
:101950002530A9F12091E80023FD2DC02091E80059
:1019600022FDECCF2091E80020FFE4CF3091F3007E
:101970002091F200009719F02830310558F041E02D
:101980002830310509F040E02091E8002E772093BF
:10199000E800D0CF41914093F10001972F5F3F4F76
:1019A000E9CF80919B03882341F0853041F08091FD
:1019B000E80083FFC3CF81E0089582E0089583E0CB
:1019C00008958091260287FF13C08091E80082FF6E
:1019D00006C08091E8008B778093E80004C0809176
:1019E0009B038111F2CF089580919B038823D9F343
:1019F0008091E80080FFF8CF8091E8008E77ECCFEF
:101A00002091E4003091E50095E6A9018091EC0079
:101A10008170882331F08091E80080FF06C080E06B
:101A200008952091E80022FD1BC080919B0388232C
:101A300091F0853091F08091EB0085FD10C02091F0
:101A4000E4003091E5004217530701F391509111E2
:101A5000DCCF84E0089582E0089583E0089581E07A
:101A60000895E8EDF0E080818E7F80831092E2009F
:101A70001092DA001092E100A0EEB0E08C9181604B
:101A80008C9380818F77808319BCA7EDB0E08C9117
:101A90008E7F8C9380818F7E8083109225020895A3
:101AA000EF92FF920F931F93CF938C017B010E94C3
:101AB000000DC82F81110EC08091E80085FD11C076
:101AC0008091E8008E778093E8000E94000D8823C3
:101AD00099F3C82F8C2FCF911F910F91FF90EF900A
:101AE0000895F80180818093F100F1E0EF1AF10888
:101AF000E114F10479F30F5F1F4FDECFCF932091F4
:101B00009B032430F1F42091E900C091EC00C795CB
:101B1000CC27C7952F70C22B22E02093E90020919B
:101B2000E80020FF0BC040E050E060E270E00E945F
:101B3000500D8091E8008E778093E800CF70C093BD
:101B4000E900CF910895A0E0B0E0E9EAFDE00C944F
:101B5000B5347C01C0910201CC0FCC0F04E00C0F16
:101B6000D02E033110F082E1D82E309171043695D9
:101B7000369521E0320F08F43FEF40912703509152
:101B8000280380E090E0439F812D539F800D911D9D
:101B90001124182FD0E0CD1548F081E0023108F073
:101BA00080E0CDB7DEB7E7E00C94D134FE01E65417
:101BB000FE4F8081909103018923882391F06091E9
:101BC0006E0470916F0480917004212F4C2FF701E7
:101BD00009950E94A109462F672F282FCE010E9448
:101BE0009A0A2196D8CF982FE42FE2709093E900BB
:101BF000891308C0762F242F50E0E11111C091E025
:101C0000980FF4CF7091EC002091ED005091F0000E
:101C100021FD06C09F5F973049F78093E900089542
:101C20003091EB003E7F3093EB003091ED003D7F33
:101C30003093ED003091EB0031603093EB00709306
:101C4000EC002093ED005093F0002091EE0027FD72
:101C5000E1CF0895A0E0B0E0E0E3FEE00C94B434FE
:101C6000C8EDD0E088818F7E8883E7EDF0E0808149
:101C70008160808384E082BF81E080932502888137
:101C80008E7F888302EE10E0F80110821092DA0055
:101C900081EEC82ED12CF601108288818F7788833F
:101CA00088818068888388818F7D888319BC1092A1
:101CB0009B0310922402109234031092230290EEA0
:101CC000E92EF12CF70180818B7F808388818160F0
:101CD000888342E060E080E00E94F30DF60180819D
:101CE0008E7F8083F801808181608083808188601D
:101CF0008083F70180818E7F8083888180618883E3
:101D0000CDB7DEB7E8E00C94D0349FB7F8941092CA
:101D10002F029FBF90919B03943009F048C02091FF
:101D2000E9009091EC009795992797952F70922B49
:101D300025E02093E9002091EB0020FF35C02091A1
:101D4000EE0027FF31C020912E02222321F02091A6
:101D5000E80025FF29C010922E0226E03091E8000D
:101D600035FF14C08093F1008091E80085FD28C004
:101D70008091E80080FFFCCF8091E8008E7780930F
:101D8000E8009F709093E90080E0089530919B03F4
:101D9000343051F43091EB0035FD06C02150211153
:101DA00008C081E080932E029F709093E9008FEF2E
:101DB0000895EFE9FFE03197F1F700C00000CECFC2
:101DC0008FB7F89421E020932F028FBFDACF509A7B
:101DD0003BB13E7F2BB121604FB7F8948DEE92E07E
:101DE000FC010196508168E02BB9000000C057FF4C
:101DF0003BB9550F000000C000C000C03BB900C097
:101E00006A9591F753E08332950751F74FBF8FE5FD
:101E100094E00197F1F700C00000089581E08093FD
:101E2000E00080E28093D8001092C9008FE19EE428
:101E30000197F1F700C0000087E090EBDC01809390
:101E4000B8049093B904A093BA04B093BB0488E19A
:101E50009CE00FB6F894A895809360000FBE909315
:101E60006000FFCFCF93DF93D82FC92F809111014E
:101E70008823D9F08091B60487FF17C060E284E020
:101E80008093E9008FEF9091E80095FD07C095EDF4
:101E90009A95F1F7000081508111F5CF8091E8000B
:101EA00085FD06C0DF91CF91089568E081E0E8CF1D
:101EB0008091110170E040E050E0811104C040E0E9
:101EC00050E068E070E08D2F9C2F0E94500D8091B3
:101ED000E8008E778093E80080E2ED2FFC2FA3E3EB
:101EE000B2E001900D928A95E1F7DCCF24E02093D7
:101EF000E9002FEF3091E80035FD07C035ED3A9548
:101F0000F1F7000021502111F5CF2091E80025FFC5
:101F10000BC040E050E066E070E00E94500D809100
:101F2000E8008E778093E8000895809330027093E4
:101F300032026093310280919B038430F9F48093E4
:101F4000E9008FEF9091E80095FD07C095ED9A9517
:101F5000F1F7000081508111F5CF8091E80085FFF5
:101F60000DC040E050E063E070E080E392E00E944A
:101F7000500D8091E8008E778093E8000895BC01B1
:101F800083E00E94950F0895BC0184E00E94950FA4
:101F90000895882381F061E683E290E00E942C3569
:101FA00067E384E290E00E942C3565E185E290E0F1
:101FB0000E942C3508956FEF83E290E00E942C354B
:101FC0006FEF84E290E00E942C356FEFEFCF1F930C
:101FD000CF93DF93962F122F632F8430D8F498304D
:101FE000C8F44730B8F4C42FD0E0CC0FDD1F2EE08A
:101FF000929FC00DD11D112490E7899FC00DD11D66
:102000001124CE0187960E942C35612FCE0188962F
:102010000E942C35DF91CF911F9108951F93CF938C
:10202000DF93962F122F632F8430A0F4911112C0EA
:1020300094E0899FE0011124C951DE4FCE01442371
:1020400069F00E942C3581E090E0612F8C0F9D1F7C
:102050000E942C35DF91CF911F91089502960E9426
:102060002C3583E090E0F1CFCF93DF93C7E9D2E046
:1020700060E0CE010E942C352196C11584E0D8077E
:10208000B9F7DF91CF910895CF9384E090E00E945B
:102090000E35C82F82E290E00E940E35982F8C2FCB
:1020A000CF91089583E290E00E940E35813689F445
:1020B00084E290E00E940E35873359F485E290E087
:1020C0000E940E3591E0853109F090E0892F8170F2
:1020D000089580E0FCCF0F931F93CF93DF9384305C
:1020E00030F5683020F5473010F5C42FD0E0CC0F24
:1020F000DD1F2EE0629FC00DD11D112430E7839FAC
:10210000C00DD11D1124CE0187960E940E35082FD7
:1021100010E0102F0027CE0188960E940E359801FE
:10212000282BC901DF91CF911F910F91089580E075
:1021300090E0F8CF0F931F93CF93DF93843048F54F
:10214000611127C024E0829F8001112409511E4F94
:10215000C8014423A1F00E940E35C82FD0E0DC2F27
:10216000CC2781E090E0800F911F0E940E359E01E8
:10217000282BC901DF91CF911F910F9108950296ED
:102180000E940E35C82FD0E0DC2FCC2783E090E0F2
:10219000EACF80E090E0EECF462F672F20919903A1
:1021A00030919A03232BF9F4703F39F4403FD9F46E
:1021B0008091EB029091EC0208958430A0F4783085
:1021C00028F4473080F40E946B1008957D3F39F465
:1021D000411109C041E060E00E949A1008957C3FDF
:1021E00011F44423C1F380E090E00895A0E0B0E052
:1021F000ECEFF0E10C94B5347C0100917704809110
:102200007604082BC7E0D0E010E0C8010C2E02C015
:10221000959587950A94E2F780FD09C02197A8F764
:10222000D12C8D2DCDB7DEB7E7E00C94D134DC2E68
:10223000B7018C2F0E94CC100E94E706019771F322
:10224000F0CF0F931F93CF93FC0182810081118106
:10225000882391F0662381F0C8010E94F610C82FF0
:10226000682FC8010E94ED05B8018C2F0E94CC1088
:10227000CF911F910F910895C8010E940906C82FA0
:10228000F3CFCF93DF93D82FC92F0E94F6106D2F75
:102290007C2F0E94CC100E94E706DF91CF91089519
:1022A000FC0183819481892BC9F0818190818923EC
:1022B0008F3FA1F0808191810E944111282F92953A
:1022C0009F70963091F060F4925F9F70923030F47E
:1022D00081E0203F79F030F4283E30F080E004C007
:1022E0009A5FF3CF243FD1F7089581E0283E18F09C
:1022F000213FF9CF08950895CF9380917404909170
:102300007804892B8093FC0180917304882361F108
:102310000E94FE0B20917C0430917D04821B930B64
:102320008838934110F00E9499068091FC019091A9
:102330007304892B8093FC0180911101882309F497
:102340004CC08091B60487FF48C08DE190E02EEF2D
:1023500031E0F90140812F5F3F4F41119F5F815074
:10236000C0F791110E949906C091EA03C09580912F
:10237000FC01C8238091E903C82BC093FC0140E213
:1023800050E06EE973E08CEF91E00E94EA34892B13
:1023900011F180E2ECEFF1E0AEE9B3E001900D92D3
:1023A0008A95E1F7E0919C03F0919D03309799F0B5
:1023B00080911101882349F08091B60487FF05C000
:1023C000C093FD0186E08093FC010280F381E02D43
:1023D0008CEF91E00995CF91089585E0B7CF8823E0
:1023E00039F090917404892B809374040E947C11BD
:1023F0000895882339F090917804892B809378048C
:102400000E947C110895882321F00E9491060E9469
:102410007C110895882341F0809590917804892358
:10242000809378040E947C110895CF93DF93EC0190
:10243000EA85FB85309719F06C857D8509959B8130
:102440009095809178048923809378048C810E94F0
:1024500091060E947C1186E0FE0111928A95E9F7AF
:10246000DF91CF910895CF93DF93EC018D8181FDB2
:1024700018C082608D83809178049B81892B809322
:102480007804809174049C81892B809374040E9449
:102490007C11E885F9856C857D85309711F0CE013A
:1024A00009951092F7031092F6038D8180FD03C009
:1024B000CE010E941512DF91CF910895A4E1B0E002
:1024C000E4E6F2E10C94AD34C0909703D090980309
:1024D00081E090E090939803809397033BE8E32E8C
:1024E00033E0F32EA12CB12C10E0350100E015C033
:1024F000F40125913491452D602F812F0E94E70F23
:1025000022E0820E911C539437E05312F1CF87E002
:10251000680E711C0F5F083049F0C301880F991FC6
:10252000DC01A556BC4F4D01512CE2CFF70125919E
:10253000349141E060E0812F0E940E10F701329645
:102540002591349140E060E0812F0E940E10B4E0AC
:10255000EB0EF11C1F5F28E3A20EB11C143009F032
:10256000C4CF1A8219821C821B821E821D82188689
:102570001F8288EC90E09A87898707EF11E04AE094
:1025800050E0B801CE0101960E945035065F1F4F02
:10259000073432E0130799F7FE013B9689E0DF012B
:1025A0001D928A95E9F78FEF9FEF988B8F8787E0D1
:1025B0008C8B7F014AE050E0B801C7010E94503582
:1025C000065F1F4F0739B2E01B07A1F7D0929803AF
:1025D000C09297036496EFE00C94C93480E00E94A7
:1025E000C90F60E086E290E00E942C350E945E12E6
:1025F0000E94341081E00E94C90F089568EE7EEFBA
:1026000080E090E00E944A3560E082E090E00E9425
:102610002C3560E083E090E00E942C351092760427
:1026200060E084E090E00E942C3564E082E290E07B
:102630000E942C3560E085E090E00E942C3560E03F
:1026400086E090E00E942C356FEF87E090E00E94DA
:102650002C3540E050E0BA0188E090E00E943E3521
:1026600060E08DE090E00E942C3540E050E0BA013F
:1026700088E190E00E943E3560E087E190E00E94B2
:102680002C3540E050E0BA018CE190E00E943E35EC
:1026900060E070E080E290E00E944A3540E050E067
:1026A000BA0188E190E00E943E3580E00E94C90FA7
:1026B0000E94EE1240E050E0BA018FE090E00E94EC
:1026C0003E3540E050E0BA0183E190E00E943E35A3
:1026D0000895AAE0B0E0EFE6F3E10C94B0340BE625
:1026E00012E089E5C82E82E0D82E97E4E92E92E028
:1026F000F92E27E0922E38E5A32E32E0B32E88245F
:102700008394D6010D931D936D014AE050E0B7010B
:10271000CE0101960E94FE34F8013896DF01892D22
:102720001D928A95E9F789819A81D80111969C9327
:102730008E938F8112968C9312978D8113968C9322
:102740001397888514968C931497898515968C9386
:1027500015978B819C8117969C938E9316978A85EB
:1027600087FD04C01E96BC92AE921D9780FF02C0EA
:10277000F801808681FF07C0D80118969C911897B0
:10278000926018969C9382FF04C0F8019085946033
:10279000908783FF07C0D80118969C91189798607E
:1027A00018969C9384FF04C0F801908590619087EF
:1027B00085FF07C0D80118968C91189780621896EB
:1027C0008C93015F1F4FBAE0EB0EF11CE7E9EE16A8
:1027D000E2E0FE0609F095CF2A96ECE00C94CC34AA
:1027E000282FCB01283070F44AE0249F9001112457
:1027F000B90169507E4F4AE050E00E94FE3480E00B
:1028000090E008958FEF9FEF0895AAE0B0E0EBE02D
:10281000F4E10C94BA349C0197558F3F910509F06F
:1028200070F4BE016F5F7F4F822F0E94F013892BDF
:1028300031F489859A852A96E2E00C94D63488ECA6
:1028400090E0F9CF8091370383FF7EC082E896E065
:102850000E94AC048091DA031F928F938DE796E07B
:102860009F938F930E9445058BE796E00E94AC04EE
:102870008091DB03282F082E000C330B3F938F939E
:1028800088E796E09F938F930E94450586E796E040
:102890000E94AC048091DC03282F082E000C330B1F
:1028A0003F938F9383E796E09F938F930E94450514
:1028B00081E796E00E94AC048091DD03282F082E6A
:1028C000000C330B3F938F938EE696E09F938F938C
:1028D0000E9445058CE696E00E94AC048091DE03E0
:1028E000282F082E000C330B3F938F9389E696E038
:1028F0009F938F930E94450586E696E00E94AC0464
:102900008091D8031F928F9383E696E09F938F93D5
:102910000E94450581E696E00E94AC048091D603B2
:102920001F928F938EE596E09F938F930E944505AB
:102930008BE596E00E94AC048DB79EB74C960FB61F
:10294000F8949EBF0FBE8DBF0E94FE0B2091DB034B
:102950003091DC03232B222321F0809352039093A8
:1029600053032091DD033091DE03232B222321F03A
:102970008093500390935103E0919C03F0919D0349
:10298000309749F082E08093D9030480F581E02DEF
:1029900089ED93E009950895CF93C82F8823B1F16D
:1029A0008CEF8C0F813AA0F580911101882301F101
:1029B0008091B60487FF1CC0EC2FE695E695E6955E
:1029C000F0E0E450FE4F828190E04C2F477021E010
:1029D00030E002C0220F331F4A95E2F7822393238F
:1029E000892B79F08C2F0E9464060E947C1109C00B
:1029F000EEEFF1E08191C817A9F322E0E430F2078D
:102A0000C9F78C2F0E9430060E947C11CF91089547
:102A100080E28C0F883068F4C77081E090E001C0DC
:102A2000880FCA95EAF7C0917404C82BC093740448
:102A3000EBCF8BE58C0F833038F42C2F2452330BE3
:102A4000C9010E94D20BE2CFE8E5EC0FE73150F468
:102A5000F0E0EE0FFF1FE453FE4F808191810E9452
:102A6000E80BD4CFC03F90F28C2F0E94D8080E9470
:102A70002214CCCFCF93DF93EC01805E91090897AD
:102A800020F069EF71E1209711F46FEE71E1CE0152
:102A90000E9478058C2F0E94CC14DF91CF9108956D
:102AA000882379F19CEF980F913A28F40E946406EC
:102AB0000E947C11089590E2980F983050F487702E
:102AC00091E001C0990F8A95EAF7892F0E9491063B
:102AD000EFCF9BE5980F933028F480E090E00E94C0
:102AE000D20B089598E5980F973128F480E090E094
:102AF0000E94E80B0895803F20F00E942A090E945E
:102B0000221408950F931F93CF93C82F00E010E075
:102B1000893311F400E510E08C2F0E94CC140115CC
:102B2000110539F48C2F0E945015CF911F910F91F0
:102B300008958FE99FE00197F1F700C00000015070
:102B40001109EDCFA0E0B0E0E8EAF5E10C94B5346E
:102B5000D62E172FC42FD22F8823A9F040936A04B2
:102B60000E94FE0B9093200280931F02C77081E0A9
:102B700001C0880FCA95EAF70E94EF11CDB7DEB702
:102B8000E7E00C94D13480916A04481337C08091F7
:102B90001F02909120020E94750C7C018D2D912FB7
:102BA0000E940514E816F90648F5CD130CC0802FD5
:102BB0000E948215D77081E001C0880FDA95EAF78C
:102BC0000E940312DBCFC77011E0812F01C0880F74
:102BD000CA95EAF70E94031280E28D0F883050F404
:102BE0008D2F877001C0110F8A95EAF7812F0E94FF
:102BF000EF11DDCF802F0E948215C0CFC77081E01A
:102C000001C0880FCA95EAF7DBCFA0E0B0E0EBE0A7
:102C1000F6E10C94B534EC019881992309F49CC039
:102C20009130E1F599818A81913021F422960E94B8
:102C3000821505C0923029F422960E94CC14219668
:102C4000EBCF933021F422960E945015F8CF9430A8
:102C500011F02196F4CF229620E030E06AE0AE0138
:102C60004F5F5F4F8053990B8A30910560F02115BB
:102C7000310529F38FE99FE00197F1F700C00000CB
:102C800021503109F4CF629FF001639FF00D1124B0
:102C90009C012E0F3F1F8981EA01E1CFE92FF0E06F
:102CA000E45EFD4FD490292F26952695269530E099
:102CB000F901E45FFD4F84919770F901E450FE4FF4
:102CC000E490F12C092E02C0F594E7940A94E2F7FF
:102CD00041E0E422FF24F901E451FE4F049110E0A9
:102CE000092E02C0159507950A94E2F70170112785
:102CF000E82FF0E002C0F595E7959A95E2F7E0FD40
:102D00000CC0E114F104A1F48D2D0E94821501156F
:102D1000110509F494CF8CE28ACF81EE0E94CC1485
:102D2000E114F10479F48D2D0E94821581EE07C023
:102D300086EE0E94CC148D2D0E94821586EE0E9494
:102D40005015E5CF86EE0E94CC148D2D0E94821581
:102D500086EE0E945015EACFCDB7DEB7E7E00C94BF
:102D6000D1341F93CF93DF93182FA091EC03B09130
:102D7000ED03109709F44AC01092EF031092EE038E
:102D80001092EA031092E9031696CD91DC91179701
:102D9000CE019A9581159F4108F4D07ED1E0C111F2
:102DA00001C0D0E01996ED91FC911A97309731F05F
:102DB0001B966D917C9180E00995D823DD2339F035
:102DC0008CEF8C0F813A30F58C2F0E946406112312
:102DD000A9F0E091EC03F091ED03808584FD0EC035
:102DE0008091EB03882351F0808191819C012150D7
:102DF0003109203B3D4510F40E94270C0E947C11B4
:102E00001092ED031092EC031092EB03DF91CF913F
:102E10001F9108950E947C118C2F0E945015D7CFCE
:102E200080E090E00E94D20B80E090E00E94E80BEE
:102E3000109278040E947C1186E0E9EDF3E0DF0156
:102E40001D928A95E9F71092D8031092D703109239
:102E5000D6030E94221408951092740480911101E7
:102E6000EEEFF1E0882361F08091B60487FF08C09F
:102E70008EE1DF011D928A95E9F70E9410170895EF
:102E800086E0F7CF0E942C172FEF84E39CE02150BF
:102E900080409040E1F700C0000088E19CE00FB660
:102EA000F894A895809360000FBE90936000FFCFC8
:102EB000AAE2B0E0EEE5F7E10C94B93486E292E0E4
:102EC000FC0101962091F100208322E08E329207CE
:102ED000B9F780912702893009F456C0C8F48230CE
:102EE00009F4B3C0833009F482C0813071F180915C
:102EF000E80083FFE7C080912602909127029A3074
:102F000008F0E0C0E92FF0E0EA57FA4C0C949D3449
:102F10008A3009F489C08B3051F7809126028132C2
:102F200031F780912A0290912B02892B01F7809131
:102F3000E800877F8093E8000E94E10C80912802DE
:102F4000809311010E942C17D2CF80912602813AE2
:102F500071F68091E800877F8093E80080912A02D3
:102F600090912B02892B61F060E080E090E070E0AE
:102F70000E94880C8091E8008B778093E800B7CF9F
:102F800060E283E392E0F3CF80912602813209F080
:102F9000AECF80912A0290912B028D7F892B09F070
:102FA000A6CF8091E800877F8093E8008091E800B9
:102FB00082FF18C09091F3008091F200029731F4E3
:102FC0008091F100813011F0863021F48091F10080
:102FD000809353028091E8008B778093E8000E94F1
:102FE000E10C85CF80919B038111E0CF80CF809150
:102FF0002602813A09F07BCF80912A0290912B0220
:10300000892B09F074CF8091E800877F8093E800D6
:103010008091E80080FFFCCF809111018093F10046
:103020008091E8008E77D9CF80912602813209F015
:103030005ECF8091E800877F8093E8000E94E10CDA
:10304000809129028093210252CF80912602813AF9
:1030500009F04DCF8091E800877F8093E800809150
:10306000E80080FFFCCF80912102D8CF803889F022
:10307000823841F580912A028F70873018F580934D
:10308000E9008091EB0085FB882780F91092E90028
:1030900006C0809123029091340391118260909137
:1030A000E800977F9093E8008093F1001092F10080
:1030B0008091E8008E7723C0811116C0809128028C
:1030C000813011F18091E80083FF0AC08091E8000F
:1030D000877F8093E8008091EB0080628093EB0013
:1030E000AA96E3E00C94D534823061F780912802EF
:1030F000882389F01092E9008091E800877F80930F
:10310000E8000E94E10CDECF81E0933009F080E01E
:1031100080933403EFCF80912A028F702FEF280F16
:10312000263080F68093E9002091EB0020FFE2CF6B
:10313000933031F48091EB0080628093EB00DACF22
:103140009091EB0090619093EB0021E030E0A901B9
:1031500002C0440F551F8A95E2F74093EA0010928F
:10316000EA008091EB008860E8CF8111ABCF10912D
:1031700028021F778091E3008078812B8093E30001
:103180008091E800877F8093E8000E94E10C8091A5
:10319000E80080FFFCCF8091E30080688093E3002B
:1031A00083E0111101C082E080939B038BCF805894
:1031B000823008F087CF40912802509129024C3D7F
:1031C00083E0580799F583E08A838AE289834FB7C1
:1031D000F894DE01139620E03EE051E2E32FF0E0A8
:1031E00050935700849120FF03C082958F703F5FFA
:1031F0008F708A30C8F0895C90E08D939D932F5F2B
:10320000243161F74FBF8091E800877F8093E80009
:103210006AE270E0CE0101960E94880C8091E8007D
:103220008B778093E8004ECF805DE6CF80912A02B5
:1032300090912B02252F33272330310509F44AC002
:1032400078F52130310509F483C08BE790E0ECE993
:10325000F2E02230310509F035CF2091E800277FD8
:103260002093E80020912C0230912D0282179307C1
:1032700008F49C0140E02115310509F06EC04111B0
:103280006CC08091E80082FDC9CF80919B038823A8
:1032900029F2853019F28091E80083FFF2CFBECF8A
:1032A0002132310509F445C02232310509F00ACF37
:1032B0008430910508F006CFFC01EE0FFF1FE95D99
:1032C000FE4F0190F081E02D8D5D9E4FDC018C91D1
:1032D00090E010C0CA019927423019F1833091055E
:1032E00068F4892BB1F4E3E7F3E0E4918E2F90E0EA
:1032F000E3E7F3E0009709F4E5CEAFCF039709F0D9
:10330000E1CEE9E2F3E0E4918E2F90E0E9E2F3E030
:10331000F1CFE5E6F3E0E4918E2F90E0E5E6F3E00F
:10332000E9CFE7E4F3E0E4918E2F90E0E7E4F3E007
:10333000E1CF8430910508F0C5CEFC01EE0FFF1FF0
:10334000E15DFE4F0190F081E02D89E090E085CFB6
:1033500082E190E0E7E1F3E080CF80919B03882356
:1033600009F45CCF853009F459CF8091E80083FDE2
:1033700055CF8091E80082FD84CF8091E80080FFE6
:103380007ACF9091F3008091F2002115310519F068
:103390008830910550F041E0089709F040E08091B5
:1033A000E8008E778093E80066CF44914093F10067
:1033B0003196215031090196E8CF803809F082CE4C
:1033C0008091E800877F8093E800809124028093B9
:1033D000F1006ECE811176CE10912802123008F0E5
:1033E00071CE8091E800877F8093E80010932402DB
:1033F0000E94E10C1123F9F084E080939B0342E0EA
:1034000061EC81E00E94F30D42E261EC84E00E94F5
:10341000F30D42E261EC82E00E94F30D42E260ECC7
:1034200083E00E94F30D42E261EC85E00E94F30D1F
:1034300080919B0347CE8091E30087FDDDCF81E043
:10344000DCCF809376040E94101708958093770450
:103450000E941017089521E030E001C0220F8A95E4
:10346000EAF780917704822B0E94261A08959091A2
:10347000B70492FF10C098E0899F90011124622B3D
:10348000609379040E942B1A0E94FE0B90937B0498
:1034900080937A0408950E942B1A089521E030E069
:1034A000A90102C0440F551F8A95E2F7CA01809511
:1034B0009091770489230E94261A08952091790417
:1034C0008095822380937904982F9770911117C06B
:1034D00030E0482F082E000C550B2417350779F0E3
:1034E0009091B70492FF0BC08595859585950E94B4
:1034F0004E1A1092790410927B0410927A04089567
:10350000CF93C091B704C2FB992790F9981791F017
:1035100080FBC2F9C093B7046091B60484E090E0E8
:103520000E942C356C2F82E290E00E942C3582E0C4
:103530000E945E1ACF91089580917704982F96701B
:10354000963021F488600E94261A0895877FFBCF69
:10355000A5E0B0E0EEEAFAE10C94AA347C01DC01CB
:103560009C9111968C91119713962D913C91232B40
:1035700009F420C189238F3F09F41CC161E0C70110
:103580000E9421118C01F7018281882311F40C948F
:1035900007238091F6039091F7030097E1F0081755
:1035A0001907C9F0FEE08F9FC0011124FC01E15012
:1035B000FC4F20812460208386509C4FDC010D93BA
:1035C0001C930E94331210927804F70182818823A1
:1035D00011F40C940723C80182519F45409720F1B4
:1035E0000031FFE51F0709F4CFC082E001312FE56C
:1035F000120709F4CAC00F35FDE51F0709F413C20D
:1036000000362DE5120751F0509012010E354DE5B0
:10361000140709F05BC2552009F405C2109212018B
:1036200080E00E94B116B5C08FEF93E00E940E3586
:103630008111AFC05EEED52ED00E07E912E0D11099
:103640003CC08091140190911501A0911601B09198
:10365000170189839A83AB83BC8368015FEFC51A26
:10366000D50AC8010E940E3589831A82882309F47D
:1036700090C0813009F082C0580182E0A80EB11CD0
:10368000C6010E940E35D82E8A83882309F481C092
:10369000C5010E940E35C82E8FEF8D0D8330D8F4F2
:1036A000CB82CC2021F0CE0101960E940516580154
:1036B00093E0A90EB11C8501D0CF011544E0140799
:1036C00009F467C0C8010E940E350F5F1F4F8111BA
:1036D000F4CFDA94B4CF8BEF8D0D833040F55801E1
:1036E000A3E0AA0EB11CCB82CC2029F3C5010E9415
:1036F0000E358C83882381F08B819C818130BFEFD4
:103700009B0710F0982F8827E6E0DE1651F0F7E0CF
:10371000DF1651F00E940E26580124E0A20EB11CC3
:10372000CACF0E94B625F8CF0E94DA25F5CF44E033
:10373000D412C1CF580154E0A50EB11CC8010396A4
:103740000E940E35CC2029F1882319F18150990B64
:103750004FEF489F9001499F300D1124AC2DA1508F
:10376000BB0B2A0F3B1F2150310908F4A4CFEFE90E
:10377000FFE03197F1F700C00000F5CFCE010196D0
:103780000E940516560197CF81E00E942B1A0E94D5
:103790009C1A809179048770882361F0D701129672
:1037A0008C91882339F08091B70482FF03C082E0B6
:1037B0000E945E1A2596E2E10C94C63481E00E94D4
:1037C0004E1AE5CF011527E5120708F430C101159F
:1037D00048E5140708F032C1680157E5D51A6FEDC6
:1037E00073E08C2D0E94F013892B19F58EE08C9DCF
:1037F000F0018D9DF00D1124E650FC4F8281813047
:10380000D9F48091DF039091E003892B91F08091AE
:10381000E1039091E203892B61F08091E3039091A1
:10382000E4032091E5033091E603822B932B892B4F
:1038300059F0F70152801BC08230D9F78091E30321
:103840009091E403892BA9F32EE02C9DC0012D9DBE
:10385000900D1124FC01E150FC4F20812E7F20832C
:1038600086509C4F0E943312D70112965C90809133
:103870001201882309F435C14801B0EE8B1A910872
:103880004090750480917404482A80917304482AFA
:10389000E8E08E16910408F081C198012770332763
:1038A00081E090E001C0880F2A95EAF7552009F4DD
:1038B00072C1482AD7018D919C910E94090621E08E
:1038C00030E0190102C0220C331C8A95E2F76090A7
:1038D000EC037090ED031D82BD81EB2FF0E0EE0F45
:1038E000FF1FE75AFD4FC080D180C114D10409F4F5
:1038F000D2C1411004C0F601828181119CC1D60160
:1039000013968C91139790E082219321892B09F4CF
:1039100092C118968C91982F977091117EC1B8E042
:103920008B16910408F08BC151107FC1F601A08065
:10393000B1800A151B0509F47EC1C614D70409F429
:103940007AC1D6011D96ED91FC91309721F08081CE
:10395000882309F470C1642DC6010E94A40B88233A
:1039600009F469C10A151B0511F4511005C0A11411
:10397000B10409F06CC1512C80E00E94B116D092C4
:10398000ED03C092EC0381E08093EB03F6018581A7
:103990008093EA0351100DC0AB2859F080819181CA
:1039A0009C0124503109213A310508F058C10E9488
:1039B0006406F601A680B780C5019A9581159F41DE
:1039C00010F420EEB22277247394C5010197803B56
:1039D0009D4508F0712CD6011996ED91FC911A972E
:1039E000309731F01B966D917C9181E0099578229A
:1039F00081E05826772009F44BC1F6018681978132
:103A00000E944E058093E903C501F8E08F169104EA
:103A100008F028C10E94270C0E947C11511003C697
:103A20000E947C11B6CE81E080931201B2CE8091CB
:103A30001201882309F4F7C5512C1ECF8091120181
:103A40008111FACFD70112968C91033FFCE51F0735
:103A500009F483C108F05EC1083D4CE5140709F480
:103A600076C1093D5CE5150709F48FC1073D9CE56A
:103A7000190709F464C1D70112968C91882309F4BF
:103A8000B1C110926A0402362DE5120708F0D6C1C2
:103A900006314CE5140708F0BAC102305CE51507A1
:103AA00008F464C30E9444109093B7048093B60452
:103AB000F801E350FC458091B6048160E331F105E3
:103AC00008F078C1E057FA4C0C949D345110D4CED4
:103AD000F7018281980137552F3F310511F008F029
:103AE000B4CF5801BB24BEE00B9FF0011124AF01FD
:103AF00046505C4F6A01D70112968C91E150FC4F01
:103B0000908180FB90F99083882309F4F3C00E9490
:103B1000FE0B9093F9038093F803D60112968C91D3
:103B200012978F5F12968C931297809178049091E0
:103B30007404892B13968C931397809173041496B5
:103B40008C9314971696ED91FC911797309729F066
:103B50001C966D917C91C60109958EE08A9DF001BD
:103B60008B9DF00D1124E650FC4F858181FDBFC077
:103B7000902F812F9093F6038093F703F7018281B2
:103B8000811109C10631FCE51F0709F430C180919C
:103B9000740482728DC2809548228CCE51102AC046
:103BA0008091F4039091F5030817190781F410929E
:103BB000F5031092F4031092F0031092F1031092A7
:103BC000F2031092F3031092EF031092EE03E091D0
:103BD000EC03F091ED03309709F47ACF8081918165
:103BE0000817190709F074CF1092EB0380E00E94C8
:103BF000B1166ECF1093F5030093F4030E940A0CE4
:103C00006093F0037093F1038093F2039093F303B6
:103C10001092EF031092EE034DCEE8E08E16910461
:103C200088F4552031F081FF06C0D601AD90BC90DC
:103C300084CE82FD7BCE9D819F5F9D834DCE5110B2
:103C4000F4CFF9CF5520B9F380FFF5CFEECF8091B7
:103C5000F4039091F5038A159B0569F78CCE0E94B9
:103C60005015A7CE0497813A910530F48A2D0E9411
:103C7000300651102DCFD4CE0E947C118FE39CE9E9
:103C80000197F1F700C000008A2D0E94CC14F1CFFB
:103C90000E947C11EECF6114710409F419CFA8E0E1
:103CA0008A16910490F4642DC3010E94A40B811123
:103CB00003C081E00E94B116D70112968C91811148
:103CC000E0CE0631BCE51B0760CFF3018081918116
:103CD0000817190739F4552009F486CF808585FD2A
:103CE000F7CE84CF552009F4F3CE8085F8CF90E04D
:103CF00080E040CFDA0115968C9181FFDDCFCA01BB
:103D00000E941512F7018281811166C006314CE5CF
:103D100014073BCF053FACE51A0759F1063FBCE558
:103D20001B0769F1043FECE51E07E9F0F70182810A
:103D3000811165C00D35100709F42BCD8EC006E248
:103D400021EE41EE67ED7CE50E94A21522CD07E24F
:103D500025EE45EE68ED7CE5F7CF06E221EE40EE7C
:103D600063EF7CE5F1CF07E225EE44EE64EF7CE5FE
:103D7000EBCF06E221EE42EE65EF7CE5E5CF07E210
:103D800025EE46EE66EF7CE5DFCF08E221E045EE6A
:103D900069ED7CE5D9CF10926A0401362DE5120752
:103DA00009F076CE0E9444109093B704809584FB6E
:103DB000809584F98093B6046091B6041091B7049D
:103DC00084E090E00E942C35612F82E290E00E9416
:103DD0002C350E942C17DDCC10926A0401365DE56B
:103DE0001507DECF0631BCE51B0709F059C18091EC
:103DF0006B04811153C189E20E94640611CE1092B6
:103E00006A040136FDE51F0709F03DCECBCFC8019E
:103E10008A5F9C45099708F017C10E94441090934F
:103E2000B7048093B604F801EB5FFC45E830F10578
:103E300008F086C0ED55FA4C0C949D34053A8DE59A
:103E4000180709F452C0C8018D5A9D45039708F41C
:103E500055C0073A1D4509F4A2C1F7018281C0800F
:103E6000D180882309F49FC1C6010E94F610182F43
:103E7000682FC6010E94ED05B601812F0E94CC106B
:103E80000E94E7068C01D7011296DC9012971596D6
:103E9000BC90B2942FE0B22280917904877088237D
:103EA000C1F0AD2CDD20B1F0812F807F803421F076
:103EB00080E2800F883068F08091B70482FF09C0EB
:103EC00082E00E945E1A809179048770AA24A394EC
:103ED0008111A12CE12FE295EF70103C08F0D2C1C6
:103EE000F0E0E555FA4C0C949D340E9444109093F8
:103EF000B704809580FB809580F95CCF0E944410C8
:103F00009093B7048093B6048091B70488600D3A0B
:103F1000ADE51A07C1F00E3ABDE51B0709F08DC0EB
:103F20008091B704877F0FC08091B604826042CF32
:103F30008091B60484603ECF8091B60488603ACF09
:103F40008091B70481608093B70436CF8091B70425
:103F50008260F9CF8091B60480612CCF8091B60445
:103F6000806228CF8091B604806424CF0E942C17F1
:103F70008091B60480681ECF8091B6048C601ACF01
:103F80008091B7048360DFCF8091B6048E7F12CF1B
:103F90008091B6048D7F0ECF8091B6048B7F0ACFBF
:103FA0008091B604877F06CF8091B7048E7FCBCFF8
:103FB0008091B7048D7FC7CF8091B6048F7EFACEF3
:103FC0008091B6048F7DF6CE8091B6048F7BF2CEC1
:103FD0000E942C178091B6048F77ECCE8091B604A6
:103FE000837FE8CE8091B7048C7FADCF8091B604FB
:103FF00082FB992790F921E0922790FB82F990FBB0
:1040000083F9D8CE8091B704982F909591708E7FC8
:10401000892B90FB81F997CF0E942C179091B604C1
:10402000892F97FB87F98058C5CE61E08EE090E03C
:104030000E942C35C1CE60E0F9CF9091B704892F52
:10404000877F93FF88607FCF0631ECE51E07A9F0DC
:104050000B35FDE51F0709F4A4C008F483C00C3537
:104060001D4509F0FACE8091B70482FB882780F9BC
:1040700091E089270E94801AF0CE809174048A7A98
:1040800091E0811101C090E090936B04882321F0AE
:1040900085E30E943006C4CC89E2FBCF85E3ACCE39
:1040A000809174048272063D5CE5150708F042CEEB
:1040B000023C9CE5190708F4D0CEF801E25CFC450F
:1040C000E431F10508F0C9CEE954FA4C0C949D3462
:1040D00080916D0491E0892780936D041092130103
:1040E00080916C04816080936C0453CB4BEC5AE05C
:1040F0006FEB7AE00E94780B4CCB4FEB5AE06BEC05
:104100007AE0F8CF45EF5AE06AEE7AE0F3CF4AEE74
:104110005AE065EF7AE0EECF4EE05BE060E07BE0F6
:10412000E9CF40E05BE06EE07BE0E4CF4AE25BE0B9
:104130006CE17BE0DFCF4CE15BE06AE27BE0DACF71
:1041400046E45BE068E37BE0D5CF48E35BE066E410
:104150007BE0D0CF61E081E00E94A00A1ACB61E051
:1041600082E0FACF0E3DACE51A07B9F081E00A35DE
:10417000BDE51B0709F47ECF01151C4509F06DCE86
:104180000E942C17FFEF24E34CE0F1502040404008
:10419000E1F700C000000E940E0F0E94FE120E9474
:1041A000421780E067CFC6010E940906182F64CE2F
:1041B000B12FBF70CB2E103118F0C29490EFC922EE
:1041C000DD20B9F0CC2069F080E2800F883010F05B
:1041D000011109C0809174048C29809374040E9499
:1041E0007C11802F4DC0809178048C2980937804B5
:1041F000F6CF802F0E945015CC2009F443C080E2F6
:10420000800F883010F0011104C08C2D0E9491069F
:1042100006C0C094809178048C21809378040E9419
:104220007C1130C0E12FEF70CE2E107F103219F0CC
:10423000C29480EFC822002399F0013009F48EC0A7
:10424000DD2009F497C0BB2009F465C0D70115969D
:104250008C91159780FFC5CF8F7015968C935BC09E
:104260009091B70492FD2DC0DD2029F1CC2039F0CA
:10427000809174048C29809374040E947C1180E0E6
:104280000E94CC14AA2009F48BC18091790480FD8E
:1042900087C1F70112828595859585950E942B1A15
:1042A000C7010E94A81A8091790485958595859506
:1042B0000E944E1A75C180E00E945015CC2011F367
:1042C000A4CFDD2051F1B11006C0809173048C2978
:1042D0000E94EF11D7CFF1E0BF1211C0809173049B
:1042E00092FFD0CF1C2D182B181761F20E94FE0BE5
:1042F00090937D0480937C0410937304C3CF25E0D6
:10430000B212E3CF0E949906909175048C2D892BEF
:104310008913809375048C2DDBCFB11003C00E94EC
:10432000990613C041E0B41214C0809174048C212A
:10433000882309F4A7CF0E949906909175048C2DCB
:10434000809589238913809375048C2D0E94031214
:1043500099CF55E0B51609F495CFE1CFDD2029F0CE
:1043600085E08B1508F48ECFD6CF94E09B1508F42A
:1043700089CFEBCFBB2049F3093349F4BFEFE7EE18
:10438000F3E0B150E040F040E1F700C00000802FC2
:104390000E94501577CF812F86958695837088234C
:1043A00061F0813009F06ECFC8019370D11002C066
:1043B00080E090E00E94E80B65CFC8019370D110B7
:1043C00002C080E090E00E94D20B5CCF802FDD2005
:1043D00029F00E94D8080E94221454CF0E942A0972
:1043E000FACF812F8370811134C0D11027C0402FA4
:1043F000429546954770440F440F802F8F70042ECE
:1044000001C0880F0A94EAF70071002341F02FE001
:1044100030E001C0220F4A95EAF7022F0095169569
:1044200016951370123081F0133061F020917604EC
:10443000113039F0802B82230E94211A0E94C50B73
:1044400021CF822B802BF8CF802B90917604892767
:10445000F3CFDD2051F110FFF1CF402F429546956B
:104460004770440F440F802F8F70042E01C0880FB7
:104470000A94EAF70071002341F02FE030E001C018
:10448000220F4A95EAF7022F00951695169513709C
:10449000123089F0133069F020917704113041F027
:1044A000802B82230E94261AC9CF823038F2D5CFC2
:1044B000822B802BF7CF802B909177048927F2CF26
:1044C0001F70DD2039F0812F0E942B1A802F0E944F
:1044D000EF11B4CF802F0E940312812F0E944E1A39
:1044E000ADCF023F69F178F4003FC1F0013F09F41C
:1044F0003EC0DD2009F479C0BB2009F473C0802FD1
:104500000E94CC149BCF033F11F1043F61F1D11005
:10451000F3CFB11078C0812F8F71E0CFDD2069F02B
:1045200024E02B1508F48ACF1F7181E090E0012E62
:1045300001C0880F0A94EAF7BFCF45E0B416F2CF66
:10454000812F8F71D110CACF0E942B1A77CF80E0B4
:10455000DD2009F4A7CF1F7181E0012E01C0880F73
:104560000A94EAF79FCF8091B70482FD06C0812F9D
:104570008F71DD2009F4B2CFE7CFDD2011F18091FA
:1045800079048770843089F41092790410927B0446
:1045900010927A04812F8F710E944E1A0E94C50BCF
:1045A00060E0C7010E94211105C954E05B15B0F31A
:1045B0001F71812F0E942B1A63E0812F0E94371AEE
:1045C000EDCF84E08B1550F41092790410927B04A7
:1045D00010927A0464E0812F8F71F0CF81E00E9405
:1045E0005E1ADCCF812F8F71AFCFBB2009F493CF40
:1045F000093349F49FEFA7EEB3E09150A040B040DB
:10460000E1F700C00000802F0E94501517CF003145
:10461000FFE51F0709F4D2C801312FE5120709F0A1
:10462000D1C882E0CCC8D70112968C91882309F4B6
:1046300048CB10926A040136EDE51E07B1CBA0E02D
:10464000B0E0E5E2F3E20C94B5348091B50480313A
:1046500008F04FC08091B204882309F44AC0C09189
:104660007F0486E0D82E80917E048C1709F441C027
:104670002091B0043091B1048091B3049091B404BE
:10468000D0E00097D9F1432F42234F3FB9F1DC9E90
:104690008001DD9E100D1124F801E058FB4F41818F
:1046A00034132CC03081321329C02281211126C03D
:1046B000E380F480E81AF90A60E080EB94E00E945D
:1046C00021110E940514E816F906C0F48091B50482
:1046D0008F7080618093B504F801EB57FB4F8081A8
:1046E0008F708061808380EB94E00E94A81A0E9402
:1046F0002606CDB7DEB7E7E00C94D1342196C7701B
:10470000B2CFABE0B0E0E7E8F3E20C94AD348C015B
:1047100085E0F801DE01179601900D928A95E1F788
:10472000D801CC9011967C90119712966C901297AC
:104730001396ED90FC9080EBA82E84E0B82E90911B
:10474000B0048091B1042091B3043091B4042115D8
:10475000310509F45AC189238F3F09F456C1D0901D
:10476000B2044701821A930A60E0DD2009F405C112
:10477000C5010E9421110E9405145090B5048816AD
:10478000990608F0C6C08091B0049091B1042091C0
:10479000B3043091B404BFE0B51508F473C0B62C6F
:1047A000232BE9F0282F29232F3FC9F0F80121817D
:1047B000291315C09081981312C061101EC0852D59
:1047C0008F7080618093B50480EB94E00E94A81AFA
:1047D0008091B504D80115968C93B12C4EC0E1148C
:1047E000F10489F08C2D87218F3F69F0E0917F04DF
:1047F00080917E0496E06620E1F08091B5048160AE
:104800008093B504EACF662041F3F7CF2E2F30E036
:104810009E9FF0011124E058FB4F4181471106C0D3
:104820004081C41203C042814111D7CFF9013196B2
:10483000E770E813EBCF8F8198850E944111292FF3
:1048400022952F70903248F49F70992311F088239D
:10485000A1F0805E883088F004C0225F2F70223083
:1048600028F0C8010E94A81ABD2C07C09F70992388
:1048700081F3F8019581903160F78B2D2B96EFE055
:104880000C94C934232BE9F0282F29232F3FC9F09A
:10489000D80111962C911197291313C09C9198134C
:1048A00010C061100EC015965C92C8010E94A81A33
:1048B00086E0F801A0EBB4E001900D928A95E1F753
:1048C00025C0C8010E945011882309F494C06620B5
:1048D00009F491C08091B504803270F08091B004E9
:1048E0009091B1049A8389831B82FD82EC825E825F
:1048F000CE0101960E94A81A86E0F801A0EBB4E070
:1049000001900D928A95E1F70E941F23BB24B39476
:10491000B4CFBFE0B51550F080EB94E00E94A81A28
:1049200086E0F50111928A95E9F757CF8091B0049E
:104930009091B1042091B3043091B404232B09F277
:10494000282F29232F3F09F4BCCFD80111962C9191
:1049500011972913B6CF9C919813B3CF6110B1CFA3
:1049600015965C92C8010E94A81AE0EBF4E086E07C
:10497000DF011D928A95E9F7C9CF80EB94E00E9490
:1049800021110E94051488169906C8F5662099F130
:104990008091B0049091B1042091B3043091B4049B
:1049A000232BF9F0282F29232F3FD9F0F80121815B
:1049B000291317C09081981314C08091B50480FD0D
:1049C00077CF803108F474CF8583982F907F903F04
:1049D00009F46BCF982F907F905F8F70892B858320
:1049E00064CFC8010E945011811186CF8091B50417
:1049F00081608093B504C8010E94A81A87CF86E021
:104A0000D5011D928A95E9F7E8CE6620A1F3C80189
:104A10000E945011882379F36FCFA7E1B0E0E3E162
:104A2000F5E20C94B9344B8B5C8B162F6D8B7E8B1F
:104A30008F8B6111109278041A8A85E0FE017396BB
:104A4000DE011D9601900D928A95E1F78091B704E1
:104A500082FF1FC00E94FE0B20917A0430917B04DC
:104A6000821B930B8838934138F08091790482FD42
:104A700003C082E00E945E1A0E94FE0B20917C041B
:104A800030917D04821B930B8838934110F00E9473
:104A900099061F8786E0FE013D96DE01179601907C
:104AA0000D928A95E1F7CE0107960E94812381112C
:104AB00013C086E0FE013796DE01119601900D923B
:104AC0008A95E1F78F81988520917E0440917F043B
:104AD0006A857B85672B59F416E080917F0490915D
:104AE0007E04891331C06796E3E00C94D5348923A2
:104AF0008F3F91F330E0C90101968770992750E00C
:104B00008417950771F40E942C1710927E0410925E
:104B10007F0486E0E0EBF4E0DF011D928A95E9F77F
:104B2000DBCF96E0929FD001939FB00D1124A05847
:104B3000BB4FFE01319601900D929A95E1F780935B
:104B40007E040E942606C8CF189FC00111248058F9
:104B50009B4F0E948123882331F280917F0490E053
:104B600001968770992780937F04B7CFA5E0B0E0C6
:104B7000ECEBF5E20C94BA349093EC028093EB02E8
:104B8000811520E2920730F40E943A152596E2E062
:104B90000C94D63480EF89838A8381E08B830E94D2
:104BA000FE0B8160782F49815A816B81892F0E9489
:104BB0000D25ECCFA5E0B0E0E0EEF5E20C94B834C2
:104BC0008C019093EC028093EB02011580E21807B0
:104BD000B0F4802F0E945015C801805E910908979B
:104BE00028F06AE072E10115110511F463E072E149
:104BF000C8010E9478052596E4E00C94D43480EF37
:104C000089838A831B820E94FE0B8160782F4981F1
:104C10005A816B81892F0E940D25EDCFCF93DF93B1
:104C2000D82FC92F0E94B6258D2F9C2F0E94DA25E0
:104C3000DF91CF9108950F931F93CF93DF938C0152
:104C4000862F6FED73E00E94F013892BB1F4C091B1
:104C5000DF03D091E003209781F0F8018281833057
:104C600051F4CE010E940E26CE010E940E26CE01E6
:104C70000E940E2602C08430D0F7DF91CF911F91A1
:104C80000F9108950F931F93CF93DF938C01EB0146
:104C90006FED73E08C2F0E94F013892B09F05AC03E
:104CA000FE01FF27D80112968C911297ED51FD4F0E
:104CB0008130A9F415968C9182FD51C080FF4FC0C0
:104CC00082E080838091E1039091E2030097B9F440
:104CD0008091DF039091E0030097E1F110C08230F2
:104CE000B9F515968C9182FD28C080FD0BC083E03C
:104CF00080838091E3039091E403009701F10E9487
:104D0000B62528C084E080838091E5039091E60376
:104D10000097A9F78091DF039091E003009711F1CC
:104D20000E940E268091E1039091E203009739F7EB
:104D30008091DF039091E003E2CF85E08083809152
:104D4000DF039091E003009729F00E940E26F0CF38
:104D500086E08083DF91CF911F910F91089581E0CC
:104D60008083B6CF8091E1039091E203B5CF0F939A
:104D70001F93CF93DF938C01EB016FED73E08C2FCA
:104D80000E94F013892B71F4DD27CD51DD4F88810E
:104D9000F801128218828330F1F048F4813059F022
:104DA000823081F0DF91CF911F910F91089584306F
:104DB000B9F08530B9F78091DF039091E003009757
:104DC00089F306C08091E1039091E203009799F383
:104DD0000E94DA25E7CF8091E3039091E403F6CFB8
:104DE0008091E5039091E603009791F72091DF030E
:104DF0003091E0038091E1039091E20321153105A8
:104E0000F1F2009729F7C901E3CF46E050E06CE1E9
:104E100070E08DE694E00E941C3510926C040895B9
:104E2000EDE6F4E089E0808380911801909119010A
:104E3000A0911A0181839283A38382E384838FEFFD
:104E400085830E9405270895A0E0B0E0EAE2F7E23A
:104E50000C94B3340E940A0C6093230370932403D0
:104E6000809325039093260320916D04C22FC37075
:104E7000CC2319F0C22FC695C6953091130132305C
:104E800009F4BDC180F4311116C010920201609383
:104E90002703709328038093290390932A0381E0CA
:104EA0008093130103C0333009F4B1C1CDB7DEB72D
:104EB000E9E00C94CF3480910101C81324C0237021
:104EC000822F90E04091000150E021E08417950787
:104ED00009F420E0822F8170809304018091720494
:104EE00090910301981739F08093030140E060E04E
:104EF00080E00E949D0AC73040F4EC2FF0E0E553BB
:104F0000FA4C0C949D3481E0E6CF809102018F5FD2
:104F10008093020182E0C4CF80910401811107C017
:104F2000809102018F5F8093020183E0B9CF40E05E
:104F300060E080E00E949D0A809102018F5F809373
:104F4000020182E080931301809104018111AECFB0
:104F5000ECCFC0910201CC0FCC0F14E01C0FC12E7E
:104F6000133110F042E1C42E60916E0470916F0411
:104F7000809170040E94A109062FF72ED82ED0E050
:104F8000CC1548F0809102018F5F809302011231AD
:104F900008F48CCFBFCFFE01E654FE4F8081909184
:104FA00003018923882331F02D2D402F6F2DCE0151
:104FB0000E949A0A2196E4CFC0910201CC0FCC0F37
:104FC000D4E0DC0F1D2FD33108F012E160916E04A4
:104FD00070916F0440917004E0912703F0912803D1
:104FE0008091710486958695869520E030E0E89F53
:104FF000212DF89F200D311D1124922F96FD209513
:10500000822F8F7096FD8F5FE22FE695E695E695ED
:10501000E670F0E0E95CFE4F2181289F202D812D74
:10502000112422952F708295807F282B8081820FFA
:1050300097FD819587FD8195880F382F349F312DFD
:105040001124832F0E94A109062FF72EB82ECC2EF3
:10505000D12CC11638F0809102018F5F809302013C
:10506000D13196CFF601E654FE4F80819091030135
:105070008923882331F02B2D402F6F2DC6010E94EC
:105080009A0A6FEFC61AD60AE4CF89E29AE00E9424
:10509000A30D909102019F5F90930201811106CFB1
:1050A00039CFC0910201CC0FCC0F14E01C0FB12EF0
:1050B000133110F032E1B32E4091270350912803B1
:1050C00020917104269580E090E0429F812D529FAF
:1050D000800D911D1124F82ED0E0CE01880F991F6C
:1050E000DC01A25ABE4F6D01CB1508F04BCFFE017B
:1050F000E654FE4F8081909103018923882309F4AF
:105100004EC0F60140AD4057550B21AD2052330B38
:10511000449FC001459F900D900D1124229FB00126
:10512000239F700D700D1124860F971F082F82305A
:10513000910520F16FEF813EFEE19F0738F4BC013D
:10514000B5E076956795BA95E1F7685F71E0A72FAE
:10515000A60FBB27BB1FFD01F595E7950E2FEE9F10
:10516000D001EF9FB00DB00D11248A179B07E0F41A
:105170006FEF6E0F671758F70FEF070F60916E0410
:1051800070916F0480917004EF2C0E94550A0E9468
:10519000A109462F672F282FCE010E949A0A219637
:1051A000B2E0CB0ED11CA0CFEF3F41F371E07E0FF8
:1051B000E1CF88E99AE06BCF80910201880F880FD8
:1051C00014E0180F012F133108F002E1C82FD0E0CE
:1051D000C01708F0D7CEFE01EE0FFF1FEC0FFD1F2A
:1051E000E75AFC4F6081718182810E94A109462F9C
:1051F000672F282FCE010E949A0A2196E9CFC093EB
:1052000001012370209300010E94E70E8ECE809151
:105210006C0481110E9405274091270350912803B7
:105220006091290370912A032FB7F894809140036D
:1052300090914103A0914203B09143032FBF841B7F
:10524000950BA60BB70B4097A105B10508F42ECE20
:10525000109213012BCEA8E0B0E0E1E3F9E20C9448
:10526000AF341A821982FE01339686E0DF011D9267
:105270008A95E9F78FE3A82E81E0B82E8E010F5FA3
:105280001F4F97E4E92E91E0F92E4801CC24C394F6
:10529000D12CF50181915F018F3F09F442C0F89450
:1052A000E82FE295EF70F0E021A18F70A60102C017
:1052B000440F551F8A95E2F7CA01922F982B91A3AC
:1052C00092A18095892382A3789400C0E7E4F1E05D
:1052D00031E0712C21912F3F09F461C0A22FA295DA
:1052E000AF70A05EB0E08C9190E02F7002C09595F9
:1052F00087952A95E2F78170811151C0832F782A12
:10530000330F51E0EE34F50729F7F501319780812D
:105310008F3F11F00E947A0880EA8A95F1F7D80150
:105320007C920F5F1F4FEA14FB0409F0B2CF48E0F4
:1053300050E0B4018BE293E00E94EA34892B89F1BA
:1053400088E0F401ABE2B3E001900D928A95E1F7B9
:1053500081E080931E020E94FE0B90931D028093B9
:105360001C0280911C0290911D020E94750C0597F1
:10537000E0F048E050E06BE273E08FE893E00E94D9
:10538000EA34892B49F088E0EBE2F3E0AFE8B3E0E0
:1053900001900D928A95E1F710921E0206C080E0FE
:1053A000AECF80911E028111DCCF2896EDE00C94E7
:1053B000CB34CDB7DEB7C254D1090FB6F894DEBFF7
:1053C0000FBECDBF85B7806885BF85B7806885BFB4
:1053D00084B7877F84BF0FB6F894A895809160004A
:1053E000886180936000109260000FBE80E890E0BA
:1053F0000FB6F89480936100909361000FBE85E82A
:105400009EE09093FB018093FA010E948C0B0E9416
:1054100069130E94310D0E942A0E8091E20084607F
:105420008093E200789480919B03882399F0809187
:10543000E9001091EC001795112717958F70182B24
:105440001092E9008091E80083FD0E9458171F70B8
:105450001093E90082E084BD93E095BD9AEF97BD7B
:1054600080936E000E945210811102C00E94EE12C1
:105470000FE311E0D8018D918D018F3F11F00E9453
:105480007A08B1E007341B07A9F707E411E0AEE49E
:10549000EA2EA1E0FA2EF80181918F018F3F11F0E1
:1054A0000E947A08E016F106B1F788E0EFE8F3E031
:1054B000DF01282F1D922A95E9F7EBE2F3E0DF01E7
:1054C0001D928A95E9F780E090E00E941635883EAB
:1054D0009E4F21F40E945210811102C00E94FE12C0
:1054E00082E090E00E940E35809337030E944410C2
:1054F0009093B7048093B6040E942B29EFE3FCE954
:105500003197F1F700C000000E942B2980918F0392
:1055100080FF08C06FEF7FEF80E090E00E944A3587
:105520000E940E0F83E090E00E940E350E94211A27
:1055300080E090E00E941635883E9E4F21F40E9444
:105540005210811104C00E94FE120E94102746E0F2
:1055500050E06CE170E08DE694E00E94FE34109221
:105560006C0480916D04843010F40E94102781E057
:1055700080934E0325982D9A26982E9A8FE891E0D5
:105580000197F1F700C0000020914E034FE453E073
:10559000FA018E2F841B821708F46CC085E091E01D
:1055A00090939D0380939C03E8E12E2E312CF0E430
:1055B0004F2E5524539480919B03853069F485EADE
:1055C00096E00E94AC0480919B03853009F45EC094
:1055D0000E942C170E94C50B0E942B2968E3E62E1F
:1055E00063E0F62E7FE8672E73E0772E20E433E049
:1055F000D301F70191918D912E173F0709F496C0C1
:105600009817C1F38091370381FDA4C110E0D30145
:105610000D913D01F701B1907F01B01629F1B0263F
:10562000D12CCC24C3948C2D8B218823A9F0D98232
:105630001A8391E08C2D8023811101C090E09B831F
:105640000E94FE0B8160782F9D838C8349815A8153
:105650006B81892F0E940D25D394CC0CF7E0DF12CB
:10566000E2CFF701319700831F5F183081F60E9467
:105670000A0C7CC093B183B186FB882780F9880F20
:1056800095FB992790F9892B819383CF80919B0378
:10569000843019F10E942427109233030FB6F89436
:1056A000A895209260000FBE4092600083B7817F72
:1056B000846083BF83B7816083BF7894889583B704
:1056C0008E7F83BF0FB6F894A895809160008861A3
:1056D00080936000109260000FBE80913403882395
:1056E00009F471CF0E942B29EFE8F3E08191811139
:1056F00005C093E0E739F907C9F765CF80E189BDB7
:1057000082E189BD09B400FEFDCF8091D8008F7D74
:105710008093D8008091E00082608093E0008091C7
:10572000E00081FDFCCF0E942C174DCF98136ACF6B
:105730000E94FE0B8C01809135039091360308176F
:105740001907A1F08FEF89838A831B820E94FE0BC9
:105750008160782F9D838C8349815A816B81892F49
:105760000E940D2510933603009335038091EE03BC
:105770009091EF03892B09F43EC04091480350916A
:10578000490360914A0370914B032FB7F8948091BD
:10579000400390914103A0914203B09143032FBF76
:1057A000841B950BA60BB70B409144035091450306
:1057B000609146037091470384179507A607B707C2
:1057C000D0F08091EE039091EF030E943A15109271
:1057D000EF031092EE0310924803109249031092C7
:1057E0004A0310924B031092440310924503109207
:1057F000460310924703E090F603F090F703E1149C
:10580000F104E9F08091F8039091F9030E94750C7E
:105810008C01C7010E9405148017910780F48091C4
:10582000F6032EE0829FC0011124FC01E150FC4FE1
:10583000208122FD04C086509C4F0E9433120E949A
:105840002427D12CC12C9DEFB92E2CEFA22E8091B4
:105850004E03D81608F4B4C0C1100E940A0C86E0AA
:10586000E9EDF3E0DE01119601900D928A95E1F7E2
:105870001092DB031092DC031092DD031092DE0322
:105880008B819C81892B882379F0809152039091A0
:1058900053030E94750C9C018091D80381112DC186
:1058A0002B30310508F02FC18D819E81892B8823F3
:1058B00079F080915003909151030E94750C9C01E6
:1058C0008091D70381115EC12B30310508F060C192
:1058D00046E050E0BE016F5F7F4F89ED93E00E948C
:1058E000EA34892B61F48091DB039091DC03892BEE
:1058F0009091DD03892B9091DE03892B81110E9409
:10590000221486E0FE013196A9EDB3E001900D92DC
:105910008A95E1F70E94C50B90915403891721F0F5
:10592000809354030E940A0C80919B03843009F0F9
:1059300042CE83E08093E9008091E80082FF3BCE75
:105940008091E80085FD63C18091E8008B778093AA
:10595000E80031CE88EB96E00E94AC043FE8A32E2D
:1059600033E0B32E00E010E043EB842E46E0942EAB
:105970005BEAC52E56E0D52E1F930F939F928F9210
:105980000E94450580EB96E00E94AC04D5018D9104
:105990005D010E9482051F928F93DF92CF920E9439
:1059A000450589EA96E00E94AC040F5F1F4F0FB6D1
:1059B000F894DEBF0FBECDBF08301105E9F626CE44
:1059C0000D2D10E093B183B186FB882780F9880FF5
:1059D00095FB992790F9892BD801A15BBC4FEC91DD
:1059E0009E2F9370891709F486C0EE0FEE0FE82BF7
:1059F000EC93EF70F0E0E25BFE4FC801835B9C4FDD
:105A00007C018081D7019C91890F8C9320E08430A8
:105A10008CF1F801E45BFC4F80818F5F8083DDAA0D
:105A2000AEAA5FAA0E94FE0B8160782F99AF88AF63
:105A30004DA95EA96FA9892F0E940D25EFE3FFE113
:105A40003197F1F700C00000DAAEABAE1CAE0E9499
:105A5000FE0B8160782F9EAF8DAF4AAD5BAD6CAD14
:105A6000892F0E940D258FE39FE10197F1F700C078
:105A7000000021E0D7018C918D3F8CF5F801E45BAB
:105A8000FC4F808181508083DBA6BCA65DA60E946E
:105A9000FE0B8160782F9FA78EA74BA55CA56DA5F7
:105AA000892F0E940D25EFE3FFE13197F1F700C048
:105AB0000000D8AAB9AA1AAA0E94FE0B8160782F0A
:105AC0009CAB8BAB48A959A96AA9892F0E940D25C7
:105AD0008FE39FE10197F1F700C0000021E0D701BB
