:100000000C9450040C9488040C9488040C94880478
:100010000C9488040C9488040C9488040C94880430
:100020000C9488040C9488040C94D62A0C94922A7C
:100030000C94D32B0C9488040C9488040C9488049E
:100040000C9488040C9488040C9488040C94880400
:100050000C9488040C94AF2B0C9488040C948804A2
:100060000C9488040C9488040C9488040C948804E0
:100070000C9488040C9488040C9488040C948804D0
:100080000C9488040C9488040C9488040C948804C0
:100090000C9488040C9488040C9488040C948804B0
:1000A0000C9488040C9488040C94880405010902BB
:1000B000A10185020901A1000509190129081500FE
:1000C0002501950875018102050109300931158165
:1000D000257F95027508810609381581257F9501D0
:1000E00075088106050C0A38021581257F95017572
:1000F000088106C0C005010980A101850319012AF4
:10010000B700150126B700950175108100C0050CD8
:100110000901A101850419012AA002150126A002E6
:10012000950175108100C005010906A1018506052C
:100130000719E029E71500250195087501810205D9
:1001400007190029EF1500250195F07501810205B9
:10015000081901290595057501910295017503910D
:1001600001C00660FF0961A1010962150026FF00B8
:100170009520750881020963150026FF00952075FA
:10018000089102C005010906A101050719E029E748
:1001900015002501950875018102950175088101F9
:1001A0000507190029FF150026FF0095067508812F
:1001B000000508190129051500250195057501910E
:1001C00002950175039101C0FD377A585A00000469
:1001D000E6D6B4460200210116000000742FE5A304
:1001E000E0077802175D003D8889C65436C3174F73
:1001F000E4DB9E0ED395FBE181FA6CB847A3C1E91D
:10020000450ED7202B9CFFE7DED6D92F20D01297A2
:10021000ED7B8D6ED70CEDDA006AFE3376524B1E05
:10022000FD16E80D3F2515989EF00411C34F087E7A
:10023000F8EA4390082247779C61F6901B1965887D
:10024000BF7F7DDB97BC90F78293262E1F243CDB7B
:10025000F41BD68F7333616A2EBA09D6F35874C56E
:10026000D728E0FF1C6FCFB318ACB43D09547250CF
:100270006982EC0992BD03269CB052BD9A1ADEEF4A
:10028000768ECFDAEFDF93EE89735CDA646B161348
:100290006596F9303A58B124C72D0105E59E100B3B
:1002A000EB34D583E02704ACC6D68B6D433E977CF8
:1002B00062D1FECC4FA3DBB9A52C4B15C853C19F0F
:1002C0002CE93DAB4AB588AB4E7DEC7BF734FC792D
:1002D000B0321E1E0BF9253812FDC0B1F081814EDF
:1002E000E1C4C24287B2646665173ACE64334ADA23
:1002F0002AA461A4A443F114808ED016C55DC9FA66
:10030000082C9CACC80891979537E854B1FA5BFD6E
:1003100056D5D712D5C06C77889EFD8781D271657E
:10032000206C51744421DCB0A775040E7F1503DFE7
:10033000FC5A071A6C3432704D8FD47F284B6E10E4
:1003400074BE9C4CCF5EE640C07651E2930EC8FA74
:10035000A62938B2C14553A5F1851A5559BAF6D127
:100360006461E0CEE50D55CA2A0817A4C39F3E97E5
:100370009B5BFD925BAB3EC3CFA042143B351E8E10
:100380007196BF35639ABD7EDCD619E4FAA0C453DA
:10039000883E50EA0E2A749D68CB40B85A0B9A0FDB
:1003A00020E7A892431B1143CB7489FD38AB681C2E
:1003B000A2DFC312EF3308334D7A75C813C39629F1
:1003C00003847EB5119E7442DB09952B164FD83AF3
:1003D00054EA907F039455F19DDED1A2E501617B43
:1003E0006F6462F149D597526EC74FEF575EF65F63
:1003F000C32146E8982F9B7D20788EBBD9AA0000A8
:100400007CDF5F2A985DBD400001B304F90E000057
:10041000E1677B5BB1C467FB020000000004595A2E
:10042000010001009C048E10731000000200020005
:1004300098048E1073100000030001009D048E10BC
:10044000731000000400020082048E10731005096E
:10045000050001009E048E107310000006000200CB
:1004600084048E1073100000070002009A048E109E
:1004700073100000080001009F048E10731000002C
:100480000900020086048E107310E0080A000200C2
:1004900088048E107310E0080B0002008A048E108E
:1004A0007310E0080C0002008C048E107310E0083A
:1004B0000D0002008E048E107310E0080E00020082
:1004C00090048E107310E0080F00020092048E104A
:1004D0007310E0081000020094048E107310E008FE
:1004E0001100020096048E107310E0081200020042
:1004F000A0048E107310000013000200A2048E10DE
:100500007310000014000100A4048E10731000008A
:100510001500000000006608BE1600002942140005
:100520001A000800150017001C0018000C0012002B
:1005300013002F002A002B410400160007000900B9
:100540000A000B000D000E000F00330034002800DD
:10055000E1001D001B00060019000500110010003D
:10056000360037003800E5000000E000E200E3005C
:100570002C000000000000002C43E700E600000013
:10058000E400000001000100010001000100010081
:100590000100010001000100010001000100010053
:1005A0000100010001000100010001000100010043
:1005B0000100010001000100010001000100010033
:1005C0000100010001000100010001000100010023
:1005D0000000010001000100010000000000000017
:1005E0000100010001000000010000000100010005
:1005F00001000100010001000100010001000100F3
:1006000001000100010001000100010001000100E2
:1006100001000100010001000100010001000100D2
:1006200001000100010001000100010001000100C2
:1006300001000100010001000000007C0100010038
:1006400001000000000000000100010001000000A6
:100650000100000001000100010001000100010093
:100660000100010001000100010001000100010082
:100670000100010001000100010001000100010072
:100680000100010001000100010001000100010062
:100690000100010001000100010001000100010052
:1006A0000000010001000100010000000000000046
:1006B0000100010001000000010000000100010034
:1006C0000100010001000100010001000100010022
:1006D0000100010001000100010001000100010012
:1006E0000100010001000100010001000100010002
:1006F00001000100010001000100010001000100F2
:1007000001000100010001000000010001000100E2
:1007100001000000000000000100010001000000D5
:100720000100000009025B00030100A0FA090400B7
:100730000001030101000921110100012244000709
:1007400005810308000109040100020300000009FB
:100750002111010001222200070582032000010768
:100760000503032000010904020001030000000941
:10077000211101000122B6000705840320000112A7
:1007800001000200000008EDFE000000010102036C
:10079000011C037600690061006C003A00660036B7
:1007A0000034006300320062003300630000001474
:1007B0000341006D00700065007200730061006EFF
:1007C000006400000024035700680069007400659D
:1007D0000066006100630065006D006F0075006ECB
:1007E000007400610069006E000000040309040049
:1007F00000000000000000000000000000000000F9
:1008000000000000000000000000000000000000E8
:100810000000007E0F00D4FFFFFFC700000078003B
:10082000000000000000002A2B280000000000004B
:100830000000000000000000000029000000002C63
:100840001E3420212224342627252E362D37382702
:100850001E1F202122232425263333362E37381F0E
:100860000405060708090A0B0C0D0E0F10111213D0
:100870001415161718191A1B1C1D2F3130232D356E
:100880000405060708090A0B0C0D0E0F10111213B0
:100890001415161718191A1B1C1D2F3130354C0052
:1008A00011241FBECFEFDAE0DEBFCDBF04B603FEDA
:1008B00018C08091260590912705A0912805B09138
:1008C00029058730904BA740B04B59F4109226056C
:1008D000109227051092280510922905E0E0F8E310
:1008E000099511E0A0E0B1E0E4E9FAE602C0059064
:1008F0000D92AA37B107D9F725E0AAE7B1E001C008
:100900001D92A632B207E1F70E94FA2B0C94F43440
:100910000C940000482F209124059091DB0459E0AD
:10092000291302C080E0089530E0529FF001539FE8
:10093000F00D1124E452FB4F8181681306C08081C1
:10094000481303C085818111EECF2F5F3F4F277081
:10095000E7CFE8EDF0E080818E7F80831092E200A7
:100960001092DA001092E100A0EEB0E08C9181606C
:100970008C9380818F77808319BCA7EDB0E08C9138
:100980008E7F8C9380818F7E80831092C404089523
:100990002091E4003091E50095E6A9012091EC005A
:1009A000822F817020FF06C08091E80080FF06C082
:1009B00080E008952091E80022FD1AC08091D104C2
:1009C000882389F0853089F08091EB0085FD0FC088
:1009D0002091E4003091E50042175307F9F291505D
:1009E000E1F684E0089582E0089583E0089581E0CF
:1009F00008958091D30487FF13C08091E80082FF9F
:100A000006C08091E8008B778093E80004C0809155
:100A1000D1048111F2CF08958091D1048823D9F3B4
:100A20008091E80080FFF8CF8091E8008E77ECCFCE
:100A3000982F9093E900242F762F50E0891731F0FA
:100A40007091EC002091ED005091F00021FD07C065
:100A50009F5F973071F78093E90081E008953091AE
:100A6000EB003E7F3093EB003091ED003D7F309303
:100A7000ED003091EB0031603093EB007093EC00AF
:100A80002093ED005093F0002091EE0027FDE0CF81
:100A900080E00895B0E0A0E0E0E5F5E00C943734A4
:100AA000C8EDD0E088818F7E8883E7EDF0E080811B
:100AB0008160808384E082BF81E08093C404888168
:100AC0008E7F888302EE10E0F80110821092DA0027
:100AD00081EEC82ED12CF601108288818F77888311
:100AE00088818068888388818F7D888319BC109273
:100AF000D1041092D2041092D0041092CF0490EE40
:100B0000E92EF12CF70180818B7F808388818160C1
:100B1000888342E060E080E00E941805F601808151
:100B20008E7F8083F80180818160808380818860EE
:100B30008083F70180818E7F8083888180618883B4
:100B4000CDB7DEB7E8E00C945334FC018091D904B2
:100B50009091DA0486179707A0F06115710529F4C2
:100B60009091E8009E779093E80090E06115710500
:100B700051F4911108C08091E80082FF34C080E0F8
:100B80000895BC01F2CF8091D1048823C1F1853052
:100B9000C1F18091E80083FD30C08091E80082FDC2
:100BA000EACF8091E80080FFE1CF8091F3002091AF
:100BB000F200382F6115710519F02830310558F011
:100BC00091E02830310509F090E02091E8002E777F
:100BD0002093E800CBCF81918093F100615071099F
:100BE0002F5F3F4FE7CF8091D104882341F08530BC
:100BF00041F08091E80083FFBECF81E0089582E05C
:100C0000089583E008958091C60408959C014FB72C
:100C1000F8948091C0049091C104A091C204B09155
:100C2000C3044FBF821B930B08952FB7F8946091B4
:100C3000C0047091C1048091C2049091C3042FBF7D
:100C400008952FB7F8948091C0049091C104A091A9
:100C5000C204B091C3042FBF089590911701992346
:100C6000D1F09091BD0497FF16C0E82FE695E69568
:100C7000E695EE31E0F4F0E0EC57FE4F282F2770B8
:100C800081E090E001C0880F2A95EAF78095928173
:100C9000892382830895EEE7F1E09191891303C0DF
:100CA000DF0111971C9291E0E438F907B1F708953C
:100CB000909117019923C1F09091BD0497FF14C042
:100CC000E82FE695E695E695EE31F8F4F0E0EC577E
:100CD000FE4F877021E030E001C0220F8A95EAF7CD
:100CE0008281822B82830895AEE7B1E0EFEF90E03E
:100CF0002D91821751F0EF3F19F4211101C0E92F16
:100D00009F5F9630A9F7EF3F09F408950E2E000C6F
:100D1000FF0BE458FE4FE6CFA3E0B0E0E2E9F6E0D7
:100D20000C943D342091BB043091BC042817390742
:100D3000A1F09093BC048093BB04E091B904F091BE
:100D4000BA04309751F024E029839B838A8300847E
:100D5000F185E02DCE01019609952396E2E00C94F1
:100D60005934A3E0B0E0E7EBF6E00C943D34209179
:100D7000B7043091B80428173907A1F09093B8044C
:100D80008093B704E091B904F091BA04309751F020
:100D900023E029839B838A830084F185E02DCE01A3
:100DA000019609952396E2E00C945934E091B90438
:100DB000F091BA04309729F00190F081E02D099567
:100DC000089580E008954115510511F0FA01099543
:100DD00008950E9421069C019091AE048091AF0479
:100DE000982B21F03093AB042093AA049091B00487
:100DF0008091B104982B21F03093A9042093A8048A
:100E0000E091B904F091BA04309749F082E0809300
:100E1000AC040680F781E02D8CEA94E009950895F2
:100E20008091A70480FF0CC06091160170E0759559
:100E30006795759567956115710549F1862F089538
:100E400081FF06C06091160170E075956795F3CF3C
:100E50006091160182FD0BC09091A6049923A1F028
:100E60006091150180911601961738F0682F70E097
:100E70006038710500F38FE70895899FC001112440
:100E800070E00E940C34F4CF61E070E0D7CF81E0D5
:100E900008958091A70460918A0470918B0480FF6B
:100EA00016C020911401269FC001279F900D112488
:100EB000BC0176956795769567956038710508F061
:100EC00043C06115710509F441C0862F089581FF63
:100ED0000BC020911401269FC001279F900D112463
:100EE000BC0176956795E9CF82FF09C08091140116
:100EF0009B01829FB001839F700D1124DECF209152
:100F000081042223D1F29091130180911401482F82
:100F100050E0291748F0CB01849FB001859F700DE8
:100F2000949F700D1124C9CF289F90011124269FF2
:100F3000A001279F500D369F500D1124692F70E09E
:100F4000CA010E94F833B9CF8FE7089581E0089570
:100F5000282F35EB2303C001112497FF04C08058CC
:100F60009109892F089580589F4FFBCFCF93DF932E
:100F7000EC0140917604509177046091780470916F
:100F800079042FB7F8948091C0049091C104A09186
:100F9000C204B091C3042FBF841B950BA60BB70BE3
:100FA000843F9140A105B10518F580917604909198
:100FB0007704A0917804B09179048093720490939F
:100FC0007304A0937404B093750484EF91E0A0E0DF
:100FD000B0E080936E0490936F04A0937004B0937C
:100FE0007104D0937E04C0937D04DF91CF91089566
:100FF0000E941506609372047093730480937404C6
:101000009093750482E390E0A0E0B0E0E2CFFC01B1
:101010008481862351F492819923B9F069238085D4
:1010200083FF05C081E061110FC080E00895892F22
:101030008F7092959F70982B862F8F7062956F702E
:10104000682B81E09613F1CF089581E0FDCFDC019C
:101050006091680480916904962F891301C00895F6
:10106000292F30E0F901EE0FFF1FE05AFB4F4081BE
:1010700051814A175B07A1F487E08A9FA0018B9FEB
:10108000500D112441545C4F81E0FA018483961382
:10109000E6CF2F5F3F4F23703327209368040895D6
:1010A0002F5F3F4F922F9370D8CF1092BD031092B5
:1010B000BC03EFEBF3E08581811102C0148216823C
:1010C000379683E0E73FF807B1F70895B0E0A0E076
:1010D000ECE6F8E00C9435348FEF9FEF4430510587
:1010E00008F469C04091BD0441FB882780F990E075
:1010F000880F991F42FB002700F910E0000F111F15
:10110000000F111F802B912B40FBCC24C0F8D12C59
:101110008C299D2943FB222720F9C22FE0E0DE2FF6
:1011200053E0CC0FDD1F5A95E1F78C2B9D2B44FB30
:10113000AA27A0F9B0E0E4E0AA0FBB1FEA95E1F707
:101140008A2B9B2B45FBEE27E0F9F0E0A5E0EE0FA4
:10115000FF1FAA95E1F78E2B9F2B46FB222720F934
:1011600030E0B6E0220F331FBA95E1F7822B932BC4
:1011700047FB222720F930E03695322F222737957A
:101180002795822B932B2091BE04322F3170F32EA2
:10119000E82EF92A26952170B22EBB0CA82EBF2866
:1011A000C501BB0CAA0BBB0BFB0180839183A283FF
:1011B000B38390E080E0CDB7DEB7EAE00C94513421
:1011C000E2E8F4E0848195812AE030E0B9010E94F0
:1011D000F83360930E01868180930D0182858093A0
:1011E000140184858093130186859785B9010E9437
:1011F000F83360930C01808980930B01828980937E
:10120000160184898093150108958091820490913C
:1012100083049093100180930F010895ECE3F2E0B2
:1012200090E080E063ED79E24AEF59E229E439E2A7
:10123000778366835187408733872287978786879E
:10124000019670968830910599F7089581152CE7DD
:10125000920741F420916C0430916D04232B11F41A
:1012600090E080E0089580E00895F894E82FE295FA
:10127000EF70F0E031A1282F2F7081E090E001C0E5
:10128000880F2A95EAF7982F9095932391A392A11E
:10129000892B82A3789408959091BD0492FF10C089
:1012A00041E0282F2471243009F040E031E0282F5C
:1012B0002871283009F030E0431711F02CE0822724
:1012C00093FF10C041E0282F2471243109F040E041
:1012D00031E0282F2871283109F030E0431711F050
:1012E0002CE082273091BE0430FF10C051E0282F3F
:1012F0002171213009F050E041E0282F2871283079
:1013000009F040E0541711F029E0822731FF10C0A6
:1013100041E0282F2171213109F040E031E0282FF0
:101320002871283109F030E0431711F029E08227B5
:1013300094FD877E089582389105B9F1B0F4813328
:10134000910509F47DC048F48932910509F46DC016
:101350008A32910509F47BC008958533910509F41B
:101360005FC08933910509F10895833E9105D9F154
:1013700038F4803E910529F1823E910579F1089576
:10138000863E9105D9F1873E910509F43EC0843E21
:10139000910541F52091BE0421FF24C08091BD0438
:1013A00084FD19C087EE90E008952091BD0423705C
:1013B00009F05AC02091BE0423FF14C089E290E0D6
:1013C00008952091BD0420FD38C03091BE0430FF47
:1013D00009C024FF43C090E080E008952091BD043F
:1013E00022FDF7CF08952091BD0422FD3AC030912F
:1013F000BE0430FD39C024FFF5CFEDCF2091BD04F0
:1014000023FFF0CF24FDE7CFCDCF2091BD0423FDF6
:101410002EC03091BE0431FFEECF84EE90E00895EF
:101420002091BD0425FFDECFC9CF2091BD0425FD4D
:1014300021C02091BE0423FFD5CF89E390E0D2CF15
:101440002091BD0426FFCECF8AE290E0089520913E
:10145000BD0426FFC7CF81E390E0089583EE90E0BE
:10146000089582EE90E0089580EE90E0089586EE73
:1014700090E0089585E390E008951F93CF93DF9364
:101480000E949B09EC01C11580E5D807F0F5C11554
:1014900080E4D80708F09CC0C03ED10520F5CD3CC3
:1014A000D10508F082C0C83AD10578F4C53AD10513
:1014B00008F073C0C130D10519F1209709F1C4308B
:1014C000D105F0F4D0E0C0E01BC0C33CD105D0F79B
:1014D000C85AD0E0CC0FDD1FCD5DDE4F0990D8811A
:1014E000C02DD4640DC0C11580E2D80708F0D1C06A
:1014F000C11581E0D80708F05AC0C83ED10510F7E1
:10150000CE01DF91CF911F910895C03682E5D807B3
:1015100018F5C03482E5D80708F06BC0C03282E508
:10152000D80708F05FC0C11582E5D80708F497C056
:101530002C2F2695269580E2289F900111248C2F30
:101540008370C1E0D0E002C0CC0FDD1F8A95E2F7C6
:10155000C22BD32BDD68D4CFC03A82E5D80760F424
:10156000C03882E5D80708F459C0CF71D0E0DC2F2D
:10157000CC27C46FD06AC4CFC03C82E5D80708F43A
:1015800062C0C03E82E5D80708F09CCFDC2FCC2794
:10159000CC27DF71C06FD06AB3CFC55AD0E0C05E30
:1015A000DE4FC881D0E0D064ABCFD065A9CF8D2FFE
:1015B0000E944C09182FCE0199270E949B09C12F28
:1015C000D0E0DC2FCC27CC27DF71C82BD92B98CFCC
:1015D000CE0199270E949B09CC27DF70C82BD92BFD
:1015E000D06A8ECFCF71D0E0DC2FCC27C16FD06A0C
:1015F00087CF2C2F26952695277080E2289F900173
:1016000011248C2F8370C1E0D0E002C0CC0FDD1F0D
:101610008A95E2F7C22BD32BDC6872CF2C2F26954C
:101620002695277080E2289F900111248C2F8370CB
:10163000C1E0D0E002C0CC0FDD1F8A95E2F7C22BDB
:10164000D32BDA685DCF8C2F8F710E944C09C82F85
:10165000D0E0DC2FCC27CC27DF71D06251CF8C2F8C
:101660008F710E944C0955E0D695C7955A95E1F7C0
:10167000CF70D0E0DC2FCC27282F30E084FF05C0CE
:1016800044E0220F331F4A95E1F7C22BD32BD069D8
:1016900037CF8D2F8F710E944C09182FCE019927BB
:1016A0000E949B09C12FD0E0DC2FCC27CC27DF7113
:1016B000C82BD92BD2CF8091F501882331F010921D
:1016C000F5011092F4011092F3010895CF93C82F01
:1016D0008091BE0482FF0CC08091F5018C1741F00F
:1016E0000E9421069093F4018093F301C093F501C9
:1016F000CF9108959091F501292F282361F08095CD
:1017000089238093F501882339F00E942106909364
:10171000F4018093F301089590E080E0F8CF809584
:101720009091250598239093250508958095909193
:101730009703982390939703089590919703892B8B
:101740008093970308951092CA011092C9011092D4
:10175000C80108958091840490918504892B89F0B3
:101760000E9421062091F3013091F401AC01421B4B
:10177000530B81E020918404309185044217530774
:1017800008F480E081700895CF9380919703C09111
:101790002505C82B8091F5018823F9F080918404F8
:1017A00090918504892B29F00E94AA0B81110E9437
:1017B0005B0B8091F501C82B809117018823B1F054
:1017C0008091BD0487FF12C08EE126E831E090E0F1
:1017D000815080F491110E945B0B80917A04809576
:1017E0008C2390917B04892BCF91089586E02EE77E
:1017F00031E0EDCFF90141919F01442349F39F5F0F
:10180000E7CF9091C701292F282321F080958923C4
:101810008093C7010895809124059091DB0498136B
:1018200001C008958F5F8770FACF292F943078F523
:101830008D3068F590E03DE0239F800D911D1124CF
:10184000682F677023E0969587952A95E1F7FC014C
:10185000EE0FFF1FE80FF91FE755FE4F50E040E085
:1018600080E0219130E0062E02C0369527950A943B
:10187000E2F721703327042E01C0220F0A94EAF701
:10188000822B4F5F5F4F4330510559F7089580E039
:101890000895292F943098F58D3088F590E03DE03B
:1018A000239F800D911D1124282F277041E001C036
:1018B000440F2A95EAF723E0969587952A95E1F754
:1018C000FC01EE0FFF1FE80FF91FE755FE4F30E058
:1018D00020E070E05191DF011197CB01022E02C090
:1018E000969587950A94E2F78170819585278423E0
:1018F00085278C932F5F3F4F2330310559F708958B
:101900008093040208959091040221E030E0F901EF
:1019100001C0EE0F8A95EAF7D90102C0AA0FBB1FDA
:101920006A95E2F7EA2B01C0220F4A95EAF7892F60
:101930008E23E81305C0292B822F0E94800C089566
:1019400020952923F9CF21E030E001C0220F8A95AC
:10195000EAF720958091040282230E94800C08956A
:101960009091CA01809589238093CA01282F2770FE
:1019700069F4891759F09091BE0492FF07C08695CB
:10198000869586950E94A30C0E94A30B089521E0E2
:1019900030E001C0220F8A95EAF780910402822B81
:1019A0000E94800C08959091BE0492FF10C098E0B0
:1019B000899F90011124622B6093CA010E94C70C79
:1019C0000E9421069093C9018093C80108950E9446
:1019D000C70C089580930302089592959F709630E6
:1019E00091F058F4925F9F70923058F4803F19F054
:1019F00030F4883E30F481E008959A5FF4CF843F5C
:101A0000D1F380E00895883EB0F3813FD1F7F3CF62
:101A10004091AE049091B0042091B104662309F482
:101A200069C0942B922B2091AF04922B31F098E057
:101A30009093810491E09093A6048D3C41F40E9420
:101A4000490781958093AF040E94E90608958E3C72
:101A500019F40E944907F6CF8F3C31F40E944907E0
:101A600081958093AE04F0CF803D19F40E94490720
:101A7000F8CF893D29F40E9410078093B004E4CF89
:101A80008A3D21F40E9410078195F7CF8B3D31F4F8
:101A90000E94100781958093B104D6CF8C3D19F434
:101AA0000E941007F8CF9FE2980F983070F4815D84
:101AB000990B21E030E001C0220F8A95EAF780916E
:101AC000AD04822B8093AD04BFCF8D3D31F4809166
:101AD000A70481608093A704B7CF8E3D21F4809145
:101AE000A7048260F7CF8F3D09F0AECF8091A704A5
:101AF0008460F0CF8D3C59F48091AF0487FF0DC016
:101B00001092AF0441110BC01092810408C08E3CAA
:101B100081F48091AF0418169CF3442381F08091E6
:101B2000B0049091B104892B09F08ECF1092A604D5
:101B30008BCF8F3C49F447FFF0CF1092AE048091D9
:101B4000AF048111ECCFE0CF803D19F41416ACF353
:101B5000E4CF893D29F4191604F71092B004DDCFC3
:101B60008A3D19F497FFD9CFF8CF8B3D29F427FF91
:101B7000D4CF1092B104D1CF8C3D19F41216CCF30E
:101B8000CCCF9FE2980F983090F4815D990B21E0C3
:101B900030E0B90102C0660F771F8A95E2F7CB01EA
:101BA00080959091AD0489238093AD04B6CF8D3D8F
:101BB00031F48091A7048E7F8093A704AECF8E3D31
:101BC00021F48091A7048D7FF7CF8F3D09F0A5CF39
:101BD0008091A7048B7FF0CF9C013A9521153F415E
:101BE00050F5FC01EE27F170BC0166277270AC0164
:101BF000442754709C012227387094FF0EC080E166
:101C0000EF2B09F480E0672B09F08062452B09F087
:101C10008064232B89F08068089581E0EF2B09F41C
:101C200080E0672B09F08260452B09F08460232B4C
:101C300019F08860089580E008950F931F93CF9363
:101C4000DF938B01EA019091D104943061F5809388
:101C5000E9008FEF9091E800815095FD06C095ED69
:101C60009A95F1F700008111F5CF8091E80085FF8A
:101C70001AC00E94C804811111C08091E80085FD3E
:101C800006C08091E8008E778093E800F2CFF801DB
:101C900081918F018093F100219779F78091E8007D
:101CA0008E778093E800DF91CF911F910F91089577
:101CB00043E050E0BC0184E00E941D0E089546E020
:101CC00050E0BC0184E00E941D0E089540E250E007
:101CD000BC0184E00E941D0E0895CF93DF93EC01B8
:101CE00048E050E0BC0181E00E941D0E88E0FE014A
:101CF000A7ECB4E001900D928A95E1F7DF91CF91C6
:101D0000089581E08093E00080E28093D8001092F3
:101D1000C9008FE19EE40197F1F700C0000087E061
:101D200090EBDC018093260590932705A09328056E
:101D3000B093290588E19CE00FB6F894A8958093AC
:101D400060000FBE90936000FFCF019708F40895E4
:101D5000EFE9FFE03197F1F700C00000F6CFCF9335
:101D6000C82F6FEF811164E784E290E00E94B834DD
:101D70006FEFC11160E785E290E00E94B8346FEF29
:101D8000C11168E086E290E00E94B834CF910895D6
:101D9000CF93DF93C4E4D3E060E0CE010E94B83477
:101DA0002196C11584E0D807B9F7DF91CF91089546
:101DB0001F93CF93DF93122F8530E0F46430D0F47B
:101DC0004D30C0F4C42FD0E0CC0FDD1F9AE1699FE5
:101DD000C00DD11D112498E6899FC00DD11D11247D
:101DE000632FCE0188960E94B834612FCE01899668
:101DF0000E94B834DF91CF911F91089584E290E062
:101E00000E949A34843789F485E290E00E949A34E3
:101E1000803759F486E290E00E949A3491E088304D
:101E200009F090E0892F8170089580E0FCCF0F9336
:101E30001F93CF93DF93853030F5643020F54D301C
:101E400010F5C42FD0E0CC0FDD1F2AE1629FC00D3A
:101E5000D11D112438E6839FC00DD11D1124CE0160
:101E600088960E949A34082F10E0102F0027CE0188
:101E700089960E949A349801282BC901DF91CF914D
:101E80001F910F91089590E080E0F8CF462F2091A8
:101E9000260230912702232B99F4703F39F4603FDA
:101EA00079F480912802909129020895743040F4C9
:101EB0006D3030F4853020F4672F0E94170F08959D
:101EC00090E080E00895CF92DF92FF920F931F93EE
:101ED000CF93DF936C010091040280910302082BE1
:101EE000C4E0D0E010E0FC2EC8010C2E02C0959595
:101EF00087950A94E2F780FD0CC02197A0F7F12C9A
:101F00008F2DDF91CF911F910F91FF90DF90CF9098
:101F10000895B6018C2F0E94460F0E943D0A01973A
:101F200061F3EECFCF93DF93EC010E94630FBE010C
:101F30000E94460F0E943D0ADF91CF910895FC0157
:101F40008481882371F087819085009729F00E9411
:101F50003D0A0E94ED0C0895808191810E94920FAC
:101F6000F8CF80E00895A6E0B0E0E9EBFFE00C9444
:101F70003C3449835A8349815A819923A1F0222311
:101F800091F0CA010E94630F182F682F89819A81EE
:101F90000E94490C69817A81812F0E94460F269602
:101FA000E3E00C945834CA010E94150C182FF2CFAC
:101FB000FC01262F87819085009741F44081518153
:101FC00062817381848195810E94B30F08950F937C
:101FD0001F93CF93DF9302E814E0C0E3D2E0CE0179
:101FE0000E949A34F80161918F01681719F0CE01AF
:101FF0000E94B8342196C435F2E0DF0781F7DF9103
:10200000CF911F910F9108950F931F93CF93DF935B
:1020100002E814E0C0E3D2E0CE010E949A34F80155
:1020200081938F012196C435F2E0DF07A9F7CAE258
:10203000D4E0FE0185919491009711F0FC0109957F
:102040002C96F5E0C632DF07A1F7DF91CF911F9103
:102050000F9108959B01883070F49AE0899FB00138
:1020600011246C5A7D4F4AE050E0C9010E948A3425
:1020700090E080E008958FEF9FEF0895AAE0B0E030
:10208000E4E4F0E10C943D349C0137552F3F3105D9
:1020900009F068F4BE016F5F7F4F0E942A10892B00
:1020A00031F489859A852A96E2E00C94593480911E
:1020B0009A0490919B04F7CF9091BE0492FB222743
:1020C00020F9281779F080FB92F99093BE04609173
:1020D000BD047091BE0484E090E00E94D63482E09A
:1020E0000E94B00C0895DA019C012E5F3F4FF90168
:1020F00045915491F90125913491A217B30758F0F5
:10210000FC013496859194910E947A340E94E70FE5
:1021100090E080E008958FEF9FEF0895DB01FC01D0
:102120003296259134914217530758F0FC013496AA
:1021300065917491A901CD010E947A3490E080E00C
:1021400008958FEF9FEF0895AAE0B0E0EAEAF0E18A
:102150000C9433340FE113E08DE0C82E83E0D82EC9
:1021600094EFE92E92E0F92E27E0922E3CE0A32E88
:1021700033E0B32E88248394D6010D931D936D0113
:102180004AE050E0B701CE0101960E948A34F8017E
:102190003896DF01892D1D928A95E9F789819A8108
:1021A000D80111969C938E938F8112968C931297DF
:1021B0008D8113968C931397888514968C9314971E
:1021C000898515968C9315978B819C8117969C9386
:1021D0008E93169718961C9218978A8587FF3CC095
:1021E0001E961C921E921D9780FF03C0D801189660
:1021F0008C9281FF04C0F80190859260908782FFE5
:1022000007C0D80118969C911897946018969C93D3
:1022100083FF04C0F80190859860908784FF07C011
:10222000D80118969C911897906118969C9385FFF9
:1022300004C0F801808580628087015F1F4FFAE04B
:10224000EF0EF11C84E4E81683E0F80609F094CF61
:102250002A96ECE00C944F34F801B686A586C4CFDC
:10226000AAE0B0E0E6E3F1E10C943734ECEBF2E005
:1022700080E5DF011D928A95E9F7EFEBF3E088E353
:10228000DF011D928A95E9F78CEBC82E82E0D82EEB
:102290007F0104EA12E0F701D182C0824AE050E0F7
:1022A000B801CE0101960E948A3488E0FE01319681
:1022B000D60101900D928A95E1F789859A85D7011B
:1022C00013969C938E931297BAE0CB0ED11CE7E045
:1022D000EE0EF11C065F1F4F043FF2E01F07D9F618
:1022E0002A96E8E00C945334A8E0B0E0EAE7F1E184
:1022F0000C9433348E010F5F1F4F88E0F801119268
:102300008A95E9F799E5E92E91E0F92E6801AA246A
:10231000A394B12CF70181917F018F3F09F446C04E
:10232000F894E82FE295EF70F0E021A18F70A501FD
:1023300002C0440F551F8A95E2F7CA01922F982BCD
:1023400091A392A18095892382A3789400C0EDE5A2
:10235000F1E021E030E0912C812C41914F3F09F4D4
:102360004EC0A42FA295AF70B0E090968C9190E0F3
:102370004F7002C0959587954A95E2F780FD3FC062
:10238000C901882A992A220F331F51E0EA36F5073E
:1023900021F7F701319780818F3F11F00E943509B5
:1023A00080EA8A95F1F7F60191828082F2E0CF0E01
:1023B000D11C4DE5E41641E0F40609F0ABCF48E04E
:1023C00050E0B8018BEF91E00E946D34892BE1F071
:1023D00088E0F801ABEFB1E001900D928A95E1F74A
:1023E00081E08093FA010E9421069093F901809385
:1023F000F80110E0812F2896ECE00C944F3490E027
:1024000080E0BFCF10E01FC01091FA01112389F3C3
:102410008091F8019091F9010E940606059748F312
:1024200048E050E06BEF71E08EE192E00E946D3485
:10243000892B41F388E0EBEFF1E0AEE1B2E00190EF
:102440000D928A95E1F71092FA01D4CF809117018D
:10245000882359F18091BD0487FF27C00E94C40BD7
:102460008093850140E250E06BEC71E084E891E0FC
:102470000E946D34892BC1F080E2E4E8F1E0ABEC1E
:10248000B1E001900D928A95E1F7E091B904F091E5
:10249000BA04309749F086E0809384010480F58186
:1024A000E02D84E891E0099508950E94C40B809383
:1024B0007C0148E050E06BEE71E08CE791E00E9417
:1024C0006D34892B89F388E0ECE7F1E0ABEEB1E005
:1024D00001900D928A95E1F7E091B904F091BA0468
:1024E000309711F30280F381E02D8CE791E0DBCF90
:1024F000CF93DF93EC014A855B856E857F850E94D3
:10250000E3068B810E948F0B8C810E94960B0E94A8
:10251000261286E0FE0111928A95E9F7DF91CF91AC
:102520000895CF93DF93EC018D8181FD14C082600B
:102530008D83809125059B81892B809325058C8136
:102540000E949D0B0E942612488559856E857F85C5
:10255000CE010E94E3061092B6041092B5048D815C
:1025600080FD03C0CE010E947812DF91CF910895C3
:1025700080911101877F8093110182E00E948F0B6F
:102580008091110184FF06C08F7E8093110182E04B
:102590000E949D0B8091110185FF06C08F7D809365
:1025A000110180E20E949D0B0E9426120895109254
:1025B000970380911701882339F18091BD0487FF2B
:1025C00023C0E6E8F1E08EE1DF011D928A95E9F78C
:1025D00090E080E00E94B10690E080E00E948C06CE
:1025E000109225050E94261286E0ECEAF4E0DF0155
:1025F0001D928A95E9F7109281041092A604109218
:10260000A7040E94E9060895EEE7F1E086E0DCCF3A
:10261000AAE2B0E0EEE0F3E10C943C3483ED94E008
:102620002091F100DC012D93CD01B4E08B3D9B079F
:10263000B9F78091D404833009F472C0B8F48130C2
:1026400009F449C0823009F4B3C08091E80083FFE7
:1026500096C28091D3049091D4049A3008F08FC22E
:10266000E92FF0E0EA50FB4C0C9420348A3009F456
:102670008EC08B3009F471C0893039F78091D30452
:10268000813219F78091D7049091D804009711F006
:102690000297D9F68091E800877F8093E8008091C7
:1026A000E80082FF38C09091F3008091F200029719
:1026B00031F48091F100813011F0863021F4809165
:1026C000F1008093C6048091E8008B778093E80046
:1026D0000E94F904BACF8091D304813A09F0B5CFB2
:1026E0008091E800877F8093E8008091D7049091E3
:1026F000D804892B61F468E087EC94E070E00E94D4
:10270000A5058091E8008B778093E8009ECF60E07C
:1027100090E080E0F3CF8091D1048111C0CF95CFBC
:102720008091D304813A09F090CF8091D7049091A1
:10273000D804892B09F089CF8091E800877F8093A6
:10274000E8008091E80080FFFCCF80911701809322
:10275000F1008091E8008E77B9CF8091D304813267
:1027600009F073CF8091D7049091D804892B09F098
:102770006CCF8091E800877F8093E8000E94F90485
:102780008091D504809317010E94D7125ECF80916B
:10279000D304813209F059CF8091E800877F80937C
:1027A000E8000E94F9048091D6048093C5044DCFBF
:1027B0008091D304813A09F048CF8091E800877F67
:1027C0008093E8008091E80080FFFCCF8091C504F1
:1027D000BECF803899F0823809F0D1C18091D704FA
:1027E0008F70873008F0CBC18093E9008091EB00B7
:1027F00085FB882780F91092E90006C08091CF04FC
:102800009091D004911182609091E800977F90930D
:10281000E8008093F1001092F1008091E8008E773B
:10282000AAC1882309F498C1823009F0A8C1809117
:10283000D50481119BC18091D7048F702FEF280F91
:10284000263008F09CC18093E9002091EB0020FF26
:102850008DC1933031F48091EB0080628093EB0066
:1028600085C19091EB0090619093EB0021E030E006
:1028700001C0220F8A95EAF72093EA001092EA003D
:102880008091EB008860EACF811179C11091D50465
:102890001F778091E3008078812B8093E300809103
:1028A000E800877F8093E8000E94F9048091E800A7
:1028B00080FFFCCF8091E30080688093E30082E09A
:1028C000111183E08093D1045AC18058823008F0FE
:1028D00056C12091D5043091D6042C3DE3E03E074B
:1028E000A1F583E08A838AE289834FB7F894DE01F9
:1028F000139620E03EE051E2E32FF0E050935700C2
:10290000E49120FF03C0E295EF703F5FEF708E2FE0
:1029100090E0EA30C0F0C7968D939D932F5F2431ED
:1029200059F74FBF8091E800877F8093E8006AE203
:1029300070E0CE0101960E94A5058091E8008B779A
:102940008093E8001CC1C096E7CF8091D704909196
:10295000D804432F55274330510509F44AC078F570
:102960004130510509F485C08BE590E0E4E2F7E0E1
:102970004230510509F003C12091E800277F2093E0
:10298000E8002091D9043091DA048217930708F403
:102990009C0140E02115310509F070C041116EC065
:1029A0008091E80082FDC9CF8091D104882329F26B
:1029B000853019F28091E80083FFF2CFBECF41321B
:1029C000510509F447C04232510509F0D8C083309F
:1029D000910508F0D4C0FC01EE0FFF1FE359FE4F34
:1029E0000190F081E02D86599E4FDC018C9190E0A2
:1029F0001DC0332721303105E9F02115310579F06B
:102A000022303105F9F02330310509F0B8C0E1E991
:102A1000F7E0E4918E2F90E0E1E9F7E007C0EBEEFC
:102A2000F7E0E4918E2F90E0EBEEF7E0009709F4E9
:102A3000A6C0A2CFE5ECF7E0E4918E2F90E0E5ECA4
:102A4000F7E0F4CFEFEAF7E0E4918E2F90E0EFEAC1
:102A5000F7E0ECCF8330910508F091C0880F991F03
:102A6000FC01ED58FE4F0190F081E02D89E090E0EF
:102A700083CF82E190E0EFE7F7E07ECF8091D10451
:102A8000882309F45ACF853009F457CF8091E800A4
:102A900083FD53CF8091E80082FD82CF8091E800D2
:102AA00080FF78CF9091F3008091F20021153105DD
:102AB00019F08830910550F041E0089709F040E0A6
:102AC0008091E8008E778093E80064CF4491409332
:102AD000F1003196215031090196E8CF803809F094
:102AE0004EC08091E800877F8093E8008091D204F7
:102AF0008093F10092CE811142C01091D504123022
:102B0000F0F58091E800877F8093E8001093D2046D
:102B10000E94F904112311F084E005C08091E300C4
:102B200087FDFACF81E08093D10442E061EC81E03F
:102B30000E94180542E261EC84E00E94180542E21E
:102B400061EC82E00E94180542E260EC83E00E94A2
:102B500018058091D10413C08091D504813079F497
:102B600081E0933009F080E08093D0041092E90076
:102B70008091E800877F8093E8000E94F9048091AB
:102B8000E80083FF0AC08091E800877F8093E80017
:102B90008091EB0080628093EB00AA96E3E00C94B6
:102BA0005834E2E8F4E0128E138E8FEA90E09183BD
:102BB000808325E0248F88E893E1938382838AE0F1
:102BC00090E09583848344E150E05783468348E056
:102BD00050E051874087938782876EE170E0758768
:102BE00064879787868780E590E0918B808B538BF5
:102BF000428B48E250E0558B448B42E350E0578BC8
:102C0000468B48EC50E0518F408F158E178E168EF4
:102C100091A380A322A30E94E70F0E94D7121092D3
:102C2000BE041092BD04EEEBF4E0808184608083EA
:102C30006091BD047091BE0484E090E00E94D6349F
:102C40000E9404100895AEE1B0E0E9E2F6E10C94D0
:102C50003234A0906C04B0906D0481E090E09093C9
:102C60006D0480936C048CE1C82E85E0D82E00E0C2
:102C7000760110E015C0F40125913491472D612FA4
:102C8000802F0E94D80E82E0880E911C7394EDE094
:102C90007E12F1CFFAE1EF0EF11C1F5F143019F034
:102CA0004701712CE8CF0F5F88E6C80ED11C0530B4
:102CB000F9F60E94D1151A8219821C821B821E828B
:102CC0001D8218861F8288EC90E09A87898704E528
:102CD00012E04AE050E0B801CE0101960E94DC34D7
:102CE000065F1F4F043AE2E01E0799F77E01FBE002
:102CF000EF0EF11C8AE0F70111928A95E9F74AE09C
:102D000050E0B801C7010E94DC34065F1F4F043F4A
:102D1000F2E01F07A1F77E0185E1E80EF11C8AE0D1
:102D2000F70111928A95E9F78FEF9FEF9A8F898FBC
:102D300087E08E8F4AE050E0B801C7010E94DC3482
:102D4000065F1F4F0434F3E01F07A1F7B0926D0434
:102D5000A0926C046E96EDE00C944E3480E00E94DC
:102D6000AF0E60E087E290E00E94B8340E94231624
:102D70000E94C80E81E00E94AF0E0895CF92DF92AC
:102D8000EF92FF928FEF9FEF4430510508F46CC033
:102D9000FB01C080D180E280F3800E94D712809135
:102DA000BD04C0FA80F9B701A601769567955795DD
:102DB000479540FB81F9B701A60122E0769567951A
:102DC000579547952A95D1F740FB82F9B701A6019F
:102DD00033E076956795579547953A95D1F740FB3F
:102DE00083F9B701A601E4E0769567955795479575
:102DF000EA95D1F740FB84F9B701A601F5E0769595
:102E0000679557954795FA95D1F740FB85F9B70136
:102E1000A601A6E07695679557954795AA95D1F7AF
:102E200040FB86F9B701A601B7E0769567955795FF
:102E30004795BA95D1F740FB87F98093BD048091FF
:102E4000BE04D0FA80F9D1FACC24C0F8C0FA81F9D6
:102E50008093BE046091BD047091BE0484E090E054
:102E60000E94D63490E080E0FF90EF90DF90CF900A
:102E700008950E94D7122FEF84E39CE021508040F8
:102E80009040E1F700C0000088E19CE00FB6F894A4
:102E9000A895809360000FBE90936000FFCF8823B9
:102EA00021F00E948F0B0E9426120895882339F08A
:102EB00090912505982B909325050E942612089540
:102EC000882321F00E94960B0E94261208958823E1
:102ED00021F00E949D0B0E9426120895882381F103
:102EE0009CEF980F913A28F40E942D060E9426121A
:102EF000089590E2980F983050F4877091E001C0E7
:102F0000990F8A95EAF7892F0E94960BEFCF9BE5E0
:102F1000980F933028F490E080E00E94B106089565
:102F200098E5980F9B3128F490E080E00E948C0691
:102F3000089593E3980F933118F460E00E94080D10
:102F40000895FF920F931F93CF93DF93F82E009174
:102F50007F04109180040115110509F449C01092F5
:102F60007E0410927D0410927A0410927B04D801A2
:102F70001696CD91DC919E013A9521153F4108F4BA
:102F8000D07ED1E0C11101C0D0E0D8011996ED91F9
:102F9000FC911A97309731F01B966D917C9180E0EF
:102FA0000995D823DD2339F08CEF8C0F813A30F569
:102FB0008C2F0E942D06FF2099F0E0917F04F09164
:102FC0008004808584FD0CC080917C04882341F0BE
:102FD000808191819C01215031092F333E47A0F01F
:102FE0000E9426121092800410927F0410927C049A
:102FF000C801CDB7DEB7E5E00C9456340E94261226
:103000008C2F0E946E17D7CF0E94B607E9CFCF93BF
:10301000DF93EC010E946E17CE010E94EC0D9E0121
:10302000205E31092830310510F0CD2B29F40E94A3
:103030006017DF91CF9108950E944F17FACFCF9379
:10304000C82F8823B9F18CEF8C0F813AA8F58091B5
:103050001701882301F18091BD0487FF1CC0EC2F6C
:10306000E695E695E695F0E0EC57FE4F828190E01C
:103070004C2F477021E030E002C0220F331F4A95E9
:10308000E2F782239323892B81F08C2F0E942D0657
:103090000E9426120AC0EEE7F1E084E891E0219157
:1030A000C21799F38E179F07D1F78C2F0E945806ED
:1030B0000E942612CF91089580E28C0F883048F448
:1030C000C77081E001C0880FCA95EAF70E949D0B86
:1030D000EFCFEBE5EC0FE33040F4F0E0E05EFE4FC5
:1030E000808190E00E94B106E5CFE8E5EC0FEB317E
:1030F00050F4F0E0EE0FFF1FED5DFE4F80819181F7
:103100000E948C06D7CF83E38C0F833198F661E061
:103110008C2F0E94080DCECF1F93CF93DF93182FD3
:10312000EB010E941F18209739F4812F0E946E171F
:10313000DF91CF911F9108958FE99FE00197F1F7FB
:1031400000C000002197EFCF6091A2047091A3040A
:10315000893321F06091A0047091A1040E948C1821
:103160000895B0E0A0E0E7EBF8E10C943534EC0111
:103170008AE0A82E2881222309F49EC0213009F07C
:1031800043C08981813049F48E010E5F1F4F8A81CF
:103190000E94A418E8012196EDCF823039F48E0107
:1031A0000E5F1F4F8A810E941F18F4CF833039F4BD
:1031B0008E010E5F1F4F8A810E946E17EBCF843005
:1031C00011F02196E8CF2A81229690E080E0AE01AE
:1031D0004F5F5F4F2053330B2A30310550F000977B
:1031E000D1F2EFE9FFE03197F1F700C0000001975D
:1031F000F6CFA89EB001A99E700D1124C901860FBB
:10320000971F2981EA01E3CFE22FF0E0E15EF74F5B
:10321000B490822F86958695869590E0FC01E15FBB
:10322000F74FE4902770F12C022E02C0F594E7943A
:103230000A94E2F7F1E0EF22FF24FC01E150F84F9D
:10324000C490D12C022E02C0D594C7940A94E2F700
:1032500031E0C322DD24FC01E151F84F049110E07C
:1032600002C0159507952A95E2F701701127E11420
:10327000F10419F081EE0E941F18C114D10419F055
:1032800086EE0E941F1870E060E08B2D0E948C1863
:10329000C114D10419F086EE0E946E17E114F104F6
:1032A00019F081EE0E946E170115110509F473CF14
:1032B0008CE20E94A4186FCFCDB7DEB7EAE00C9481
:1032C0005134B0E0A0E0E7E6F9E10C9435347C013C
:1032D0005B01C42FD22FFC0185818823A9F0409384
:1032E000B4040E9421069093B3048093B204C77083
:1032F00081E001C0880FCA95EAF70E946717CDB731
:10330000DEB7EAE00C9451341091B404141338C0C1
:103310008091B2049091B3040E9406066C01B7013B
:10332000C5010E943E10C816D90650F5C0E2CD0F67
:103330001D17C1F080E2810F883048F4177081E0DA
:10334000012E01C0880F0A94EAF70E946017C83066
:1033500048F481E09D2F977001C0880F9A95EAF795
:103360000E946717802F0E94A418C83040F6D770BB
:1033700081E001C0880FDA95EAF70E946017BFCF9D
:10338000C77081E001C0880FCA95EAF7F6CFCF93E6
:10339000DF93EC010E94EC0D9E01205E3109283084
:1033A000310510F0209741F40E9467178C2F0E947E
:1033B0001F18DF91CF9108950E945617F7CF66230B
:1033C00029F0209125052260209325059C0130528B
:1033D0002115304308F499270E94C7190895B0E0D9
:1033E000A0E0E5EFF9E10C9437346C018B01E42E99
:1033F0008091110182FF87C0C091BA03D091BB03B5
:10340000CC15DD0521F0C114D10409F07CC08091F8
:1034100011018B7F8093110181FD6EC08091B803F3
:103420009091B903A801481B590B81E020910F012D
:10343000309110014217530708F480E08170F82E94
:1034400080911101F0FA81F980931101FE0183E06E
:10345000F695E7958A95E1F7EE71FF27E856FC4F60
:1034600020813181AE014F70552781E090E002C08C
:10347000880F991F4A95E2F7FF2009F43FC0822B7D
:10348000932B918380838091970381FF08C0809163
:10349000110180618093110182E00E94960B80915E
:1034A000970385FF08C0809111018062809311010C
:1034B00080E20E94960B6F2DCE010E94DF19EE2054
:1034C00031F080919D0485FF02C086FF30C080915D
:1034D000A0049091A1040E94A50E8091BA0390913E
:1034E000BB039C0130522115304308F499270E94F8
:1034F00007180E94B81217C081E0A0CF8095909560
:1035000082239323BECFC601905281159043A0F42D
:10351000C60199270E9407188091BA039091BB03B6
:103520008C159D0531F31093B9030093B803CDB703
:10353000DEB7E8E00C945334C601ECCFA7E0B0E06E
:10354000E4EAFAE10C942D347C01DC0114968C91B0
:10355000882309F457C161E0C7010E94D80F8C018C
:10356000F7018581882319F18091B5049091B60403
:103570000097E9F008171907D1F09927F4E0880FB0
:10358000991FFA95E1F7FC01EF5BFD4F2081246064
:103590002083845C9D4FDC010D931C930E9491124B
:1035A0001092250561E0C7010E94D80F8C01F70138
:1035B0008581882309F4B1C0C801975780389105E7
:1035C00008F0DEC0D02EFFE0F01708F40BC18FEF3B
:1035D00093E00E949A34811105C104E413E0D110F4
:1035E00036C019821A821B821C8299249A9468011F
:1035F0003FEFC31AD30AC8010E949A3489831A8202
:10360000882309F4EFC0813009F081C0580142E0FD
:10361000A40EB11CC6010E949A34C82E8A83882346
:1036200009F4E0C0C5010E949A34D82E8FEF8C0DAA
:103630008330D8F4580153E0A50EB11CDB82DD20A5
:1036400021F0CE0101960E94B1188501D0CF01155D
:1036500024E0120709F4C6C0C8010E949A348111FF
:1036600001C0DA940F5F1F4FBACF8BEF8C0D833000
:1036700030F5C8010396DB825C01DD2031F358018F
:10368000A4E0AA0EB11C0E949A348C838823E9F22C
:103690008B819C818130BFEF9B0710F0982F88278A
:1036A000E6E0CE1631F0F7E0CF1631F00E94C229E5
:1036B000CCCF0E949D29C9CF0E942429C6CF24E0E7
:1036C000C212C3CF580134E0A30EB11CC801039647
:1036D0000E949A34DD2009F485C0882309F482C051
:1036E0008150990B989E9001999E300D11244D2D7B
:1036F0004150550BCA01820F931F019708F4A5CFC3
:10370000AFE9BFE01197F1F700C00000F6CFCE019E
:1037100001960E94B118560198CF6801E7E5DE1ABC
:10372000FFEFCF16D10409F058F562E372E08C2D5B
:103730000E942A10892B21F5C60174E0880F991F79
:103740007A95E1F7FC01E45CFD4F22812130A1F57F
:103750002091320230913302232B91F020913402D8
:1037600030913502232B61F02091360230913702DF
:103770004091380250913902242B352B232B21F113
:10378000D70115965C90552009F440C00E35BCE772
:103790001B0729F10F35ECE71E0741F00D35FCE75B
:1037A0001F07A1F5809100018823C9F01092000144
:1037B00080E00E94A11716C0223011F72091360236
:1037C00030913702232BE1F2FC01EF5BFD4F2081AA
:1037D0002E7F2083845C9D4F0E949112D1CF81E087
:1037E000809300018091CA01877061F0D70115961E
:1037F0008C91882339F08091BE0482FF03C082E05F
:103800000E94B00C2796E2E10C94493480910001AB
:10381000882309F42DC6480120EE821A91084090B1
:10382000F5018091C701482A80919703482A38E022
:103830008316910408F086C098012770332781E031
:1038400090E001C0880F2A95EAF7552009F477C067
:10385000482AD7018D919C910E94150C21E030E0FF
:10386000390102C0660C771C8A95E2F7E0917F046B
:10387000F0918004FF83EE832090A4013090A50195
:103880001D822D81E22FF0E0EE0FFF1FE35FFC4F62
:10389000C080D180C114D10409F445C6411005C0CF
:1038A000D60112968C91811187C0F601838190E038
:1038B00086219721892B09F47FC08085982F9770E6
:1038C00009F487E0F8E08F16910408F055C0552000
:1038D00009F44EC086958170882309F46DC0D60125
:1038E000AD90BC900A151B0519F4552009F464C06D
:1038F000EE81FF81CE16DF0609F45EC0D6011D966B
:10390000ED91FC91309721F08081882309F454C017
:10391000642DC6010E940708882309F44DC00A15CA
:103920001B0509F068C60115110509F469C6511097
:1039300069C6A214B30409F03FC0512C63C6809538
:10394000482287CF552009F4D7C51093A5010093CD
:10395000A4010E9415066093760470937704809307
:1039600078049093790410927E0410927D0471CFB4
:1039700082FB882780F9B0CF5520F1F08170ACCF61
:103980000E946E175DC60497813A910548F48A2D0E
:103990000E945806552009F46BC50E94261222CFBA
:1039A0000E9426128FE39CE90197F1F700C0000006
:1039B0008A2D0E941F18EECF9D819F5F9D8361CF4E
:1039C000FC01208131810217130709F04AC551100B
:1039D0004AC510927C0480E00E94A11749C5902F2F
:1039E000812F85C5F9014485558566857785C9018F
:1039F0000E94E306D60115968C9181FFA8C5C601E9
:103A00000E9478128091B5049091B60408171907A6
:103A100009F09DC51092B6041092B50498C5909116
:103A20001101892F8E7F90FF8160809311010E9488
:103A3000B812B8C5809111018E7FF7CF8091110126
:103A40008F7E013E110531F0053E1105E9F48091AC
:103A500011018F7D809311018091110180FF19C0A8
:103A6000D70115968C9108321105F0F40E3111052D
:103A700008F06BC00430110548F5882351F010920E
:103A8000BB031092BA0305C0C80190528115904340
:103A900018F7F801E851FC47E730F10508F08CC54C
:103AA000E050FB4C0C9420340933110558F40D32CE
:103AB000110518F40B32110501F790919D0492FD48
:103AC000DCCF08C004361105C1F3D7CF90919D0417
:103AD00094FDD3CF882309F4A6C08091F50190917D
:103AE0009703892B8D7FB1F11092BB031092BA031B
:103AF00080919D0481FD2EC0F80143E0F695E79585
:103B00004A95E1F7EE71FF27E856FC4F98012F70B8
:103B1000332781E090E002C0880F991F2A95E2F7D1
:103B20008095909520813181822393239183808396
:103B300060E0C8010E94DF198091F5018D7F0E942D
:103B4000660B82E00E94B00C4DCE90919D0493FDD7
:103B500094CFC0CF89E0F701A0E1B2E001900D92CF
:103B60008A95E1F710921302109212028091BA0323
:103B70009091BB0308171907D1F520919D0425FFEB
:103B800036C03091110131FF02C026FF30C02091B4
:103B9000B8033091B9035601A21AB30AB7010E94C3
:103BA0003E10A816B90618F58091970381FF08C04A
:103BB0008091110180618093110182E00E94960B37
:103BC0008091970385FF08C08091110180628093E6
:103BD000110180E20E94960B60911101669561705F
:103BE0008091BA039091BB030E94DF19FBCD8091B5
:103BF000F50190919703982B2091110191FB21F9E8
:103C0000209311018D7F0E94660B1093BB030093DC
:103C1000BA03D092B903C092B803809111018460B5
:103C2000809311018ECF970140E0B601C8010E9438
:103C3000EF19D8CD06E221EE41EE6AE17CE7C7013B
:103C40000E946119CFCD07E225EE45EE6BE17CE7DE
:103C5000F6CF06E221EE40EE68E17CE7F0CF07E226
:103C600025EE44EE69E17CE7EACF06E221EE42EE82
:103C70006CE17CE7E4CF07E225EE46EE6DE17CE700
:103C8000DECF08E221E045EE6EE17CE7D8CF8091FF
:103C9000BD0481608093BD0495C08091BE0488609E
:103CA0008093BE048FC08091BD048260F3CF809169
:103CB000BD048460EFCF8091BD048860EBCF80911C
:103CC000BE048160EDCF8091BE048260E9CF809117
:103CD000BD048061DFCF8091BD048062DBCF809125
:103CE000BD048064D7CF0E94D7128091BD04806844
:103CF000D1CF8091BD048C60CDCF8091BE04836014
:103D0000CFCF8091BD048E7FC5CF8091BE04877FC9
:103D1000C7CF8091BD048D7FBDCF8091BD048B7FC7
:103D2000B9CF8091BD04877FB5CF8091BE048E7FCF
:103D3000B7CF8091BE048D7FB3CF8091BD048F7EBD
:103D4000A9CF8091BD048F7DA5CF8091BD048F7BCD
:103D5000A1CF0E94D7128091BD048F779BCF809115
:103D6000BD04837F97CF8091BE048C7F99CF8091D3
:103D7000BD0482FB992790F921E0922790FB82F9FC
:103D800090FB83F987CF8091BE04982F9095917016
:103D90008E7F892B90FB81F983CF9091BD04892F71
:103DA0008F7B96FF806476CF0E94D7129091BD04DE
:103DB000892F97FB87F980586DCF61E08EE090E006
:103DC0000E94B8346091BD047091BE0484E090E01C
:103DD0000E94D6340E94D71205CD60E0EFCF9091BB
:103DE000BD04892F8F7E94FF806154CF9091BD04D4
:103DF000892F8E7F90FF81604DCF9091BE04892FD7
:103E0000877F93FF88604CCF0631FCE71F07A9F539
:103E100080919703982F9A7A30919C0430FF04C0C8
:103E2000482F447409F090E031FF04C0482F4171DD
:103E300009F090E032FF04C0482F487809F090E084
:103E400033FF03C0827209F090E0222361F081E029
:103E5000911101C080E08093A60189E2911185E370
:103E60000E9458069ACD8091A601811104C089E272
:103E70000E942D0692CD85E3FBCF07373CE7130761
:103E800009F45AC008374CE7140709F460C022232C
:103E900081F003305CE7150709F479C008F05CC0D5
:103EA00001159CE7190709F465C001301C4709F4A6
:103EB00074C0F70187819085009709F47CC00E9447
:103EC0003D0A182F092FF701C580B680B2943FE054
:103ED000B3228091CA01877001F1AC2CCC20F1F0A3
:103EE000892F807F803461F080E2810F8830A8F0D4
:103EF000892F807E803221F4123078F0BB2069F067
:103F00008091BE0482FF09C082E00E94B00C8091C3
:103F1000CA018770AA24A3948111A12C902E929497
:103F20002FE09222FBE0F91508F4B7C0E92DF0E08C
:103F3000E95FFA4C0C94203481E0222351F00E9476
:103F4000C70C43E062E081E00E94830C4BCC82E02E
:103F5000F4CF0E94A30CF5CF0B35BCE71B0749F14A
:103F60000C35ECE71E07D9F00A351C4709F0A1CF44
:103F700081E01CC00E94D7122FEF34E34CE02150A7
:103F800030404040E1F700C000000E94810E6FEF1A
:103F90007FEF90E080E00E94D6340E943917809134
:103FA000BE0482FB882780F991E089270E945C107B
:103FB00080CF80E0FBCF858100811181882369F06B
:103FC000C8010E94630FD82E682FC8010E94490CB7
:103FD000B8018D2D0E94460F72CFC8010E94150CAA
:103FE000D82EF6CF202F2F70D22E802F807F19F061
:103FF000D29490EFD922CC20A9F0DD2059F080E2B4
:10400000810F883010F0111107C08D2D0E949D0B7B
:104010000E942612812F3FC080912505D82AD09278
:104020002505F6CF812F0E946E17DD20B1F180E2C9
:10403000810F883010F0111104C08D2D0E94960B55
:1040400003C08D2D0E948F0B0E94261226C0302F98
:104050003F70D32E802F807F803219F0D29480EF72
:10406000D822112351F0113009F499C0CC2009F461
:10407000A5C0BB2009F449C0CDCF8091BE0482FD0C
:1040800040C0CC20C1F1DD2029F08D2D0E949D0B78
:104090000E94261280E00E941F18A92DA850BB0B79
:1040A000149710F40E94D606812F902F0E94ED0CD9
:1040B0008111B7C11092A8011092A701AA20B1F0F6
:1040C0008091CA0180FD12C0D70115961C92869579
:1040D000869586950E94C70CC7010E949E1A809102
:1040E000CA018695869586950E94A30C60E0C7015B
:1040F0000E94D80F87CB80E00E946E17DD2069F206
:104100009CCFCC2091F1B11004C08D2D0E94671777
:10411000C4CF41E0B41211C08090F5018D2D8821EB
:10412000D81609F4BACF0E9421069093F401809327
:10413000F301D828D092F501B0CF80919E0482304F
:1041400008F4ABCFB812A9CF8D2D0E9467178D2D23
:104150000E947A0B8091C7019D2D9823D91609F4EE
:104160009CCFD82AD092C70198CFB1100AC08D2D0C
:104170000E9460178D2D0E947A0B8D2D0E94010CDC
:104180008CCF80919E04823008F487CF51E0B51225
:1041900084CF809197038D2109F47FCFE8CF809160
:1041A000A404CC2021F08B1508F477CFAECFB8163D
:1041B00008F073CF8D2D0E9460176FCFBB20D1F315
:1041C0008091A2049091A304193321F08091A0045E
:1041D0009091A1040E94A50E812F0E946E175DCFC1
:1041E000802F86958695837069F0813009F055CFD0
:1041F000812F902F9370C11002C080E090E00E9448
:104200008C064BCF812F902F9370C11002C080E09D
:1042100090E00E94B10641CF6C2D812F0E94080DC5
:104220003CCF802F837091F5C11037CF412F42953D
:1042300046954770440F440F812F8F70042E01C0A4
:10424000880F0A94EAF7212F207114FF07C02FE08E
:1042500030E001C0220F4A95EAF72095302F3695BD
:1042600036953370323069F050F4409103023130AA
:1042700029F0822B84230E94EA0C0FCF842B822BFF
:10428000FACF282B809103028227F5CF8695CC2088
:1042900011F0802F8170882309F4FFCE412F4295C1
:1042A00046954770440F440F812F8F70042E01C034
:1042B000880F0A94EAF7212F207114FF07C02FE01E
:1042C00030E001C0220F4A95EAF72095302F36954D
:1042D00036953370323069F050F440910402313039
:1042E00029F0822B84230E94800CD7CE842B822B32
:1042F000FACF282B809104028227F5CF802F8F7070
:10430000D82ECC2021F00E94C70C812FFFCE812F08
:104310000E9460178D2D0E94A30CBFCE123F89F121
:1043200060F4103FB9F0113F81F0CC2009F474C063
:10433000B11070CE802F8F7128C0133F49F1143F08
:10434000A1F78091BE0482FD2FC0802F8F71CC20F9
:1043500011F31BC08091A404CC2079F0B81608F0AA
:104360009CCE202F2F7181E090E001C0880F2A950C
:10437000EAF7909104028927B6CF8B1508F48DCE09
:10438000F0CF802F8F71C110C6CF0E94C70C85CE91
:1043900080E0CC2009F4A7CF81E0902F9F7101C06D
:1043A000880F9A95EAF79FCF80919E04823008F19A
:1043B000CC20A9F09091CA019770943041F40E94EA
:1043C000A30B802F8F710E94A30CA12C66CE63E0FB
:1043D000B816D8F7802F8F710E94D30CF6CFB8167D
:1043E00020F00E94A30B64E0F5CF81E00E94B00CA6
:1043F000ECCFCC2031F063E0802F8F710E94D30C82
:104400004CCE81E00E94B00C91E09B1508F045CEA7
:1044100082E00E94B00C41CEB110D2CE802F8F71BD
:104420007ACFCC2019F0B11045CE48CEB11042CE93
:1044300020E0F701408151816281738184819581FF
:104440000E94B30F80919F0483FF34CE8091A70117
:104450009091A801029709F02DCE812F0E94A418F7
:1044600029CE552029F0DC0118968C9185FFB3CA1E
:10447000C80197558F3F910511F008F068C0F80109
:10448000FF2754E0EE0FFF1F5A95E1F79F01245CD0
:104490003D4F6901D70115968C91EF5BFD4F9081DF
:1044A00080FB90F99083882309F49CCA0E9421061E
:1044B00090930F0280930E02F60182818F5F8283B8
:1044C0008091250590919703892B83838091F50135
:1044D00084834681578166857785C6010E94E306FD
:1044E000D60115968C9181FF7ACA90E080E0909376
:1044F000B5048093B6042BC08091A4019091A501CE
:104500000817190781F41092A5011092A4011092C6
:104510007604109277041092780410927904109225
:104520007E0410927D0480917F0490918004009716
:1045300009F49ECFA8E08A16910408F041CA642DC0
:104540000E940708811103C081E00E94A117809199
:104550009D0480FF9ECA0E9421066C01F70185819F
:10456000882309F46BCA8091110182FF08C020E101
:1045700032E040E0B60190E080E00E94EF190431A3
:10458000FCE71F0709F456CA05312CE7120709F4A6
:1045900046CA03313CE7130729F480911101816079
:1045A00080931101C80190528115904308F054CABC
:1045B0001092BB031092BA03F7012581222309F45C
:1045C00023CC1092B404C8019057839708F01CCCF8
:1045D00084E090E00E94A2349093BE048093BD04D6
:1045E000F801E150F047E232F10508F050CBED5E02
:1045F000FA4C0C942034A114B10409F09AC9512C3E
:10460000B12CA12C80E00E94A117D0928004C0920E
:104610007F0481E080937C04F601858180937A0495
:1046200051100EC0AB2861F0F601808191819C0190
:1046300024503109213A310508F0A2C90E942D0603
:10464000D6011696AD90BC90C5019A9581159F41F3
:1046500010F4E0EEBE2277247394C50101978F33E6
:104660009E4708F0712CD6011996ED91FC911A978E
:10467000309731F01B966D917C9181E009957822FD
:10468000772079F0F601868197810E94EC0D809366
:104690007B04C501F8E08F16910408F074C90E94EC
:1046A000B6070E94261276C9B0E0A0E0EAE5F3E280
:1046B0000C9438348091C401807F09F054C08091FB
:1046C000C301882309F44FC0E091240589E0D82E66
:1046D0008091DB048E1709F446C00E2F10E0ED9D8B
:1046E000F0011124E452FB4F8481882309F440C077
:1046F000D09EE001D19ED00D1124FE01E452FB4F6B
:1047000091818091BF01981333C090818091BE0147
:1047100098132EC0858181112BC0E280F380809197
:10472000C0019091C101E81AF90A60E08EEB91E0B6
:104730000E94D80F6EEB71E00E943E10E816F90659
:10474000B8F48091C4018F7080618093C401CE5110
:10475000DB4F88818F70806188838EEB91E00E94AF
:104760009E1A0E940B0CCDB7DEB7E7E00C945434D0
:10477000F8013196E770ACCFA8E1B0E0E2ECF3E2EB
:104780000C9430348C0186E0F801DE0153960190E0
:104790000D928A95E1F7D80114967C90149715969E
:1047A000EC908EEBA82E81E0B82E8091C201811191
:1047B0002AC0711003C0FF24F3941CC0EE20F9F04E
:1047C000C8010E949F0FF82E8823C9F089E0F801E4
:1047D000AEEBB1E001900D928A95E1F78091C201B4
:1047E000813031F48091BE019091BF010E94920FFF
:1047F0000E9454238F2D6896EFE00C944C34C8012E
:104800000E949E1AD8CFF80150806180C280D38068
:1048100060E08EEB91E00E94D80FF090C301809190
:10482000C0019091C1014601881A990A60E08EEB9F
:1048300091E0FF2009F428C10E94D80F6EEB71E0CF
:104840000E943E108816990608F0D1C0772009F41E
:10485000B2CF8091C401382F307F2091BF01D801A1
:1048600011969C911197311171C029131FC020918D
:10487000BE019C9129131AC04091C5015091C601F7
:1048800017962D913C914217530781F4E11054C0C3
:104890008F7080618093C4018EEB91E00E949E1A1C
:1048A0008091C401F8018683F12CA4CFE11044C0AB
:1048B000662D852D0E948A04E82E882381F0809140
:1048C0009F0480FFF1CF8EEB91E00E949E1A89E059
:1048D000EEEBF1E0DF011D928A95E9F7E5CF5B8A07
:1048E0006C8A8B899C890E94920F292F22952F70A8
:1048F000243058F49F70223088F0992399F0F80101
:104900009681907F79F4FE2C75CF2A5F2F7022302C
:1049100068F0C8010E949E1AEF2CF5CF992311F080
:10492000882389F3805E883070F3F3CF803F58F39B
:10493000815F833070F7E7CF8091C40181608093FD
:10494000C40180919F0481FDAFCFBDCF291320C04A
:104950002091BE019C9129131BC04091C50150912B
:10496000C60117962D913C9118974217530781F471
:10497000E1100EC016968C93C8010E949E1A89E021
:10498000F801AEEBB1E001900D928A95E1F732CFDC
:10499000C8010E949F0F882309F431CFEE2009F44B
:1049A0002ECF8091C4018032B8F02091BE013091A9
:1049B000BF013B872A87DD86CC869091C2019E8706
:1049C0001F86888B8091C5019091C6019A8B898B37
:1049D000CE010A960E949E1A89E0F801AEEBB1E082
:1049E00001900D928A95E1F70E945423E4CE8091C4
:1049F000C401982F907F09F466CF772009F4DBCEAD
:104A00002091BF01F801918129131AC02091BE01A4
:104A10009081291315C04091C5015091C60127818D
:104A200030854217530761F4E1100AC08683C8013C
:104A30000E949E1A89E0D5011D928A95E9F7DACE87
:104A4000C8010E949F0F882309F4D9CEEE2009F4F3
:104A5000D6CE8091C401803208F4BECF2091BE0131
:104A60003091BF013A832983DC82CB829091C201CD
:104A70009D831E828F838091C5019091C601998785
:104A80008887CE010196A6CF0E94D80F6EEB71E009
:104A90000E943E108816990608F04AC0772009F453
:104AA0008ACEFE2CEE2009F4AACE9091BF01F80127
:104AB000818198132FC09091BE01808198132AC0E4
:104AC0002091C5013091C60187819085281739074B
:104AD00009F58091C0019091C101C81AD90AF8EC7A
:104AE000CF16D10408F04BCF9091C40190FD47CF71
:104AF000907F09F444CF8091C401D80116968C931D
:104B00001697903F09F438CF982F907F905F8F7061
:104B1000892B30CFC8010E949F0F81115DCF8091FA
:104B2000C40181608093C401C8010E949E1A62CEB4
:104B300089E0F50111928A95E9F75CCEA2E1B0E037
:104B4000E4EAF5E20C943B340A871B872C873D8707
:104B50004E875F87688B798B8A8BCE010A960E947D
:104B6000BC2381110CC089E0FE013A96DE0111964A
:104B700001900D928A95E1F78E8581110BC019E0A5
:104B8000809124059091DB04891331C06296E4E0A2
:104B90000C9457342091DB0430E0C90101968770F2
:104BA0009927409124054817190699F099E0929F9A
:104BB000D001939FB00D1124A452BB4FFE0131963A
:104BC00001900D929A95E1F78093DB040E940B0C03
:104BD000D6CF0E94D7121092DB041092240589E0F0
:104BE000EEEBF1E0DF011D928A95E9F7C8CF819FD6
:104BF000C001112484529B4F0E94BC23882331F2B0
:104C00008091240590E00196877099278093240570
:104C1000B7CFEF92FF920F931F93CF93DF938091C3
:104C2000F703882361F0E091BE038DE0F82E8091B8
:104C3000F703E81748F01092F7031092BE03CDB7C0
:104C4000DEB7E6E00C945534EE24E394EE0EE092E9
:104C5000BE03CE2FD0E0EF9DF0011124E850FC4FB1
:104C600084818823E9F087819085892B21F48185CF
:104C70009285019659F4008111812281338144810A
:104C800055816681778180850E949E25FC9EF0017A
:104C9000FD9EF00D1124E850FC4F14821092250562
:104CA000EE2DC5CF10926B0410926A04109212017F
:104CB00080916904809368040E9455080E94092627
:104CC0000895B0E0A0E0E7E6F6E20C942E34C0913F
:104CD000680497E0992E01E010E02DE0322E34E0D8
:104CE000432E55245394809169048C1309C00E946B
:104CF00009260E945508CDB7DEB7E1E10C944A348D
:104D0000D0E0FE01EE0FFF1FE05AFB4F8081918142
:104D1000989ED001999EB00D1124A154BC4F1496B9
:104D20002C911497211159C06090F703E8EFF3E03C
:104D300030E020E0812C5D01261508F04CC0E384B2
:104D4000F484D501CD90DC906FEF7FEF712C472D6F
:104D500050E0DA01AA0FBB1FAC0DBD1D0D90BC9138
:104D6000A02D109731F0EA16FB0609F4BA017394EE
:104D7000EECF6F3F7607A9F1D80102C0AA0FBB1F83
:104D80006A95E2F78A2AB801072C02C0660F771FDE
:104D90000A94E2F7AB01415051098416150601F55A
:104DA000329EF001339EF00D1124E850FC4F989E86
:104DB000D001999EB00D1124A154BC4F12962D9193
:104DC0003C91139730872783448210821182928707
:104DD000818715965C920E9427082196C37083CF25
:104DE00014822F5F3F4F3D96A7CFAEE1B0E0EBEFCF
:104DF000F6E20C942D344B8B5C8B6D8B7E8B8F8B02
:104E0000988F882349F08091A7019091A80101967D
:104E10009093A8018093A701888D81111092250598
:104E2000188A198A1A8A86E0FE017396DE011A969C
:104E300001900D928A95E1F78091BE0482FF1EC019
:104E40008091840490918504892BC1F00E942106F1
:104E50002091C8013091C901821B930B20918404D9
:104E6000309185048217930720F08091CA0182FF58
:104E7000E7C10E94AA0B81110E945B0B8E858823DB
:104E800089F061E0CE010A960E94D80F6C018F85EF
:104E900020E5C2162CE7D20689F4882329F181E0A7
:104EA000809312010A851B852C853D854E855F8583
:104EB000688979898A890E949E25CDC031E5C3160B
:104EC0003CE7D30629F4882379F00E945226EACFE2
:104ED00042E5C4164CE7D40639F4882329F08091C2
:104EE00012018111F2CFDBCF9FEBE92E93E0F92E77
:104EF000412CB12CA12C88248394912CBE016F5F8E
:104F00007F4F7A8F698F22242394F701408151814A
:104F100066246A94762C20E0822F90E0FC01EE0F4C
:104F2000FF1FE40FF51F608171816115710531F07C
:104F3000C616D70609F43C012F5FEECF312CFFEFE8
:104F40006F167F0609F448C0F701448130901201C2
:104F5000832D411180E0F82FF1703F2EF70155802D
:104F600086819F85992309F4F7C0332009F4F4C0A2
:104F70000091980410919904511013C0A401062CBB
:104F800001C0440F0A94EAF7842B86838091BC0306
:104F90009091BD038017910720F41093BD030093F7
:104FA000BC03C40102C0880F991F2A95E2F701973C
:104FB000F70126812817190679F480916A049091E7
:104FC0006B04009709F44BC00E94060608171907E6
:104FD00008F045C0F70124824328FFEFAF1ABF0A4B
:104FE00027E0E20EF11C38E0A316B10409F08DCFE2
:104FF0008F85882309F410C1442009F40DC10E9453
:10500000210690936B0480936A048091F7038830A3
:1050100010F591E0980F9093F70399E0FE013A960E
:10502000DE01119601900D929A95E1F74DE0849F73
:10503000C001112488509C4F29E0FE013196DC010B
:1050400001900D922A95E1F72FEF3FEFFC01328797
:105050002187D486C3866E96E2E10C944934809110
:10506000680450916904982FF0E0E0E0851314C0C3
:1050700090936804EE16FF0609F4AECF90E0FC01B1
:10508000EE0FFF1FE05AFB4FB182A08201968370A2
:10509000992780936904A0CF682E712CF301EE0F3D
:1050A000FF1FE05AFB4F20813181F7E0F29FD001D2
:1050B000F39FB00D1124A154BC4F2D913C91119739
:1050C0003E8F2D8F40E020E030E0E32FF0E0EE0F48
:1050D000FF1F6D8D7E8DE60FF71F00811181011579
:1050E0001105E1F0F7010190F081E02DFC8FEB8FCD
:1050F00020E005C00617170709F4432D2F5FE22FA4
:10510000F0E0EE0FFF1F6B8D7C8DE60FF71F6081C7
:1051100071816115710571F73F5FD7CF4423C9F0E5
:10512000F701231708F0FD012482EE16FF0621F493
:1051300090936804342E50CF981305C0AE17BF0764
:1051400011F49F5F937093012F5F3F4F822F837005
:105150008DCFF0E0E0E0F7CF90E0511020C0B40137
:1051600002C0660F771F2A95E2F79B012150310993
:105170008217930731F4442309F44CC0C5010E94FF
:105180002708C401062C01C0880F0A94EAF7982F5B
:105190009095F701868189238683352C1DCFAC013C
:1051A000062C02C0559547950A94E2F7BA01617042
:1051B00077279C012150310982239323892B31F5D4
:1051C000672B21F1F70182819381892BE1F0E98D31
:1051D000FA8D27E011922A95E9F70E942106282FDF
:1051E0008B839C8334E03D83F70182819381782F08
:1051F0008887998709811A813C8144E05E816F81AB
:10520000892F0E949E25F7011582BBCFF42FF170E4
:105210005F2EB7CF532CB5CF90916804809169046D
:10522000981729F00E946126411015CF3BCE0E94AD
:10523000092610926B0410926A040E945508F4CF5C
:1052400082E00E94B00C15CEA6E0B0E0EAE2F9E2FE
:105250000C943D349093290280932802811520E21A
:10526000920730F40E9407182696E2E00C94593415
:1052700080EF89838A830E9421068160682F9C8346
:105280008B8349815A817C8181E090E00E94F526E0
:10529000EBCF0F931F93CF93DF938C01EB0162E36E
:1052A00072E08C2F0E942A10892BA1F48091A00417
:1052B0009091A1040E94A50EDD27C65DDD4F888177
:1052C000F801128218828330F1F048F4813059F0ED
:1052D000823081F0DF91CF911F910F91089584303A
:1052E000B9F08530B9F7809132029091330200977E
:1052F00089F306C08091340290913502009799F3AA
:105300000E942429E7CF8091360290913702F6CF90
:105310008091380290913902009791F720913202E2
:10532000309133028091340290913502211531057C
:10533000F1F2009729F7C901E3CFA6E0B0E0E3EA74
:10534000F9E20C943D349093290280932802811550
:1053500020E2920730F40E94C7192696E2E00C94EE
:10536000593480EF89838A830E9421068160682FE7
:105370009C838B8349815A817C8181E091E00E94EA
:10538000F526EBCFCF93DF93EC010E949D2980910E
:10539000A0049091A1040E94A50ECE010E94242990
:1053A000DF91CF9108950F931F93CF93DF938C01DB
:1053B000862F62E372E00E942A10892BB1F4C0911B
:1053C0003202D0913302209781F0F801828183303C
:1053D00051F4CE010E94C229CE010E94C229CE0101
:1053E0000E94C22902C08430D0F7DF91CF911F9173
:1053F0000F9108950F931F93CF93DF938C01EB01CF
:1054000062E372E08C2F0E942A10892B09F05CC0A5
:10541000FE01FF27D80112968C911297E65DFD4F91
:105420008130B9F415969C9192FF02C080830AC026
:1054300090FFFCCF82E0808380913402909135020E
:105440000097B9F480913202909133020097E1F114
:1054500010C08230B9F515968C9182FD28C080FD70
:105460000BC083E0808380913602909137020097D1
:1054700001F10E949D2928C084E080838091380238
:10548000909139020097A9F78091320290913302EE
:105490000097F9F00E94C229809134029091350260
:1054A000009739F78091320290913302E2CF85E084
:1054B00080838091320290913302009729F00E94FC
:1054C000C229F0CF86E08083DF91CF911F910F91A9
:1054D00008958091340290913502B8CFA6E0B0E0F3
:1054E000E4E7FAE20C943B340E9421068C0180919F
:1054F000F6019091F7018017910781F019821A82C5
:105500000E942106682F49815A81792F80E090E01E
:105510000E94F5261093F7010093F6012696E4E029
:105520000C9457341F920F920FB60F9211242F93A1
:105530003F934F935F936F937F938F939F93AF931B
:10554000BF93CF93DF93EF93FF93D091E900DF7088
:105550008091EC00C82FC17080FDC0E81092E90076
:105560008091F000877F8093F00078940E94081368
:105570001092E9008091F00088608093F000CD2BBC
:10558000CF70C093E900FF91EF91DF91CF91BF9170
:10559000AF919F918F917F916F915F914F913F91CB
:1055A0002F910F900FBE0F901F9018951F920F9282
:1055B0000FB60F9211242F933F934F935F936F93E6
:1055C0007F938F939F93AF93BF93EF93FF938091BC
:1055D000E10082FF09C08091E20082FF05C0809156
:1055E000E1008B7F8093E1008091DA0080FF24C08E
:1055F0008091D80080FF20C08091DA008E7F809358
:10560000DA008091D90080FF9DC080E189BD82E1F0
:1056100089BD09B400FEFDCF81E08093D104809163
:10562000C404811109C00E94A9040E944A05809106
:10563000E20084608093E2008091E10080FF17C067
:105640008091E20080FF13C08091E2008E7F809302
:10565000E2008091E20080618093E2008091D800B6
:1056600080628093D80019BC85E08093D10480913A
:10567000E10084FF2BC08091E20084FF27C080E11D
:1056800089BD82E189BD89B5982F917080FFFBCFDC
:105690008091D8008F7D8093D8008091E1008F7E2B
:1056A0008093E1008091E2008F7E8093E200809100
:1056B000E20081608093E2008091D204882309F4A3
:1056C00047C084E08093D1048091D1048091E100AF
:1056D00083FF27C08091E20083FF23C08091E10017
:1056E000877F8093E10082E08093D1041092D204FE
:1056F0008091E1008E7F8093E1008091E2008E7FB7
:105700008093E2008091E20080618093E20042E0B9
:1057100060E080E00E9418058091F000886080932E
:10572000F000FF91EF91BF91AF919F918F917F9189
:105730006F915F914F913F912F910F900FBE0F90FE
:105740001F90189519BC1092D1041092C40474CF04
:105750008091E30087FD93E09093D104B5CF7894D6
:105760001F921FB61F9211248F939F93AF93BF93E5
:105770008091C0049091C104A091C204B091C3046F
:105780000196A11DB11D8093C0049093C104A09304
:10579000C204B093C304BF91AF919F918F911F90AA
:1057A0001FBE1F9018951F921FB61F9211248F9332
:1057B0009F93AF93BF938091BF04811113C08091D9
:1057C000C0049091C104A091C204B091C304419659
:1057D000A11DB11D8093C0049093C104A093C20485
:1057E000B093C304BF91AF919F918F911F901FBE43
:1057F0001F901895CDB7DEB7EB970FB6F894DEBFC4
:105800000FBECDBF85B7806885BF85B7806885BF6F
:1058100084B7877F84BF0FB6F894A8958091600005
:10582000886180936000109260000FBE80E890E075
:105830000FB6F89480936100909361000FBE83E3EC
:1058400099E090937B0180937A010E940E090E9457
:1058500030110E94A4100E9404100E94A9040E940A
:105860004A058091E20084608093E2007894809100
:10587000D1048823A1F01091E9001F709091EC00F1
:10588000892F817090FD80E8182B1092E90080919B
:10589000E80083FD0E9408131F701093E90082E066
:1058A00084BD93E095BD9AEF97BD80936E000E94F2
:1058B000FE0E811102C00E94AE1685EF0E943509CE
:1058C00080EF0E94350987E60E94350986EF0E9425
:1058D00035090DE511E0D8018D918D018F3F11F053
:1058E0000E943509B1E00A361B07A9F788E0EEE10E
:1058F000F2E0DF01282F1D922A95E9F7EBEFF1E0A6
:10590000DF011D928A95E9F790E080E00E94A234C1
:10591000853E9E4F21F40E94FE0E811163C065EE0C
:105920007EEF90E080E00E94D63460E082E090E07C
:105930000E94B83481E08093030261E083E090E04C
:105940000E94B83460E074E184E090E00E94D634B4
:1059500060E086E090E00E94B83460E087E090E08C
:105960000E94B83440E050E0BA0188E090E00E9424
:10597000CA3460E083E290E00E94B83460E08CE0DA
:1059800090E00E94B83460E08DE090E00E94B8346E
:1059900019821A821B821C821D821E821F82188617
:1059A00048E050E067E170E0CE0101960E94A83423
:1059B00040E050E0BA018FE190E00E94CA3480E0FC
:1059C0000E94AF0E0E94AE1640E050E0BA018FE098
:1059D00090E00E94CA3440E050E0BA0183E190E0D8
:1059E0000E94CA3482E090E00E949A3480930502BB
:1059F00084E090E00E94A2349093BE048093BD04A2
:105A00000E947411EFEFF6E721E0E150F0402040F2
:105A1000E1F700C000000E94741180911E0280FF17
:105A200008C06FEF7FEF90E080E00E94D6340E94C4
:105A3000810E83E090E00E949A340E94EA0C81E09B
:105A400091E09093BA048093B9041E013BE2230EC7
:105A5000311C8091D10400E112E1853009F491C03C
:105A60000E947411A6E0CA2EA2E0DA2EBEE18B2EAF
:105A7000B2E09B2E4EE052E0D401F601219131912B
:105A80008D919D914E175F0709F485C0281739073E
:105A9000A9F3712CF401019111914F01D601AD9040
:105AA000BD906D01A016B10661F1A026B126612C52
:105AB000EE24E394F12CC7018A219B21892BB9F0B4
:105AC0006CAA7DAA0E9421069FAB8EABB1E0B8AF55
:105AD00091E0970120233123232B09F490E099AF23
