:100000000C9444050C947C050C947C050C947C05A4
:100010000C947C050C947C050C947C050C947C055C
:100020000C947C050C947C050C94D62B0C94922B90
:100030000C94D32C0C947C050C947C050C947C05BE
:100040000C947C050C947C050C947C050C947C052C
:100050000C947C050C94AF2C0C947C050C947C05C2
:100060000C947C050C947C050C947C050C947C050C
:100070000C947C050C947C050C947C050C947C05FC
:100080000C947C050C947C050C947C050C947C05EC
:100090000C947C050C947C050C947C050C947C05DC
:1000A0000C947C050C947C050C947C0505010902DC
:1000B000A10185020901A100050919012905150001
:1000C00025019505750181029501750381010501E1
:1000D000093009311581257F950275088106093897
:1000E0001581257F950175088106050C0A380215D2
:1000F00081257F950175088106C0C005010980A191
:1001000001850319012AB700150126B7009501756D
:10011000108100C0050C0901A101850419012AA064
:1001200002150126A002950175108100C00660FF2E
:100130000961A1010962150026FF0095207508815B
:10014000020963150026FF00952075089102C0057D
:10015000010906A101050719E029E7150025019508
:1001600008750181029501750881010507190029AB
:10017000FF150026FF009506750881000508190186
:100180002905950575019102950175039101C0FD41
:10019000377A585A000004E6D6B446020021011608
:1001A000000000742FE5A3E00D3802875D003D8854
:1001B0008986D3DC0AE842C3249258425AFA4B4259
:1001C000162C5F542BA3199BCDF09E3ED52B738824
:1001D000208A2702C28C6C91863337C68276CEAADB
:1001E0005F01B05851538393924198C640C1F39A2E
:1001F000428EB806F6D83BFD414D7F7E285B032F2B
:10020000F6BFB1A96C7100CADD74544D7BCA5D554F
:1002100068FCD1E6C239BE7D7CB22387FEFB93BD6C
:10022000FF30ABCCB12612795D9CCB3798FB4A6589
:100230008A6E8B5CFB66EF8AFA2EE6FECA97CD5378
:1002400041199549F71B1F46BD9C142112AB3A9CDE
:100250003C597F262B5787D6A3CAB9A2A3F05B6966
:10026000BCB31C708BC856B69D227B9D232DE653D4
:10027000DD653C45EE09706939639A269296E6BFC2
:10028000D7C254E8A6C999FC3547D9172246261C7F
:100290000387CAAEA56301CBDC339BFA83703E4A69
:1002A000C718A9430B2D79637FB0E0DF5200FCA390
:1002B0007CA9AE14987634B80E53524E87CC2EBA21
:1002C000F0AA3D5D44AA9468636056802066E64BC0
:1002D000BAE5A9EAEC31CBCC6399E6AF6F53D268AB
:1002E00080BECF0AA773530C0CCDF8975C244595BC
:1002F0000E2FC16F37C5ECDB4CB02F424759A568B4
:10030000844FB0BED578F3A1FA14CEEDCB2BF132E9
:100310009B550C2157480905A41F0B084199C96931
:1003200004AF4D3C76C08B2884E849B1A9D9565911
:100330007BBEBB976FB3C8030B9D0108B267BE4578
:10034000C8EAB25C514E7E58CDB513CDC0DA120F5B
:10035000D7ABD26F3FCAB8E46C41403E1888C11594
:10036000BD24CC5BAE64954A7F7947E19031DB4395
:10037000B661BF685C9D54A949ADFA2DD14476643D
:100380004EFFF2586F857B3BC4D2A8041E70A47048
:10039000CBB72FAB422DADD886F77065D9B7305E9D
:1003A00020C1B43976A5426C2865FAD0BA77B4F585
:1003B00003BADFF3E1DD5A15352C3633541AD11266
:1003C0002CF9800D3E0205500E19ABD926F89E95EA
:1003D000200A8040CA0F27E7F6F21CDB954410FA8A
:1003E000770797D39E594A32DABEE628642DD63A6B
:1003F0001FD6F4DDF52060DCF2B1553403F248FF7E
:10040000439AD44912C5A94947BC44822640D3C463
:100410005E0D3847E3D2402E37973C0ACBF80C628A
:10042000B0395A83CD2190693437B2AB82A1735D64
:100430001E5A8671F900009F66E889A2EA59A30056
:1004400001A305B91A00005B1FF6E5B1C467FB0202
:100450000000000004595A0000000001000F0002D3
:100460000001000300020004000300050004000670
:10047000000500080006000C0007000D0008000E33
:100480000009000F000A0011000B0013000C0017F8
:10049000000D0018000E0000010101010101010121
:1004A0000102020202020202020203030303030327
:1004B00003030404040404040405050505050606F5
:1004C00006060607070707070808080809090909B3
:1004D0000A0A0A0B0B0B0C0C0C0D0D0D0E0E0E0F59
:1004E0000F0F1010111111121213131414151516E9
:1004F000161717181819191A1A1B1B1C1D1D1E1E5A
:100500001F202021222223242425262627282929AA
:100510002A2B2C2D2D2E2F303132323334353637D5
:1005200038393A3B3C3D3E3F4041424344454647D3
:1005300048494A4C4D4E4F50515354555658595AAC
:100540005B5D5E5F616264656668696B6C6D6F7050
:1005500072737577787A7B7D7E8082838587888ABF
:100560008C8E8F91939596989A9C9EA0A2A3A5A7F6
:10057000A9ABADAFB1B3B5B7BABCBEC0C2C4C6C9F2
:10058000CBCDCFD1D4D6D8DBDDDFE2E4E7E9EBEEAB
:10059000F0F3F5F8FAFDFFA900AA00A900AA00C926
:1005A0005CCA5CFA00F900165C1F002100230025DC
:1005B0000027002E002A001E002000220024002612
:1005C000002D002A004C002B001A0015001C000C06
:1005D000001300300000001400080017001800127B
:1005E000002F0031004A003900160009000B000EF0
:1005F00000330000002800040007000A000D000F6F
:1006000000340000004B00E1001D00060005001052
:10061000003700E5005200E1001B00190011003610
:1006200000380000004E00E000E20000002C000056
:10063000000151E4005100E3002C0000002C0000F8
:1006400000E60050004F0001003B003D003F00412C
:10065000004300450001003A003C003E00400042DB
:10066000004400010001000100010001000100013F
:100670000001000100000001000100010001000173
:100680000001000100010001000100010001000162
:100690000001000000010001000100010001000153
:1006A0000001000000010001000100010001000143
:1006B0000001000100010001000100010001000132
:1006C0000001000000010001000100000001000025
:1006D0000001000100010001000100000001000014
:1006E0000001000100010001000100010001000102
:1006F00000010001000100010001000100010001F2
:1007000000010001000100010001000100010001E1
:1007100000010001000000010001000100010001D2
:1007200000010001000100010001000100010001C1
:1007300000010000000100010001000100010001B2
:1007400000010000000100010001000100010001A2
:100750000001000100010001000100010001000191
:100760000001000000010001000100000001000084
:100770000001000100010001000100000003510020
:100780000001000100010001000100010001000161
:100790000001000100010001000100010001000151
:1007A0000001000100010001000100010001000141
:1007B0000001000100000001000100010001000132
:1007C0000001000100010001000100010001000121
:1007D0000001000000010001000100010001000112
:1007E0000001000000010001000100010001000102
:1007F00000010001000100010001000100010001F1
:1008000000010000000100010001000000010000E3
:1008100000010001000100010001000000010000D2
:10082000000100010001000100010051039215C503
:10083000150000020002004D039215C515000003CB
:1008400000010052039215C5150000040002003794
:10085000039215C5152D080500010053039215C517
:100860001500000600020039039215C515000007A7
:100870000002004F039215C5150000080001005446
:10088000039215C5150000090002003B039215C52F
:100890001508080A0002003D039215C51508080B4B
:1008A0000002003F039215C51508080C0002004124
:1008B000039215C51508080D00020043039215C5E3
:1008C0001508080E00020045039215C51508080F0B
:1008D00000020047039215C51508081000020049E0
:1008E000039215C5150808110002004B039215C5A7
:1008F0001508081200020055039215C515000013D3
:1009000000020057039215C515000014000100599C
:10091000039215C51500001500000000008E077732
:100920001C000000000000000000000000000000AB
:1009300000000000000000000000000000000000B7
:10094000000000000000007E0F00D4FFFFFFC70082
:1009500000007800000000000000002A2B280000A2
:10096000000000000000000000000000000029005E
:100970000000002C1E3420212224342627252E3668
:100980002D3738271E1F20212223242526333336D6
:100990002E37381F0405060708090A0B0C0D0E0F29
:1009A000101112131415161718191A1B1C1D2F31AC
:1009B00030232D350405060708090A0B0C0D0E0F10
:1009C000101112131415161718191A1B1C1D2F318C
:1009D00030354C09025B00030100A0FA0904000055
:1009E0000103010100092111010001224000070556
:1009F000810308000109040100020300000009212D
:100A000011010001222200070582032000010705D1
:100A10000303200001090402000103000000092172
:100A20001101000122810007058403200001120149
:100A300000020000000800CB0620000101020301B3
:100A40001C037600690061006C003A006600360005
:100A500034006300320062003300630000001803BA
:100A60004E006500770048006F00720069007A0050
:100A70006F006E00730000000A033000780043002E
:100A8000420000000403090411241FBECFEFDAE086
:100A9000DEBFCDBF04B603FE18C0809193039091D2
:100AA0009403A0919503B09196038730904BA74093
:100AB000B04B59F410929303109294031092950343
:100AC00010929603E0E0F8E3099512E0A0E0B1E0AF
:100AD000ECE3FDE602C005900D92AA30B107D9F70C
:100AE00023E0AAE0B2E001C01D92A339B207E1F70A
:100AF0000E94FA2C0C9468360C940000E8EDF0E0AB
:100B000080818E7F80831092E2001092DA00109232
:100B1000E100A0EEB0E08C9181608C9380818F77B2
:100B2000808319BCA7EDB0E08C918E7F8C9380817F
:100B30008F7E808310926D0308952091E4003091A0
:100B4000E50095E6A9012091EC00822F817020FF3D
:100B500006C08091E80080FF06C080E008952091E3
:100B6000E80022FD1AC080918303882389F0853034
:100B700089F08091EB0085FD0FC02091E400309159
:100B8000E50042175307F9F29150E1F684E0089529
:100B900082E0089583E0089581E00895EF92FF9246
:100BA0000F931F93CF937C018B010E949D05C82F4B
:100BB000811117C08091E80085FD0BC08091E8008D
:100BC0008E778093E8000E949D05882399F3C82FB3
:100BD00008C0F70181917F018093F1000150110954
:100BE00049F78C2FCF911F910F91FF90EF900895AF
:100BF000CF93FC0180918303843001F5C091E9001B
:100C0000CF702091EC00922F917020FD90E8C92BBD
:100C100082E08093E9008091E80080FF0CC050E002
:100C200040E060E270E0CF010E94CE058091E800D4
:100C30008E778093E800CF70C093E900CF9108953C
:100C400080917B0387FF13C08091E80082FF06C07C
:100C50008091E8008B778093E80004C08091830343
:100C60008111F2CF0895809183038823D9F3809175
:100C7000E80080FFF8CF8091E8008E77ECCF982FC6
:100C80009093E900242F762F50E0891731F070916E
:100C9000EC002091ED005091F00021FD07C09F5F16
:100CA000973071F78093E90081E008953091EB006F
:100CB0003E7F3093EB003091ED003D7F3093ED00AF
:100CC0003091EB0031603093EB007093EC00209397
:100CD000ED005093F0002091EE0027FDE0CF80E082
:100CE0000895B0E0A0E0E7E7F6E00C94C335C8ED66
:100CF000D0E088818F7E8883E7EDF0E0808181609D
:100D0000808384E082BF81E080936D0388818E7F41
:100D1000888302EE10E0F80110821092DA0081EE72
:100D2000C82ED12CF601108288818F778883888124
:100D30008068888388818F7D888319BC10928303A3
:100D400010927A03109279031092780390EEE92EB4
:100D5000F12CF70180818B7F80838881816088837B
:100D600042E060E080E00E943F06F60180818E7FD5
:100D70008083F801808181608083808188608083A6
:100D8000F70180818E7F8083888180618883CDB7E1
:100D9000DEB7E8E00C94DF35FC018091810390918F
:100DA000820386179707A0F06115710529F49091C9
:100DB000E8009E779093E80090E06115710551F48A
:100DC000911108C08091E80082FF34C080E008954E
:100DD000BC01F2CF809183038823C1F18530C1F13A
:100DE0008091E80083FD30C08091E80082FDEACF69
:100DF0008091E80080FFE1CF8091F3002091F20024
:100E0000382F6115710519F02830310558F091E03F
:100E10002830310509F090E02091E8002E772093EA
:100E2000E800CBCF81918093F100615071092F5F71
:100E30003F4FE7CF80918303882341F0853041F015
:100E40008091E80083FFBECF81E0089582E008959D
:100E500083E00895089580916F0308959C014FB732
:100E6000F8948091660390916703A0916803B09114
:100E700069034FBF821B930B08952FB7F8946091BD
:100E800066037091670380916803909169032FBF97
:100E900008952FB7F8948091660390916703A0910D
:100EA0006803B09169032FBF0895209163033091C7
:100EB00064032817390771F09093640380936303E8
:100EC000E0916103F0916203309721F00084F18595
:100ED000E02D0995089520915F0330916003281754
:100EE000390771F09093600380935F03E091610391
:100EF000F0916203309721F00680F781E02D09958B
:100F00000895E0916103F0916203309729F0019018
:100F1000F081E02D0995089580E00895B0E0A0E00B
:100F2000E4E9F7E00C94C1358FEF9FEF44305105B1
:100F300008F469C04091140341FB882780F990E0D0
:100F4000880F991F42FB002700F910E0000F111FC6
:100F5000000F111F802B912B40FBCC24C0F8D12C0B
:100F60008C299D2943FB222720F9C22FE0E0DE2FA8
:100F700053E0CC0FDD1F5A95E1F78C2B9D2B44FBE2
:100F8000AA27A0F9B0E0E4E0AA0FBB1FEA95E1F7B9
:100F90008A2B9B2B45FBEE27E0F9F0E0A5E0EE0F56
:100FA000FF1FAA95E1F78E2B9F2B46FB222720F9E6
:100FB00030E0B6E0220F331FBA95E1F7822B932B76
:100FC00047FB222720F930E03695322F222737952C
:100FD0002795822B932B20911503322F3170F32EFE
:100FE000E82EF92A26952170B22EBB0CA82EBF2818
:100FF000C501BB0CAA0BBB0BFB0180839183A283B1
:10100000B38390E080E0CDB7DEB7EAE00C94DD3545
:10101000E7E3F3E0848195812AE030E0B9010E94A2
:1010200084356093180186818093170182858093AF
:10103000160184858093150186859785B9010E94E4
:101040008435609314018089809313018289809391
:101050001201848980931101089580913703909142
:10106000380390931A01809319010895FA018111B0
:1010700001C0FB0109950895EAEEF2E081836083E7
:101080004283339693E0EE30F907C1F70895FC01EF
:10109000EE0FFF1FE80FF91FE651FD4F61834083FC
:1010A00022830895FC019B01AC0197FF04C04427F3
:1010B0005527481B590BBA01620F731F37FD0FC02C
:1010C000241B350BC901A5E0880F991FAA95E1F7EC
:1010D0000E94983580E2861BF7FD81950895CB012B
:1010E00065E0880F991F6A95E1F7BA01621B730BDF
:1010F0000E94983580E6EFCFE8E8F3E0248130E104
:10110000231B08F420E024838091E902816080930E
:10111000E9020895E8E8F3E0248130E1230F08F4C0
:101120002FEF24838091E90281608093E902089582
:1011300090918803937059F08093890360938A0398
:1011400040938B038091E902822B8093E9020895FA
:10115000E8E8F3E0438120E1421B08F440E08181AC
:1011600021E0628190E00E9498080895E8E8F3E0A9
:10117000438120E1420F08F44FEF818121E0628139
:1011800090E00E9498080895E8E8F3E0628120E189
:10119000621B08F460E0818121E0438190E00E94BD
:1011A00098080895E8E8F3E0628120E1620F08F40E
:1011B0006FEF818121E0438190E00E9498080895BB
:1011C000E8E8F3E0818121E0438162818850990B56
:1011D0000E9498080895E8E8F3E0818190E021E01A
:1011E0004381628108960E9498080895909188032F
:1011F000937061F081110BC09460909388031092FA
:101200000E018091E902862B8093E90208958031D6
:1012100010F09C63F2CF880F880F982BEECF80914F
:10122000880386958695815009F48FE061E00E94DD
:10123000F608089580918803869586958F5F8031A2
:1012400008F081E061E00E94F6080895EF920F93A4
:10125000972F23E0029FB0011124759567956E0DBD
:10126000792F0F91EF900895E42FF0E0EE0FFF1F1C
:10127000EA51FE4F6081621B0895E42FF0E0EE0F0B
:10128000FF1FEB51FE4F6081621B0895622F08958E
:10129000E42FF0E0EE0FFF1FEB51FE4F408134EEE4
:1012A000439F412D1124E82FF0E050E0445E5F4F52
:1012B000DA01A21BB1099D01B7FF03C03195219549
:1012C000310993E0220F331F9A95E1F7AF01421BDA
:1012D000530B9A0157FD20E0582F259F212D1124F3
:1012E000822F08950E943C0808950E94470808959F
:1012F0000F931F9310E0F801EE0FFF1FEB51FE4F0D
:101300009081905797FD9195000F111FF801EA51B8
:10131000FE4F00810052110B2003F001219FF00DC0
:10132000112408E310E0091B110997FD13954003F0
:101330009001419F300D1124E20FF31F9F01220FF6
:10134000331F2E0F3F1F37FF02C021583F4F220F80
:10135000232F221F330B620F1F910F910895EF92DD
:101360000F931F93CF93DF93D62FC72F182FC90149
:101370000E19010F009729F480E857FD05C080E0A1
:1013800003C0BA010E945208081B202F219F212D63
:101390001124822F6D2F7C2FDF91CF911F910F9100
:1013A000EF9008950F93CF93DF93D72FC82FC901E4
:1013B000009729F480E857FD05C080E003C0BA011A
:1013C0000E945208602F680F7D2F8C2FDF91CF91E4
:1013D0000F910895E82F86FDE0952E2F2F7086FD42
:1013E0002F5FE695E695E695E670F0E0E258FE4F51
:1013F0009181929F902D212D112492959F7022957D
:10140000207F922B2081920F87FD919580E8890F94
:10141000089530E020E0869F212D969F200D311DFC
:101420001124C9010895AF92BF92CF92DF92FF922B
:101430000F931F93CF93DF93362F472FE82FF0E0C2
:10144000E956FB4F71110FC0E4918E2F2E2F6E2F96
:10145000722FDF91CF911F910F91FF90DF90CF906E
:10146000BF90AF900895C72FD0E02491F22E022FA5
:1014700010E056E0659FC0011124EFEFF0E0BF01DE
:101480000E948435832F90E0880F991F35E5369FA1
:10149000D001379FB00D11248A1B9B0B982F990FF9
:1014A000980F6F01CC1ADD0AC09ED001C19EB00D0D
:1014B000D09EB00D11248B2F499FA0011124452FE0
:1014C00055276F01C41AD50AC09EA001C19E500DB8
:1014D000D09E500D11245F01A91AB108AC9E600185
:1014E000AD9ED00CBC9ED00C1124CD2CDD24EC196B
:1014F000FD09E09FE001E19FD00DF09FD00D112488
:10150000ED2F62307105A1F050F46115710509F4F9
:101510009ECF6130710581F0EB2F852F98CF64301D
:10152000710569F080F06630710509F490CFF4CF51
:10153000E22F2B2F8D2F8BCFE22F252F88CFEB2F54
:10154000822F2D2F84CF2B2F8F2DE52F80CF0F9320
:101550001F93CF93DF93EC01FC01E350FE4F80819A
:101560006823D1F100918A0310918B034091890384
:10157000E42FF0E060910F017091100185E098E098
:10158000689F9001699F300D789F300D1124275E70
:10159000394C3093100120930F01CF018C549F4F91
:1015A00068E671E00E9498358E1B9F0B97FD0396AD
:1015B0009595879595958795230F2370642F289F80
:1015C000600D1124702F812F0E94130A462F282F9F
:1015D000672FCE010E947509DF91CF911F910F9166
:1015E0000895B0E0A0E0E7EFFAE00C94C2356C019A
:1015F00080911D01C82FCC0FC80F13E01C0FF12ED6
:101600001D3010F08CE0F82E60918C03669580916F
:101610008403909185030E94090AB82ED0E0CF156B
:1016200048F081E01C3008F080E0CDB7DEB7E9E09B
:101630000C94DE35FE01E350FE4F808190911E0137
:10164000892309F45AC0CE01880F991F8B569E4FEB
:10165000FC01E05BFF4F40814057550B8F5A9F4F75
:10166000DC01EC91E052FF0B449F9001459F300D4F
:10167000300D1124EE9FC001EF9F900D900D1124AD
:10168000820F931F082F8230910528F13FEF813E92
:10169000BEE19B0740F4BC01B5E076956795BA952D
:1016A000E1F738E0360F21E0A22FA30FBB27BB1FC5
:1016B000BD0175956795062F669FD001679FB00D98
:1016C000B00D11248A179B07D0F43FEF360F321765
:1016D00058F70FEF020F6091890370918A03809190
:1016E0008B03EB2C9F01F60109950E94130A462FEC
:1016F000282F672FCE010E947509219690CF6F3F4A
:1017000051F321E0260FE3CFB0E0A0E0EAE8FBE0F0
:101710000C94C4357C0180911D01C82FCC0FC80FDB
:1017200013E01C0F012F1D3008F00CE060918C03BA
:101730006695669521E0620F08F46FEF809184034F
:10174000909185030E94090AD82ED0E0C01748F076
:1017500081E01C3008F080E0CDB7DEB7E7E00C9404
:10176000E035FE01E350FE4F808190911E018923F8
:1017700091F06091890370918A0380918B032D2DE4
:101780004C2FF70109950E94130A462F282F672F27
:10179000CE010E9475092196D9CFB0E0A0E0E3ED1B
:1017A000FBE00C94C035182F80910D01811323C0EC
:1017B00090918803937020910C0130E081E09217A2
:1017C000130609F480E0817080931F0180918D03DE
:1017D00090911E01981739F080931E0140E060E05F
:1017E00080E00E947209103190F4E12FF0E0E65998
:1017F000F94C0C94AC3581E0E6CF80911F01882331
:1018000009F43AC140E060E080E00E94720980E0A3
:1018100033C180911D01C82FCC0FC80F03E00C0FFE
:10182000F02E0D3010F06CE0F62E6091890370916F
:101830008A0380918B030E94130AE62ED72EC82EAE
:10184000D0E0CF1528F081E00C3008F415C1DFCFCF
:10185000FE01E350FE4F808190911E01892331F0FB
:101860002C2D4E2D6D2DCE010E9475092196E9CFAC
:1018700080911D01C82FCC0FC80F03E00C0FF02E74
:101880000D3010F05CE0F52ED0908A03E0908B03D1
:10189000D09189036D2F7D2D8E2D0E94130AC62EA7
:1018A000B72EA82E60918C036D0F7D2D8E2D0E947A
:1018B000130AE62ED72E982ED0E0CF1520F6FE0183
:1018C000E350FE4F908180911E01892359F0292D0C
:1018D0004E2D6D2D90FD03C02A2D4C2D6B2DCE016C
:1018E0000E9475092196E9CF80911D01C82FCC0F68
:1018F000C80F03E00C0FE02E0D3010F04CE0E42E8A
:10190000D0908A03C0908B0320918C0330E4F32E97
:101910003F2D329F312D1124F32ED0E0CE1508F04B
:1019200092CFFE01E350FE4F808190911E018923EA
:10193000B9F0FE01EE0FFF1FEA51FE4F8081829544
:101940008F70609189038F9D600D11247D2D8C2DEA
:101950000E94130A462F282F672FCE010E94750977
:101960002196DCCF80911D01C82FCC0FC80F03E05A
:101970000C0FE02E0D3010F08CE0E82ED0908A0392
:10198000C0908B0320918C03D0E4FD2E3F2D329F1D
:10199000312D1124F32ED0E0CE1508F054CFFE01E6
:1019A000E350FE4F808190911E018923D9F0FE0102
:1019B000EE0FFF1FEB51FE4F6081F69EB001112428
:1019C000B5E075956795BA95E1F780918903680F41
:1019D0007D2D8C2D0E94130A462F282F672FCE01B4
:1019E0000E9475092196D8CF80911D01C82FCC0F78
:1019F000C80F03E00C0FF02E0D3010F0FCE0FF2EAE
:101A0000E0908903D0918A03D0908B0360918C037E
:101A100066956695669580918403909185030E94F2
:101A2000090A0E94EA09805887FD8195880F282FAE
:101A30003D2D239F212D1124822F6E2D7D2F0E945D
:101A4000130AE62ED72EC82ED0E0CF1508F0FBCE15
:101A5000FE01E350FE4F808190911E01892331F0F9
:101A60002C2D4E2D6D2DCE010E9475092196EDCFA6
:101A700088E499E00E94840B90911D019F5F9093F0
:101A80001D0181110CC082E080930E0180911F0125
:101A9000811105C0111103C083E080930E01CDB701
:101AA000DEB7EBE00C94DC358FEA99E00E94F10A96
:101AB000E3CF86E499E0DECF8DE399E0DBCF84E3EA
:101AC00099E0D8CF86E299E0F1CF80911D01C82F2F
:101AD000CC0FC80FE3E0FE2EFC0EDF2C9CE09F1520
:101AE00010F47CE0D72E60918C036695809184037E
:101AF000909185030E94090AE82ED0E0CD1530F0C0
:101B000081E02BE02F1508F0B7CF81CEFE01E35026
:101B1000FE4F808190911E01892311F1CE01880F23
:101B2000991F8B569E4FFC01EF5AFF4F2081205288
:101B3000330B805B9F4FFC0140814057550B6091F8
:101B4000890370918A0380918B030E2D0E94D20924
:101B50000E94130A462F282F672FCE010E94750975
:101B60002196CCCF80911D01C82FCC0FC80F53E018
:101B7000F52EFC0ECF2C3CE03F1510F44CE0C42EAB
:101B800060918C036695669580918403909185039E
:101B90000E94090AD82E80E48D0D0E94EA0920E8EF
:101BA000B22EB80E8D2D0E94EA0930E8A32EA80EA1
:101BB000D0E0CC1530F081E09BE09F1508F05CCFC1
:101BC00026CEFE01E350FE4F808190911E018923B5
:101BD000A1F06091890370918A0380918B03ED2CB1
:101BE0000C2F2A2D4B2D0E9478090E94130A462F94
:101BF000282F672FCE010E9475092196DACF809198
:101C00001D01C82FCC0FC80F03E00C0F80911F01DE
:101C1000D0E0811137C060918C0320E1620F08F49D
:101C20006FEF80918403909185030E94090A6AE016
:101C300070E00E948435892B09F005CE40910F0198
:101C40005091100125E038E0429FC001439F900D64
:101C5000529F900D1124875E994C909310018093B0
:101C60000F01890F6CE00E94783560911E01892F69
:101C700090E00E94A70AE7CD60911E01CE010E946C
:101C8000A70A2196802F0D3008F08CE08C171D06D6
:101C900009F094F7D8CD80911D01C82FCC0FC80F43
:101CA00003E00C0FF02E0D3010F09CE0F92ED0E088
:101CB000CF1508F0C8CDFE01EE0FFF1FEC0FFD1F82
:101CC000E054FD4F6081718182810E94130A462F8A
:101CD000282F672FCE010E9475092196E9CF0E9417
:101CE00049079C019091BC028091BD02982B21F084
:101CF0003093B9022093B8029091BE028091BF0246
:101D0000982B21F03093B7022093B602E091610343
:101D1000F0916203309749F082E08093BA02048028
:101D2000F581E02D8AEB92E0099508959091BC022F
:101D3000803F59F48091BD0287FF0DC01092BD0213
:101D400091110BC01092B40208C0813F81F48091C0
:101D5000BD0218169CF3992381F08091BE029091E8
:101D6000BF02892B09F064C01092B3020895823F2C
:101D700049F497FFF0CF1092BC028091BD0281110F
:101D8000ECCFE0CF833F19F41916ACF3E4CF2091E8
:101D9000BE02893F29F41216F4F61092BE02DBCF80
:101DA0008A3F19F427FFD7CFF8CF2091BF028B3F8E
:101DB00029F427FFD0CF1092BF02CDCF8C3F19F46A
:101DC0001216CCF3C8CF843F31F48091BB028E7FD2
:101DD0008093BB02C0CF853F21F48091BB028D7FF1
:101DE000F7CF863F21F48091BB028B7FF1CF873FF5
:101DF00021F48091BB02877FEBCF883F21F4809153
:101E0000BB028F7EE5CF8D3F31F48091B5028E7F8E
:101E10008093B502A0CF8E3F21F48091B5028D7FD3
:101E2000F7CF8F3F09F097CF8091B5028B7FF0CF2E
:101E300008958091B50280FF0CC06091120170E09E
:101E400075956795759567956115710549F1862FAB
:101E5000089581FF06C06091120170E07595679545
:101E6000F3CF6091120182FD0BC09091B3029923D0
:101E7000A1F06091110180911201961738F0682F3E
:101E800070E06038710500F38FE70895899FC00105
:101E9000112470E00E949835F4CF61E070E0D7CF54
:101EA00081E008958091B50260913F0370914003F5
:101EB00080FF16C020911601269FC001279F900D1C
:101EC0001124BC0176956795769567956038710504
:101ED00008F043C06115710509F441C0862F0895CB
:101EE00081FF0BC020911601269FC001279F900DF6
:101EF0001124BC0176956795E9CF82FF09C08091D6
:101F000016019B01829FB001839F700D1124DECFCB
:101F10002091B4022223D1F29091150180911601F3
:101F2000482F50E0291748F0CB01849FB001859FCE
:101F3000700D949F700D1124C9CF289F900111241A
:101F4000269FA001279F500D369F500D1124692F09
:101F500070E0CA010E948435B9CF8FE7089581E00F
:101F60000895803F31F40E94520F81958093BD0205
:101F70000895813F19F40E94520FF8CF823F31F447
:101F80000E94520F81958093BC020895833F19F4FB
:101F90000E94520FF8CF893F29F40E94190F8093B5
:101FA000BE0208958A3F21F40E94190F8195F7CF50
:101FB0008B3F31F40E94190F81958093BF020895E1
:101FC0008C3F19F40E94190FF8CF843F31F48091AF
:101FD000BB0281608093BB020895853F21F480910C
:101FE000BB028260F7CF863F21F48091BB02846000
:101FF000F1CF873F21F48091BB028860EBCF883F0F
:1020000021F48091BB028061E5CF8D3F31F4809156
:10201000B50281608093B50208958E3F21F48091CE
:10202000B5028260F7CF8F3FB9F78091B502846027
:10203000F1CF80E00895F894E82FE295EF70F0E09A
:1020400031A1282F2F7081E090E001C0880F2A95E0
:10205000EAF7982F9095932391A392A1892B82A3BD
:10206000789408959091140392FF06C0282F287148
:102070002830F9F4877F846093FF06C0282F2871E9
:102080002831F1F4877E84612091150320FF06C07A
:10209000382F38713830D9F4877F816021FF06C02E
:1020A000282F28712831D1F4877E816194FD877EA5
:1020B0000895282F24712430F9F68B7F8860DCCFB7
:1020C000282F2471243101F78B7E8861DDCF382FD2
:1020D0003171313019F78E7F8860E0CF282F217160
:1020E000213121F78E7E8861E1CFCF93DF93EC0120
:1020F00082389105B1F108F040C08133910509F4AF
:102100009DC048F58932910509F48DC08A9709F47C
:102110009CC0C11521E5D20708F0C3C0C11530E548
:10212000D30708F01EC1C83ED10508F0A3C0C03EC9
:10213000D10588F5C83AD10508F08EC0C53AD10559
:1021400008F007C1C130D10531F1209721F1C43029
:10215000D10508F545C08533910509F45FC0C997DD
:10216000C1F680911403837009F044C18091150376
:1021700083FF11C0C9E2D0E00EC0833E910599F102
:1021800070F4803E910501F1823E910511F6809137
:10219000140382FD21C0CE01DF91CF910895863EC8
:1021A000910561F1873E910571F1843E910509F039
:1021B000B0CF8091150381FFEECF80911403C7EE5D
:1021C000D0E084FD0DC0E7CF8091140380FD33C0C3
:1021D0009091150390FFDFCFC3EED0E084FFDBCFFB
:1021E000D0E0C0E0D8CF8091140382FD00C190916F
:1021F000150390FDFFC084FFCECFF2CF8091140372
:1022000083FDDDCFC8CF8091140383FDF6C090918C
:10221000150391FFF0CFC4EED0E0BDCF8091140341
:1022200085FFB9CFA7CF8091140385FDE9C08091C8
:10223000150383FFB0CFC9E3D0E0ADCF8091140385
:1022400086FFA9CFCAE2D0E0A6CF8091140386FF13
:10225000A2CFC1E3D0E09FCFCF3BD10508F6C85A4B
:10226000D0E0CC0FDD1FC25DDE4F0990D881C02DBC
:10227000D46491CFC11540E2D40758F4C11581E070
:10228000D80708F088CFC03FD10508F4A9CFD065A2
:1022900082CFC11520E4D20708F4A2CFDF70D06A44
:1022A0007ACFC11535E5D30718F5C11544E5D40734
:1022B00008F085C0C11583E5D80708F06CC0C115CA
:1022C00022E5D20708F462C0CE018370992721E08D
:1022D00030E002C0220F331F8A95E2F7C695C695FB
:1022E00080E2C89FE0011124C22BD32BDC6853CFBE
:1022F000C11539E5D307A8F4C11548E5D40708F09E
:1023000063C0C11586E5D80708F06ACF8C2F0E94FC
:102310003210C82FD0E0DC2FCC27CC27DF71D06261
:102320003ACFC1152AE5D20708F453C0CE01905622
:102330008115904208F054CF8D2F8F710E9432107A
:1023400090E0982F882788279F719C012C2BE9010A
:10235000E6CFC55AD0E0C55DDE4FC881D0E0D0647D
:102360001ACF2C2F26952695237040E2249F9001AA
:1023700011248C2F8370C1E0D0E002C0CC0FDD1F90
:102380008A95E2F7C22BD32BDD6805CFDC2FCC2753
:10239000C16FD06A00CFCE018370992721E030E071
:1023A00002C0220F331F8A95E2F7C695C69540E218
:1023B000C49FE0011124C22BD32BDA68ECCEDC2FB2
:1023C000CC27C46FD06AE7CEDC2FCC27C06FD06A91
:1023D000E2CE8C2F8F700E94321034E0D695C795D4
:1023E0003A95E1F7CF709C2FEC01D069D4CEC2EEC4
:1023F000D0E0D1CEC0EED0E0CECEC6EED0E0CBCE97
:10240000C5E3D0E0C8CE80917E02882331F01092DF
:102410007E0210927D0210927C020895CF93C82F05
:102420008091150382FF0CC080917E028C1741F0D1
:102430000E94490790937D0280937C02C0937E02A4
:10244000CF91089580959091160398239093160349
:102450000895109273021092720210927102089500
:102460008091390390913A03892B89F00E944907A2
:1024700020917C0230917D02AC01421B530B81E024
:102480002091390330913A034217530708F480E052
:1024900081700895EEE0F2E09191891303C0DF01AD
:1024A00011971C9292E0E431F907B1F70895AEE07C
:1024B000B2E0EFEF90E02D91821751F0EF3F19F469
:1024C000211101C0E92F9F5F9630A9F7EF3F09F472
:1024D00008950E2E000CFF0BE45FFD4F82830895DC
:1024E0002091700290913F0256E0291302C080E0D3
:1024F000089530E0529FF001539FF00D1124E05CED
:10250000FD4F7181761306C07081781303C072810C
:10251000741304C02F5F3F4F2770E7CF81E0089509
:102520008091700290913F02981301C008958F5FCF
:102530008770FACFA82FA77023E0969587952A95E4
:10254000E1F7FC01EE0FFF1FE80FF91FE60FF71F81
:1025500050E040E080E0219130E00A2E02C0369544
:1025600027950A94E2F721703327042E01C0220F29
:102570000A94EAF7822B4F5F5F4F4330510559F7BA
:102580000895903FB9F09A3070F4883098F448E09C
:10259000949F900111246BE172E0820F932F911DA3
:1025A0000E949A1208959C5F923020F468E172E0D4
:1025B00090E0F6CF80E00895262F277091E001C0CB
:1025C000990F2A95EAF723E0769567952A95E1F722
:1025D000FB01EE0FFF1FE60FF71FE40FF51F50E0A2
:1025E00040E0682F70E08191DF0111979B01042E7C
:1025F00002C0369527950A94E2F721702195282785
:10260000292328272C934F5F5F4F4330510559F7FB
:102610000895282F862F903F71F09A3068F4283063
:1026200050F438E0939FB0011124620F711D4BE10B
:1026300052E00E94DC1208959C5F9230E0F7622F16
:1026400070E048E152E0F5CF92959F70963091F09E
:1026500058F4925F9F70923058F4803F19F030F434
:10266000883E30F481E008959A5FF4CF843FD1F33F
:1026700080E00895883EB0F3813FD1F7F3CF9C010D
:102680003A9521153F4150F5FC01EE27F170BC0150
:1026900066277270AC01442754709C012227387061
:1026A00094FF0EC080E1EF2B09F480E0672B09F066
:1026B0008062452B09F08064232B89F0806808959F
:1026C00081E0EF2B09F480E0672B09F08260452B55
:1026D00009F08460232B19F08860089580E0089544
:1026E00080936A0370936C0360936B038091830300
:1026F0008430F9F48093E9008FEF9091E8008150E5
:1027000095FD06C095ED9A95F1F700008111F5CF82
:102710008091E80085FF0DC050E040E063E070E08C
:102720008AE693E00E94CE058091E8008E77809340
:10273000E8000895BC0184E00E9470130895BC0174
:1027400083E00E94701308959C0184E08093E90067
:102750009FEF8091E800915085FD06C085ED8A9538
:10276000F1F700009111F5CF8091E80085FF0CC0D2
:1027700050E040E066E070E0C9010E94CE05809123
:10278000E8008E778093E8000895CF93DF93EC0103
:1027900081E08093E9008FEF9091E800815095FDF2
:1027A00006C095ED9A95F1F700008111F5CF809163
:1027B000E80085FF14C050E040E068E070E0CE0122
:1027C0000E94CE058091E8008E778093E80088E033
:1027D000FE01A0E7B3E001900D928A95E1F7DF9149
:1027E000CF91089581E08093E00080E28093D8004B
:1027F0001092C9008FE19EE40197F1F700C000003C
:1028000087E090EBDC018093930390939403A09373
:102810009503B093960388E19CE00FB6F894A895D1
:10282000809360000FBE90936000FFCF019708F483
:102830000895EFE9FFE03197F1F700C00000F6CF0F
:10284000819A31B33D7F21B322604FB7F8948AEE6D
:1028500092E0FC015191CF0168E021BB000000C073
:1028600057FF31BB550F000000C000C000C031BB96
:1028700000C06A9591F7F3E08E309F0751F74FBF84
:102880008FE594E00197F1F700C0000008950F93E1
:102890001F93CF93DF9307E313E0C7EBD2E0CE01A2
:1028A0000E942636F80181938F012196CB3DF2E0FC
:1028B000DF07A9F7C1E3D8E0FE0185919491009765
:1028C00011F0FC0109952C96F9E0CD32DF07A1F754
:1028D000DF91CF911F910F910895FF920F931F9356
:1028E000CF93DF93F42E843040F5611126C024E0AD
:1028F000829F8001112409551D4F82E090E04423FE
:1029000011F090E080E0800F911F0E942636C82FC2
:10291000D0E0DC2FCC2783E090E0FF2011F081E0B5
:1029200090E0800F911F0E9426369E01282BC9013E
:10293000CDB7DEB7E5E00C94E23590E080E0F8CF6B
:102940000F931F93CF93DF93843030F56A3020F5D7
:10295000483010F520E1629F8001112450E0440FBF
:10296000551F040F151F30EA839F000D111D112400
:10297000C80187960E942636C82FD0E0DC2FCC27CE
:10298000C80188960E9426369E01282BC901DF9136
:10299000CF911F910F91089590E080E0F8CF462FDE
:1029A000672F2091120330911303232BF9F4703F0A
:1029B00039F4403FD9F480911003909111030895A8
:1029C0008430A0F47A3028F4483080F40E94A014B7
:1029D00008957D3F39F4411109C041E060E00E9453
:1029E0006D1408957C3F11F44423C1F390E080E01E
:1029F0000895CF92DF92FF920F931F93CF93DF93AF
:102A00006C010091920380917F02082BC7E0D0E017
:102A100010E0FC2EC8010C2E02C0959587950A94F3
:102A2000E2F780FD0CC02197A0F7F12C8F2DDF91EC
:102A3000CF911F910F91FF90DF90CF900895B60135
:102A40008C2F0E94CF140E947510019761F3EECF76
:102A5000CF93DF93EC010E94F914BE010E94CF14C2
:102A60000E947510DF91CF910895FC0183819481BC
:102A7000892B29F08081918189238F3F11F480E097
:102A80000895808191810E9428150E942413089541
:102A9000A5E0B0E0EEE4F5E10C94C83549835A8333
:102AA00089819A81662399F0222389F00E94F91482
:102AB000182F682F89819A810E94091369817A8170
:102AC000812F0E94CF142596E3E00C94E4350E94F8
:102AD000C112182FF3CF83E290E00E942636823B8A
:102AE00089F484E290E00E942636833159F485E22D
:102AF00090E00E94263691E0833E09F090E0892F15
:102B00008170089580E0FCCFCF9384E090E00E9434
:102B10002636C82F82E290E00E942636982F8C2F0E
:102B2000CF910895DB01FC01329625913491421733
:102B3000530758F0FC01349665917491A901CD01B9
:102B40000E94063690E080E008958FEF9FEF089591
:102B50000F931F93CF93DF9307E313E0C7EBD2E00C
:102B6000CE010E942636F80161918F01681719F095
:102B7000CE010E9444362196CB3DF2E0DF0781F77B
:102B8000DF91CF911F910F910895DA019C012E5F83
:102B90003F4FF90145915491F90125913491A217C4
:102BA000B30758F0FC013496859194910E94063643
:102BB0000E94A81590E080E008958FEF9FEF0895A0
:102BC000CF93DF93CBEDD2E060E0CE010E9444369C
:102BD0002196C11584E0D807B9F7DF91CF91089508
:102BE0000F931F93CF93DF93142F022F8430F0F4B1
:102BF00061111CC094E0899FE0011124C955DD4F8B
:102C000082E090E0442311F090E080E0632F8C0F8D
:102C10009D1F0E94443683E090E0112311F081E073
:102C200090E0602F8C0F9D1F0E944436DF91CF9162
:102C30001F910F9108951F93CF93DF93122F84302C
:102C4000E0F46A30D0F44830C0F490E1699FE001CC
:102C5000112450E0440F551FC40FD51F90EA899FDF
:102C6000C00DD11D1124632FCE0187960E944436DA
:102C7000612FCE0188960E944436DF91CF911F913B
:102C80000895CF93C82F6FEF811162EB83E290E03C
:102C90000E9444366FEFC11163E184E290E00E942C
:102CA00044366FEFC11163EE85E290E00E94443636
:102CB000CF910895CF93C92F682F84E090E00E94B0
:102CC00044366C2F82E290E00E944436CF91089502
:102CD00046E050E06CE170E088E893E00E94343612
:102CE0001092E9020895CF93DF930E943D0760930D
:102CF000E4027093E5028093E6029093E70220914C
:102D0000E802C0E0211108C020918803C22FC370DF
:102D100019F0C22FC695C69520910E012130C1F041
:102D2000222341F02230C9F1233009F441C0DF9160
:102D3000CF91089510921D016093840370938503D1
:102D4000809386039093870381E080930E01EFCFF9
:102D50008C2F0E94CD0BCC2351F3D0911D010E94EA
:102D6000810781FFE4CFCD2FCC0FCD0FDDEFDC0F3E
:102D70008C2FCD3008F08CE08D17C8F28D2F90E0AD
:102D8000FC01E350FE4F208121FF05C020E040E020
:102D90006FEF0E947509DF5FEBCFC0930D0180914B
:102DA0008803837080930C010E94201483E0CDCFB0
:102DB0008091E90281110E9468164091840350912C
:102DC000850360918603709187032FB7F8948091F3
:102DD000660390916703A0916803B09169032FBFC8
:102DE000841B950BA60BB70B4097A105B10508F402
:102DF0009ECF10920E019BCFE8E8F3E085E180833F
:102E00008091200190912101A091220181839283E0
:102E1000A38382E384838FEF85830E9468160895DD
:102E20006F927F929F92AF92BF92CF92DF92EF927A
:102E3000FF920F931F93CF93DF93CDB7DEB72A97FF
:102E40000FB6F894DEBF0FBECDBF8E010F5F1F4FD0
:102E50008AE0F80111928A95E9F79CE5E92E91E064
:102E6000F92E99249394CC24C394D12C3EE6A32E1E
:102E700031E0B32EF70181917F018F3F09F447C004
:102E8000F894E82FE295EF70F0E021A18F70A60191
:102E900002C0440F551F8A95E2F7CA01922F982B62
:102EA00091A392A18095892382A3789400C084E69F
:102EB000682E81E0782ED801692D6095F3019191FB
:102EC0003F018D919D01215031099F3F09F45FC061
:102ED000492F42954F7050E0FA0140A150E09F7099
:102EE00002C0559547959A95E2F740FD50C0892953
:102EF000F9018083A614B70409F7F701319780819F
:102F00008F3F11F00E941B10F0EAFA95F1F7990C2F
:102F100044E6E41641E0F40609F0ACCF4AE050E0A4
:102F2000B80183E892E00E94F935892B91F18AE09B
:102F3000F801A3E8B2E001900D928A95E1F781E0F3
:102F4000809382020E9449079093810280938002BD
:102F500080918002909181020E942E070597E8F0EF
:102F60004AE050E063E872E089EA92E00E94F935B5
:102F7000892B41F18AE0E3E8F2E0A9EAB2E00190AE
:102F80000D928A95E1F781E01092820207C08623B4
:102F9000AFCF809182028111DBCF80E02A960FB6FD
:102FA000F894DEBF0FBECDBFDF91CF911F910F917F
:102FB000FF90EF90DF90CF90BF90AF909F907F9069
:102FC0006F90089580E0E0CF8091160390918E037A
:102FD000892B80930C0280917E02882309F18091D5
:102FE000390390913A03892B29F00E943012811104
:102FF0000E94031280910C0290917E02892B809393
:103000000C0220E08EE092E0FC013191CF01311101
:103010002F5FF2E084319F07B9F721110E9403125C
:1030200048E050E064E772E08CE092E00E94F935FD
:10303000892BA9F088E0ECE0F2E0A4E7B2E001908F
:103040000D928A95E1F7E0916103F0916203309768
:1030500031F00280F381E02D8CE092E00995089533
:1030600080911B01877F80931B0190918E039D7F30
:1030700090938E0384FF08C08F7E80931B01809104
:10308000160382608093160380911B0185FF08C0A0
:103090008F7D80931B0180911603806280931603BD
:1030A0000E94E417089590E080E00E946B0790E092
:1030B00080E00E94550710928E030E94E41786E07C
:1030C000EAEBF2E0DF011D928A95E9F71092B40273
:1030D0001092B3021092B5020E946F0E0895809371
:1030E00092030E945318089580919203982F96702E
:1030F000963021F488600E946F180895877FFBCF77
:1031000021E030E001C0220F8A95EAF720958091F6
:10311000920382230E946F18089590917302809504
:10312000892380937302282F277091F4282F082E6B
:10313000000C330B9217130659F09091150392FF70
:1031400007C08595859585950E9480180E94291253
:1031500008959091150392FB222720F9281769F012
:1031600080FB92F9909315038091140390911503BD
:103170000E945A1682E00E948D18089521E030E0E6
:1031800001C0220F8A95EAF780919203822B0E9458
:103190006F1808959091150392FF10C098E0899FD1
:1031A00090011124622B609373020E94BE180E944A
:1031B0004907909372028093710208950E94BE188D
:1031C000089580937F020E94531808951092160369
:1031D000EEE0F2E086E0DF011D928A95E9F70E94B9
:1031E00053180895AAE2B0E0E8EFF8E10C94C8356E
:1031F0008BE793E02091F100DC012D93CD01B3E04A
:1032000083389B07B9F780917C03833009F472C03F
:10321000B8F4813009F449C0823009F4B3C0809118
:10322000E80083FF96C280917B0390917C039A30E3
:1032300008F08FC2E92FF0E0E658F94C0C94AC3559
:103240008A3009F48EC08B3009F471C0893039F7A7
:1032500080917B03813219F780917F0390918003E5
:10326000009711F00297D9F68091E800877F80934C
:10327000E8008091E80082FF38C09091F3008091CF
:10328000F200029731F48091F100813011F0863024
:1032900021F48091F10080936F038091E8008B7797
:1032A0008093E8000E942006BACF80917B03813A88
:1032B00009F0B5CF8091E800877F8093E800809186
:1032C0007F0390918003892B61F468E080E793E0AD
:1032D00070E00E94CC068091E8008B778093E80034
:1032E0009ECF60E090E080E0F3CF80918303811176
:1032F000C0CF95CF80917B03813A09F090CF809128
:103300007F0390918003892B09F089CF8091E80099
:10331000877F8093E8008091E80080FFFCCF809158
:103320001C018093F1008091E8008E77B9CF8091E5
:103330007B03813209F073CF80917F0390918003EA
:10334000892B09F06CCF8091E800877F8093E8009B
:103350000E94200680917D0380931C010E94E61844
:103360005ECF80917B03813209F059CF8091E800D4
:10337000877F8093E8000E94200680917E038093DF
:103380006E034DCF80917B03813A09F048CF809145
:10339000E800877F8093E8008091E80080FFFCCF01
:1033A00080916E03BECF803899F0823809F0D1C188
:1033B00080917F038F70873008F0CBC18093E90044
:1033C0008091EB0085FB882780F91092E90006C008
:1033D0008091780390917903911182609091E80037
:1033E000977F9093E8008093F1001092F100809114
:1033F000E8008E77AAC1882309F498C1823009F0C9
:10340000A8C180917D0381119BC180917F038F7042
:103410002FEF280F263008F09CC18093E9002091FF
:10342000EB0020FF8DC1933031F48091EB0080627E
:103430008093EB0085C19091EB0090619093EB003D
:1034400021E030E001C0220F8A95EAF72093EA00DC
:103450001092EA008091EB008860EACF811179C177
:1034600010917D031F778091E3008078812B8093FA
:10347000E3008091E800877F8093E8000E942006A7
:103480008091E80080FFFCCF8091E300806880930A
:10349000E30082E0111183E0809383035AC18058D6
:1034A000823008F056C120917D0330917E032C3D7F
:1034B000E3E03E07A1F583E08A838AE289834FB780
:1034C000F894DE01139620E03EE051E2E32FF0E0B5
:1034D00050935700E49120FF03C0E295EF703F5FE7
:1034E000EF708E2F90E0EA30C0F0C7968D939D93D9
:1034F0002F5F243159F74FBF8091E800877F809379
:10350000E8006AE270E0CE0101960E94CC0680914C
:10351000E8008B778093E8001CC1C096E7CF8091CC
:103520007F0390918003432F55274330510509F4C1
:103530004AC078F54130510509F485C08BE590E02B
:10354000E3EDF9E04230510509F003C12091E800B4
:10355000277F2093E8002091810330918203821716
:10356000930708F49C0140E02115310509F070C073
:1035700041116EC08091E80082FDC9CF8091830324
:10358000882329F2853019F28091E80083FFF2CF79
:10359000BECF4132510509F447C04232510509F00E
:1035A000D8C08330910508F0D4C0FC01EE0FFF1F96
:1035B000E757FE4F0190F081E02D8A579E4FDC01C6
:1035C0008C9190E01DC0332721303105E9F02115A1
:1035D000310579F022303105F9F02330310509F059
:1035E000B8C0E0E4FAE0E4918E2F90E0E0E4FAE085
:1035F00007C0E4E8FAE0E4918E2F90E0E4E8FAE016
:10360000009709F4A6C0A2CFE8E7FAE0E4918E2F74
:1036100090E0E8E7FAE0F4CFEEE5FAE0E4918E2FEF
:1036200090E0EEE5FAE0ECCF8330910508F091C030
:10363000880F991FFC01E157FE4F0190F081E02DAA
:1036400089E090E083CF82E190E0EEE2FAE07ECF85
:1036500080918303882309F45ACF853009F457CF2A
:103660008091E80083FD53CF8091E80082FD82CFF6
:103670008091E80080FF78CF9091F3008091F20074
:103680002115310519F08830910550F041E0089777
:1036900009F040E08091E8008E778093E80064CFE5
:1036A00044914093F1003196215031090196E8CFC1
:1036B000803809F04EC08091E800877F8093E80051
:1036C00080917A038093F10092CE811142C01091D3
:1036D0007D031230F0F58091E800877F8093E80049
:1036E00010937A030E942006112311F084E005C094
:1036F0008091E30087FDFACF81E08093830342E06D
:1037000061EC81E00E943F0642E261EC84E00E94AD
:103710003F0642E261EC82E00E943F0642E260EC3A
:1037200083E00E943F068091830313C080917D0354
:10373000813079F481E0933009F080E0809379035F
:103740001092E9008091E800877F8093E8000E9452
:1037500020068091E80083FF0AC08091E800877FFF
:103760008093E8008091EB0080628093EB00AA9642
:10377000E3E00C94E435E7E3F3E0128E138E8FEA76
:1037800090E09183808325E0248F88E893E1938300
:1037900082838AE090E09583848344E150E05783FC
:1037A000468368E070E071876087938782874EE187
:1037B00050E0558744879787868740E550E0518BD6
:1037C000408B738B628B68E270E0758B648B62E375
:1037D00070E0778B668B68EC70E0718F608F158E70
:1037E000978F868F51A340A322A30E94A8150E9401
:1037F000E6181092150310921403E5E1F3E08081BE
:103800008460808380911403909115030E945A165E
:103810000E9447140895B0E0A0E0E1E1FCE10C94BF
:10382000BC3580900E0390900F0381E090E0909360
:103830000F0380930E0387E9E82E85E0F82E99E9BF
:10384000C92E95E0D92E07EA15E0712CE801612C0C
:1038500014C0F50125913491452D662D872D0E94C8
:103860001B1682E0A80EB11C539488E05812F1CFC9
:10387000609663948AE0681619F05E01512CE9CFD6
:10388000F7012591349141E060E0872D0E94F01509
:10389000F6012591349140E060E0872D0E94F015FB
:1038A00084E0E80EF11C739484E0C80ED11C00562D
:1038B0001F4F84E07812CACF0E94BB1B90920F0367
:1038C00080920E03CDB7DEB7EFE00C94D83580E0E0
:1038D0000E94411660E086E290E00E9444360E9419
:1038E0000B1C0E94E01581E00E9441160895CF92C2
:1038F000DF92EF92FF928FEF9FEF4430510508F473
:103900006AC0FB01C080D180E280F3800E94E6188B
:1039100080911403C0FA80F9B701A60176956795E6
:103920005795479540FB81F9B701A60122E07695AE
:103930006795579547952A95D1F740FB82F9B701CE
:10394000A60133E076956795579547953A95D1F757
:1039500040FB83F9B701A601E4E07695679557959A
:103960004795EA95D1F740FB84F9B701A601F5E048
:103970007695679557954795FA95D1F740FB85F968
:10398000B701A601A6E07695679557954795AA9544
:10399000D1F740FB86F9B701A601B7E076956795A8
:1039A00057954795BA95D1F740FB87F98093140353
:1039B00080911503D0FA80F9D1FACC24C0F8C0FA6E
:1039C00081F98093150380911403909115030E944F
:1039D0005A1690E080E0FF90EF90DF90CF9008952E
:1039E0000E94E6182FEF84E39CE021508040904035
:1039F000E1F700C0000088E19CE00FB6F894A895BC
:103A0000809360000FBE90936000FFCF882341F049
:103A1000809590918E03892380938E030E94E417F2
:103A20000895882339F090918E03982B90938E03FC
:103A30000E94E4170895882321F00E9422120E9418
:103A4000E4170895882339F090911603982B9093EA
:103A500016030E94E4170895882309F455C082389C
:103A600079F40E94810781FF4FC089E30E945712B9
:103A70000E94E41789E30E944A120E94E417089505
:103A8000833859F40E94810780FF3EC083E50E947D
:103A900057120E94E41783E5EECF843859F40E9450
:103AA000810782FF31C087E40E9457120E94E41709
:103AB00087E4E1CF9CEF980F913AE8F290E2980FFB
:103AC000983050F4877091E001C0990F8A95EAF719
:103AD000892F0E942212D1CF9BE5980F933028F4B2
:103AE00090E080E00E946B07089598E5980F973169
:103AF00028F490E080E00E9455070895803F20F070
:103B00000E94960E0E946F0E0895CF93DF93EC01F2
:103B10000E942C1DCE010E943F139E01205E3109A0
:103B20002830310510F0CD2B29F40E941B1DDF91A8
:103B3000CF9108950E94061DFACFCF93C82F8823F6
:103B4000C9F08238C9F40E94810781FD13C089E35E
:103B50000E9457120E94E4172FEF87EE93E0215046
:103B600080409040E1F700C0000089E30E944A12C3
:103B70000E94E417CF9108958338A1F40E94810731
:103B800080FDF8CF83E50E9457120E94E4172FEFC3
:103B900081EE94E0215080409040E1F700C00000A9
:103BA00083E5E4CF8438A1F40E94810782FDE2CF4F
:103BB00087E40E9457120E94E4172FEF81EE94E0F1
:103BC000215080409040E1F700C0000087E4CECF54
:103BD0008CEF8C0F813A68F4EEE0F2E08191C81727
:103BE000E1F122E0E431F207C9F78C2F0E9457126D
:103BF000BFCF80E28C0F883068F4C77021E030E0DE
:103C000001C0220FCA95EAF780911603822B809398
:103C10001603AECFEBE5EC0FE33040F4F0E0E55DEA
:103C2000FE4F808190E00E946B07A4CFE8E5EC0F87
:103C3000E73150F4F0E0EE0FFF1FE25DFE4F8081B0
:103C400091810E94550796CFC03F08F493CF8C2FE7
:103C50000E94B10F0E946F0E8DCF8C2F0E944A12CE
:103C60000E94E417C2CF1F93CF93DF93182FC09108
:103C70005703D0915803893321F0C0915503D09157
:103C80005603812F0E949D1D209739F4812F0E9499
:103C90002C1DDF91CF911F9108958FE99FE001972F
:103CA000F1F700C000002197EFCF0F931F93CF9340
:103CB000DF93C62FD42F022FFC0182818823A9F025
:103CC000609391030E9449079093900380938F0320
:103CD000C77081E001C0880FCA95EAF70E94221DD3
:103CE000DF91CF911F910F910895809191036813F7
:103CF00032C080918F03909190030E942E07883CE0
:103D0000910548F510E21D0FCD17B9F080E28C0F38
:103D1000883040F4C77081E001C0880FCA95EAF787
:103D20000E941B1D183048F481E09D2F977001C040
:103D3000880F9A95EAF70E94221D802F0E94331E59
:103D4000183070F6D77081E001C0880FDA95EAF775
:103D50000E941B1DC5CFC77081E001C0880FCA95A6
:103D6000EAF7F6CFB0E0A0E0E8EBFEE10C94C03556
:103D7000EC01A62E8AE0982E2881222309F4A4C003
:103D8000213009F04BC08981813091F48E010E5FA2
:103D90001F4F8A810E94331EE80121968A2D81508F
:103DA00058F3EFE9FFE03197F1F700C00000F7CFDB
:103DB000823039F48E010E5F1F4F8A810E949D1D53
:103DC000EBCF833039F48E010E5F1F4F8A810E9442
:103DD0002C1DE2CF843011F02196DFCF2A8122966C
:103DE00090E080E0AE014F5F5F4F2053330B2A30ED
:103DF000310548F0019788F2EFE9FFE03197F1F7DC
:103E000000C00000F7CF989EB001999E700D11245C
:103E1000C901860F971F2981EA01E4CFE22FF0E064
:103E2000ED5AF64FB490822F86958695869590E050
:103E3000FC01ED5BF64FE4902770F12C022E02C0DE
:103E4000F594E7940A94E2F731E0E322FF24FC01C1
:103E5000ED5CF64FC490D12C022E02C0D594C794CD
:103E60000A94E2F7E1E0CE22DD24FC01ED5DF64F9D
:103E7000049110E002C0159507952A95E2F70170AC
:103E80001127E114F10419F081EE0E949D1DC11467
:103E9000D10419F086EE0E949D1D8B2D0E94331EC9
:103EA000C114D10419F086EE0E942C1DE114F10416
:103EB00019F081EE0E942C1D0115110509F46DCF3A
:103EC0008CE20E94331E69CFCDB7DEB7EBE00C94D5
:103ED000DC35CF93DF93EC010E943F139E01205EFF
:103EE00031092830310510F0209741F40E94221D3D
:103EF0008C2F0E949D1DDF91CF9108950E94111D6E
:103F0000F7CF662329F020918E03226020938E0341
:103F10009C013056211540E2340720F0305E211517
:103F2000304108F499270E94691F0895B0E0A0E08D
:103F3000ECE9FFE10C94C4357C018B01D42E809117
:103F40001B0182FF8CC0C0915D03D0915E03CE1532
:103F5000DF0521F0E114F10409F081C080911B011B
:103F60008B7F80931B0181FD73C080915B039091D7
:103F70005C03A801481B590B81E020911901309185
:103F80001A014217530708F480E08170F82E8091DF
:103F90001B01F0FA81F980931B01FE0183E0F69585
:103FA000E7958A95E1F7EE71FF27E95EFC4F2081E6
:103FB0003181AE014F70552781E090E002C0880F3B
:103FC000991F4A95E2F7FF2009F444C0822B932BF6
:103FD000918380838091160381FF08C080911B012B
:103FE000806180931B0182E00E942212809116035F
:103FF00085FF08C080911B01806280931B0180E2D5
:104000000E9422126F2DCE010E94811FDD2031F00F
:104010008091520385FF02C086FF3BC0809155030B
:10402000909156030E94161480915D0390915E0357
:104030009C013056211540E2340720F0305E2115F6
:10404000304108F499270E94851D0E9430181DC038
:1040500081E09BCF8095909582239323B9CFC701B0
:10406000992797013056211540E2340728F0305E39
:104070002115304108F0C7010E94851D80915D0324
:1040800090915E038E159F0501F310935C030093DE
:104090005B03CDB7DEB7E7E00C94E03590E080E05D
:1040A0000E942E36883E9E4F19F40E946B1508958B
:1040B00080E0089568EE7EEF90E080E00E94623636
:1040C00060E082E090E00E94443660E083E090E0AF
:1040D0000E94443610927F0260E084E090E00E94EB
:1040E000443664E082E290E00E94443660E085E07D
:1040F00090E00E94443660E086E090E00E94443602
:104100006FEF87E090E00E94443640E050E0BA0153
:1041100088E090E00E94563660E08DE090E00E94DA
:10412000443640E050E0BA0188E190E00E94563603
:1041300060E087E190E00E94443640E050E0BA0140
:104140008CE190E00E94563670E060E080E290E002
:104150000E94623640E050E0BA0188E190E00E949F
:10416000563680E00E9441160E94671C40E050E0F5
:10417000BA018FE090E00E94563640E050E0BA016C
:1041800083E190E00E9456360895A4E0B0E0EBECA5
:10419000F0E20C94BF357C01FC0183819481892B72
:1041A00039F040815181842F85238F3F09F04CC71E
:1041B0002496ECE00C94DB35C80182519F45409772
:1041C00008F0DFC68FEF93E00E9426368111B0C061
:1041D0006EEED62ED00E0BED12E0D11037C0198244
:1041E0001A821B821C8299249A9468012FEFC21AAA
:1041F000D20AC8010E94263689831A82882309F4CC
:1042000097C0813009F088C0580132E0A30EB11C7C
:10421000C6010E942636C82E8A83882309F488C0E6
:10422000C5010E942636D82E8FEF8C0D8330E0F426
:10423000580143E0A40EB11CDB82DD2029F060E0D0
:10424000CE0101960E94B21E8501CFCF0115F4E088
:104250001F0709F46DC0C8010E942636811101C0F4
:10426000DA940F5F1F4FB9CF8BEF8C0D833070F551
:10427000C8010396DB825C01DD2031F3580154E074
:10428000A50EB11C0E9426368C838823E9F20B818F
:104290001C8101306FEF160710F0102F002776E019
:1042A000C71681F087E0C81649F0C8010E946C2B40
:1042B00080915503909156030E941614C8010E94E4
:1042C000472BC2CFC8010E946C2BBECF94E0C9120D
:1042D000BBCF5801E4E0AE0EB11CC80103960E94AA
:1042E0002636DD2029F1882319F18150990B989EFB
:1042F0009001999E300D11244D2D4150550BCA014E
:10430000820F931F019708F49FCFEFE9FFE03197E9
:10431000F1F700C00000F6CF6AE0CE0101960E94DE
:10432000B21E560191CF81E00E94BE180E947418FF
:1043300080917302877009F43BCFF7018281882353
:1043400009F436CF8091150382FF32CF82E00E94BC
:104350008D182ECF81E00E948018E8CF82E0E4CF54
:1043600080911B01816080931B0142C680911B01DB
:104370008E7F80931B010E9430183AC680911B01EA
:104380008F7E013E110531F0053E1105C1F480918B
:104390001B018F7D80931B0180911B0180FF37C61D
:1043A000F70182810832110528F50E31110508F058
:1043B00074C00430110580F5811125C628C6C801D6
:1043C0009056811560E2960720F0905E811590412D
:1043D00018F780911B0182FF1AC68091540381FD5A
:1043E00016C62AE932E040E0B60190E080E00E9483
:1043F000961F0DC60933110558F40D32110518F436
:104400000B321105C9F69091520392FDD5CF08C029
:1044100004361105C1F3D0CF9091520394FDCCCF57
:10442000882309F49DC09091160380917E02282F65
:10443000292B322F3D7FB1F110925E0310925D0364
:104440003091520331FD2EC0F80143E0F695E79517
:104450004A95E1F7EE71FF27E95EFC4F98012F7056
:10446000332781E090E002C0880F991F2A95E2F778
:10447000809590952081318182239323918380833D
:1044800060E0C8010E94811F80917E028D7F0E94A2
:104490000E1282E00E948D184BCF9091520393FD33
:1044A0008BCFBECF36E0F701AAE9B2E001900D92C2
:1044B0003A95E1F710929C0210929E0210929D0292
:1044C000A0905D03B0905E030A151B0591F5309135
:1044D000520335FF2EC040911B0141FB992490F8F7
:1044E00041FF02C036FF25C040915B0350915C0341
:1044F000B601641B750B683C7105D8F491FF08C0C8
:1045000080911B01806180931B0182E00E94221236
:104510008091160385FF08C080911B018062809303
:104520001B0180E20E942212692DC5010E94811F99
:10453000FFCE90911B0121FB91F990931B018D7F80
:104540000E940E1210935E0300935D03D0925C03F1
:10455000C0925B0380911B01846080931B0199CF03
:10456000970140E0B601C8010E94961FE1CE053FC9
:104570002CE5120709F45CC008F456C0063F4CE570
:10458000140709F459C0F7013281332309F473C5C4
:10459000109291030330FDE51F0708F054C00A3F55
:1045A0002CE5120730F4C80182509C45449708F06E
:1045B00055C00E9484159093150380931403023113
:1045C0007CE5170709F472C108F0C2C009309CE508
:1045D000190709F449C108F08CC00530FCE51F0734
:1045E00009F436C108F073C003303CE5130709F441
:1045F00027C108F029C180911403816002305CE575
:10460000150709F4A2C080911403909115030E942C
:104610005A160E94E6188CCE27E245EE65EE10C5CC
:1046200026E241EE60EE0CC527E245EE64EE08C5D9
:1046300026E241EE62EE04C527E245EE66EE00C5D5
:1046400028E241E0EBCF053A4DE5140709F4B1CF7C
:10465000C0F501366DE5160709F4ABCF06317CE5F0
:10466000170709F0DDC180911603982F9A7A2091DF
:10467000510320FF04C0482F447409F090E021FF4B
:1046800004C0482F417109F090E022FF04C0482F78
:10469000487809F090E023FF03C0827209F090E0AF
:1046A000332309F42DC181E0911101C080E0809392
:1046B000140289E2911185E30E9457120E94E417C7
:1046C00037CEC8018D5A9D45039740F672CF809131
:1046D0001403806207306CE51607B9F1809114036A
:1046E000806108307CE5170780F1809114038064B5
:1046F0002CC00D308CE5180709F4C0C090F48091EF
:1047000014038E7F0B30ECE51E07F9F08091140343
:104710008C600C30FCE51F07C0F0809114038D7F86
:1047200014C00F302CE5120709F4B8C008F4AAC071
:1047300000314CE5140709F4B5C0809114038F7B58
:1047400001315CE5150709F05ECF809314035BCF60
:104750000F3F6CE5160709F4B3C0A8F50A3F8CE5D6
:10476000180709F479C0C0F40431ECE51E0709F418
:10477000B5C008F4A1C005312CE5120709F043CFFC
:104780008091140382FB992790F921E0922790FBF6
:1047900082F990FB83F9D9CF0C3F3CE5130709F46C
:1047A00075C008F45DC00D3F5CE5150709F472C0E3
:1047B0008091150383600E3F6CE5160709F023CF47
:1047C0008093150320CF01367DE5170709F491C0CA
:1047D00090F401309DE5190709F489C008F474C00C
:1047E00060E00230FDE51F0709F00DCF8EE090E09C
:1047F0000E94443608CF0D3A2DE51207E9F060F427
:1048000090911403892F8E7F90FF8160053A4DE5CA
:10481000140709F49ACFF7CE0E3A5DE5150751F16A
:104820000F3A6DE5160709F0EECE90911503892F2A
:10483000877F93FF8860C4CF809115038860C0CFC5
:1048400080911403826081CF8091140384607DCFB6
:1048500080911403886079CF809115038160B0CF77
:10486000809115038260ACCF0E94E61880911403FA
:1048700080686BCF80911503877FA2CF809114034E
:104880008B7F63CF80911403877F5FCF8091150367
:104890008E7F96CF809115038D7F92CF80911403E8
:1048A0008F7E53CF809114038F7D4FCF0E94E618E7
:1048B000809114038F7749CF80911403837F45CF74
:1048C000809115038C7F7CCF80911503982F909554
:1048D00091708E7F892B90FB81F972CF0E94E61830
:1048E00090911403892F97FB87F980582ECF61E0B0
:1048F0007DCF90911403892F8F7E94FF806125CF07
:1049000080911402811104C089E20E944A12D6CE1D
:1049100085E3FBCF073C6CE5160709F460C008F49B
:1049200059C0083C9CE5190709F45EC048EA58E004
:1049300066EB78E0093CECE51E0709F0BEC30E9477
:104940003608F6CC0F3CFCE51F0709F466C0A0F45E
:104950000C3C3CE5130709F456C008F44FC00D3C6D
:104960005CE5150709F454C00E3C6CE5160709F028
:10497000A4C361E085E04EC0063D7CE5170740F426
:10498000013D8CE5180708F0D3CC61E08CE042C013
:104990000D35100709F4CCCC90C38091880391E0C9
:1049A00089278093880310920E018091E90281602B
:1049B0008093E902BDCC4FE059E06AE179E0BFCFD6
:1049C0004AE159E06FE079E0BACF40EE58E06BEE93
:1049D00078E0B5CF4BEE58E060EE78E0B0CF44EC35
:1049E00058E062ED78E0ABCF42ED58E064EC78E05F
:1049F000A6CF46EB58E068EA78E0A1CF4CE758E054
:104A00006AE878E09CCF4AE858E06CE778E097CF16
:104A100061E081E00E94F6088BCC61E089E0FACF8A
:104A20000A35EDE51E0771F158F401152CE5120762
:104A300091F00E3D1C4509F040C30E945A2009C068
:104A40000C354DE51407A1F0F8F0073A1D4509F0C3
:104A500034C30E94F01C0E94E6187FEF84E39CE0C0
:104A6000715080409040E1F700C000000E94F213B6
:104A70008091150382FB882780F991E089270E94A5
:104A8000A9181BC381E0FBCF80E0F9CFC8010E94C9
:104A9000C112D82E21C3202F2F70B22E802F807FDD
:104AA00019F0B29490EFB922DD20B9F0BB2069F083
:104AB00080E2810F883010F0811009C080911603C8
:104AC000B82AB09216030E94E417812F5AC0809131
:104AD0008E03B82AB0928E03F6CF812F0E942C1D30
:104AE000BB2009F450C080E2810F883010F08110A3
:104AF00004C08B2D0E94221206C0B09480918E03B8
:104B0000B822B0928E030E94E4173DC0302F3F7050
:104B1000B32E802F807F803219F0B29480EFB822BC
:104B20008820F1F041E0841609F4AFC0DD2009F4DB
:104B3000B8C0CC2009F480C020E0F7014081518149
:104B40006281738184810E9448158091540381FDA4
:104B5000BCCFF701858180FFB8CF8F7085836CC093
:104B60008091150382FD48C0DD2009F43FC0BB20C1
:104B700039F080911603B82AB09216030E94E41708
:104B800080E00E949D1D292D2850330B24303105D3
:104B900010F40E948107812F902F0E94241381110D
:104BA000D1C11092170210921602AA20A9F080918A
:104BB000730280FD11C0F701128285958595859558
:104BC0000E94BE18C7010E94C5208091730285957E
:104BD000859585950E94801820E0F70140815181DC
:104BE0006281738184810E944815E2CA80E00E943C
:104BF0002C1DBB2041F27DCFDD2011F1C11004C07E
:104C000080917E028B2919C051E0C51206C08091A7
:104C10007E028B290E940E12B6CF80915303823000
:104C200078F3C812EDCF0E940312909115028B2DDC
:104C3000892B8913809315028B2D0E94221DA3CFEF
:104C4000C11003C00E94031217C08091530361E09A
:104C5000C61216C0823008F496CF809116038B21BD
:104C600009F491CF0E940312909115028B2D80952B
:104C700089238913809315028B2D0E941B1D83CFDE
:104C8000823000F3C812DECF7ECF80915903DD2041
:104C900021F08C1508F477CFCFCFC81608F073CF6A
:104CA000EBCFCC2049F3F9E38F1244C18091570335
:104CB000909158030E941614812F0E942C1D63CFDF
:104CC000802F86958695837069F0813009F05BCFDF
:104CD000812F902F9370D11002C090E080E00E944D
:104CE000550751CF812F902F9370D11002C090E0C3
:104CF00080E00E946B0747CF812FDD2029F00E94C2
:104D0000B10F0E946F0E3FCF0E94960EFACF802FF8
:104D1000837091F5D11037CF412F4295469547705A
:104D2000440F440F812F8F70042E01C0880F0A9406
:104D3000EAF7212F207114FF07C02FE030E001C0F7
:104D4000220F4A95EAF72095302F36953695337025
:104D5000323069F050F440917F02313029F0822BDB
:104D600084230E94E1180FCF842B822BFACF282BAB
:104D700080917F028227F5CF8695DD2011F0802F6C
:104D80008170882309F4FFCE412F429546954770E4
:104D9000440F440F812F8F70042E01C0880F0A9496
:104DA000EAF7212F207114FF07C02FE030E001C087
:104DB000220F4A95EAF72095302F369536953370B5
:104DC000323069F050F440919203313029F0822B57
:104DD00084230E946F18D7CE842B822BFACF282BE6
:104DE000809192038227F5CF202F2F70B22EDD20E5
:104DF00029F0822F0E94BE18812F1FCF812F0E9481
:104E00001B1D8B2D0E948018BECE812F32EF831682
:104E1000B1F1381570F040EF8416D1F051EF8516DE
:104E200091F0DD2009F481C0C1104FCE802F8F7129
:104E30002AC063EF861651F174EF8712F2CF80918A
:104E4000150382FD2FC0802F8F71DD20D9F21BC08A
:104E500080915903DD2079F0C81608F094CE202FF8
:104E60002F7181E090E001C0880F2A95EAF79091B8
:104E700092038927AECF8C1508F485CEF0CF802F12
:104E80008F71D110BFCF0E94BE187DCE80E0DD2093
:104E900009F49FCF81E0902F9F7101C0880F9A95F0
:104EA000EAF797CF80915303823038F1DD20C9F0C3
:104EB000909173029770943041F40E942912802FD0
:104EC0008F710E948018A12C5ECEC816E0F7802F4B
:104ED0008F71B82E0E94BE1863E08B2D0E94CA18F5
:104EE000F2CFC81630F00E94291264E0802F8F7133
:104EF000F5CF81E00E948D18E6CFDD2059F0902F8C
:104F00009F71B92E892F0E94BE1863E08B2D0E94DD
:104F1000CA1839CE81E00E948D18E1E0EC1508F046
:104F200032CE82E00E948D182ECECC2041F0893303
:104F300009F4BCCE8091550390915603BBCE802FCF
:104F40008F7160CFDD2019F0C1102BCE2ECEC11095
:104F500028CE20E0F70140815181628173818481F4
:104F60000E9448158091540383FF1BCE8091160246
:104F700090911702029709F014CE812F0E94331EE0
:104F800010CE0031FFE51F0709F4CDC901312FE52F
:104F9000120709F4E3C98091520380FF38C00E94D0
:104FA00049076C01F7018281882309F4E7C98091E0
:104FB0001B0182FF08C02AE932E040E0B60190E020
:104FC00080E00E94961F0B31FCE51F0709F4C8C959
:104FD0000C312CE5120709F4C9C990911B01892FE6
:104FE0008E7F90FF81600A313CE5130709F4C1C947
:104FF000C8019056811540E2940728F0905E811513
:10500000904108F0C9C910925E0310925D03033FFE
:105010007CE5170709F404CB08F0A9CA083D9CE514
:10502000190709F4F9CA093DECE51E0709F408CB94
:10503000073DFCE51F0709F0A6CA26E241EE61EE36
:10504000C7010E94551E74C921E062817381848169
:105050000E9448158C01F70182818111ADC8003191
:105060003FE5130709F476C901314FE5140709F04C
:1050700092CF82E070C90631FCE51F0709F4F3CA3C
:105080008091160382720A3C9CE5190709F4B1CCA1
:1050900008F058CC053CFCE51F0709F496CC08F055
:1050A00039CC033C3CE5130709F485CC08F088CCE7
:1050B000023C5CE5150709F470CCF70182810081A0
:1050C0001181882309F4E2CCC8010E94F914D82E7A
:1050D000682FC8010E940913B8018D2D0E94CF14BA
:1050E0000E947510182F092F882EF701D280C580D5
:1050F000C2943FE0C322809173028770C1F0AD2C4F
:10510000DD20B1F0892F807F803421F080E2810F93
:10511000883068F08091150382FF09C082E00E9408
:105120008D18809173028770AA24A3948111A12CF9
:10513000902E92942FE09222FBE0F91508F423CDF3
:10514000E92DF0E0EC57F94C0C94AC351F93CF935C
:10515000DF9380913E02807F09F049C080913B023D
:10516000882309F444C080917002D0913F0260917D
:10517000390270913A02A0913C02B0913D02C62FD3
:10518000C72316E0D81799F190E0109711F0CF3FA0
:1051900019F401968770F6CF189F9001199F300D72
:1051A0001124F901E05CFD4F41814713F2CF4081AA
:1051B0004613EFCF42814111ECCF438154814A1B0A
:1051C0005B0B483C510528F780913E028F7080614F
:1051D00080933E02F901EB5BFD4F80818F7080610F
:1051E000808389E392E00E94C5200E949012DF91A3
:1051F000CF911F910895A1E1B0E0E1E0F9E20C94B4
:10520000BF358C0185E0F801DE011D9601900D92FD
:105210008A95E1F7D8019C9011968C90119712967F
:10522000EC9012971396CD90DC9020E040913902DB
:1052300050913A0260913B0270913C0280913D0294
:105240000E94481589E3A82E82E0B82E40913C02C6
:1052500050913D024115510509F43AC1909139022E
:1052600020913A02892F82238F3F09F431C1F090B7
:105270003B02F601E41BF50BFF2009F4F6C0809118
:105280003E02382F307FE83CF10508F0C0C0D8015D
:1052900011964C91119731117BC0FE2C421315C011
:1052A0002C91291312C0E11010C08F70806180937F
:1052B0003E02C5010E94C52080913E02F80185830F
:1052C0008F2D6196ECE00C94DB35C114D10429F0EC
:1052D000892D88218F3F09F019C180E080FF18C017
:1052E0004E2D682D892D0E947012882389F080919F
:1052F000540380FF0DC089E392E00E94C52086E040
:10530000E9E3F2E0DF011D928A95E9F7F12CD8CFAD
:10531000C114D10429F0892D88218F3F09F0F3C0F1
:1053200080E0B82FB170CB2E80FF29C04E2D682DA4
:10533000892D0E947012D82E811121C09D868E86E3
:105340008D859E850E942815292F22952F70223049
:1053500050F0243078F49F7051F0F8019581907FDF
:1053600031F4FD2CADCF9F7011F08823D1F3805E16
:105370008830B8F3C8010E94C520DC2CF2CFEE20A3
:1053800009F49ECF80913E02816080933E02BECFA1
:10539000421313C02C91291310C0E1100EC01596B2
:1053A0008C93C8010E94C52086E0F801A9E3B2E011
:1053B00001900D928A95E1F783CFC8010E943515BF
:1053C000882309F1EE20F9F080913E02803270F0DE
:1053D0002091390230913A0238872F831986DB8673
:1053E000CA868C87CE0107960E94C52086E0F80108
:1053F000A9E3B2E001900D928A95E1F70E94A628F8
:10540000FF24F3945DCFC8010E94C520F9CF332358
:1054100009F471CFF801318132130FC020812913B3
:105420000CC0E1100AC08583C8010E94C52086E037
:10543000D5011D928A95E9F743CFC8010E94351521
:10544000882309F3EE20F9F280913E02803270F257
:105450002091390230913A023A8329831B82DD82FE
:10546000CC828E83CE010196BFCFE83CF105F8F6E1
:10547000FE2CEE2041F2F801818182131BC0808155
:10548000891318C08091540382FD8ECF90913E0203
:1054900090FD8ACF907F09F487CF80913E0285836B
:1054A000903F09F47ECF982F907F905F8F70892B6B
:1054B000858377CFC8010E943515811197CF8091E0
:1054C0003E02816080933E02C8010E94C520F8CE52
:1054D000EE2009F498CFC8010E943515F82E8823D4
:1054E00009F491CF86E0F801A9E3B2E001900D92B2
:1054F0008A95E1F78091390290913A020E9428152D
:105500000E94A628DDCE81E08E250BCF81E08E257E
:10551000E5CEA7E1B0E0EFE8FAE20C94C8354B8B9A
:105520005C8B6D8B7E8B8F8B8E899F89892B29F06D
:10553000CA0189238F3F09F0A0C08D898111109283
:105540008E031A8A198A85E0FE017396DE011D9684
:1055500001900D928A95E1F78091150382FF1EC09C
:105560008091390390913A03892BC1F00E94490739
:105570002091710230917202821B930B20913903AA
:1055800030913A038217930720F08091730282FFD3
:1055900070C00E94301281110E94031286E0FE0149
:1055A0003D96DE01179601900D928A95E1F7CE01A6
:1055B00007960E94FB28811112C086E0FE013796F3
:1055C000DE01119601900D928A95E1F78A859B85FF
:1055D000892B29F088859F8189238F3F81F516E0EB
:1055E0008091700290913F02891317C06796E3E0A3
:1055F0000C94E43596E0929FD001939FB00D112456
:10560000A05CBD4FFE01319601900D929A95E1F795
:1056100080933F020E949012E2CF819FC00111242B
:10562000805C9D4F0E94FB28882301F380917002CB
:1056300090E001968770992780937002D1CF2091D6
:105640003F0230E0C90101968770992740917002AE
:105650004817190679F60E94E61810923F02109238
:10566000700286E0E9E3F2E0DF011D928A95E9F736
:10567000B6CF82E00E948D188CCF80911602909157
:1056800017020196909317028093160256CFA5E059
:10569000B0E0EDE4FBE20C94C935909311038093E4
:1056A0001003811520E2920730F40E94851D259693
:1056B000E2E00C94E53580EF89838A831B820E94A7
:1056C00049078160782F9D838C8349815A816B8142
:1056D0008D810E94892AEBCFA5E0B0E0E2E7FBE2F2
:1056E0000C94C9359093110380931003811520E227
:1056F000920730F40E94691F2596E2E00C94E5358C
:1057000080EF89838A8381E08B830E9449078160CF
:10571000782F9D838C8349815A816B818D810E9472
:10572000892AEACF1F920F920FB60F9211242F935E
:105730003F934F935F936F937F938F939F93AF9319
:10574000BF93CF93DF93EF93FF93D091E900DF7086
:105750008091EC00C82FC17080FDC0E81092E90074
:105760008091F000877F8093F00078940E94F21877
:105770001092E9008091F00088608093F000CD2BBA
:10578000CF70C093E900FF91EF91DF91CF91BF916E
:10579000AF919F918F917F916F915F914F913F91C9
:1057A0002F910F900FBE0F901F9018951F920F9280
:1057B0000FB60F9211242F933F934F935F936F93E4
:1057C0007F938F939F93AF93BF93EF93FF938091BA
:1057D000E10082FF09C08091E20082FF05C0809154
:1057E000E1008B7F8093E1008091DA0080FF24C08C
:1057F0008091D80080FF20C08091DA008E7F809356
:10580000DA008091D90080FF9DC080E189BD82E1EE
:1058100089BD09B400FEFDCF81E0809383038091B0
:105820006D03811109C00E947E050E94710680915E
:10583000E20084608093E2008091E10080FF17C065
:105840008091E20080FF13C08091E2008E7F809300
:10585000E2008091E20080618093E2008091D800B4
:1058600080628093D80019BC85E080938303809187
:10587000E10084FF2BC08091E20084FF27C080E11B
:1058800089BD82E189BD89B5982F917080FFFBCFDA
:105890008091D8008F7D8093D8008091E1008F7E29
:1058A0008093E1008091E2008F7E8093E2008091FE
:1058B000E20081608093E20080917A03882309F4FA
:1058C00047C084E080938303809183038091E1004B
:1058D00083FF27C08091E20083FF23C08091E10015
:1058E000877F8093E10082E08093830310927A03A4
:1058F0008091E1008E7F8093E1008091E2008E7FB5
:105900008093E2008091E20080618093E20042E0B7
:1059100060E080E00E943F068091F0008860809304
:10592000F000FF91EF91BF91AF919F918F917F9187
:105930006F915F914F913F912F910F900FBE0F90FC
:105940001F90189519BC1092830310926D0374CFA9
:105950008091E30087FD93E090938303B5CF789423
:105960001F921FB61F9211248F939F93AF93BF93E3
:105970008091660390916703A0916803B0916903D9
:105980000196A11DB11D8093660390936703A093B8
:105990006803B0936903BF91AF919F918F911F905E
:1059A0001FBE1F9018951F921FB61F9211248F9330
:1059B0009F93AF93BF9380916503811113C0809132
:1059C000660390916703A0916803B09169034196C3
:1059D000A11DB11D8093660390936703A093680394
:1059E000B0936903BF91AF919F918F911F901FBE9C
:1059F0001F901895CDB7DEB7C754D1090FB6F894EC
:105A0000DEBF0FBECDBF85B7806885BF85B7806814
:105A100085BF84B7877F84BF0FB6F894A89580911F
:105A20006000886180936000109260000FBE80E883
:105A300090E00FB6F89480936100909361000FBEE0
:105A400089E190E190930B0280930A020E9447142F
:105A50000E947E050E9471068091E200846080931E
:105A6000E2007894809183038823A1F01091E900EB
:105A70001F709091EC00892F817090FD80E8182BA9
:105A80001092E9008091E80083FD0E94F2181F70D7
:105A90001093E90082E084BD93E095BD9AEF97BD35
:105AA00080936E000E946B15811102C00E94671CDA
:105AB0000CE511E0D8018D918D018F3F11F00E940E
:105AC0001B10B1E004361B07A9F704E611E0F8014A
:105AD00081918F018F3F11F00E941B10F1E00E3673
