:04000000020049327F
:03000B000200F5FB
:0100130032BA
:01001B0032B2
:0100230032AA
:01002B0032A2
:01003300329A
:01003B003292
:030043000200B602
:0300B30002004602
:0300460002013480
:2000B600C021C0E0C0F0C082C083C007C006C005C004C003C002C001C000C0D075D0001271
:2000D600065DD0D0D000D001D002D003D004D005D006D007D083D082D0F0D0E0D02132C073
:2000F60021C0E0C0F0C082C083C007C006C005C004C003C002C001C000C0D075D0001201F0
:200116008AD0D0D000D001D002D003D004D005D006D007D083D082D0F0D0E0D021321201B8
:11013600781201A21208D512103ED2AF12107480FBAA
:20014700AE82AF83EE4F6011E5C330E7FBE5C320E7FB1EBEFF011F80EB22C2A9786486824D
:20016700088683D2A92275A15575A1AA2275A1002275A15575A1AA74F855B94406F5B97533
:20018700A10022758A30758CF878648606088607786474012EF6E43F08F622758A30758C88
:0F01A700F84389017864E4F608F6D2A9D28C22D5
:1801B60075E200C2AF90000112014702380075A15575A1AA43B11022F3
:2001CE00D2B2D291D292D293D2B5D2B4D2B1D2B0D297D296D295227F10EF6004001F80F97B
:2001EE0022C2B51201E5A2B2B39200E433F53F758200120FE4A291B39200E433F53F7582C6
:20020E0001120FE4A292B39200E433F53F758202120FE4A293B39200E433F53F7582031237
:20022E000FE4D2B5C2B41201E5A2B2B39200E433F53F758209120FE4A291B39200E433F55B
:20024E003F75820A120FE4A292B39200E433F53F75820B120FE4A293B39200E433F53F7546
:20026E00820C120FE4D2B4C2B11201E5A2B2B39200E433F53F758208120FE4A291B392008C
:20028E00E433F53F758212120FE4A292B39200E433F53F758213120FE4A293B39200E43393
:2002AE00F53F758214120FE4D2B1C2B01201E5A2B2B39200E433F53F75821B120FE4A291D1
:2002CE00B39200E433F53F758218120FE4A292B39200E433F53F75821A120FE4A293B39218
:2002EE0000E433F53F758219120FE4D2B0C2971201E5A2B2B39200E433F53F758211120FB0
:20030E00E4A291B39200E433F53F758217120FE4A292B39200E433F53F758216120FE4A29D
:20032E0093B39200E433F53F758215120FE4D297C2961201E5A2B2B39200E433F53F7582E7
:20034E0010120FE4A291B39200E433F53F75820F120FE4A292B39200E433F53F75820E12D1
:20036E000FE4A293B39200E433F53F75820D120FE4D296C2951201E5A2B2B39200E433F552
:20038E003F758207120FE4A291B39200E433F53F758206120FE4A292B39200E433F53F750F
:1703AE008205120FE4A293B39200E433F53F758204120FE4D295225E
:20233A001A0000000800000015000000170000001C000000180000000C00000012000000E3
:20235A001600040007000800090002000A0040000B0040200D0020200E0080200F0004204C
:20237A00040001001B00000006000000190000001000000036000000370000001300102044
:20239A00290000412C0000421100004328000044140000001D000000050000003400000021
:2023BA00330000002D00000038000000390000000000000000000000000000000000000032
:2023DA002E0200002400000025000000260000000000040000000800000002000000000036
:2023FA002D000000210000002200000023000000000001000000000000000000000000002F
:20241A001E0000001F000000200000003800000000000000000000000800000027000000DE
:20243A00000000000000000000000000000000000000000000000000000000000000000082
:20245A00000000000000000000000000F13A0000E93A00002A0000004C0000004900000055
:20247A00000004000000080000000200F13800005000000051000000520000004F000000C9
:20249A00000001000000000000000000000000004A000000000000004D0000002B0000005F
:2024BA00000000000000000000000000000000000000000000000000000000000000000002
:2024DA00000000000000000000000000000000003500000034020000370000002F00000011
:2024FA00300000003100000031020000380000001F02000020020000210200002602000068
:20251A00270200002402000025020000220200001E02000035020000340000002D0200004D
:20253A002D0000002E0200002E0000002B0000002F02000030020000000000000000000068
:20255A00000000000000000000000000000000000000000000000000000000000000000061
:20257A00000000000000000000000000000000004500000040000000410000004200000039
:20259A0000000000000000000000000000000000440000003D0000003E0000003F00000023
:2025BA00000000000000000000000000000000003A0000003B0000003C000000430000000D
:2025DA000000000000000000000000000000000000000000000000000000000000000000E1
:2025FA000000000000000000000000000000000001C80055553333111133335155333355FF
:20261A00335535330396F401640001C800333355553333111133335515335533535505968F
:20263A00F401640001C80033333333333333333333333333333333333396F401000000320B
:20265A001C000100321D111200321E121300321F05060032200607003221141500322215BC
:06267A00160032230007E8
:2003C5009001B0E024F750067E087F0080089001B0E0FDFE7F008EDDE5DD602B850815857F
:2003E500091675178085DD1875190090019275F00012222C9001B0E0C395DDF0E5DD2508A8
:20040500F508E43509F5092275DCC09001B0E4F090019375F0001222E2FF24F45003020562
:20042500C9EF240A83F582EF241083F583E4730714C983C9D44CC9FAE5C9A50505050505E3
:200445000404050404050590019575F0001222E2FFBF0102800ABF02028013BF2249801C70
:200465009001B07412F075088075092680399001B0743BF0750892750926802B900196758C
:20048500F0001222E2FF6005BF011C800E9001B0742DF07508CD750926800C9001B074156D
:2004A500F07508FA7509269001B0E070030205C990019875F0001222E2FF9001B0E0FEC343
:2004C500EF9E50059001B0EFF043D1020203C590019475F0001222E29001B0F053D1FD2221
:2004E500E5E3547FFF90019475F0001222E20354804FF5E322E5E3235401900192F075DDF8
:200505000122900192E4F0900193F075DD0222900192E0FFBFA10280030205C990019675DF
:20052500F0001222E2FF6008BF0102802A0205C97F00BF0800501CEF2492FDE43401FEEFB3
:20054500249CF582E43401F583E0FC8D828E83F00F80DF75DD08227F00BF0800501CEF2433
:2005650092FDE43401FEEF24A6F582E43401F583E0FC8D828E83F00F80DF75DD08229001A8
:2005850092E0FFBFA13E90019675F0001222E2FF60028030A201E433900192F075DD012252
:2005A500900192E0FFBF211C90019675F0001222E2FF6002800E90019475F0001222E224E3
:2005C500FF92012243DC0F229001B0E0700122E5D130E1071203C563DC4022748055E3FFEA
:2005E5009001B0E04FF5E32222AF82C2EAEF249CF582E43401F583E0FFD2EA8F8222AF82D7
:20060500C2EAEF249CF582E43401F583E50AF0D2EA02061953D2FC2253D2FCE5D230E1FB8F
:200625002274FC55D24402F5D222AF82C2EAEF75F002A424A6F582740135F0F583E515F0B9
:20064500E516A3F0D2EA53D4FCE5D430E1FB2274FC55D44402F5D42220D9030208B275DD6D
:2006650000E5D9540FFFADD95305307E00BD0006BE00030208B0BD2006BE000302086DBDB3
:200685003005BE000280030208B0EF60030208B075DCC09001B0E4F090019375F000122234
:2006A500E2FE24F45003020868EE240A83F582EE241083F583E4739BAA681D685FD4688B96
:2006C50073684207070808080706080707080890019575F0001222E2FEBE0102800ABE02F5
:2006E500028013BE2249801C9001B07412F075088075092680399001B0743BF07508927526
:200705000926802B90019675F0001222E2FE6005BE011C800E9001B0742DF07508CD7509F2
:2007250026800C9001B07415F07508FA7509269001B0E0700302086890019875F000122265
:20074500E2FE9001B0E0FDC3EE9D50059001B0EEF043D1021203C50208B090019475F000A0
:200765001222E2FE9001B0F053D1FD0208B0E5E3547FFE90019475F0001222E2035480FD47
:200785004EF5E30208B0E5E3235401FE900192F075DD010208B0900192E4F0900193F07596
:2007A500DD020208B0900192E0FEBEA102800302086890019675F0001222E2FE6008BE017D
:2007C50002802C0208687E00BE0800501CEE2492FCE43401FDEE249CF582E43401F583E0F8
:2007E500FB8C828D83F00E80DF75DD080208B07E00BE0800501CEE2492FCE43401FDEE24F2
:20080500A6F582E43401F583E0FB8C828D83F00E80DF75DD080208B0900192E0FEBEA14318
:2008250090019675F0001222E2FE60028035A201E433FE900192F075DD010208B090019201
:20084500E0FEBE211E90019675F0001222E2FE6002801090019475F0001222E2FE24FF92D3
:2008650001804843DC0F8043BF0002800ABF01028027BF0236802C9001B0E0602EE5D130CD
:20088500E1081203C563DC408021748055E3FF9001B0E0FE4FF5E3801274FC55D24402F59B
:2008A500D2800874FC55D44402F5D4C2D930D8139001B0E4F0D20175DC0275E300C2DAC28A
:2008C500D9C2D810DA0122E5DA20E20375D8FF2243E20653E2FD7F08EF60471FEF2492F52E
:2008E50082E43401F583E4F0EF249CF582E43401F583E4F08F057E00751502F5168D828E3B
:2009050083C0071222FEAD82AE83D007ED2DFDEE33FEED24A6F582EE3401F583E4F0A3F0B9
:2009250080B69001B0E4F0D20175E22975D18175DD0075EC9275ED0175D30875EE9C75EFF2
:1C0945000175D21275EA4075D50875E4A675E50175D41A75EB0475E107D2EA22EF
:202680001201100100000008BAAB010000010000000109023B00020100C03209040000015D
:2026A00003010100092111010001222D0007058103080001090401000103000000092111A3
:2026C0000100012215000705820308000105010906A101050719E029E71500250175019515
:2026E00008810295017508810195067508150025650507190029658100C0050C0901A10152
:0F2700007510950426FF0319002AFF038100C0FE
:0700A200900186E4F0A3F0D9
:20096100900186E0FEA3E08E82F58322121A1DE58260047582012275820022AF827E007DE1
:2009810002BD080050378D82C007C006C0051205EEAC82D005D006D007ECB5070AEE540FEF
:2009A10060028003ED4206EC7010EE54F0600280098D04ECC454F0FC42060D80C48E822247
:2009C100AF827E007D08ED7003020A671D8DF005F07B017C008006EB2BFBEC33FCD5F0F71A
:2009E1008F017A00E95203EA5204EB4C604BE522601DED248AFBE43401FCED248AF582E467
:200A01003401F583E0FA0A8B828C83EAF0802AED248AFBE43401FC8B828C83E0601BED2471
:200A21008AFBE43401FCED248AF582E43401F583E0FA1A8B828C83EAF0ED248AFBE43401DF
:200A4100FC8B828C83E060067B017C0080047B007C008D048CF005F0EB800225E0D5F0FB90
:200A6100FB42060209C7758200C0061205EEAF82D006EFB50601228E0A758200020603AF81
:200A810082758200C0071205EEAE82D0077D00E5236005EF4EFD80327F08EF602D1FEF24FE
:200AA1008AFBE43401FC8B828C83E060067B017C0080047B007C008F048CF005F0EB800255
:200AC10025E0D5F0FBFB420580D0EEB50501228D0A758200020603AF82C00712097CAE829B
:200AE100D007740F5EFD5306F0E4C4CEC4540F6ECE540FCE6ECE30E30244F0E5246006ED0C
:200B01007003EE7008E5247003ED700122E524600280028D06E52460068F057F0080047DFC
:200B2100007F008D0A8E82120603120161E5828583F0900186F0E5F0A3F0228582251212BF
:200B41003785822685832785F02874022526F9E43527FAAB2889828A838BF01222E2FB7584
:200B6100F005A424D2F9740035F0FA89298A2A752B00752C0274012526F52DE43527F52E6B
:200B810085282F852D82852E83852FF01222E2704EE525704A8526828527838528F01222A5
:200BA100E2603C74012529F9E4352AFAAF2B8B82C007C002C001121083A882AB83ADF0FEF4
:200BC100D001D002D00789828A838FF0E8122281A3EB122281A3ED122281A3EE1222817424
:200BE100012529FDE4352AFEAF2B8D828E838FF01222E2F9A31222E2FAA31222E2FBA312C3
:200C010022E289828A838BF0C007C006C00512096DAC82D005D006D007ECFB70678D828E57
:200C2100838FF01222E2FDA31222E2FEA31222E2FFA31222E2FC8526828527838528F0126F
:200C410022E2F53C8D828E838FF0EC120E52852982852A83852BF01222E2FF5307FB85264A
:200C6100828527838528F01222E225E025E0FE4207852982852A83852BF0EF122281752C77
:200C810002020D1DE4FEFF7401B5252EC003120161AC82AD83D00374032526F8E43527F96C
:200CA100AA28888289838AF01222E2F8A31222E2F9ECC398FEED99FF80497402B52544C02A
:200CC1000312123EAA82AC83ADF0D00374032AFAE43CFC8A828C838DF01222E2FAA31222AD
:200CE100E2FC74032526F8E43527F9AD28888289838DF01222E2F8A31222E2F9EAC398FEB7
:200D0100EC99FFBB01168525458E468F47852982852A83852BF0121B6E85822C12061D746A
:200D210002B5250DE52C30E20512136C8003121256E52C5403600D121230AD82AE83AFF0EB
:200D4100E4122281E52C30E103021274E52C30E011852D82852E83852FF0740112228102E0
:200D6100142022121229E582700D121222E5826006758201020B3C121229E582601A121245
:200D810022E5826008758202120B3C80EA121256758200120B3C80DF22E582FF75F005A4E6
:200DA10024D2FD740035F0FE8D318E32753300E5306003020E348531828532838533F0129A
:200DC10022E2FB30E26D74012531F539E43532F53A85333B853982853A83853BF01222E2E6
:200DE100FBA31222E2FCA31222E2FDA31222E2FE753C008B828C838DF0EE120E52853182F3
:200E01008532838533F01222E2FE5306FB8531828532838533F0EE122281853982853A8348
:200E2100853BF0E4122281A3122281A3122281A30222818530347535008F36120161E5823D
:200E41008583F0F53785F03890003475F040021310AC82AD83AEF0FF780079008E02741F23
:200E61005FFBB8000BB90008BAFF05BB1F02805CE4F8F9FA741F5FFB6030E53C60178B822C
:200E8100C007C006C005C004121134D004D005D006D00780158B82C007C006C005C00412C4
:200EA100114DD004D005D006D00779008E028A00E8FB6018853C228B82C007C006C005C08D
:200EC100041209C1D004D005D006D0078D0189038C028A3D741F553DF53EA83D5300E07983
:200EE10000B8C005B90002800BB8E005B90002803E020F89E53C700122BB0002800BBB01C6
:200F0100028012BB0202801322853E8212111775820002112B853E82021167A83E88F005F2
:200F2100F07401800225E0D5F0FBF58202112B5302078B007900E828F8E933F9E828F8E9E1
:200F410033F9530418E4FDFEFFEDC423CCC423541F6CCC541FCC6CCCFDEEC42354E04DFD1E
:200F6100EFC423CEC423541F6ECE541FCE6ECEEC48FEED49FFBA0133E53C7002FEFF8E1531
:200F81008F1675820002062FEB6008853C228B821209C1E53D6009853C24853D82120AD8B6
:200FA100E53C7007F523F582020A8022AC82AD83AEF0FF753C018C828D838EF0EFC007C09C
:200FC10006C005C004120E5212061DD004D005D006D007753C008C828D838EF0EF120E52D6
:200FE10002061DE582FF75F005A424D2FD740035F0FC7E008D828C838EF01222E2FBF95358
:201001000102E4A2E713C913C9E9B53F1D74015BB53F012274FE5B453F8D828C838EF012C7
:201021002281853F0B8F820214A15303FDE53F25E042038D828C838EF0EB0222817F24EFF6
:2010410060141FEF75F005A424D2F582740035F0F583E4F080E97F08EF600F1FEF248AF5AE
:2010610082E43401F583E4F080EE1219FE1214340201CE1201EF9000051201471216270284
:021081000D64FC
:0A00A900900188E4F090018904F052
:20108300AF82C0071210BAE582D00775F090A4243AFD742335F0FEEF2F25E02DF582E43EA4
:2010A300F583E493FCA3E493FDA3E493FEA3E4938C828D838EF0227F047E04EE60198E82BF
:2010C300C007C0061211BAE582D006D00760038F82221E8E0780E4758200227F007E00BE0E
:2010E3000500502B8EF005F07C017D008006EC2CFCED33FDD5F0F7900189E0FB7A005204C8
:20110300EA5205EC4D60038F82220E8E0780D07582002222AF828FF005F07401800225E0ED
:20112300D5F0FBF58202117EE582900188F0021116AF828FF005F07401800225E0D5F0FBEA
:20114300FF900188E04FF0021116AF828FF005F07401800225E0D5F0FBF4FF900188E05F80
:20116300F0021116AF82C0071211EFE582D00760058F820211348F8202114DE5829001895C
:20118300F0021116AF828FF005F07401800225E0D5F0FBFF900189E04FF0021116AF828FB1
:2011A300F005F07401800225E0D5F0FBF4FF900189E05FF0021116AF82900189E0FE90016C
:2011C30088E042068FF005F07F017D008006EF2FFFED33FDD5F0F77C00EE5207EC5205EF7A
:2011E3004DB40100B39202E433F58222AF82900189E0FE900188E042068FF005F07F017D18
:1F120300008006EF2FFFED33FDD5F0F77C00EE5207EC5205E4BF0004BD000104F5822248
:201222009000CFE0F582229000D0E0F582229000D175F0002290002F75F000229000CFE08E
:2012420075F005A4242FFEE43400FF7D008E828F838DF0229000D0E07001229000CFE0FFC7
:201262000F9000CFEFF09000D0E0FF1F9000D0EFF0229000CFE07001227F009000CFE0FED2
:201282007D009000D0E07B002EFEEB3DFD1EBEFF011D8F037C00C3EB9EEC64808DF063F0D0
:2012A2008095F05052EF75F005A4242FFDE43400FE7A0074012BF515E43CF516900005C07E
:2012C20007C006C005C00212229CAB82AC83D002D005D006EB242FFBEC3400FC8B158C1678
:2012E2007517007518057519008D828E838AF012222CD0070F80849000D0E0FF9000CFE0DE
:20130200FE1EEE2F9000D0F09000CFE4F022AD82AE83AFF09000CFE0FC7B009000D0E0F9FF
:201322007A00E92CF515EA3BF516900005C007C006C00512229CAB82AC83D005D006D0074D
:20134200EB242FFBEC3400FC7A008D158E168F177518058A198B828C838AF012222C900015
:20136200D0E0FF0F9000D0EFF0229000D0E07001227F009000D0E0FE7D001EBEFF011D8FB7
:20138200037C00C3EB9EEC64808DF063F08095F040030214149000CFE0FE7D00EB2EF51591
:2013A200EC3DF516900005C007C004C00312229CAD82AE83D003D004ED242FFDEE3400FEE0
:2013C2007A009000CFE0F87900EB28FBEC39FC74012BF515E43CF516900005C006C005C0FD
:2013E2000212229CAB82AC83D002D005D006EB242FFBEC3400FC8B158C167517007518058B
:201402007519008D828E838AF012222CD0070F0213759000D0E0FF1F9000D0EFF022900083
:20142200D0E0FF9000CFE02F9000D0F09000CFE4F0229000CFE4F09000D0F09000D1F022F2
:20144200AF82900000E0FE7D001EBEFF011D8F037C00C3EB9EEC64808DF063F08095F05026
:2014620032EF2F2401FEE43400FD7C008F030BEB2B2401FBE43400FA8B158A168C17751811
:20148200028C198E828D838CF0C00712222CD0070F80AF900000E0FF1F900000EFF0228527
:2014A200820CE50B700302156F7E08EE60701EEE75F005A4FCADF02458F582ED3426F5830A
:2014C200E493FB74075B2402FBEC2458FCED3426FD74032CFCE43DFDEB60D01BEB2CF58278
:2014E200E43DF583E493FAB50CEE850C0D750E00900000E0FE04900000F0EE2E2401FEE4FB
:201502003400FD7C0075150D8C167517407518028C198E828D838CF012222C0216277E002A
:20152200900000E0FDC3EE9D503AEE2EFD2401FBE43400FC8B828C83A3E0FCBCFF0280211E
:20154200ED2401F582E43400F583E0FD7530018D82C006120D9AD0068E82C006121442D07B
:20156200060E80BC753001850C82020D9A7E007D00900000E0FCC3ED9C400302161EED2D71
:20158200FC2401F582E43400F583E0FBB50C028003021618EC2401FCE43400FB8C828B8394
:2015A200A3E0FCBCFF03D38001C392038E82C006121442D0063003030216277C007B00C3FD
:2015C200EB9E5047EB2B2401FAE43400FF8A828F83A3E0FFBFFF030C802EEC2C2401F582CE
:2015E200E43400F583E0FF7530018F82C006C004C003120D9AD003D0048C82C004C003126F
:201602001442D003D004D0060B80B4753001850C82120D9A80060D8D06021573753000856A
:201622000C82020D9A900000E0FFEF602E1FEF2F2401FEE43400FD0EBE00010D8E047E0026
:201642008C828D838EF01222E2FBBBFF0280DB8C828D838EF0E412228180CF750F0074F850
:20166200250F50030219B4751000E50F75F005A4FCADF02458F582ED3426F583E493FB745A
:20168200075B2402F511EC2458FCED3426FD74032CFCE43DFD7A00C3EA9511400302172507
:2016A200EA2CF582E43DF583E493F97800900000E0FFC3E89F5068E828FF2401F582E434E6
:2016C20000F583E0FBE9B50353E50F75F003A4F51385F0142417F582E5143400F583E0FBFE
:2016E200BB02028023EF2401FFE43400FB8F828B83A3E0FFBFFF11E5132417F582E5143419
:2017020000F583E4F00219AF8A078FF005F07401800225E0D5F0FBFF4210800308808E0AFC
:20172200021699C204E50F75F003A4FDAFF02417F582EF3400F583E0FCBC01028003021710
:20174200C7E510700FED2417F582EF3400F583E4F00219AFC007C005120161AB82AC83D048
:2017620005D007ED2417F9EF3400FA89828A83A3E0F9A3E0FAEBC399FBEC9AFCE50F75F01F
:2017820005A42458F9742635F0FA89828A83A3E493F97A00C3EB99EC9A40030219AF85115B
:2017A200F005F07B017C008006EB2BFBEC33FCD5F0F71BBBFF011CA9107A00E9B50306EA26
:2017C200B50402D204ED2417F582EF3400F583E0FCBC0203021890E50F75F005A42458FB7C
:2017E200742635F0FC74032BFBE43CFC751200C3E512951140030218908512F005F07801AA
:2018020079008006E828F8E933F9D5F0F7AA107E00EA5200EE5201E849606EE5122BF582A1
:20182200E43CF583E493FE7A00900000E0F9C3EA995056EA2AF92401F582E43400F583E0B1
:20184200F8EEB5004130041AC003C004E92401F8E43400FC88828C83A374FFF0D004D003F5
:201862008027C003C004E92401F8E43400F908B800010988828983E0FC0C88828983ECF067
:20188200D004D00380030A80A005120217F1ED2417FCEF3400FE8C828E83E07039E510608F
:2018A20035ED2417F582EF3400F5837401F0ED2417FCEF3400FE0CBC00010EC006C004129A
:2018C2000161AA82AB83D004D0068C828E83EAF0EBA3F00219AFED2417F582EF3400F58325
:2018E200E0FEBE013230042FED2417F582EF3400F5837402F0E50F75F005A42458FC742600
:2019020035F0FE8C828E83A3A3E493FE7530018E82120D9A0219AFED2417F582EF3400F5D8
:2019220083E0FEBE020280030219AFE50F75F005A4FCAEF02458F582EE3426F583E493303F
:20194200E30CE4B5100474018001E4FB8037C004C0068511F005F079017A008006E929F9D3
:20196200EA33FAD5F0F719B9FF011AA8107E00E8B50107EEB50203D38001C3B39205E433AB
:20198200FBD006D004EB6025ED2417F582EF3400F583E4F0EC2458FCEE3426FE8C828E8359
:2019A200A3A3E493FF7530008F82120D9A050F0216607F00900000E0FEC3EF9E503DEF2F86
:2019C200FE2401FCE43400FD8C828D83A3E0FDBDFF030F80DFED7023EE2401F582E43400E4
:2019E200F583E0FE7530018E82C007120D9AD0078F82C007121442D00780B9227F08EF603A
:1B1A0200141FEF75F003A42417F582740035F0F583E4F080E9900000E4F02215
:201A1D00AC82AD83AEF0FFEE7003EF6006EC7007ED7004C2068002D206A206E433F58222BA
:201A3D00AD82AE83AFF074032DFDE43EFEAB407C007515028C168B828C83C007C006C005C6
:201A5D00C004C0031222FEA982AA83D003D004D005D006D007E92DFDEA3EFE8D828E838F47
:201A7D00F01222E2FFEB30E007EFC4540FF58222740F5FF5822275820022E5826058854417
:201A9D00157516038541828542838543F0121A93AF8274012541FCE43542FDAE438C828D91
:201ABD00838EF01222E2A31222E2A31222E2FAA31222E2FB7800790053031F8C828D838EC0
:201ADD00F0E8122281A3E9122281A3EA122281A3EB1222818053854415751602854182858B
:201AFD0042838543F0121A93AF8274012541FCE43542FDAE438C828D838EF01222E2F8A3EF
:201B1D001222E2F9A31222E2A31222E27A007B008C828D838EF0E8122281A3E9122281A315
:201B3D00EA122281A3EB122281EF6021AD41AE42AF438D828E838FF01222E2FC4304048DDD
:201B5D00828E838FF0EC122281758202227582012285824885834985F04A12123785824B74
:201B7D0085834C85F04D74012548F557E43549F558854A598557828558838559F01222E28B
:201B9D00A31222E2A31222E2A31222E254E0C4035407FAE4EA75F01AA4240AFE742635F0D1
:201BBD00FFC007C00612123085824E85834F85F050D006D007E54645477003021CDE854E11
:201BDD0082854F838550F01222E2F55470438E828F83A3E493F555A3E493F556E555455678
:201BFD00602FAB46AD47C3EB9555ED955640228E828F83E493FD74015DFBBB0103EB8001F4
:201C1D00E4F582854841854942854A438D44021A977401B5544D74152EF582E43FF583E420
:201C3D0093FD7B00C3E5469DE54764808BF063F08095F0402E8557828558838559F01222E0
:201C5D00E2FAA31222E2FBA31222E2A31222E27C007D008D3C8A828B838CF0ED120E527539
:201C7D008202227402B5545974162EF582E43FF583E493FCA3E493FDAA46AB47C3EA9CEB5F
:201C9D009D403E8557828558838559F01222E2FAA31222E2FBA31222E2A31222E27C007D51
:201CBD00008557828558838559F0EA122281A3EB122281A3EC122281A3ED12228175820118
:201CDD0022E4B54502800B7402B54503021D9E02222874182EFCE43FFD8C828D83E493FA79
:201CFD00A3E493FB4A7003021D84C007C006C005C004120161AA82AB83C003C0021209616D
:201D1D00A882A983D002D003D004D005D006D007EAC398FAEB99FB8C828D83E493FCA3E47F
:201D3D0093FDC3EA9CEB9D503E8557828558838559F01222E2FAA31222E2FBA31222E2A3EB
:201D5D001222E27C007D008557828558838559F0EA122281A3EB122281A3EC122281A3ED15
:201D7D00122281758201228E828F83E493F515751601854882854983854AF0121A93022206
:201D9D0028C007C00612123E85825185835285F053D006D0077402254BF8E4354CF9AA4DB5
:201DBD00888289838AF01222E2F874022551F55AE43552F55B85535C855A82855B83855C99
:201DDD00F01222E2FAE8B50203D38001C39207854E82854F838550F01222E2F9600FB901EB
:201DFD0003021FF5B902030220F2022228200703021F898551828552838553F01222E260CB
:201E1D000302222874152EF8E43FF988828983E4937003021EE1C007C006121222A982D0BC
:201E3D0006D007B901028003021EE18E828F83E493F515751602854882854983854AF012C7
:201E5D001A93E582704574012548F55DE43549F55E854A5F855D82855E83855FF01222E2D1
:201E7D00F560A31222E2F561A31222E2F562A31222E2F563756200756300753C01856082F8
:201E9D008561838562F0E563120E52854E82854F838550F074011222817403254BF560E470
:201EBD00354CF561854D62120161A882A9838560828561838562F0E8122281A3E9122281AB
:201EDD00758204228E828F83E493F515751602854882854983854AF0121A93E582604774F8
:201EFD00012548F560E43549F561854A628560828561838562F01222E2F560A31222E2F559
:201F1D0061A31222E2F562A31222E2F563756200756300753C008560828561838562F0E536
:201F3D0063120E52804274012548F560E43549F561854A628560828561838562F01222E210
:201F5D00F560A31222E2F561A31222E2F562A31222E2F56375620075630085608285618360
:201F7D008562F0E563120FAD758206228E008F017D808A40888289838DF0C007C006121A07
:201F9D003DAD82D006D007ED20E0030222288551828552838553F01222E2FC8D025302045B
:201FBD00E4A2E713CA13CAA2E713CA13CAFB8C017C00E9B50206ECB5030280030222285328
:201FDD0005028E828F83E493F544854841854942854A438D82021A972007030220B3741690
:201FFD002EF582E43FF583E493FCA3E4934C603E854E82854F838550F07402122281042548
:20201D004BFBE4354CFCAD4DC005C004C003120161A982AA83D003D004D0058B828C838DC5
:20203D00F0E9122281A3EA122281758204228557828558838559F01222E2FAA31222E2FB46
:20205D00A31222E2A31222E27C007D008D3C8A828B838CF0ED120E5285578285588385599E
:20207D00F01222E2FAA31222E2FBA31222E2A31222E27C007D008557828558838559F0EAAE
:20209D00122281A3EB122281A3EC122281A3ED122281758205228551828552838553F012F8
:2020BD0022E270030222288557828558838559F01222E2FAA31222E2FBA31222E2A3122260
:2020DD00E27C007D008D3C8A828B838CF0ED120E52758202228557828558838559F012226F
:2020FD00E2FAA31222E2FBA31222E2A31222E27C007D008D3C8A828B838CF0EDC007C006EF
:20211D00120E5212061DD006D00730072C8557828558838559F01222E2FAA31222E2FBA3F8
:20213D001222E2A31222E27C007D008A828B838CF0ED120FAD758206227D80855A82855B0C
:20215D0083855CF01222E2F5408E828F838DF0121A3DE582FF20E0030222288551828552D7
:20217D00838553F01222E2FE8F04530404E4A2E713CC13CCA2E713CC13CCFD7B00EEB50464
:20219D0006EBB505028003022228EF30E13F8557828558838559F01222E2A31222E2A31257
:2021BD0022E2FCA31222E2FF7E007D0053071F8557828558838559F0EE122281A3ED1222E3
:2021DD0081A3EC122281A3EF122281803A8557828558838559F01222E2FEA31222E2FDA323
:2021FD001222E2A31222E27C007F008557828558838559F0EE122281A3ED122281A3EC12E3
:0F221D002281A3EF122281758201227582002295
:06007800E478FFF6D8FD5C
:20222C00AD82AE83AFF08D1A8E1B8F1C85151D85161E85171FA818A9198803890418B8FF04
:20224C000119EB4C6025851D82851E83851FF01222E2FCA385821D85831E8D828E838FF020
:15226C00EC122281A3AD82AE8380CE851A82851B83851CF02274
:200056007900E94400601B7A0090270F780175A000E493F2A308B8000205A0D9F4DAF2751A
:02007600A0FFE9
:1B22810020F71130F6138883A88220F509F6A8837583002280FEF280F5F0225C
:1D229C00E5828515F0A4C582C0F08516F0A4D0F025F0C5838515F0A42583F58322DD
:2022B9007A10E4FBFCE58225E0F582E58333F583EB33FBEC33FCEB9515F5F0EC951640061F
:0922D900FCABF0438201DADD22C6
:20007E007800E84400600A790175A000E4F309D8FC7800E84400600C7900900001E4F0A380
:04009E00D8FCD9FAB7
:0D004900758165122336E5826003020046D2
:1C22E20020F71430F6148883A88220F507E6A88375830022E280F7E49322E0220B
:2022FE00C2D5E58330E70DD2D5E4C39582F582E49583F583E51630E70DB2D5E4C39515F561
:18231E0015E49516F5161222B930D50BE4C39582F582E49583F5832230
:04233600758200228A
:00000001FF
