:100000000C9421050C943E050C943E050C943E0581
:100010000C943E050C943E050C943E050C943E0554
:100020000C943E050C943E050C945D1B0C949F1A99
:100030000C9474280C943E050C943E050C943E05DB
:100040000C943E050C943E050C943E050C943E0524
:100050000C943E050C9427280C943E050C943E0508
:100060000C943E050C943E050C943E050C943E0504
:100070000C943E050C943E050C943E050C943E05F4
:100080000C943E050C943E050C943E050C943E05E4
:100090000C943E050C943E050C943E050C943E05D4
:1000A0000C943E050C943E050C943E05110B110B6F
:1000B000400B400BE00B0C0D0C0D0C0DFC0B700CF1
:1000C000810C810C48155E156415B416B4169A158A
:1000D000AA15BB15F815FD15B416B416B4160516F9
:1000E000AB18D218871AD218871A1E194119871A05
:1000F000421A521A00DA128180D9F1DB20A4A62E0E
:10010000AF00A0C000A1C800AED580A83FD300407A
:100110008D1420001E0F0500047F3F1F64321464FD
:100120003214783C1E1E140A050000000000000076
:1001300000000000000000000000000000000000BF
:1001400000000000000000000000000000000000AF
:10015000000000000000000000000000000000009F
:10016000000000000000000000000000000000008F
:10017000000000000000000000000000000000007F
:1001800000000000000000000000000000F0F0F09F
:10019000F0F0F0F0F0F0F0F0F0F0F0F0F00000002F
:1001A000000000000000000000000000000000004F
:1001B000000000000000000000F0F0F0F0F0F0F0AF
:1001C000F0F0F0F0F0F0F0F0F0F0F0F0F0F0F0F02F
:1001D000F0F0F0F0F000000000000000000000006F
:1001E000000000000000000000000000000000000F
:1001F00000000000000000000000000000000000FF
:1002000000F0F0F0F00F0F0F0F0F0F0F0F000000B6
:10021000000000000000000000000000000F0F0FB1
:100220000FF0F0F0F000000000F0F0F0F00F0F0F12
:100230000FFFFFFFFFFFFFFFFFFFFFFFFF000000BB
:10024000000000000000000000FFFFFFFFF0F0F0E2
:10025000F0F0F0F0F00F0F0F0F0F0F0F0F0F0F0F49
:100260000FF0F0F0F0F0F0F0F000000000000000FF
:1002700000000000000000000000000000FFFFFF81
:10028000FF0000000000000000000000000F0F0F42
:100290000FFFFFFFFF0F0F0F0F0000000000000017
:1002A00000FFFFFFFF00000000F0F0F0F00F0F0F65
:1002B0000F0000000000000000000000000F0F0F02
:1002C0000FF0F0F0F00F0F0F0F0000000000000023
:1002D00000000000000F0F0F0FF0F0F0F00F0F0FF5
:1002E0000F00000000000000000F0F0F0FF0F0F0F3
:1002F000F00000000000000000FFFFFFFF00000012
:1003000000000000000000000000000000000000ED
:1003100000000000000000000000000000F0F0F00D
:10032000F00F0F0F0F00000000000000000F0F0F74
:100330000FF0F0F0F0F0F0F0F0F0F0F0F00F0F0F41
:100340000F000000000F0F0F0FF0F0F0F0F0F0F0D2
:10035000F0F0F0F0F0FFFFFFFFF0F0F0F0FFFFFF34
:10036000FFFFFFFFFFFFFFFFFF0F0F0F0F0F0F0F2D
:100370000F0F0F0F0F0F0F0F0FFFFFFFFF000000FA
:10038000000000000000000000000000000000006D
:1003900000F0F0F0F0F0F0F0F00F0F0F0F000000A1
:1003A000000000000000000000000000000000004D
:1003B00000FFFFFFFF00000000FFFFFFFF00000045
:1003C000000000000000000000000000000F0F0F00
:1003D0000FF0F0F0F0F0F0F0F0FFFFFFFF0F0F0F65
:1003E0000F000000000000000000000000000000FE
:1003F0000000000000FFFFFFFF0000000000000001
:10040000000000000000000000F0F0F0F00F0F0FFF
:100410000F000000000000000000000000000000CD
:10042000000000000000000000FFFFFFFFFFFFFFD3
:10043000FFFFFFFFFFFFFFFFFFFFFFFFFFFFFFFFCC
:10044000FFFFFFFFFFFFFFFFFFFFFFFFFFFFFFFFBC
:10045000FF0F0F0F0F0F0F0F0F0000000000000025
:100460000000000000F0F0F0F0F0F0F0F00F0F0FDF
:100470000F0F0F0F0F000000000000000000000031
:1004800000F0F0F0F0FFFFFFFF00000000000000B0
:10049000000000000000000000000000000000005C
:1004A000000000000000000000000000000000004C
:1004B000000000000000000000000000000000003C
:1004C000000000000000000000000000000000002C
:1004D000000000000000000000F0F0F0F0F0F0F08C
:1004E000F00F0F0F0FF0F0F0F0F0F0F0F000000060
:1004F0000000000000F0F0F0F0F0F0F0F00F0F0F4F
:100500000FFFFFFFFF0000000000000000000000E0
:1005100000000000000000000000000000000000DB
:10052000000000000000000000FD377A585A00006B
:1005300004E6D6B4460200210116000000742FE53F
:10054000A3E000CE009A5D003D8889C65436C317EB
:100550004FE4E6C37454C7F3FF46BDE24B7D0C5431
:100560000833F30D3E5B7FBF99CB976C70EECDD017
:10057000E0C8C9249044DF9D55E9EF09C9C7B3C15C
:1005800051F87475ABD6D2ED6F3DD9A964B30C1494
:1005900014917F6967C5A509DE431012B789149FBE
:1005A000193A32D9B335F1D25D86745E4758086D79
:1005B0008E0CFB6BFE19C98F1FA208B39EF32D7B17
:1005C000D9E740B67E58A2204AFACB76B4D3F62CAF
:1005D0007E3DD1654D02BAC1C55861B85ADB02DF14
:1005E00016000000001C1799A5AED100960001B6B8
:1005F00001CF01000062994A1DB1C467FB020000EF
:10060000000004595A05010980A101850319012A36
:10061000B700150126B700950175108100C0050CC3
:100620000901A101850419012AA002150126A002D1
:10063000950175108100C00660FF0961A101096282
:10064000150026FF00952075088102096315002614
:10065000FF00952075089102C005010906A101055A
:100660000719E029E7150025019508750181029514
:1006700001750881010507190029FF150026FF00F3
:10068000950675088100050819012905950575016C
:100690009102950175039101C009025B00030100FD
:1006A000A0FA090400000103010100092111010061
:1006B000012240000705810308000109040100022E
:1006C0000300000009211101000122220007058218
:1006D00003200001070503032000010904020001B3
:1006E00003000000092111010001223200070584E6
:1006F00003200001120100020000000800CB9FF05F
:100700000100010203011C037600690061006C0016
:100710003A006600360034006300320062003300A5
:1007200063000000120354007500740065006C0043
:1007300050006100640000000A03300078004300AC
:100740004200000004030904FFAA7F55402223252C
:100750002628292A2C2D2F3032333536383A3B3D86
:100760003E4042434547494A4C4E505153555759D4
:100770005A5C5E6062646668696B6D6F71737577F1
:10078000797B7D7F81838587898A8C8E90929496F0
:10079000989A9C9E9FA1A3A5A7A8AAACAEAFB1B3FF
:1007A000B4B6B8B9BBBCBEBFC1C2C3C5C6C7C9CA4F
:1007B000CBCCCDCED0D1D2D2D3D4D5D6D7D7D8D911
:1007C000D9DADADBDBDBDCDCDCDCDCDDDDDDDDDC6F
:1007D000DCDCDCDCDBDBDBDADAD9D9D8D7D7D6D581
:1007E000D4D3D2D2D1D0CECDCCCBCAC9C7C6C5C343
:1007F000C2C1BFBEBCBBB9B8B6B4B3B1AFAEACAA90
:10080000A8A7A5A3A19F9E9C9A98969492908E8C3F
:100810008A89878583817F7D7B79777573716F6D19
:100820006B6968666462605E5C5A595755535150F3
:100830004E4C4A4947454342403E3D3B3A383635A7
:100840003332302F2D2C2A2928262523221E001F43
:100850000020002100220023412441254101000104
:100860000001000100010001000100010001000180
:100870000001000100010001000100010001000170
:100880000001000100010001000100010000AF00B3
:10089000AE000000000000000000000000000000AA
:1008A0000000000000000000000000000000000048
:1008B00000000000007E0F00D4FFFFFFC700000013
:1008C0007800000000000000002A2B280000000033
:1008D00000000000000000000000000029000000EF
:1008E000002C1E3420212224342627252E362D3795
:1008F00038271E1F202122232425263333362E3766
:10090000381F0405060708090A0B0C0D0E0F1011FD
:1009100012131415161718191A1B1C1D2F3130230A
:100920002D350405060708090A0B0C0D0E0F1011D2
:1009300012131415161718191A1B1C1D2F313035D8
:100940004C00010101010101010101020202020248
:100950000202020203030303030303030404040467
:10096000040404050505050506060606060707072F
:10097000070708080808090909090A0A0A0B0B0BE6
:100980000C0C0C0D0D0D0E0E0E0F0F0F1010111183
:100990001112121313141415151616171718181907
:1009A000191A1A1B1B1C1D1D1E1E1F20202122226E
:1009B000232424252626272829292A2B2C2D2D2EB1
:1009C0002F30313232333435363738393A3B3C3DCB
:1009D0003E3F404142434445464748494A4C4D4EBC
:1009E0004F50515354555658595A5B5D5E5F616282
:1009F00064656668696B6C6D6F7072737577787A11
:100A00007B7D7E8082838587888A8C8E8F9193956B
:100A100096989A9C9EA0A2A3A5A7A9ABADAFB1B38F
:100A2000B5B7BABCBEC0C2C4C6C9CBCDCFD1D4D66F
:100A3000D8DBDDDFE2E4E7E9EBEEF0F3F5F8FAFD11
:100A4000FF0011241FBECFEFDAE0DEBFCDBF11E003
:100A5000A0E0B1E0E2E6F8E602C005900D92A43B0A
:100A6000B107D9F728E0A4EBB1E001C01D92A03393
:100A7000B207E1F70E94460E0C942F340C9400004C
:100A8000A1E1B0E0E6E4F5E00C947332FC01808172
:100A9000918123813481232B31F09F3F31F491E008
:100AA0008F3F19F403C091E001C090E090FF02C0B5
:100AB0000C94420E7F0185E0DE01119601900D92AB
:100AC0008A95E1F7D70112962C9189819A81222388
:100AD00049F00E944A2E182F682F89819A810E941E
:100AE000A12E03C00E94792E182F69817A81812F4F
:100AF0000E94DD2B8C01F7018281811106C0D70194
:100B000012963C9031103EC0A9C78091110190917E
:100B100012010196A1F34FE6C42E47E0D42EA12C7A
:100B2000B12C9924939480911101909112018A150E
:100B30009B052CF3F60186818823E9F08185928557
:100B40000817190739F480916D0790916E070817FF
:100B5000190789F0D6011F969C921F971C961C932B
:100B60000E931B97C6010E944229C60106960E9459
:100B7000FD2810926C07BFEFAB1ABB0AE6E1CE0E60
:100B8000D11CD1CFC80182519F45409708F0B3C016
:100B90008FEF93E00E941F338111E2C43EEED32E0B
:100BA000D00E07E011E0DD2071F00115F4E01F0721
:100BB00009F4D6C4C8010E941F33811101C0DA9420
:100BC0000F5F1F4FF0CF1E821F8218861986AA243E
:100BD000AA9468012FEFC21AD20AC8010E941F33DB
:100BE0008E831F82882309F4BBC4813009F07EC044
:100BF000480132E0830E911CC6010E941F33B82EBB
:100C00008F83882309F4ACC48FEF8B0D833060F49D
:100C1000680143E0C40ED11CC4010E941F338887C1
:100C2000811164C08601D5CF8BEF8B0D833078F5B1
:100C3000380153E0650E711CC4010E941F33888780
:100C4000811102C06301EECF680184E0C80ED11C9F
:100C5000C3010E941F338987882321F328853985A2
:100C600021309FEF390718F0922F80E001C0C901B1
:100C7000A6E0BA1631F0B7E0BB1631F00E94F826B4
:100C8000D1CF0E94D226CECF0E944A26CBCFE4E01D
:100C9000BE1611F06401C6CFC4010E941F33B82EE6
:100CA0006801F4E0CF0ED11CC80103960E941F33E7
:100CB000BB2009F455C4882309F452C4282F30E01E
:100CC00021503109A29EA001A39E500D11248B2D0D
:100CD00090E00197840F951F019708F4A3CFAFE927
:100CE000BFE01197F1F700C00000F6CFCE010696E5
:100CF0000E946D2C97CF0031EFE51E0731F00131D6
:100D0000FFE51F07A9F482E001C081E00E94D92E0F
:100D10000E94951725C4680127E5D21A3FEFC31634
:100D2000D10409F008F4A9C6F70132803320D1F0CC
:100D30000F35FDE51F0761F000362DE5120761F064
:100D40000E353DE5130771F480910401811104C053
:100D500081E08093040104C41092040180E00E94A9
:100D60001F2AFEC380910401811108C0C801975554
:100D70008F3F910509F008F47AC1CDC1480140EEDA
:100D8000841A910820906F068091B901282A8091D9
:100D90006B07282A58E08516910480F49801277083
:100DA000332781E090E001C0880F2A95EAF73320CD
:100DB00011F0282A18C08095282215C0332009F484
:100DC00016C11093B7010093B6010E945C2860938E
:100DD0005D0770935E0780935F07909360071092A2
:100DE000650710926407D7018D919C910E94792E1E
:100DF00021E030E0F90102C0EE0FFF1F8A95E2F713
:100E0000F98BE88B20916607309167073D872C8727
:100E10004091B6015091B7015F874E871A86432CE7
:100E2000512C5A85E52FF0E0EE0FFF1FE154F94FEA
:100E3000C080D180C114D10409F4F0C0211005C0D4
:100E4000D60112968C918111CEC0F601838190E07B
:100E50002889398982239323892B09F4C4C080858A
:100E6000982F977009F487E038E08316910440F4D6
:100E7000332019F081FD09C0B6C082FD06C0B3C0A1
:100E8000332009F4B0C080FFAEC0D601AD90BC9055
:100E90000A151B0519F4332009F4A5C0EC85FD855E
:100EA000CE16DF0609F49FC0D6011D96ED91FC9188
:100EB0001E97309721F08081882309F494C0622D19
:100EC000C6010E948E2A882309F48DC00A151B05CD
:100ED00011F4320102C0612C712CB62DB170BB87A8
:100EE00081E0A114B10441F0B11106C0EE85FF8587
:100EF000AE16BF0609F080E080FF75C080E00E945A
:100F00001F2AD0926707C092660781E0809363072B
:100F1000D60115968C9180936107BB85B11113C0E2
:100F2000AB2889F0F601808191819C012450310920
:100F3000213A310530F4682F86EB96E00E949D2817
:100F400002C00E94382FD6011696AD90BC9017971C
:100F5000C5019A9581159F4110F4E0EEBE225524FB
:100F60005394C50101978C3A9D4508F0512CD60148
:100F70001996ED91FC911A97309739F01B966D9167
:100F80007C911C9781E009955822552029F1F601A2
:100F9000868197810E942F2D80936207C501F8E01A
:100FA0008F16910418F40E94CE2916C00497813A36
:100FB000910530F46A2D86EB96E00E94AA280EC0B7
:100FC0000E946D218FE39CE90197F1F700C00000BA
:100FD0008A2D0E94642F02C00E946D2191E0692633
:100FE00060FE40C2C3CEAA85AF5FAA871ACF8091A8
:100FF000B6019091B7010817190781F41092B70153
:101000001092B60110925D0710925E0710925F0772
:10101000109260071092650710926407809166072E
:1010200090916707009709F4A1CEB8E08B16910460
:1010300038F4622D0E948E2A811198CE81E014C06E
:10104000FC01208131810217130729F4311006C0F9
:101050001092630708C0332009F488CEDC0118968B
:101060008C9185FD83CE80E00E941F2A7FCE209147
:101070001101309112012817390724F490931201BD
:1010800080931101F701228136E1389F5001399F89
:10109000B00C1124A5014159584F6A01DA0150964C
:1010A0002C935097928116968C911697992341F123
:1010B0001A961C930E9319978F5F16968C930E9425
:1010C0006828F6019687858780916F0687839091BF
:1010D0006C0780916B07892B80870190F081E02D50
:1010E000309749F0D60154966D917C915597C50182
:1010F0008B58984F099510936E0700936D070BC09E
:10110000882349F0FA018189882329F0C5018B5889
:10111000984F0E94FD28033FFCE51F0741F190F422
:10112000083D3CE51307E9F0093D4CE5140789F15A
:10113000073D5CE51507B1F506E221EE41EE67EDEE
:101140007CE52CC0053F8CE51807E9F0B0F0063FC0
:10115000ACE51A0739F507E225EE46EE66EF7CE5C9
:101160001DC007E225EE45EE68ED7CE517C006E2FE
:1011700021EE40EE63EF7CE511C007E225EE44EE80
:1011800064EF7CE50BC006E221EE42EE65EF7CE504
:1011900005C008E221E045EE69ED7CE5C7010E944B
:1011A0006529DEC1F7018281882309F49AC1109272
:1011B0006A070330FDE51F0758F40A3F2CE51207C4
:1011C00080F4C80182509C45449708F038C109C09A
:1011D00001363DE5130729F0053A4DE5140709F0FE
:1011E0002EC10E94851E9093BD018093BC010131E8
:1011F0005CE5150709F4C9C008F043C009309CE557
:10120000190709F49EC008F50530BCE51B0709F471
:1012100088C080F40330FCE51F0709F47BC008F0A8
:101220007DC002303CE5130709F0F9C08091BC0194
:101230008160F3C007304CE5140709F47AC008F068
:101240007CC08091BC018061E8C00D308CE518073E
:1012500009F489C058F40B30ACE51A0709F47BC0D7
:1012600008F07DC08091BC01886071C00F30ECE552
:101270001E0709F482C008F084C08091BC01877FFA
:10128000CCC00D3F2CE5120709F473C008F50531F9
:101290004CE5140709F487C068F403318CE518079E
:1012A00009F477C008F097C00E940A2F8091BC0112
:1012B0008F77B3C00B3FACE51A07B9F108F056C001
:1012C0000A3FECE51E0709F0AAC08091BD0141C0AC
:1012D0000130FDE51F0709F48AC058F40F3F3CE5D3
:1012E000130709F45BC008F06AC08091BD018260F9
:1012F00030C001365DE5150709F47FC0053A8DE57C
:10130000180709F484C002309DE5190709F087C069
:1013100060E06EC08091BC0182607FC08091BC01A2
:1013200016C08091BC01886078C08091BD01826048
:101330004FC08091BC01806270C08091BC0180640C
:101340006CC00E940A2F8091BC01806866C08460D6
:1013500064C081603DC08091BC018E7F5EC0809181
:10136000BC018D7F5AC08091BC0116C08091BD0127
:1013700018C08091BD018D7F2BC08091BC018F7EF4
:101380004CC08091BC018F7D48C08091BC018F7B97
:1013900044C08091BC01877F8B7F3FC08091BD019D
:1013A0008D7F8E7F15C08091BC0182FB222720F9A2
:1013B00091E0922790FB82F990FB83F92EC08091F7
:1013C000BD01982F909591708E7F892B90FB81F9AC
:1013D0008093BD0124C00E940A2F8091BC0187FB2D
:1013E000222720F991E0922790FB87F916C061E04F
:1013F0008EE090E00E94333312C08091BC0184FBE8
:10140000222720F991E0922790FB84F906C0809171
:10141000BC01982F909590FB80F98093BC0160915E
:10142000BC011091BD0184E090E00E943333612F34
:1014300082E290E00E9433330E940A2F91C006316D
:10144000BCE51B07A1F480916B078A7A91E009F44F
:1014500090E09093B801882341F065E386EB96E035
:101460000E94AA280E946D217BC069E2F7CF0A354D
:10147000BDE51B0781F160F40115FCE51F0791F044
:101480000E3D2CE5120709F07DC00E94A21E18C077
:101490000C353DE51307B9F000F1073A5DE5150796
:1014A00079F070C00E940A2F8FEF94E3ACE0815076
:1014B0009040A040E1F700C000000E94162850C0F4
:1014C0000E94192D4DC08091BD0182FB882780F9B3
:1014D00091E0892703C081E001C080E00E944A1F9B
:1014E00051C006313CE5130709F40EC380916B0728
:1014F00082720C3CACE51A0709F4A3C308F043C39D
:10150000063CECE51E0709F488C308F018C3033C49
:101510002CE5120709F477C308F002C3023C4CE53E
:10152000140781F580919F0680FF67C38E7F8093AB
:101530009F0660919F067091A0068091A1069091F0
:10154000A2060E942D3010927B068FEF90E7A2E05A
:1015500081509040A040E1F700C000000E9431237C
:1015600080916406877009F48DC3F7018281882316
:1015700009F488C38091BD0182FF84C382E00E9488
:101580002D1F80C3F701828100811181882349F0DA
:10159000C8010E944A2ED82E682FC8010E94A12E91
:1015A00004C0C8010E94792ED82EB8018D2D0E944A
:1015B000DD2B0E94FC1C8C01A82ED7011296CC902A
:1015C00012971596DC90D2949FE0D9228091640600
:1015D0008770B9F0CC20A9F0812F807F803421F072
:1015E00080E2800F883068F08091BD0182FF09C0E1
:1015F00082E00E942D1F809164068770BB24B39403
:101600008111B12C912E92948FE09822892D90E037
:101610008C30910508F000C2FC01EA5AFF4F0C948F
:10162000F233812F807F1F70882311F01295107F75
:10163000CC20B9F0112309F4DCC180E2800F88309E
:1016400010F0A11006C080916B07182B10936B0748
:1016500005C080916C07182B10936C070E946D21B8
:10166000C8C1802F0E94382F112309F4D5C1005E14
:10167000812F083068F1AA2059F10E94181F2AC052
:10168000812F807F1F70803211F01295107FAA2069
:1016900029F0B1E0AB1609F46BC076C08091BD01B2
:1016A00082FD1BC0CC2069F0112339F080916B07BB
:1016B000182B10936B070E946D2180E00E94642F0D
:1016C000ABC180E00E94382F112309F4A5C1812FFE
:1016D0000E941F1F0E946D219FC1CC2049F1DD2077
:1016E00009F1E1E0DE120FC080916F06182B181788
:1016F00009F492C10E94682890936E0680936D064B
:1017000010936F0689C1F5E0DF120CC00E940D1F17
:101710009091B901812F892B891709F442C08093D8
:10172000B9013FC080916F06812B0E942E2F74C19A
:10173000DD20C1F021E0D21211C080916B0781231E
:1017400009F46AC10E940D1F9091B901812F809503
:101750008923891749F08093B90106C035E0D31673
:1017600009F45AC10E940D1F812F0E94272F54C1D6
:10177000CC2029F045E04D1508F44EC112C054E0CC
:101780005D1508F449C1F0CFCC2069F0DD2049F0A7
:10179000D70115968C91159780FF2BC18F701596E8
:1017A0008C93812FC2CFDD20F9F2093309F031C1CA
:1017B000BFEFE7EEF3E0B150E040F040E1F727C1C2
:1017C000812F86958695837019F0813059F024C158
:1017D000CC2019F0C801937002C080E090E00E9414
:1017E000DA2820C1CC2019F0C801937002C080E033
:1017F00090E00E94C42816C1812F8370A9F5C11002
:101800000FC1402F429546954770440F440F802FDB
:101810008F7090E09C01042E01C0220F0A94EAF719
:1018200004FF08C08FE090E001C0880F4A95EAF7F6
:10183000809501C080E0169516951370123069F0FE
:1018400088F490917006113019F0822B892302C020
:10185000922B892B0E94E52EE3C0822B909170067B
:101860008927F8CF822BF6CFCC2019F0812F8170F9
:1018700001C08695882309F4D3C0402F4295469530
:101880004770440F440F802F8F7090E09C01042E0E
:1018900001C0220F0A94EAF704FF08C08FE090E02D
:1018A00001C0880F4A95EAF7809501C080E016953F
:1018B00016951370123059F078F490912906113072
:1018C00019F0822B892309C0922B892B06C0822B09
:1018D00090912906892701C0822B0E94C72EA0C0A3
:1018E0001F70CC2039F0812F0E94D92E802F0E94AA
:1018F0002E2F96C0802F0E94272F812F0E94CC2E42
:101900008FC0802F22EFA21691F12A1538F030EF08
:10191000A31659F041EFA41619F166C053EFA516AE
:1019200069F194EFA916C1F05FC0CC2081F0A4E06A
:10193000AD1508F471C01F7181E090E0012E01C067
:10194000880F0A94EAF790912906892722C0B5E00A
:10195000BD1508F461C0EFCF8091BD0182FD1CC0B0
:10196000CC2039F0812F8F710E94D92E55C0CC2008
:10197000C9F3812F8F710E94CC2E4EC0CC2041F034
:101980001F7181E0012E01C0880F0A94EAF701C09F
:1019900080E00E94C72E40C0CC20B9F08091640640
:1019A0008770843039F40E94261F812F8F710E9426
:1019B000CC2E52C0E4E0ED1508F44EC01F71812F0B
:1019C0000E94D92E63E0812F08C0F4E0FD1540F499
:1019D0000E94261F64E0812F8F710E94C5213CC0A8
:1019E00081E00E942D1F38C0CC2029F0DD2009F4B1
:1019F000B9CF802F63CEDD2009F4BBCF893349F402
:101A00002FEF37EE43E0215030404040E1F700C077
:101A10000000802F0E94382F88EF890D843010F449
:101A20000E94F028BB2009F42DC18091640680FD3E
:101A300029C1D70112961C928595859585950E949E
:101A4000D92EC7010E944005809164068595859531
:101A500085950E94CC2E16C1B12CE2CF0031FFE556
:101A60001F0721F481E00E94CC2E52C901312FE5DD
:101A7000120709F050C982E0F6CF6CEA76E08C2DAF
:101A80000E94FE2A892B09F04FC986E18C9DF00146
:101A90008D9DF00D1124E159F84F86818130E1F4DC
:101AA0008091AC069091AD06892B09F43DC98091D7
:101AB000AE069091AF06892B09F436C98091B00625
:101AC0009091B106892B09F02FC98091B2069091AF
:101AD000B306892B59F028C9823009F025C98091B5
:101AE000B0069091B106892B09F41EC926E12C9D00
:101AF000C0012D9D900D11248159984FDC01509605
:101B00001C920E94422910C98091B801882311F0CB
:101B100065E301C069E286EB96E00E949D28A2CCB5
:101B2000043C5CE5150709F473C0053C9CE5190706
:101B300009F028CD46E050E360E170E386C0093C3F
:101B4000ACE51A0709F473C078F4073CECE51E070E
:101B500009F468C0083CFCE51F0709F013CD49EF04
:101B60005FE26CEE7FE271C00A3C2CE5120709F4DB
:101B700063C00B3C3CE5130709F004CD40E450E39F
:101B800062E570E362C0013D4CE5140709F469C0E9
:101B9000A0F40E3C8CE5180709F45DC008F458C0A9
:101BA0000F3CACE51A0709F459C0003DBCE51B0722
:101BB00009F0E8CC6EE089E062C0043DECE51E0768
:101BC00009F455C068F4023D2CE5120709F44CC035
:101BD000033D3CE5130709F0D5CC61E088E14CC03A
:101BE000053D4CE5140709F445C00D355DE51507C5
:101BF00009F0C8CC6AE285E242C0816080939F060A
:101C000061E0869539C04FE950E369EA70E31DC091
:101C100049EA50E36FE970E318C040E150E366E041
:101C200070E313C04CEE5FE269EF7FE20EC042ED5D
:101C30005FE26FED7FE209C04FED5FE262ED7FE2B0
:101C400004C042E550E360E470E30E942A2388CC9C
:101C500061E081E011C065E082E011C068E086E0EB
:101C60000EC064E18FE00BC067E185E108C062E26D
:101C700089E105C061E083E20E94643071CC0E947A
:101C800016236ECC6196E2E10C948F32A6E3B0E0AD
:101C9000ECE4FEE00C94733285B7806885BF85B7AD
:101CA000806885BF84B7877F84BF0FB6F894A895F6
:101CB00080916000886180936000109260000FBE88
:101CC00090E080E80FB6F8948093610090936100F3
:101CD0000FBE87EB9CE19093B5018093B4010E9405
:101CE00080220E94FA2B0E94E31A0E94021B80911C
:101CF000E20084608093E200789480912806882333
:101D0000A1F01091E9001F709091EC00892F817073
:101D100090FD80E8182B1092E9008091E80083FD87
:101D20000E94C8171F701093E90082E084BD93E001
:101D300095BD9AEF97BD80936E000E94FD228111A0
:101D400002C00E94ED2241E351E0A9E3B1E001E0CD
:101D500010E020E030E0FA01E20FF31F80818F3FB6
:101D6000A1F0E82FE295EF70F0E061A18F707801AB
:101D700002C0EE0CFF1C8A95E2F7C7019E2D9095DC
:101D8000962391A392A1892B82A32F5F3F4F2430EA
:101D9000310509F74C5F5F4FA417B507D1F61092D4
:101DA0001106109210061092BB011092BA010E9407
:101DB000961E811102C00E94A21E82E090E00E9445
:101DC0001F338093C1010E94851E9093BD018093B3
:101DD000BC010E94DC212FEF36E741E0215030406A
:101DE0004040E1F700C000000E94DC218091110614
:101DF00080FF08C06FEF7FEF80E090E00E945133DA
:101E00000E94162883E090E00E941F330E94E52E76
:101E100082E08093070680E88093C4010E946831C5
:101E20006DE070E087E091E00E94A117892B09F036
:101E300043C08091070663E070E081FD3AC084E012
:101E400091E00E94A117892BB9F56DE070E084EF55
:101E500090E00E94A117892B79F50E945C28DC0193
:101E6000CB01805E914BAF4FBF4F80934F07909354
:101E70005007A0935107B0935207E7E0F2E080E0EB
:101E800094E0DF019C011D9221503040E1F7F09376
:101E9000C601E093C5018FEF9FEF90930A068093F0
:101EA000090681E080935407809353071092080637
:101EB00003C081E091E0C5CF8091BE01811133C0A4
:101EC0000E94961E811104C00E94A21E0E94B4307E
:101ED00088E090E00E94273360939F067093A006ED
:101EE0008093A1069093A2066E7F71F40E94B43095
:101EF00088E090E00E94273360939F067093A006CD
:101F00008093A1069093A2060E941A3010927B063D
:101F100080919F0680FF04C060E086950E94643037
:101F200081E08093BE0185E091E090932208809348
:101F3000210822242394312C44244394512C809151
:101F40002806853009F076C0FF24F39400E112E101
:101F500080912806853009F058C080912806843089
:101F600009F442C010927B068091C001811116C015
:101F7000F092C00180919F06982F91709093BF01BD
:101F80008E7F80939F063FEF40E762E031504040F4
:101F90006040E1F700C000000E9431230E94AE2A99
:101FA0001092250888E190E0A0E40FB6F894A89577
:101FB000809360000FBEA093600083B7817F846030
:101FC00083BF83B7816083BF7894889583B78E7F02
:101FD00083BF0FB6F894A8958091600088618093C4
:101FE0006000109260000FBE80911E06882309F4E5
:101FF000AFCF0E94DC21809110068111BAC680917A
:102000001106882309F4A4CFB4C60E940A2F0E94A7
:10201000F0281092C0018091BF01882349F080917F
:102020009F06816080939F0660E086950E946430E1
:102030000E94A6270E94DC21D82E81110E945C28D4
:10204000A0E1B6E0E2ECF1E000E010E0302F2D91ED
:102050009191922721F180E0FF24F394492F4F21A1
:10206000D1F08BA73CA72F2181E009F480E08DA758
:102070000E9468288160782F9FA78EA74BA55CA53A
:102080006DA58FA50E94762DF801EE53FE4F80813D
:10209000F826F08219C08F5FFF0C8430F9F60F5FCD
:1020A0001F4F0230110591F68FEF88AB89AB1AAA4A
:1020B0000E9468288160782F9CAB8BAB48A959A9F6
:1020C0006AA98CA90E94762D80916407909165077A
:1020D000892B09F43EC04091590750915A076091ED
:1020E0005B0770915C072FB7F89480912608909158
:1020F0002708A0912808B09129082FBF841B950BB1
:10210000A60BB70B409155075091560760915707A2
:102110007091580784179507A607B707D0F08091EC
:102120006407909165070E945C2D109265071092DC
:1021300064071092590710925A0710925B07109289
:102140005C0710925507109256071092570710928D
:1021500058078091110190911201019649F1C12C0B
:1021600066E1962E1CC0989EF001999EF00D1124F8
:10217000E159F84FE288F388E114F10419F458ECBE
:10218000E52EF12C989E5001999EB00C11248501EA
:102190000159184FF801868181110FC0C3948C2D0D
:1021A00090E0209111013091120128173907DCF6D7
:1021B00080917B06811111C0B5C0858596850E94EE
:1021C0004D28E816F90650F7C8010E944229C501BA
:1021D0008B58984F0E94FD28E1CF80917A06E091BC
:1021E0009F06E695E81BE0937606823059F4F0E00E
:1021F000EB5DFE4FE4910E2F10E04CE6E42E42E240
:10220000F42E6BC0863059F4F0E0EE5DFE4FE491A1
:102210000E2F10E03CE5E32E32E2F32E5EC0893053
:1022200061F4E695F0E0E15EFE4FE4910E2F10E0E0
:102230002DE5E22E25E2F22E50C08F3061F4E695B6
:10224000F0E0E45EFE4FE4910E2F10E09FEFE92EE8
:1022500094E2F92E42C0853159F4F0E0E75EFE4F7A
:10226000E4910E2F10E081EBE82E84E2F82E35C0C9
:102270008831F9F0833249F4E7E1F1E005911491F6
:10228000B8E9EB2EB5E2FB2E28C08432C9F08532C6
:10229000F1F48E2F63E00E94D233E92FF0E0EC5E80
:1022A000FE4FE4910E2F10E0A7E6EA2EA3E2FA2EED
:1022B00014C008E210E0F5E3EF2EF4E2FF2E0DC0AB
:1022C00004EF11E0EDEFEE2EE3E2FE2E06C000ED8E
:1022D00017E07BE5E72E72E2F72E809177068823E0
:1022E00061F0109277060E9468289093750680939B
:1022F000740610927906109278060E946828E09180
:102300007406F09175068E1B9F0B8F3F9F4750F40C
:102310000E0F1F1F109375060093740684E796E056
:10232000F701099580915407882309F425C187E0B6
:1023300092E09093C6018093C501209109063091E7
:102340000A06DC0180E090E0FC01E75DFE4FE491CD
:102350004C91E41779F0EC93AC0166E05695479503
:102360006A95E1F7710102C0EE0CFF1C4A95E2F795
:102370002E293F2901961196811544E0940721F7F3
:1023800030930A06209309062115310509F4D9C0B6
:10239000809108068111D5C0682E712C7101082E1C
:1023A00002C0EE0CFF1C0A94E2F7A701422353235C
:1023B000452B11F48F5FF0CF90910706930106E053
:1023C000220F331F0A95E1F790FD13C08295880F05
:1023D000880F807480931501220F232F221F330B47
:1023E000319520931801815C809316011092190198
:1023F00012C0B6E036952795BA95E1F7220F220F65
:10240000220F2093150110921801295F20931601C5
:1024100087E08093190124E630E047E050E063E173
:1024200071E088E70E941332892B09F08AC08091FD
:10243000070680FD23C0C301A6E0880F991FAA9557
:10244000E1F7AC01495F5D4F04E610E020E430E0C5
:1024500060E488E70E943432892B09F072C00E9440
:10246000C82AE094F0948091090690910A06E82227
:10247000F922F0920A06E092090663C0E7ECF1E067
:10248000DF0120E41D922A95E9F7F6E0660C771C3F
:10249000FA95E1F761E471E07EAB6DAB49E351E0A1
:1024A000ADA9BEA98D91BEABADABFA019191AF01C3
:1024B0009301290F311DB901695F7D4F4B0190E0F8
:1024C00089539E4FFC0107E09F01281B390BB22C5A
:1024D00001C0BB0C2A95EAF7B401C12CDB011D91A8
:1024E000BD011B21202F2C192770A22E022E000CBB
:1024F000330BB12F01C0BB0FAA94EAF7AB2E319575
:10250000219531092770332701C016952A95EAF7DE
:10251000A12A1081A12AA082C39428E0C212DECF92
:10252000015031960F3F81F66DA97EA96954714023
:1025300009F0B6CF04E610E020E430E047EC51E0CB
:1025400087CF809153078823B9F00E945C280091BF
:102550004F07109150072091510730915207DC012D
:10256000CB01801B910BA20BB30B8F3F9F4FAF4F43
:10257000BF4710F40E94AE2AD1100E94C82A0E94C0
:10258000F02890910B06891380930B068091280602
:10259000843009F0D4CC83E08093E9008091E80096
:1025A00082FFCDCC8091E80085FF23C00E94341CBF
:1025B00081111DC0E0E2EE2EF12C8E010F5F1F4F46
:1025C00009C08091F100D8018D938D01B1E0EB1A23
:1025D000F10869F08091E80085FDF3CF8091E80073
:1025E0008B778093E8000E94341C882399F391E054
:1025F00001C090E08091E8008B778093E8009923F8
:1026000009F49DCCE0904D07F0904E078981E114CC
:10261000F10459F08E3F09F0A7C39A819330E8F195
:102620009550933008F0A0C338C08B3009F40DC228
:1026300088F5853009F478C0B8F4823009F44AC0CE
:1026400030F4813009F08EC31A8289E0CFC2833022
:1026500009F45DC0843009F085C34C816B818A81A7
:102660000E94AF2B9D83A2C3873009F46BC008F48E
:1026700066C0883009F4A8C0893009F073C360913E
:102680009F067091A0068091A1069091A2060E94DB
:102690002D306AC3803109F419C18E010F5F1F4FBD
:1026A000813160F48D3009F4B3C008F4AFC08E30CE
:1026B00009F4B2C08F3009F4DAC054C3823109F48E
:1026C0000BC108F406C1833109F42FC18E3F09F410
:1026D000D3C148C38A81823009F461C3833051F089
:1026E000813009F03FC30E945C289B838C837D83EB
:1026F0006E833AC38091490790914A07892B09F468
:1027000033C3809110068B83809111067DC08A812E
:10271000823009F027C36B817C818D819E810E946C
:10272000F8330E94C92220C32D813E8132272327FE
:1027300032274C816B818A810E94132B15C30E9422
:102740003A2B12C38A818138B1F050F4803809F0F5
:102750000BC320E04B816091A1068091A00631C09F
:10276000823859F1833809F0FFC220E04091A20677
:102770006C818B8126C060E08B810E9464309B81DC
:1027800080919F06911111C08E7F80939F061092B9
:102790007B06EFEFF0E722E0E150F0402040E1F768
:1027A00000C000000E943123DFC2816080939F0639
:1027B00060E086950E946430D7C28B818093A30627
:1027C000D3C20E94D225D0C28A81813891F030F4E0
:1027D000803809F0C9C28091A20608C2823889F007
:1027E000833809F0C1C28091A0068B838091A10635
:1027F0000BC080919F0680FF02C08695F7C180E0E4
:10280000F5C18091A306F2C18C83AEC280E162C0A3
:1028100082E08A8389EFEAC1EA80FB80FE24EF240C
:10282000FE24AC80B12C3DE1A316B10408F09CC29B
:102830006801C701895F9E4F9601201B310B2A1545
:102840003B0508F091C249EFE41642E0F40630F48B
:102850000E941F33D60114968C9302C0F601148295
:10286000FFEFEF1AFF0A2FEFC21AD20AE2CF8091D0
:10287000490790914A07892B09F476C2EA80FB80C8
:10288000FE24EF24FE24CC80D12C3DE1C316D104DC
:1028900008F06AC25801C701895F9E4F9501201B4D
:1028A000310B2C153D0508F05FC249EFE41642E0FC
:1028B000F40628F4D50114966C910E943333BFEFCF
:1028C000EB1AFB0AEFEFAE1ABE0AE5CF0E94EE2A22
:1028D0004BC284E08A8348C2EA80FB80FE24EF2456
:1028E000FE24AC80B12CFDE1AF16B10408F03CC26F
:1028F0006801C70187969601201B310B2A153B05FD
:1029000008F032C220E4E216F10430F40E941F33D2
:10291000D60114968C9302C0F6011482FFEFEF1AD1
:10292000FF0A2FEFC21AD20AE4CFEA80FB80FE240E
:10293000EF24FE24AC80B12C3DE1A316B10408F0D5
:1029400013C2370147E2640E711C60E4E616F1041D
:1029500008F00AC280E490E08E199F098A159B0551
:1029600008F402C28091490790914A07892B11F01F
:10297000680162C0E0FE0FC0C70186960E941F3347
:1029800090E0982F88272D81822B81159C4531F46A
:102990008FEF8D8303C0C12CD12C03C0CC24C394F2
:1029A000D12CC5018E0D9F1D450180FF1EC081E009
:1029B000881A9108A5E0B0E0AC0FBD1FA80DB91DA5
:1029C000BEABADABC3018A0D9B1D0E941F33EDA9A9
:1029D000FEA9208130E0322F2227282B21153C45EB
:1029E00021F48FEFADA9BEA98C93F801EC0DFD1D6C
:1029F0002FEFCF01801B910B8815990508F0B8CFF8
:102A0000848190E0982F88273581832B81159C4500
:102A100011F4248325833296ECCFE0E4EE16F10422
:102A200028F4D60114966C910E943333BFEFEB1A51
:102A3000FB0AEFEFCE1ADE0AC70187969601201B2C
:102A4000310B2A153B0548F38FC1809149079091BE
:102A50004A07892B09F488C1CE0101960E94911C76
:102A6000FFEF21EE34E0F15020403040E1F700C0AC
:102A700000000E94162878C1EA818E2F90E08E30E7
:102A8000910508F071C1FC01EE59FF4F0C94F2332F
:102A900088E0E9E2F1E0DE01919601900D928A95DD
:102AA000E1F780E2D8011D928A95E9F785E08983F4
:102AB00088E0FE01B196DE0115962AC18CED89836E
:102AC0001A821B821C8250C18C8190E0982F88272B
:102AD0002B81820F911D092E000CAA0BBB0B35E038
:102AE000880F991FAA1FBB1F3A95D1F7AC01BD01F2
:102AF000405E5F4F6F4F7F4F481759076A077B074C
:102B000008F432C18C3D9105A105B10508F02CC136
:102B10004D3D51056105710520F04CED50E060E040
:102B200070E0481B590BBC01675D7A4FC8010E94D9
:102B300006331AC140E250E06FEF70E0C8010E9416
:102B40002834809149078983EA821B821C821D8276
:102B500083E02CC150924E0740924D0782E390E0F3
:102B600090930F0680930E060E94682890930D069E
:102B700080930C06F9C0EF2889F11091100613FB21
:102B8000882780F9182380910C0690910D060E94E9
:102B90004D2885369105E0F01123D1F00E94682878
:102BA00090930D0680930C0680910E0690910F066F
:102BB000019790930F0680930E06892B79F410925B
:102BC0004E0710924D0750924A074092490706C09F
:102BD00082E390E090930F0680930E068091490760
:102BE000898380914D078A8380910E068B83BCC0B8
:102BF00010924A0710924907B7C040E250E06FEFC9
:102C000070E0C8010E942834AFC08B81823061F12E
:102C1000E0F4882309F1813009F0A6C08C811AE024
:102C20007E01F1E2EF0EF11CD701E12F1D92EA9532
:102C3000E9F7B7010E94FE2A8983F701DE011296A7
:102C400001900D921A95E1F78FC0853009F443C0C9
:102C5000863009F462C088C080E2F80111928A953A
:102C6000E9F788E08983C2CF1C818AE0FE013596AE
:102C7000DE01919601900D928A95E1F789A19AA1C2
:102C80000E94B9229AA389A38BA19CA10E94B92278
:102C90009CA38BA38DA19EA10E94B9229EA38DA36C
:102CA0008FA198A50E94B92298A78FA3183070F41D
:102CB000FAE01F9FB001112469597F4F4AE050E0AC
:102CC000CE0181960E94573380E001C08FEF898347
:102CD0000E94802249C06C81CE0181962AE0DC01ED
:102CE0001D922A95E9F7683060F4BAE06B9FB00155
:102CF000112469547F4F4AE050E00E940F3380E076
:102D000001C08FEF89838AE0FE01B196DE01129641
:102D100001900D928A95E1F727C01C818AE0FE019F
:102D20003596DE01919601900D928A95E1F78BA17F
:102D30009CA10E94B9229CA38BA3183070F4EAE0F6
:102D40001E9FB001112469547F4F4AE050E0CE012C
:102D500081960E94573380E001C08FEF89830E94E3
:102D6000FA2B02C08FEF8983CE0101960E94911C3D
:102D7000E6C809BD19BD09B400FEFDCF8091D80099
:102D80008F7D8093D8008091E00082608093E00086
:102D90008091E00081FDFCCF0E940A2FD9C886E215
:102DA00090E00E941F331B821C821D828E83DCCF29
:102DB0008091200687FF11C08091E80082FD05C048
:102DC000809128068111F8CF11C08091E8008B779F
:102DD0000BC080912806882349F08091E80080FF8D
:102DE000F8CF8091E8008E778093E8000895982FBF
:102DF000973068F59093E900981739F07091EC00DE
:102E00002091ED005091F00003C0242F762F50E068
:102E100021FD02C09F5FECCF3091EB003E7F3093ED
:102E2000EB003091ED003D7F3093ED003091EB00F1
:102E300031603093EB007093EC002093ED005093E1
:102E4000F0002091EE0027FDE5CF80E008958F701F
:102E50008093E90081E008952091260630912706AD
:102E60002617370748F06115710539F42091E800FD
:102E70002E772093E80001C0B901FC0120E0611524
:102E8000710579F1809128068823F1F18530F1F1FF
:102E90008091E80083FD3CC08091E80082FD2EC057
:102EA0008091E80080FFEBCF2091F3008091F20049
:102EB00090E0922B6115710551F08830910538F43E
:102EC00021912093F100615071090196F3CF21E027
:102ED000089709F020E08091E8008E778093E80061
:102EE000CECF2111CFCF0AC080912806882361F070
:102EF000853061F08091E80083FD0AC08091E80090
:102F000082FFF2CF80E0089582E0089583E0089583
:102F100081E008950895BC0184E00E94EC270895A3
:102F2000BC0183E00E94EC27089580912906982F28
:102F30009670963011F4886001C0877F0E94C72E7A
:102F40000895EF92FF920F931F93CF93DF93EC01BD
:102F50007B0164E670E088E70E946E318C01EC0E24
:102F6000FD1ECE15DF0561F017FD0AC0FE0184913C
:102F700064E670E00E94E3318C012196892B89F38D
:102F80000E945B32C801CDB7DEB7E6E00C949B32FD
:102F9000AAE2B0E0EEECF7E10C948232E0E2F6E077
:102FA00088E296E02091F10021938E179F07D1F7D8
:102FB00080912106833009F463C030F4813071F0D0
:102FC000823009F49DC0B4C08A3009F489C08B30C6
:102FD00009F46EC0893009F0ABC020C08091200692
:102FE000813A09F0A5C08091E800877F8093E800CE
:102FF0008091240690912506892B21F468E085E1D3
:1030000096E003C060E080E090E070E00E942C1742
:103010008091E8008B778093E8008AC08091200639
:10302000813209F085C08091240690912506009791
:1030300019F0029709F07CC08091E800877F8093A7
:10304000E8008091E80082FD05C08091280681118A
:10305000F8CF6EC02091F3008091F20090E0922BA7
:10306000029731F48091F100813011F0863021F423
:103070008091F100809314068091E8008B7754C012
:1030800080912006813A09F053C0809124069091E6
:103090002506892B09F04CC08091E800877F80933A
:1030A000E8008091E80080FFFCCF80911A0137C0D2
:1030B000809120068132E1F58091240690912506C9
:1030C000892BB1F58091E800877F8093E8000E940A
:1030D000D8168091220680931A010E940A2F28C0D8
:1030E00080912006813221F58091E800877F8093CE
:1030F000E8000E94D816809123068093130618C01A
:1031000080912006813AA1F48091E800877F809326
:10311000E8008091E80080FFFCCF80911306809347
:10312000F1008091E8008E778093E8000E94D81625
:103130008091E80083FFEBC18091200690912106E9
:10314000492F50E04A30510508F0E1C1FA01E05939
:10315000FF4F0C94F233803821F0823809F0D7C148
:1031600008C080911D0690911E06992389F0826007
:103170000FC0809124068F70873008F0C8C18093FB
:10318000E9008091EB0085FB882780F91092E90027
:103190009091E800977F9093E8008093F10010925F
:1031A000F1007CC1282F2D7F09F0B1C1882319F0CF
:1031B000823061F0ACC180912206813009F0A7C154
:1031C000933009F080E080931E062EC08091220685
:1031D00081112AC0809124068F702FEF280F26308E
:1031E00008F095C18093E9002091EB0020FF1CC0FE
:1031F000933021F48091EB00806214C09091EB0039
:1032000090619093EB0021E030E0A90102C0440FEF
:10321000551F8A95E2F74093EA001092EA008091E8
:10322000EB0088608093EB001092E9008091E80049
:10323000877F8093E8000E94D81669C1811167C119
:10324000109122061F778091E3008078812B809374
:10325000E3008091E800877F8093E8000E94D81601
:103260008091E80080FFFCCF8091E300806880932C
:10327000E300111102C082E001C083E080932806C0
:1032800046C18058823008F042C120912206309118
:1032900023062C3D53E0350779F583E08A838AE2E3
:1032A00089834FB7F894DE01139620E03EE051E2A7
:1032B000E32FF0E050935700E49120FF03C0E29524
:1032C000EF703F5FEF708E2F90E0EA3010F0C796FE
:1032D00001C0C0968D939D932F5F243149F74FBF56
:1032E0008091E800877F8093E8006AE270E0CE0179
:1032F00001960E942C17C0C080912406909125064B
:10330000432F552743305105B1F068F44130510542
:1033100009F40CC14230510509F0F9C08BE590E089
:10332000E9E9F6E057C04132510589F142325105D1
:1033300009F43CC0ECC0C901992781309105B9F06E
:1033400070F082309105D9F0039709F0E0C0E6E013
:10335000F7E0E4918E2F90E0E6E0F7E038C0E4E497
:10336000F7E0E4918E2F90E0E4E4F7E030C0E8E38A
:10337000F7E0E4918E2F90E0E8E3F7E028C0E4E284
:10338000F7E0E4918E2F90E0E4E2F7E020C0833094
:10339000910508F0BCC0880F991FFC01EE5AFE4F42
:1033A0000190F081E02D89E090E014C08330910518
:1033B00008F0ADC0FC01EE0FFF1FE45BFE4F019073
:1033C000F081E02DDC01A75BBE4F8C9190E000976F
:1033D00009F49DC02091E800277F2093E800209108
:1033E0002606309127062817390708F4C90140E05E
:1033F000009789F120912806222309F43DC0253049
:10340000D9F12091E80023FD37C02091E80022FD8A
:103410002FC02091E80020FFEBCF4091F3002091D6
:10342000F20030E0342B009759F02830310540F499
:1034300044914093F100319601972F5F3F4FF3CFB6
:1034400041E02830310509F040E02091E8002E7776
:103450002093E800CDCF4111CDCF0AC0809128063E
:10346000882351F0853041F08091E80083FD04C04D
:103470008091E80082FFF2CF8091E8008B77809303
:10348000E80045C0803809F042C08091E800877F9D
:103490008093E80080911F068093F1008091E800FE
:1034A0008E77C7CE811133C080912206909123067A
:1034B0009927029764F58091E800877F8093E80060
:1034C0001091220610931F060E94D816111106C0F3
:1034D0008091E30087FD02C081E001C084E0809319
:1034E000280642E061EC81E00E94F71642E261ECBE
:1034F00084E00E94F71642E261EC82E00E94F71637
:1035000042E260EC83E00E94F716809128068091E9
:10351000E80083FF10C08091E800877F8093E80077
:103520008091EB0080628093EB0005C082E190E027
:10353000E4EFF6E04FCFAA96E3E00C949E321F92A0
:103540000F920FB60F9211242F933F934F935F93D7
:103550006F937F938F939F93AF93BF93CF93DF939B
:10356000EF93FF93C091E900CF708091EC00D82FCA
:10357000D17080FDD0E81092E9008091F000877F43
:103580008093F00078940E94C8171092E90080910F
:10359000F00088608093F000CD2BCF70C093E900DD
:1035A000FF91EF91DF91CF91BF91AF919F918F915B
:1035B0007F916F915F914F913F912F910F900FBE2F
:1035C0000F901F901895E8EDF0E080818E7F80834A
:1035D0001092E2001092DA001092E100A0EEB0E04A
:1035E0008C9181608C9380818F77808319BCA7ED4B
:1035F000B0E08C918E7F8C9380818F7E808310923F
:1036000012060895A0E0B0E0E8E0FBE10C947D3202
:10361000C8EDD0E088818F7E8883E7EDF0E080817F
:103620008160808384E082BF81E08093120688817C
:103630008E7F888302EE10E0F80110821092DA008B
:1036400081EEC82ED12CF601108288818F77888375
:1036500088818068888388818F7D888319BC1092D7
:10366000280610921F0610921E0610921D0690EE5C
:10367000E92EF12CF70180818B7F80838881816026
:10368000888342E060E080E00E94F716F6018081C6
:103690008E7F8083F8018081816080838081886053
:1036A0008083F70180818E7F808388818061888319
:1036B000CDB7DEB7E8E00C9499321F920F920FB6A7
:1036C0000F9211242F933F934F935F936F937F93A8
:1036D0008F939F93AF93BF93EF93FF938091E100FC
:1036E00082FF09C08091E20082FF05C08091E10065
:1036F0008B7F8093E1008091DA0080FF2AC0809167
:10370000D80080FF26C08091DA008E7F8093DA0097
:103710008091D90080FF18C080E189BD82E189BD18
:1037200009B400FEFDCF81E0809328068091120647
:1037300081110FC00E94E31A0E94021B8091E200D7
:1037400084608093E20005C019BC10922806109294
:1037500012068091E10080FF17C08091E20080FF97
:1037600013C08091E2008E7F8093E2008091E2009E
:1037700080618093E2008091D80080628093D800BD
:1037800019BC85E0809328068091E10084FF30C059
:103790008091E20084FF2CC080E189BD82E189BD77
:1037A00009B400FEFDCF8091D8008F7D8093D800B2
:1037B0008091E1008F7E8093E1008091E2008F7E16
:1037C0008093E2008091E20081608093E20080912A
:1037D0001F06882311F084E007C08091E30087FD75
:1037E00002C081E001C083E0809328068091280612
:1037F0008091E10083FF27C08091E20083FF23C016
:103800008091E100877F8093E10082E08093280629
:1038100010921F068091E1008E7F8093E1008091DD
:10382000E2008E7F8093E2008091E20080618093CD
:10383000E20042E060E080E00E94F7168091F00034
:1038400088608093F000FF91EF91BF91AF919F91BD
:103850008F917F916F915F914F913F912F910F9039
:103860000FBE0F901F9018952091E4003091E50055
:1038700095E64091EC00842F817040FF23C0809139
:10388000E80080FD1DC080912806882399F08530CE
:1038900099F08091EB0085FD11C04091E4005091BA
:1038A000E5002417350729F3915011F09A01E1CF73
:1038B00084E0089582E0089583E0089581E008950A
:1038C00080E008954091E80042FFDDCF0895EF9237
:1038D000FF920F931F93CF93DF937C018B010E9484
:1038E000341C811119C0E70101151105A1F0809167
:1038F000E80085FD0AC08091E8008E778093E8009B
:103900000E94341C882381F307C089918093F100C1
:1039100001501109E9CF80E0CDB7DEB7E6E00C94A5
:103920009B32CF93209128062430F9F4C091E9000E
:10393000CF703091EC00232F217030FD20E8C22B96
:1039400022E02093E9002091E80020FF0BC040E036
:1039500050E060E270E00E94671C8091E8008E7782
:103960008093E800CF70C093E900CF91089580E084
:1039700008959091BC0192FF0DC0282F2871283026
:1039800019F4877F846006C0282F2471243011F435
:103990008B7F886093FF0DC0282F2871283119F480
:1039A000877E846106C0282F2471243111F48B7E18
:1039B00088612091BD0120FF0DC0382F387138304B
:1039C00019F4877F816006C0382F3171313011F4CE
:1039D0008E7F886021FF0DC0282F2871283119F4AF
:1039E000877E816106C0282F2171213111F48E7EDE
:1039F000886194FD877E0895CF93DF938238910587
:103A000069F1B0F48133910509F46FC048F489324B
:103A1000910509F465C08A32910509F46BC08AC02A
:103A20008533910509F457C089339105B9F082C0F7
:103A3000833E910571F138F4803E9105B1F0823EEC
:103A4000910511F177C0863E9105B9F1873E910548
:103A5000C9F1843E910509F06DC024C02091BC01DC
:103A600020FD53C021FD51C065C08091BC0180FD87
:103A700046C08091BD0180FF48C08091BC0184FD9B
:103A80003FC183EE90E03EC18091BC0182FF3AC00D
:103A9000F4CF8091BC0182FD35C08091BD0180FDD5
:103AA00034C0EBCF8091BD0181FF35C08091BC0156
:103AB00084FD26C187EE90E025C18091BC0183FF83
:103AC00027C0F4CF8091BC0183FD22C08091BD014D
:103AD00081FD21C0EBCF8091BC0185FD1FC021C0BD
:103AE0008091BC0185FD1DC019C08091BC0186FD7F
:103AF0001BC01DC08091BC0186FD19C015C089E3A3
:103B000090E000C182EE90E0FDC080EE90E0FAC04F
:103B100086EE90E0F7C084EE90E0F4C089E290E099
:103B2000F1C085E390E0EEC08AE290E0EBC081E373
:103B300090E0E8C0811532E5930708F069C081156F
:103B400041E5940728F0982F8827816F906ADAC0A2
:103B5000883E910568F5803E910508F0D3C0883A0B
:103B60009105B8F4853A910548F0855AE82FF0E0C0
:103B7000E85AFE4F808190E09064C4C08130910586
:103B800009F4BBC008F4BCC08430910508F4B8C087
:103B9000B9C08F3B910508F0B3C0885AE82FF0E018
:103BA000EE0FFF1FE55AFE4F808191819464AAC0F9
:103BB000811520E59207F0F09C0174E03695279579
:103BC0007A95E1F7922F9370482F437021E030E00F
:103BD00002C0220F331F4A95E2F73C68392B8F70E1
:103BE000982F9695969540E2949FC0011124822BC0
:103BF000932B88C0811530E4930718F09F70906A6A
:103C000081C09C013A9521153F4108F47BC078C0E2
:103C1000EC01C11586E5D807E8F5C11525E5D20701
:103C200048F08C2F0E94B91C8F7190E0982F882744
:103C3000906268C0C11534E5D30728F09C2F88270F
:103C4000846F906A5FC0AE01437055272C2F269574
:103C50002695C115D34578F481E090E002C0880F25
:103C6000991F4A95E2F740E2249F90011124822B8C
:103C7000932B9C6847C081E090E002C0880F991F99
:103C80004A95E2F740E2249F90011124822B932B66
:103C90009A6838C0C1152AE5D207F8F4C11539E58C
:103CA000D30790F08C2F8F700E94B91C94E0D695AA
:103CB000C7959A95E1F7CF70D0E0DC2FCC27D0697B
:103CC0009E01282BC9011EC0C11548E5D407C0F0CC
:103CD0009C2F8827806F906A15C0CE019056811561
:103CE000904270F48D2F8F710E94B91C282F2F7174
:103CF000CE0199279062922B05C081E090E002C02E
:103D000080E090E0DF91CF910895CF9384E090E040
:103D10000E941F33C82F82E290E00E941F332C2F95
:103D200030E0A901582BCA01CF91089580E090E0BE
:103D30000E942D33883E9E4F19F40E94FD22089563
:103D400080E0089568EE7EEF80E090E00E945133BD
:103D500060E082E090E00E94333360E083E090E036
:103D60000E9433331092700660E084E090E00E947D
:103D7000333364E082E290E00E94333360E085E018
:103D800090E00E94333360E086E090E00E9433339D
:103D90006FEF87E090E00E94333340E050E0BA01DB
:103DA00088E090E00E94453360E08DE090E00E9462
:103DB000333340E050E0BA0188E190E00E9445339F
:103DC00060E087E190E00E94333340E050E0BA01C8
:103DD0008CE190E00E94453360E070E080E290E08A
:103DE0000E94513340E050E0BA0188E190E00E9427
:103DF000453380E00E94CE220E94ED2240E050E058
:103E0000BA018FE090E00E94453340E050E0BA01F3
:103E100083E190E00E944533089580916F068823E6
:103E200031F010926F0610926E0610926D06089592
:103E3000809590916C07892380936C0708958095F5
:103E400090916B07892380936B0708951092640605
:103E50001092630610926206089520916406809580
:103E6000822380936406982F977099F430E0482F4E
:103E7000082E000C550B2417350759F09091BD0101
:103E800092FF07C08595859585950E94CC2E0E944E
:103E9000261F0895CF93C091BD01C2FB992790F9C9
:103EA000981791F080FBC2F9C093BD016091BC01ED
:103EB00084E090E00E9433336C2F82E290E00E9415
:103EC000333382E00E942D1FCF91089580916106C7
:103ED00090913006891719F08F5F8770FBCF089596
:103EE0000F931F93CF93DF9380912F0682958F704E
:103EF00009F05AC080912C06882309F455C080919E
:103F000061061091300660912A0670912B06C091CF
:103F10002D06D0912E0691E06F3F09F090E0292FF9
:103F200006E0811709F440C0209721F07F3F21F07F
:103F300030E003C031E001C0322F90E030FD31C0ED
:103F4000089FF001099FF00D1124DF01AF5CB94F0C
:103F500011963C911197371324C03C91361321C020
:103F600012963C91129731111CC013964D915C91A1
:103F700014974C1B5D0B483C510598F480912F061B
:103F80008F70806180932F06EA5CF94F80818F707B
:103F9000806180838AE296E00E9440050E94661F4D
:103FA00003C001968770BDCFDF91CF911F910F9114
:103FB0000895CF93DF93EC010E944A2EBE010E9428
:103FC000DD2B0E94FC1CDF91CF910895A1E1B0E0B0
:103FD000ECEEFFE10C947A328C0185E0F801DE0111
:103FE0001D9601900D928A95E1F7F801E28090917B
:103FF0002A0660912B0640912D0650912E06411500
:10400000510531F06F3F31F481E09F3F19F403C057
:1040100081E001C080E0F82FF1709F2E80FD1BC170
:10402000F80130812181C380D4808AE2A82E86E005
:10403000B82EF0902C06F601E41BF50BFF2009F4D6
:10404000C7C080912F06E83CF10508F092C0482FC8
:10405000407F09F051C0621311C093130FC0FE2CB2
:10406000E1100CC08F70806180932F06C5010E9403
:10407000400580912F06F80185832AC1C114D1041F
:1040800031F02F3F31F481E03F3F19F403C081E06C
:1040900001C080E080FD03C081E08E2502C080E089
:1040A00090E0F82FF170FF2E80FF1CC08091610618
:1040B0004091300656E0841709F4E8C090E0589F1C
:1040C000F001599FF00D1124EF5CF94F6181261327
:1040D00006C06081631303C06281E61203C00196CB
:1040E0008770E9CFFE2CEE2009F4F2C080912F06F4
:1040F000816080932F0649C0621306C0931304C0E9
:10410000E11002C0F80186C0C8010E94EA2E88238F
:1041100051F1EE2041F120912F06822F82958F7070
:1041200090E0029774F080912A0690912B06988770
:104130008F831986DB86CA862C87CE0107960E945C
:10414000400586E0F801AAE2B6E001900D928A955A
:10415000E1F70E94701F0AC06217C9F0C8010E94EF
:10416000EA2E81111EC0C8010E944005FF24F3946D
:10417000AFC0482F407F81F78AE296E00E94400559
:1041800086E0F50111928A95E9F7F12CA1C093130D
:10419000E5CFE110E3CFF8018583C8010E94400517
:1041A00054C0EE2001F320912F06822F82958F704C
:1041B00090E0029734F280912A0690912B069A8320
:1041C00089831B82DD82CC822E83CE010196B7CFFC
:1041D000E83CF105D0F5FE2CEE2029F2621327C051
:1041E000931325C020912F0620FD18C0822F8295A1
:1041F0008F70482F50E04115510581F0F80125835B
:104200004F30510541F08F5F982F9295907F822F0C
:104210008F70892B8583C8010E94400586E0F801D4
:10422000AAE2B6E001900D928A95E1F751C0C8016B
:104230000E94EA2E811185CF80912F0681608093A4
:104240002F06C8010E94400543C086E0F501119287
:104250008A95E9F73DC0EE2009F485CFC8010E9498
:10426000EA2EF82E882309F47ECF86E0F801AAE230
:10427000B6E001900D928A95E1F780912A0690911F
:104280002B060E94D91F0E94701F22C03D872E87D7
:104290008D859E850E94D91F292F22952F7022304F
:1042A00028F49F7039F0811105C00BC0243028F428
:1042B0009F7049F4805E883020F0C8010E9440055C
:1042C0009F2CF92C05C0F8019581907F99F7F9CFC3
:1042D0008F2D6196EBE00C94963290916B07809154
:1042E0006C07892B8093B60680916F06882311F1A5
:1042F0000E94682820916D0630916E06821B930BF8
:104300008838934110F00E940D1F9091B60680915D
:104310006F06892B8093B606E8EBF6E097E080E025
:10432000915029F021912223D9F38F5FF9CF811188
:104330000E940D1F8091610780959091B606892398
:1043400090916207892B8093B60648E050E065E6BD
:1043500076E086EB96E00E941B34892BA9F088E07A
:10436000E6EBF6E0A5E6B6E001900D928A95E1F75E
:10437000E0912108F0912208309731F00280F3811A
:10438000E02D86EB96E0099508959091BD0192FF8E
:1043900010C098E0899F90011124262B2093640679
:1043A0000E94D92E0E94682890936306809362062B
:1043B00008950E94D92E0895CF92DF92EF92FF9236
:1043C0001F93CF93DF9300D0CDB7DEB71A82198247
:1043D000CE0101966C01E1E3F1E089E3E82E81E092
:1043E000F82EB60140E050E010E031E0CF01840F3C
:1043F000951FDC012C912F3FA9F0822F82958F70A1
:1044000090E0DC0190968C9190E02F7002C0959521
:1044100087952A95E2F780FD02C0832F02C080E0D5
:1044200090E0182B330F4F5F5F4F44305105F1F68A
:10443000D6011D936D013496EE16FF0699F642E003
:1044400050E08AEB91E00E941B3411E0009709F4E0
:1044500010E0892B79F089819A819093BB01809338
:10446000BA0181E0809373060E94682890937206D7
:104470008093710680917306882391F08091710674
:10448000909172060E944D28059750F08091BA01D4
:10449000809310068091BB018093110610927306E1
:1044A000812F0F900F90DF91CF911F91FF90EF9090
:1044B000DF90CF9008950895CF93DF93EC01EFE95B
:1044C000F6E0438162818C810E9450318C818F5F44
:1044D0008C83DF91CF910895CF93DF93EC01EC8132
:1044E000F0E0E35BF84F4491EFE9F6E0628181810F
:1044F0000E9450318C818F5F8C83DF91CF91089522
:10450000AAE0B0E0E6E8F2E20C9479320FE617E0B8
:10451000E12CF12C83E0C82E87E2D82E9AE2A92E56
:1045200097E2B92E24E8822E26E2922EF801D1825B
:10453000C082B382A28295828482F58AE48ABE0117
:104540006F5F7F4F8E2D0E94FE2A892B29F489856B
:104550009A85F801938B828BFFEFEF1AFF0A0A5EB0
:104560001F4F88E0E816F10409F72A96ECE00C9456
:10457000953281152CE5920759F480914907909165
:104580004A07892B19F480E090E0089580E09CE5CB
:10459000089586E290E00E9433330895CF93C82FA8
:1045A000811102C06FEF01C06BE283E290E00E94D4
:1045B0003333C11102C06FEF01C068EC84E290E0B8
:1045C0000E943333C11102C06FEF01C064E585E280
:1045D00090E00E943333CF91089580E00E94CE2274
:1045E00060E070E0CB010E94C9220E943A2B0E9439
:1045F000EE2A81E00E94CE22089583E290E00E949C
:104600001F338B3281F484E290E00E941F33883C98
:1046100051F485E290E00E941F3391E0843509F067
:1046200090E0892F01C080E08170089590919F06ED
:1046300090FF04C09695981748F003C0811106C0FA
:1046400090E0961718F40E94A930089561E00E9446
:1046500064300895882311F0FA0101C0FB01099527
:10466000089580919F0680FF0AC0539A8BB1877F7F
:104670009BB198602FB7F894EFE7F6E00BC0EFE737
:10468000F6E0118210821282339636E0EB38F3079F
:10469000C1F7EBCF36E0EB38F30789F0319148E012
:1046A0009BB9000000C037FF8BB9330F000000C07A
:1046B00000C000C08BB900C04A9591F7EBCF2FBF67
:1046C0008FE594E00197F1F700C000000895A0E0A5
:1046D000B0E0EDE6F3E20C947A32FC01A280948023
:1046E00081E08483EDE4F7E0B490ECECF7E0E49152
:1046F000CBE8D6E0FFE7EF2EF6E0FF2ECC24CA94FD
:10470000D12CEB190E2F10E022E02A1530F0809109
:10471000A00688838091A1068983911003C01B8223
:104720001A8255C08B818823F9F081508B832FEF3B
:10473000829FC00111246C8170E00E945F32FB01F6
:10474000FF27E35BF84F8491E82FEB192FEFE29FEF
:10475000C0011124B8010E945F328091A206689FB7
:10476000B00111247A8333C00E94F6322091A20650
:104770002695215830E0A901440F551F322F2227DA
:10478000240F351F232F33278217930704F582E068
:104790008A1588F40E94F632B6010E94DE338883BF
:1047A0000E94F6322091A1062695622F70E00E94A9
:1047B000DE33280F29831A828091A206843120F0EB
:1047C000893C18F088EC01C084E18C838B839701CD
:1047D0004A81698188810E94C430259623E0E20ED7
:1047E000F11C86E0CF39D80709F08ECF0E94312323
:1047F000CDB7DEB7EBE00C949632EF92FF920F93B9
:104800001F93CF93DF938C01CFE7D6E0E12CF12CFF
:10481000F8018481F2E0EF16F1041CF4882339F0EA
:1048200002C0811104C09E014091A20602C09E01F7
:1048300040E06091A1068091A0060E94C4308FEFF5
:10484000E81AF80A239694E0E916F10409F70E94A1
:104850003123F801848190E0019681709927848347
:10486000CDB7DEB7E6E00C949B32A0E0B0E0EBE31E
:10487000F4E20C947932EC014C81042F10E09801A1
:10488000D8010E94C3339B01AC010E948E336B019F
:104890007C01E0E2F0E0E01BF10BA5E5B0E09B015C
:1048A000AC010E948E334B015C019F01DF010E942D
:1048B000FF339B01AC010E9499339B01AC012C0D8D
:1048C0003D1D4E1D5F1DC501B4010E94A133822F05
:1048D000F22E99E2921728F093E0299F900111247B
:1048E0000DC025E530E0281B3109C901880F991F4B
:1048F000280F391F37FF02C02F5F3F4F359527958F
:10490000122F10959FE7C92E96E0D92E00E085E57D
:10491000E82EEF18802F869511F48E2D01C08F2D73
:104920009601412F6091A1060E94C4300F5F83E081
:10493000C80ED11C043071F70E9431238C81811183
:1049400002C091E003C0803219F49FEF90932801D8
:1049500090912801890F8C83CDB7DEB7ECE00C94E1
:1049600095320F931F93CF93DF93CFE7D6E0FE01ED
:10497000118210821282339686E0EB38F807C1F775
:1049800000E010E080917D06082E000C990B0817BE
:10499000190794F080912701082E000C990B8017BD
:1049A000910754F09E014091A2066091A10680916A
:1049B000A0060E94C43003C0198218821A820F5FB9
:1049C0001F4F239604301105E9F60E943123809190
:1049D000260190917D06980F90937D0620912701E6
:1049E000280F20932701121614F493301CF08195A0
:1049F00080932601DF91CF911F910F910895A0E040
:104A0000B0E0E5E0F5E20C947D32FC01828180FFAC
:104A100003C0DD24DA9402C0DD24D394CFE7D6E0CE
:104A200000E010E0198218821A8294E0E92EF12C3D
:104A3000C12C80917C068C0D853014F0837002C0EF
:104A400087FD8C5F082E000C990B0817190791F44D
:104A50008091A2068E9DA0018F9D500D1124559529
:104A60004795559547959E016091A1068091A006B6
:104A70000E94C430CD0CF1E0EF1AF108D1F60F5FBF
:104A80001F4F23960430110569F60E94312380914F
:104A90007C0691E0D91206C0811102C083E006C0F5
:104AA000815004C090E001968370992780937C0622
:104AB000CDB7DEB7E8E00C949932EF92FF921F93E6
:104AC000CF93DF93EC018FE7E82E86E0F82E10E01D
:104AD0008C8197014091A2066091A106810F0E94EE
:104AE000C430115C83E0E80EF11C1C3F89F70E9482
:104AF00031239A818C8190FF02C08F5F01C0815069
:104B00008C83DF91CF911F91FF90EF90089590914A
:104B10009F0690FF0CC0EFE7F6E08183608342833D
:104B2000339696E0EB38F907C1F70E9431230895D8
:104B3000A3E0B0E0EEE9F5E20C9481328C018091C3
:104B40007E0681110AC09E012F5F3F4F4FEF6FEF2E
:104B50000E94C4308A8180937E06F801848181306E
:104B600051F028F0823061F440917E060AC08091B5
:104B70007E0640E007C060917E0640E080E003C012
:104B800040E080E060E00E948725F801848190E0A9
:104B9000019663E070E00E94DE3384832396E4E0B4
:104BA0000C949D32A3E0B0E0E8EDF5E20C9478328D
:104BB000F82EB62EE42EA22E90919F0690FF66C08E
:104BC000E92FE695AE2FB0E0A757BE4F8C918093AA
:104BD0007A069E7F923061F49E012F5F3F4F8F2DAA
:104BE0000E94C4304B8169818A810E9487253CC024
:104BF000823019F4E090A20637C0863019F4F090A4
:104C0000A00632C08930D9F3893171F5E9512E2FD0
:104C10002170722EE695F0E0E85BF84FE4910E2FDC
:104C200010E03FE7C32E36E0D32E812C912CC40137
:104C30009695879596958795711002C08F0D03C044
:104C40002F2D281B822F96014E2D6B2D0E94C430D4
:104C5000800E911E83E0C80ED11C2BE8C21626E000
:104C6000D20629F70E943123F092A006B092A10645
:104C7000E092A206AA2051F060919F067091A006D2
:104C80008091A1069091A2060E942D302396EDE01E
:104C90000C949432A5E0B0E0E0E5F6E20C948132A9
:104CA0008C0190934C0780934B07011580E2180705
:104CB000B8F4802F0E94382FC801805E91090897B0
:104CC00018F00115110531F4C8010E942F2D0E9422
:104CD000272F16C0C8010E942F2D0E94162F10C02A
:104CE00080EF89838A831B820E9468288160782FE5
:104CF0009D838C8349815A816B818D810E94762DA1
:104D00002596E4E00C949D320F931F93CF93DF938D
:104D10008C01EB016CEA76E08C2F0E94FE2A892B35
:104D2000E1F5DD27CC55D94F8881F8011082188232
:104D3000833079F048F4813041F1823071F580910F
:104D4000AE069091AF0609C0843051F08530E9F08D
:104D500024C08091B0069091B1060097B1F01BC0BD
:104D60008091B2069091B3060097A9F42091AC0609
:104D70003091AD068091AE069091AF0621153105B8
:104D800041F0009741F4C90106C08091AC069091B2
:104D9000AD06009711F00E944A26DF91CF911F9136
:104DA0000F910895A5E0B0E0E8EDF6E20C948332AF
:104DB00090934C0780934B07811520E2920718F4DB
:104DC0000E945C2D11C080EF89838A8381E08B83F0
:104DD0000E9468288160782F9D838C8349815A8145
:104DE0006B818D810E94762D2596E2E00C949F3296
:104DF000CF93DF93EC010E94D226CE010E944A2677
:104E0000DF91CF9108950F931F93CF93DF938C0180
:104E1000862F6CEA76E00E94FE2A892BB1F4C091BD
:104E2000AC06D091AD06209781F0F80180818330E7
:104E300039F4CE010E94F826CE010E94F82602C065
:104E4000843018F0CE010E94F826DF91CF911F9197
:104E50000F9108950F931F93CF93DF938C01EB0174
:104E60006CEA76E08C2F0E94FE2A892B09F069C03B
:104E7000DD27F8018081813041F49185911115C0C1
:104E80009285992391F082E010C0823049F4F801B4
:104E90008185811107C08285811106C083E005C02C
:104EA00086E003C085E001C084E0CC55D94F8883FB
:104EB0008330B1F028F4813071F0823031F041C09C
:104EC0008430A9F0853079F13CC08091AE06909194
:104ED000AF060097A1F58091AC069091AD0620C079
:104EE0008091B0069091B1060097E9F028C08091BA
:104EF000B2069091B306009711F58091AC0690919F
:104F0000AD06009749F00E94F8268091AE06909178
:104F1000AF06009781F013C08091AE069091AF0666
:104F2000009779F00CC08091AC069091AD06009787
:104F300041F00E94F8268091AC069091AD060E9447
:104F4000D226DF91CF911F910F91089560919F0616
:104F5000669570E04BE050E08BE191E00E940E34EA
:104F6000892B19F481E080937B060E946828909336
:104F70007506809374060895089580911406089527
:104F8000CF93DF9321E02093E9002FEF3091E800E9
:104F9000215035FD06C035ED3A95F1F7000021119D
:104FA000F5CF2091E80025FF14C0EC0140E050E06F
:104FB00068E070E00E94671C8091E8008E77809323
:104FC000E80088E0FE01A5E1B6E001900D928A9527
:104FD000E1F7DF91CF91089580932A0870932C0810
:104FE00060932B08809128068430F9F48093E900BF
:104FF0008FEF9091E800815095FD06C095ED9A9550
:10500000F1F700008111F5CF8091E80085FF0DC018
:1050100040E050E063E070E08AE298E00E94671CA4
:105020008091E8008E778093E800089587E797E7FE
:1050300090930108809300089AE088E10FB6F894F5
:10504000A895809360000FBE90936000FFCF789486
:105050001F920F920FB60F9211248F939F93AF93CD
:10506000BF938091260890912708A0912808B091BD
:1050700029080196A11DB11D809326089093270849
:10508000A0932808B0932908BF91AF919F918F9169
:105090000F900FBE0F901F9018959C014FB7F8947A
:1050A0008091260890912708A0912808B09129089E
:1050B0004FBF821B930B08952FB7F8946091260879
:1050C0007091270880912808909129082FBF089592
:1050D0002FB7F8948091260890912708A09128086E
:1050E000B09129082FBF08951F920F920FB60F920B
:1050F00011248F939F93AF93BF93809125088111C3
:1051000013C08091260890912708A0912808B0919B
:1051100029084196A11DB11D809326089093270868
:10512000A0932808B0932908BF91AF919F918F91C8
:105130000F900FBE0F901F9018959C012A5F3F4F54
:10514000FC014281461301C0128201968217930727
:10515000B9F708959C01FC0132969FEF80E04191E0
:10516000461789F09F3F19F4411101C0982F8F5FB6
:105170008630A9F79F3F39F0F901E90FF11D97FD3E
:10518000FA956283089508952091230830912408A8
:105190002817390771F09093240880932308E09131
:1051A0002108F0912208309721F00084F185E02D4C
:1051B0000995089520911F08309120082817390774
:1051C00071F09093200880931F08E0912108F091DE
:1051D0002208309721F00680F781E02D0995089587
:1051E000E0912108F0912208309729F00190F08198
:1051F000E02D0995089580E00895EF92FF920F93B6
:105200001F93CF93DF93FC012285211136C0EC015F
:10521000E380F480F7E5FF1A26E12E9DC0012F9D63
:10522000900D1124DC01A159B84F1496ED91FC9119
:1052300015978B58984F309729F054966D917C9123
:105240005597099586E18E9D80018F9D100D112443
:105250000159184FF80187810E941F1FF8018085AE
:105260000E94181F0E946D21188219861B861E82BB
:105270001D8210926E0710926D07CDB7DEB7E6E083
:105280000C949B32CF93DF93FC01218921111AC02A
:10529000EC0181E0818B90916B078781892B809352
:1052A0006B0790916C078085892B80936C070E9417
:1052B0006D21EA81FB81CE010696309719F06C8949
:1052C0007D890995DF91CF9108950F931F93CF9317
:1052D000DF93C42FD22FFC0182818823B1F0409349
:1052E0006A070E946828909369078093680780E2A4
:1052F0008C0F883008F04DC0C77081E001C0880F66
:10530000CA95EAF70E942E2F44C080916A0748137D
:1053100030C080916807909169070E944D28883CB1
:10532000910538F510E21D0FCD17B9F080E28C0F12
:10533000883040F4C77081E001C0880FCA95EAF751
:105340000E94272F183010F581E09D2F977001C023
:10535000880F9A95EAF70E942E2F802F0E94B32F74
:105360001830B8F4D77081E001C0880FDA95EAF7F9
:105370000AC080E28C0F883060F4C77081E001C001
:10538000880FCA95EAF70E94272F03C0802F0E943A
:10539000B32FDF91CF911F910F910895CF93DF939A
:1053A000EC0140915D0750915E0760915F0770913D
:1053B00060072FB7F8948091260890912708A09154
:1053C0002808B09129082FBF841B950BA60BB70B9B
:1053D000843F9140A105B105A8F480915D079091AB
:1053E0005E07A0915F07B091600780935907909383
:1053F0005A07A0935B07B0935C0784EF91E0A0E0AD
:10540000B0E00EC00E945C286093590770935A0761
:1054100080935B0790935C0782E390E0A0E0B0E0AC
:105420008093550790935607A0935707B09358075A
:10543000D0936507C0936407DF91CF910895FF92E1
:105440000F931F93CF93DF93009166071091670727
:105450000115110509F45CC01092650710926407EC
:105460001092610710926207D80116966D917C9197
:1054700017979B013A9521153F4108F4707EC62F7E
:10548000D1E0611101C0D0E0F82ED8011996ED915C
:10549000FC911A97309739F01B966D917C911C976F
:1054A00080E00995D823DD2379F08CEF8C0F813AC9
:1054B00030F46C2F86EB96E00E949D2805C00E9478
:1054C0006D218C2F0E94382FE0916607F0916707BD
:1054D00040815181FF2071F0808584FD0BC0809157
:1054E0006307882339F091E09A01215031092C3A61
:1054F0003D4508F090E090FF03C0CA010E94CE290C
:105500000E946D2110926707109266071092630740
:10551000C801CDB7DEB7E5E00C949C32FC01848174
:105520008623C1F492819923B9F08085692383FF92
:1055300004C081E0611111C00DC0892F8F70929558
:105540009F70982B862F8F7062956F70682B81E00B
:10555000961719F080E0089581E00895809154072E
:1055600090915307882389F0992369F062E070E0F5
:105570008FE898E00E94A117892B19F080915307BA
:105580000895109253079091530781E08927089559
:10559000809154078823F9F00E945C28DC01CB013C
:1055A000805E914BAF4FBF4F80934F079093500752
:1055B000A0935107B09352078091530781110BC0FC
:1055C00062E070E08DE898E00E94A117892B19F441
:1055D00081E080935307809153070895CF93DF9321
:1055E000C7E0D1E060E0CE010E9433332196C115BF
:1055F00084E0D807B9F7DF91CF910895883080F41F
:105600009B01982F8AE0989FB001112469597F4F20
:105610004AE050E0C9010E940F3380E090E0089515
:105620008FEF9FEF08951F93CF93DF93962F8430D2
:10563000E8F46230D8F44430C8F4632F122FC42F3A
:10564000D0E0CC0FDD1F28E0929FC00DD11D1124AA
:1056500090E1899FC00DD11D1124CE0187960E9433
:105660003333612FCE0188960E943333DF91CF917F
:105670001F910895A4E1B0E0E0E4FBE20C947932DC
:10568000A0904907B0904A0781E090E090934A07C4
:1056900080934907C12CD12C812C7601912C00E0FC
:1056A00010E0F801EE0DFF1DEE0FFF1FE35BF74F5B
:1056B00025913491402F692D882D0E94132B0F5F67
:1056C0001F4F0430110569F784E0E80EF11C939434
:1056D000E2E09E12E4CF8394F8E0CF0ED11C84E088
:1056E0008812DBCF1A8219821C821B821E821D82C5
:1056F00018861F8288EC90E09A87898707E610E079
:105700004AE050E0B801CE0101960E945733065F8F
:105710001F4F073B1105A1F77E01EBE0EE0EF11CD8
:105720008AE0F70111928A95E9F78FEF9FEF988B46
:105730008F8787E08C8B4AE050E0B801C7010E9458
:105740005733065F1F4F0730F1E01F07A1F7B092F4
:105750004A07A09249076496ECE00C9495320F93A7
:105760001F93CF93DF93843008F56230F8F4443010
:10577000E8F4C42FD0E0CC0FDD1F28E0629FC00DFD
:10578000D11D112430E1839FC00DD11D1124CE0104
:1057900087960E941F3390E0182F0027CE0188962D
:1057A0000E941F339801282BC90102C080E090E0BD
:1057B000DF91CF911F910F91089520914D07309166
:1057C0004E07232BA1F4703F39F4603F81F48091A0
:1057D0004B0790914C070895843048F4723038F4A8
:1057E000643028F4462F672F0E94AF2B089580E085
:1057F00090E00895AAE0B0E0E0E0FCE20C94793299
:1058000001ED16E08FEBC82E86E0D82E97EBE92E3F
:10581000F12C2FE0922E3EEBA32E36E0B32E8824FF
:105820008394F601019311936F014AE050E0B701B0
:10583000CE0101960E940F33F801892D11928A95AD
:10584000E9F789819A81F801918380838F8182832E
:105850008D81838388858483898585838B819C81E1
:105860009783868310868A8587FF03C016861586F0
:1058700003C0F801B686A58680FF02C0F8018086C5
:1058800081FF04C0F80190859260908782FF04C078
:10589000F80190859460908783FF04C0F80190859B
:1058A0009860908784FF04C0F8019085906190878C
:1058B00085FF04C0F801808580628087015F1F4FEB
:1058C000FAE0EF0EF11C87E0E81681E0F80609F037
:1058D000A8CF2A96ECE00C949532A0E0B0E0E3E784
:1058E000FCE20C947B32EC018AE0A82E2881222372
:1058F00009F49AC0213009F041C08981813039F41E
:105900008E010E5F1F4F8A810E94B32F08C0823024
:1059100041F48E010E5F1F4F8A810E94642FE801BF
:1059200081C0833039F48E010E5F1F4F8A810E943F
:10593000382FF5CF843011F0219674C02A81229639
:1059400080E090E030E0205331092A30310558F4EE
:10595000A89EA001A99E500D1124C901840F951F76
:1059600021962881EFCF009709F45CC0EFE9FFE0B2
:105970003197F1F700C000000197F5CFE22FF0E07A
:10598000EF53F74FB490822F86958695869590E0D9
:10599000FC01EF54F74FE4902770F12C022E02C067
:1059A000F594E7940A94E2F7F1E0EF22FF24FC017A
:1059B000EF55F74FC490D12C022E02C0D594C79456
:1059C0000A94E2F731E0C322DD24FC01EF56F74FE1
:1059D000049110E002C0159507952A95E2F7017031
:1059E0001127E114F10419F081EE0E94642FC11413
:1059F000D10419F086EE0E94642F8B2D0E94B32FE4
:105A0000C114D10419F086EE0E94382FE114F1047C
:105A100019F081EE0E94382F0115110519F08CE262
:105A20000E94B32F219662CFCDB7DEB7EAE00C9487
:105A300097320E940A2F2FEF84E39CE02150804090
:105A40009040E1F700C000009AE088E10FB6F894BA
:105A5000A895809360000FBE90936000FFCF9C01DB
:105A60003A9521153F4130F5BC0166277270AC01B3
:105A7000442754709C012227387094FF0FC090FF78
:105A800002C080E101C080E0672B09F08062452BF5
:105A900009F08064232B79F080680895892F817044
:105AA000672B09F08260452B09F08460232B19F0E5
:105AB0008860089580E00895CF93DF93EC01805EC5
:105AC0009109089710F0209731F4CE010E942F2DF4
:105AD0000E942E2F05C0CE010E942F2D0E941D2F47
