:10000000E2C4000018C5000016C5000014C50000B9
:1000100012C5000010C500000EC500000CC5000090
:100020000AC5000008C500000C9486340C94743591
:100030000C942F3400C50000FEC40000FCC4000076
:10004000FAC40000F8C40000F6C40000F4C40000C4
:10005000F2C400000C945C34EEC40000ECC4000058
:10006000EAC40000E8C40000E6C40000E4C40000E4
:10007000E2C40000E0C40000DEC40000DCC40000F4
:10008000DAC40000D8C40000D6C40000D4C4000004
:10009000D2C40000D0C40000CEC40000CCC4000014
:1000A000CAC40000C8C40000C6C40000050109029B
:1000B000A10185020901A1000509190129081500FE
:1000C0002501950875018102050109300931158165
:1000D000257F95027508810609381581257F9501D0
:1000E00075088106050C0A38021581257F95017572
:1000F000088106C0C005010980A101850319012AF4
:10010000B700150126B700950175108100C0050CD8
:100110000901A101850419012AA002150126A002E6
:10012000950175108100C00660FF0961A101096297
:10013000150026FF00952075088102096315002629
:10014000FF00952075089102C005010906A101056F
:100150000719E029E7150025019508750181029529
:1001600001750881010507190029FF150026FF0008
:100170009506750881000508190129051500250156
:10018000950575019102950175039101C00000006C
:10019000000000000000000000000000000000005F
:1001A000000000000000000000000000000000004F
:1001B000007E0F00D4FFFFFFC700000078000000A2
:1001C00000000000002A2B280000000000000000B2
:1001D000000000000000000029000000002C1E3478
:1001E00020212224342627252E362D3738271E1F7E
:1001F000202122232425263333362E37381F0405A9
:10020000060708090A0B0C0D0E0F10111213141516
:10021000161718191A1B1C1D2F3130232D350405F4
:10022000060708090A0B0C0D0E0F101112131415F6
:10023000161718191A1B1C1D2F3130354C09025B7B
:1002400000030100A0FA09040000010301010009F4
:100250002111010001224400070581030800010962
:100260000401000203000000092111010001222203
:100270000007058203200001070503032000010990
:100280000402000103000000092111010001227B8A
:10029000000705840320000112010002000000088D
:1002A00000CB06200001010203011C037600690057
:1002B00061006C003A0066003600340063003200D2
:1002C000620033006300000018034E0065007700F1
:1002D00048006F00720069007A006F006E007300C2
:1002E00000000A03300078004300420000000403CD
:1002F0000904167C1F0021002300250027002E0082
:100300002A001E0020002200240026002D002A00C2
:100310004C002B001A0015001C000C0013003000CC
:100320000000140008001700180012002F00310010
:100330004A003900160009000B000E0033000000CF
:100340002800040007000A000D000F003400000020
:100350004B00E1001D000600050010003700E5001D
:100360005200E1001B0019001100360038000000A7
:100370004E00E000E20000002C0000002152E400EA
:100380005100E3002C0000002C000000E6005000AB
:100390004F0001003B003D003F004100430045008D
:1003A00001003A003C003E004000420044000100D1
:1003B0000100010001000100010001000100010035
:1003C0000000010001000100010001000100010026
:1003D0000100010001000100010001000100000016
:1003E0000100010001000100010001000100000006
:1003F00001000100010001000100010001000100F5
:1004000001000100010001000100010001000000E5
:1004100001000100010000000100000001000100D6
:1004200001000100010000000100000001000100C6
:1004300001000100010001000100010001000100B4
:1004400001000100010001000100010001000100A4
:100450000100010001000100010001000100010094
:100460000000010001000100010001000100010085
:100470000100010001000100010001000100000075
:100480000100010001000100010001000100000065
:100490000100010001000100010001000100010054
:1004A0000100010001000100010001000100000045
:1004B0000100010001000000010000000100010036
:1004C00001000100010000002352000001000100B2
:1004D0000100010001000100010001000100010014
:1004E0000100010001000100010001000100010004
:1004F00001000100010001000100010001000100F4
:1005000000000100010001000100010001000100E4
:1005100001000100010001000100010001000000D4
:1005200001000100010001000100010001000000C4
:1005300001000100010001000100010001000100B3
:1005400001000100010001000100010001000000A4
:100550000100010001000000010000000100010095
:100560000100010001000000010000000100010085
:100570000100A900AA00A900AA0027782878DA00BB
:10058000D900000101010101010101010202020281
:10059000020202020203030303030303030404042D
:1005A00004040404050505050506060606060707F6
:1005B00007070708080808090909090A0A0A0B0BAE
:1005C0000B0C0C0C0D0D0D0E0E0E0F0F0F1010114D
:1005D00011111212131314141515161617171818D3
:1005E00019191A1A1B1B1C1D1D1E1E1F202021223B
:1005F00022232424252626272829292A2B2C2D2D81
:100600002E2F30313232333435363738393A3B3C9D
:100610003D3E3F404142434445464748494A4C4D90
:100620004E4F50515354555658595A5B5D5E5F6159
:100630006264656668696B6C6D6F707273757778EC
:100640007A7B7D7E8082838587888A8C8E8F91934A
:100650009596989A9C9EA0A2A3A5A7A9ABADAFB171
:10066000B3B5B7BABCBEC0C2C4C6C9CBCDCFD1D456
:10067000D6D8DBDDDFE2E4E7E9EBEEF0F3F5F8FAFC
:10068000FDFFFD377A585A000004E6D6B446020052
:10069000210116000000742FE5A3E00D6C02945DAB
:1006A000003D888986D3DC0AE842C3249258425A26
:1006B000FA4B42162C5F542BA3199BCDF09E3ED5CE
:1006C0002B7388208A2702C28C6C91863337C682AE
:1006D00076CEAA5F01B05851538393924198C64099
:1006E000C1F39A428EB806F6D83BFD414D7F7E2875
:1006F0005B032FF6BFB1A96C7100CADD74544D7B4A
:10070000CA5D5568FCD1E6C239BE7D7CB22387FE46
:10071000FB93BDFF30ABCCB12612795D9CCB3798F3
:10072000FB4A658A6E8B5CFB66EF8AFA2EE6FECA90
:1007300097CD5341199549F71B1F46BD9C142112B3
:10074000AB3A9C3C597F262B5787D6A3CAB9A2A3A4
:10075000F05B69BCB31C708BC856B69D227B9D2391
:100760002DE653DD653C45EE09706939639A2692A2
:1007700096E6BFD7C254E8A6C999FC3547D91722D7
:1007800046261C0387CAAEA56301CBDC339BFA83E4
:10079000703E4AC718A9430B2D79637FB0E0DF5242
:1007A00000FCA37CA9AE14987634B80E535298423C
:1007B000751C68149596DC7BBEA7831922BBC43DCB
:1007C00097A9E2583A87DF8EC32EEFC1119E6C1EA7
:1007D0007E119685FEAC2F3D48B983EEA9035036B5
:1007E000B09D7F09E5FEEEE191F4A70481FBC440D2
:1007F00066FAB83547F6B5F70714374E71B9F9669A
:10080000EF7B93A00D288CA8FA361D07A60D90A3A8
:100810008D607B7FED8547508403B2B3CB45AB1A27
:10082000DA33DD965C39DEA79B2CBB6FA1793E26BF
:1008300031E2B1BE4FFBBD4660BE923F68F0429BC5
:10084000CF9DF1CE90E7F1B93C30866147743B0D06
:10085000A493AD6B1683E19377F70577C9D9A5EA21
:100860003897B2EB39DF112D66E3AE453A568E3735
:10087000946F644C69D6B6045740A106D3D7C1C55E
:10088000C7B0F1823CFC276BED2A682EE1F32F758F
:10089000DE49C73E79E3A3542429C4E2DF37F3A13C
:1008A0006792A03277E61286D6C6D3E77572924475
:1008B000588DB9250425718FCCF47B3775C904CCCC
:1008C000A2F8EE2CDDC7DC0ABEC174C2C2D12E383C
:1008D0001E71001D7F53203F8BA3B6477E5FC2ADC4
:1008E0005648006E437AE2D9F66A9FBF436FAE78EE
:1008F0007905A0A278CE2FAC42EA7461211B105E6C
:10090000F45592855361E6CFAB996C3296ABF143C7
:100910006F434547FC75EBD64AAB6FFF0D5BA3A950
:10092000612262A19B4B6223E8A15B89AC8C5010D1
:10093000A7C3F20F0000333A89F454D027F0000126
:10094000B005ED1A00009BF7DB24B1C467FB020081
:1009500000000004595A0000000001000F000200CE
:10096000010003000200040003000500040006006B
:100970000500080006000C0007000D0008000E002E
:1009800009000F000A0011000B0013000C001700F3
:100990000D0018000E00504F52514A4D4B4E2A4C3C
:1009A0002F30B6B7ABACBBBCA9AABDBECFD0CDCEA5
:1009B000DBDCD9DA0D0E0B0F1A050805090507183F
:1009C00011130408120C11241FBECFEFDAE0DEBFB2
:1009D000CDBF04B603FE18C08091EB039091EC03E9
:1009E000A091ED03B091EE038730904BA740B04B40
:1009F00059F41092EB031092EC031092ED03109255
:100A0000EE03E0E0F8E3099512E0A0E0B1E0E8EBE6
:100A1000FEE602C005900D92AA33B107D9F723E094
:100A2000AAE3B2E001C01D92AB3EB207E1F70E941B
:100A3000FE2B0C94BF36E4CAA0E0B0E0E2E2F5E0A1
:100A40000C941A369C01FB019A9581159F4130F553
:100A5000832F8170B32FB270AA27732F747066270B
:100A6000532F5870442734FF0FC08295807FAB2BE3
:100A700009F08062672B09F08064452B09F08068DB
:100A80000995E2E00C943636AB2B09F08260672BB7
:100A900009F08460452BA1F38860F2CF80E0F0CFAD
:100AA000A0E0B0E0E6E5F5E00C941A360E94F335DC
:100AB000E2E00C943636A0E0B0E0E1E6F5E00C941C
:100AC0001A36982F92959F7024E0911102C020E071
:100AD000982F892F86958695811511F02E5F982F76
:100AE000892F8695820FE2E00C943636A0E0B0E0C4
:100AF000ECE7F5E00C941A3680938E03E2E00C9458
:100B00003636A0E0B0E0E7E8F5E00C941A368093C2
:100B10008F03E2E00C943636A0E0B0E0E2E9F5E0C5
:100B20000C941A3621E030E001C0220F8A95EAF7D2
:100B300080918F03822BE5DFE2E00C943636A0E053
:100B4000B0E0E5EAF5E00C941A3621E030E0A901C6
:100B500002C0440F551F8A95E2F7CA018095909113
:100B60008F038923CEDFE2E00C943636A0E0B0E0BC
:100B7000ECEBF5E00C941A369B01677091E001C034
:100B8000990F6A95EAF763E0369527956A95E1F73C
:100B9000B901660F771F260F371FFA01E20FF31F07
:100BA00040E050E0682F70E08191DF019B01042E4E
:100BB00002C0369527950A94E2F7217021952827DF
:100BC000292328272E934F5F5F4F4330510561F74C
:100BD000E2E00C943636A0E0B0E0E1EFF5E00C94F2
:100BE0001A369C01A82FA77083E0369527958A9521
:100BF000E1F7C901880F991F820F931FFB01E80FCE
:100C0000F91F40E050E080E0219130E00A2E02C060
:100C1000369527950A94E2F721703327042E01C0F8
:100C2000220F0A94EAF7822B4F5F5F4F4330510542
:100C300059F7E2E00C943636A0E0B0E0E2E2F6E0EC
:100C40000C941A36282F862F903F69F09A3070F452
:100C5000283048F438E0939FB0011124620F711DD1
:100C60004DEF52E083DFE2E00C9436369C5F923029
:100C7000D0F7622F70E04AEF52E0F4CFA0E0B0E08E
:100C8000E4E4F6E00C941A36282F903FB9F09A303D
:100C900070F4883098F438E0939FC00111246DEF10
:100CA00072E0820F911D97DFE2E00C9436369C5F74
:100CB000923020F46AEF72E090E0F5CF80E0F4CF5C
:100CC000A0E0B0E0E6E6F6E00C941A3690918F03CF
:100CD00021E030E0F90101C0EE0F8A95EAF7D90171
:100CE00002C0AA0FBB1F6A95E2F7EA2B01C0220FD0
:100CF0004A95EAF7892F8E23E81306C0892F822BA5
:100D000000DFE2E00C9436362095822F8923F8CF5D
:100D1000A0E0B0E0EEE8F6E00C941A36809197037C
:100D200090919603981303C0E2E00C9436368F5FDF
:100D30008770F8CFA0E0B0E0E0EAF6E00C941A3655
:100D4000909191038095892380939103282F277098
:100D5000211110C0891771F09091EA0392FF0AC027
:100D6000869586958695EBDE1092910310929303FB
:100D700010929203E2E00C943636A0E0B0E0E3EC8F
:100D8000F6E00C941A36982F909580918C03892365
:100D900080938C03E2E00C943636A0E0B0E0E3ED03
:100DA000F6E00C941A3680918B03811531F0109285
:100DB0008B031092950310929403E2E00C94363664
:100DC000A0E0B0E0E6EEF6E00C941A369C01803E1E
:100DD000910509F44AC0E8F48133910509F47FC014
:100DE00058F48932910509F46FC08A9709F47EC0DE
:100DF000C901E2E00C9436368933910551F182380D
:100E0000910539F1C597A1F78091E90385FFF0CFEE
:100E100029C0843E910509F447C048F4823E9105FB
:100E200099F1833E9105A9F121EE30E0E1CF863EB4
:100E3000910509F444C0873E9105D1F68091E903FC
:100E400083FD61C09091EA0391FF2BC024EE30E056
:100E5000CFCF8091E9038370811152C08091EA0362
:100E600083FFC6CF29E230E0C3CF8091E90380FD44
:100E700033C09091EA0390FFBBCF23EE30E084FFB4
:100E8000B7CF20E030E0B4CF8091E90382FDF5CF09
:100E9000AFCF8091E90382FD30C09091EA0390FDCD
:100EA0002FC084FFA5CFEDCF8091EA0381FFA0CFB3
:100EB0008091E90327EE30E084FDE3CF99CF809164
:100EC000E90383FDF7CF94CF8091E90385FD1EC030
:100ED0008091EA0383FF8CCF29E330E089CF8091B2
:100EE000E90386FF85CF2AE230E082CF8091E903D3
:100EF00086FF7ECF21E330E07BCF22EE30E078CF5B
:100F000020EE30E075CF26EE30E072CF25E330E002
:100F10006FCFA0E0B0E0EFE8F7E00C941A369091C4
:100F2000E90392FF10C041E0282F2471243009F01A
:100F300040E031E0282F2871283009F030E04317D5
:100F400011F02CE0822793FF10C041E0282F24717C
:100F5000243109F040E031E0282F2871283109F0D0
:100F600030E0431711F02CE082273091EA0330FF84
:100F700010C051E0282F2171213009F050E041E0EC
:100F8000282F2871283009F040E0541711F029E08B
:100F9000822731FF10C041E0282F2171213109F053
:100FA00040E031E0282F2871283109F030E0431764
:100FB00011F029E0822794FD877EE2E00C9436361A
:100FC000A0E0B0E0E6EEF7E00C941736F9DE8C0115
:100FD000811522E5920708F051C0811540E594077C
:100FE00008F0CDC0803E910520F58D3C910508F0BC
:100FF000A1C0883A910570F4853A910508F096C031
:1010000081309105B9F10497813A910598F100E09A
:1010100010E030C0885A91094B97C8F7085AE02F62
:10102000F0E0EE0FFF1FE353FE4F008111811464C7
:1010300021C0811550E49507B0F4011580E218072E
:1010400008F0B3C0083E1105A8F0C8019A958115B3
:101050009F41E8F6812F5DDFF82EC8019927B0DEA9
:101060008C011F2907C09927ABDE00271F70082BB2
:10107000192B106AC801E5E00C943336803842E53C
:101080009407C8F5803652E5950708F05CC0003437
:1010900082E51807D0F4003292E5190708F04CC039
:1010A000802F8695869520E2829FC00111240370CF
:1010B00021E030E0A90102C0440F551F0A95E2F774
:1010C0008A01082B192B1D68D5CF802F8695869510
:1010D000877050E2859FC0011124037021E030E049
:1010E000A90102C0440F551F0A95E2F78A01082B97
:1010F000192B1C68BFCF803C52E5950758F48F71BF
:10110000003A1245A8F590E0982F88278C01046FCB
:10111000106AB0CF805C9245809708F078CF102F8E
:10112000002700271F71006F106AA4CF0452110915
:101130001064A0CF10659ECF0F7110E0102F002714
:10114000016F106A97CF86958695877020E2829FFF
:10115000C0011124037021E030E0A90102C0440F56
:10116000551F0A95E2F78A01082B192B1A6882CFBE
:10117000D0DE082F10E0102F002710627BCF8F7178
:10118000C8DE93E0000F111F9A95E1F700271F704A
:10119000282F30E084FF05C050E1859F9001112485
:1011A0003327022B132B106965CF812F8F71B1DE8E
:1011B000F82EC801992704DE8C011F29DECFA0E09C
:1011C000B0E0E5EEF8E00C941A3680E0E2E00C9432
:1011D0003636A0E0B0E0EFEEF8E00C941A36F89462
:1011E000E82FE295EF70F0E041A18F7021E030E050
:1011F000B90102C0660F771F8A95E2F7CB01962FDF
:101200009095942391A392A1892B82A37894E2E0F4
:101210000C943636A0E0B0E0E0E1F9E00C9413362F
:10122000B72EE82FF0E0EE57FA4F711107C0E491A6
:101230008E2F7E2F6E2FE9E00C942F36E62EF12CA8
:10124000C72ED12CF491EF2F76E0679F90011124E7
:101250000FEF10E0C901B8010E94C635AB01EE0CDA
:10126000FF1C65E5649FC001659F900D1124B701C7
:10127000681B790BE62EEE0CE60EC8018C199D0951
:10128000F89FD001F99FB00D11248B2FBE9CB001A7
:101290001124672F77276801C61AD70AB601F69F6F
:1012A0006001F79FD00C1124B8016E1971097B0100
:1012B000BE9CB001BF9C700D1124672F7727061BC1
:1012C000170BF09F7001F19FF00C11247F2D43301C
:1012D0005105C1F02C3F334058F441305105B1F075
:1012E0004230510509F0A6CFEB2F8F2D7F2FA2CFD3
:1012F0004430510571F04630510509F49BCF7B2FE6
:101300008D2D98CF7D2DEB2F8F2F94CF7F2FED2D0F
:1013100091CFEF2D7B2FF8CFA0E0B0E0E2E9F9E02C
:101320000C941A36282F269F020E20E0211D11242E
:10133000822FE2E00C943636A0E0B0E0E2EAF9E079
:101340000C941A369C0180E090E0269F020E811DCD
:10135000369F800D911D1124830F911DE2E00C94A6
:101360003636A0E0B0E0E7EBF9E00C941A36982F9F
:10137000E82F96FDE0958E2F8F7096FD8F5FE69596
:10138000E695E695E670F0E0EB5CFE4F2181289F44
:10139000202D812D112422952F708295807F282B5E
:1013A0008081820F97FD81958058E2E00C9436365B
:1013B000A0E0B0E0EEEDF9E00C941A36FC019B01E0
:1013C000832F80783097D1F0AF01F7FF04C0442716
:1013D00055274E1B5F0BB901640F751F37FD11C0F8
:1013E000C901841B950BA5E0880F991FAA95E1F709
:1013F0000E94DA3580E2861BF7FD8195E2E00C94CD
:101400003636CB0165E0880F991F6A95E1F7BA017E
:10141000621B730B0E94DA3580E6EDCFA0E0B0E0EE
:10142000E4E1FAE00C9417368B01F82E822F8695B2
:1014300098DF805887FD81956F2D880F6DDFB8018B
:10144000E5E00C943336A0E0B0E0E9E2FAE00C9479
:101450001636F62E072F182FE22EE42FF0E0EE0FAF
:10146000FF1FE155FE4F64EE808156DF212F30E0F3
:10147000482F50E0445E5F4F6E2D70E0CA018E1918
:10148000910997FF03C0CB01841B950B43E0880FA4
:10149000991F4A95E1F7A901481B590BCA0157FF4B
:1014A00002C080E090E0612F37DF6F2D702FE6E003
:1014B0000C943236A0E0B0E0E0E6FAE00C94153689
:1014C000D62EF72E182FBA01C9010E19010F70DFA1
:1014D000612F081B802F20DF6D2D7F2DE7E00C94FE
:1014E0003136A0E0B0E0E7E7FAE00C941A36622F5C
:1014F000E2E00C943636A0E0B0E0E1E8FAE00C94CB
:101500001A36E42FF0E0EE0FFF1FE155FE4F608129
:10151000621BE2E00C943636A0E0B0E0E2E9FAE0CB
:101520000C941A36E42FF0E0EE0FFF1FE055FE4F4B
:101530006081621BE2E00C943636EF920F931F93AA
:10154000CF93DF93CDB7DEB710E09801220F331FA2
:10155000200F311F359527956E2D620FDF91CF91AA
:101560001F910F91EF900895A0E0B0E0EAEBFAE050
:101570000C941736F72E182FBA01C90119DF682FFE
:10158000600F7F2D812FE5E00C943336A0E0B0E0B2
:10159000ECECFAE00C941836A42F10E0F801EE0FF2
:1015A000FF1FE155FE4F9081905797FD9195000FD9
:1015B000111FF801E055FE4F00810052110B20036E
:1015C000A001219F500D112428E330E0291B31098F
:1015D00097FD33951A2F1203F001139FF00D11247C
:1015E0004E0F5F1F9A01220F331F240F351F37FF45
:1015F00002C021583F4F220F232F221F330B620FAF
:10160000E4E00C943436A0E0B0E0E9E0FBE00C94B8
:101610001A3690919402982B90939402E2E00C94E5
:101620003636A0E0B0E0E7E1FBE00C941A36EBD1EF
:10163000E2E00C943636A0E0B0E0E1E2FBE00C948E
:101640001A36F4D1E2E00C943636A0E0B0E0EBE2DA
:10165000FBE00C941A36880F92E0980F9B3008F04C
:101660009AE0E2E00C943636A0E0B0E0EAE3FBE07A
:101670000C941A36E5EDF2E0808191E089278083B1
:101680001092090181E0BFDFE2E00C943636A0E061
:10169000B0E0EDE4FBE00C941A368091D502837043
:1016A000811102C0109209018091D5028C7F816066
:1016B0008093D502E2E00C943636A0E0B0E0E3E699
:1016C000FBE00C941A368091D50283708111109240
:1016D00009018091D5028C7F8093D502E2E00C94C1
:1016E0003636A0E0B0E0E7E7FBE00C941A36982F1E
:1016F000862F2091D5022370211581F0911589F054
:10170000903188F49F73990F990F2091D50223701F
:10171000922B9093D5021092090175DFE2E00C94B0
:10172000363691E0F0CF9FE0EECFA0E0B0E0EBE9FD
:10173000FBE00C941A368091D502869586958F5FD2
:10174000803108F081E061E0CCDFE2E00C943636D5
:10175000A0E0B0E0EEEAFBE00C941A368091D502EE
:10176000869586958A9509F48FE061E0BADFE2E01C
:101770000C943636A0E0B0E0E0ECFBE00C941A36B6
:10178000982F822F2091D5022370211539F0909344
:10179000D6026093D7024093D80235DFE2E00C9482
:1017A0003636A0E0B0E0E7EDFBE00C941A36E5ED4C
:1017B000F2E0818190E021E0438162810896DADFE6
:1017C000E2E00C943636A0E0B0E0E9EEFBE00C94E9
:1017D0001A36E5EDF2E0818121E043816281885093
:1017E000990BC8DFE2E00C943636A0E0B0E0EBEFF6
:1017F000FBE00C941A36E5EDF2E0628120E1620F25
:1018000008F46FEF818121E0438190E0B3DFE2E0F3
:101810000C943636A0E0B0E0E0E1FCE00C941A361F
:10182000E5EDF2E0628120E1621B08F460E0818175
:1018300021E0438190E09EDFE2E00C943636A0E0A8
:10184000B0E0E5E2FCE00C941A36E5EDF2E043810D
:1018500020E1420F08F44FEF818121E0628190E0A6
:1018600089DFE2E00C943636A0E0B0E0EAE3FCE089
:101870000C941A36E5EDF2E0438120E1421B08F4B6
:1018800040E0818121E0628190E074DFE2E00C942D
:101890003636A0E0B0E0EFE4FCE00C941A36E5ED5B
:1018A000F2E0248130E1230F08F42FEF248381E05C
:1018B000AADEE2E00C943636A0E0B0E0E2E6FCE01E
:1018C0000C941A36E5EDF2E0248130E1231B08F494
:1018D00020E0248381E097DEE2E00C943636A0E03D
:1018E000B0E0E5E7FCE00C941A369C01FB018115A1
:1018F00040E2940740F4211581E0380750F4C90113
:10190000E2E00C943636905281159043C0F73327AD
:10191000F6CF932F34FF02C09295907F8081892B60
:101920008083F5CFA0E0B0E0E8E9FCE00C941A3643
:10193000462B22FF0FC0982F92959F708F70892B96
:10194000962F92959F706F70692B942F92959F7030
:101950004F70492B982F9623961309C050E040955D
:10196000509590E04823592381E0452B09F080E011
:10197000E2E00C943636A0E0B0E0E1ECFCE00C9440
:101980001A3687E6611101C085E9E82FE295EF700C
:10199000F0E041A18F7021E030E0B90102C0660F94
:1019A000771F8A95E2F7CB01962F9095942391A308
:1019B00092A1892B82A3E2E00C943636A0E0B0E03D
:1019C000E4EEFCE00C941A3627E6611101C025E92B
:1019D000E22FE295EF70E05EF0E0808190E02F7002
:1019E00002C0959587952A95E2F78170E2E00C9404
:1019F0003636A0E0B0E0EFEFFCE00C941A36819AA6
:101A0000E2E00C943636A0E0B0E0E9E0FDE00C94B2
:101A10001A36FC01EE0FFF1FE80FF91FEC59FD4FBE
:101A2000618340832283E2E00C943636A0E0B0E08C
:101A3000ECE1FDE00C941536F82EE62ED42E00E0F5
:101A400010E02D2D4E2D6F2DC801DDDF0F5F1F4FD4
:101A50000A301105B1F7E7E00C943136EF92FF92AE
:101A60001F93CF93DF93CDB7DEB721E030E079014C
:101A7000082E01C0EE0C0A94EAF710918A03912F08
:101A80009E21911117C090919103969596959695E8
:101A9000891306C01092910310929303109292033F
:101AA0003BD81E2510938A03DF91CF911F91FF90A1
:101AB000EF90089544D8F5CFA0E0B0E0E2E6FDE075
:101AC0000C941A36282F35EB2303C001112497FFFD
:101AD00006C080589109892FE2E00C943636805870
:101AE0009F4FF9CFA0E0B0E0E8E7FDE00C941A3694
:101AF00080911D0380FD16C081FD16C082FD18C0B7
:101B000080911C03811591F08E3190F420E5829F25
:101B1000C00111246EE170E00E94DA35862FE2E008
:101B20000C94363684E1FBCF88E2F9CF88E0F7CF1A
:101B300080E5F5CFA0E0B0E0E0EAFDE00C941A36D5
:101B400080911D0380FD1AC081FD1AC082FD1CC05A
:101B500080911B038115B1F08832B0F428E0829F98
:101B6000C001112468E270E00E94DA3581E061155D
:101B7000710509F0862FE2E00C94363662E0FACF68
:101B800064E0F8CF61E0F6CF68E0F4CFA0E0B0E029
:101B9000ECECFDE00C941A369091790389029001E7
:101BA000112437FF05C080937903E2E00C943636A8
:101BB0002F373105D4F7980F90937903F6CFA0E033
:101BC000B0E0E5EEFDE00C941A369C0180E090E078
:101BD000F901E80FF91FE491E41309C091E08927A6
:101BE000F901E80FF11D8491E2E00C94363601967C
:101BF000861770F380E0F8CFA0E0B0E0E2E0FEE00E
:101C00000C941A36E091F002F091F102309749F00D
:101C10000190F081E02D309721F00995E2E00C94DD
:101C2000363680E0FBCFA0E0B0E0E9E1FEE00C94C6
:101C30001A36E2DFE2E00C943636A3E0B0E0E3E2ED
:101C4000FEE00C941A369C0180916202909163022E
:101C500082179307B1F03093630220936202E09100
:101C6000F002F091F102309761F00084F185E02DEF
:101C7000309739F083E089833B832A83CE01019634
:101C800009952396E2E00C943636A3E0B0E0EBE44D
:101C9000FEE00C941A369C018091600290916102E2
:101CA00082179307B1F03093610220936002E091B4
:101CB000F002F091F102309761F00084F185E02D9F
:101CC000309739F084E089833B832A83CE010196E3
:101CD00009952396E2E00C943636A0E0B0E0E3E705
:101CE000FEE00C941A36AEE3B2E0EFEF90E02D91F7
:101CF000821781F0EF3F19F4211101C0E92F9F5F96
:101D00009630A9F7EF3F31F00E2E000CFF0BE45C8C
:101D1000FD4F8283E2E00C943636A0E0B0E0E3E9C8
:101D2000FEE00C941A36EEE3F2E09191891302C0C2
:101D3000DF011E9292E0E434F907B9F7E2E00C9477
:101D40003636A0E0B0E0E7EAFEE00C941A36809167
:101D50000B01E2E00C943636A0E0B0E0E2EBFEE0EE
:101D60000C941A362FB7F89480915C0290915D0222
:101D7000A0915E02B0915F022FBFE2E00C94363674
:101D8000A0E0B0E0E6ECFEE00C941A36962F20912D
:101D9000EA0322FF11C0682F660F660F660F692BDA
:101DA000609391030E948C05D7DF909393038093F7
:101DB0009203E2E00C9436360E948C05FACFA0E044
:101DC000B0E0E5EEFEE00C941A3690918B03292FDB
:101DD0002823211559F08095892380938B03811541
:101DE00041F0BADF8093940390939503E2E00C9462
:101DF000363680E090E0F6CFA0E0B0E0E2E0FFE031
:101E00000C941A36A9DF2091200330912103232B53
:101E1000211521F08093B0029093B102209122030A
:101E200030912303232B211521F08093AE02909350
:101E3000AF02E091F002F091F102309759F0068084
:101E4000F781E02D309731F082E080931E038EE120
:101E500093E00995E2E00C943636A0E0B0E0E3E3CD
:101E6000FFE00C941A36611509F444C0E3E3E80F6F
:101E7000E33148F4F0E0EF53F94C0C94ED3532DEE9
:101E8000819580932103B8DFE2E00C9436362ADE98
:101E9000F8CF28DE819580932003F5CF23DEFBCF9A
:101EA00049DE80932203EFCF45DE8195FACF42DEF3
:101EB000819580932303E7CF3DDEFBCF815D990BB6
:101EC00021E030E001C0220F8A95EAF780911F03DC
:101ED000822B80931F03D7CF80911D038160809355
:101EE0001D03D1CF80911D038260F9CF80911D0326
:101EF0008460F5CF409120038D3C59F480912103FB
:101F000087FF0DC010922103411559F410921C0354
:101F100008C08E3C81F48091210318169CF3411572
:101F200081F08091220390912303892B8111ABCF03
:101F300010921B03A8CF8F3C41F447FFF0CF1092C3
:101F40002003809121038115E0CF803D19F4141600
:101F5000B4F3E5CF90912203893D29F41916FCF6DC
:101F600010922203DCCF8A3D19F497FFD8CFF8CF27
:101F7000909123038B3D29F497FFD1CF1092230337
:101F8000CECF8C3D19F41916CCF3C9CF9FE2980F30
:101F9000983090F4815D990B21E030E0B90102C0E6
:101FA000660F771F8A95E2F7CB01809590911F030A
:101FB000892380931F03B3CF8D3D31F480911D039E
:101FC0008E7F80931D03ABCF8E3D21F480911D0346
:101FD0008D7FF7CF8F3D09F0A2CF80911D038B7FBE
:101FE000F0CFA0E0B0E0E7EFFFE00C941A362FB797
:101FF000F89460915C0270915D0280915E02909114
:102000005F022FBFE2E00C943636A0E0B0E0EBE0D8
:10201000F0E10C941A36E2E00C943636A0E0B0E021
:10202000E4E1F0E10C941A36FC019B01809152022C
:10203000909153028617970740F0672B29F48091FF
:10204000E8008E778093E800C90140E0009751F4E2
:10205000411108C08091E80082FF31C080E0E2E0D9
:102060000C9436362091E9022115A9F12530A9F109
:102070002091E80023FD2DC02091E80022FDEACF49
:102080002091E80020FFE2CF3091F3002091F20090
:10209000009719F02830310558F041E0283031051B
:1020A00009F040E02091E8002E772093E800CECFA1
:1020B00041914093F10001972F5F3F4FE9CF80910D
:1020C000E902811541F0853041F08091E80083FFFD
:1020D000C1CF81E0C4CF82E0C2CF83E0C0CFA0E017
:1020E000B0E0E5E7F0E10C941A3680914C0287FFEE
:1020F00015C08091E80082FF06C08091E8008B77D0
:102100008093E80004C08091E9028111F2CFE2E0FF
:102110000C9436368091E9028115C9F38091E8006C
:1021200080FFF8CF8091E8008E77EACFA0E0B0E0A2
:10213000ECE9F0E10C941A362091E4003091E500CE
:1021400095E6A9012091EC00822F817020FF06C046
:102150008091E80080FF06C080E018C02091E80070
:1021600022FD14C08091E902811599F0853099F023
:102170008091EB0085FD11C02091E4003091E500D5
:1021800042175307F9F29A95E1F684E0E2E00C94E5
:10219000363682E0FBCF83E0F9CF81E0F7CFA0E0D5
:1021A000B0E0E5EDF0E10C941A36E8EDF0E0808166
:1021B0008E7F80831092E2001092DA001092E1008C
:1021C000A0EEB0E08C9181608C9380818F778083CA
:1021D00019BCA7EDB0E08C918E7F8C9380818F7EAF
:1021E000808310924B02E2E00C943636A0E0B0E01F
:1021F000ECEFF0E10C941A36E091F002F091F1026C
:10220000309739F00284F385E02D309711F060E2C9
:102210000995E2E00C943636A0E0B0E0E2E1F1E1AD
:102220000C9414366C01809104010FDA082FF92EFA
:102230006091D9026695669521E0620F08F46FEF10
:10224000809186029091870277D8E82E10E00F15D2
:1022500040F081E0FAE0FF1608F080E0E8E00C943E
:102260003036F801ED53FE4F8081909105018923AE
:10227000811581F06091D6027091D7028091D802C9
:102280002E2D402FF60109950E940A09472F282F6D
:10229000C801C7D90F5F1F4FDACFA0E0B0E0E3E578
:1022A000F1E10C9410364C0180910401CED9C82E76
:1022B000192F6091D90266958091860290918702CC
:1022C0003BD8F82ED12CC601880F991F9C012155AF
:1022D0003E4F59011C1509F038F481E01A3008F01E
:1022E00080E0ECE00C942C36F601ED53FE4F80813B
:1022F000909105018923811509F44DC0D5014C91B8
:102300004057550B11962C912052330B449FB0012E
:10231000459F700D700D1124229FC001239F900DC9
:10232000900D1124680F791F062F6230710520F17E
:102330008FEF613EBEE17B0738F4CB01B5E09695A7
:102340008795BA95E1F7885F91E0A92FA80FBB2781
:10235000BB1FFD01F595E7950E2FEE9FD001EF9F76
:10236000B00DB00D11246A177B07E0F48FEF8E0FCC
:10237000891758F70FEF090F6091D6027091D702B5
:102380008091D802EF2CF40109950E940A09472F89
:10239000282FC60146D9FFEFCF1ADF0A22E0A20E8E
:1023A000B11C98CFEF3F41F391E09E0FE1CFA0E049
:1023B000B0E0EDEDF1E10C941636082F10E0F801D5
:1023C000ED53FE4F8081909105018923811509F419
:1023D0003DC0F091D702E091D8024091D602E42EA0
:1023E000F12C609100017091010185E098E0689FF7
:1023F0009001699F300D789F300D1124275E394C74
:102400003093010120930001C7018C549F4F68E66F
:1024100071E00E94DA358E199F0997FD0396959514
:10242000879595958795230F30E0B901660F771F43
:10243000260F371F642F839F600D11247F2F8E2F4F
:102440000E940A09472F282FC801EBD8E6E00C9418
:102450003236A0E0B0E0EFE2F2E10C941A36982FA9
:102460009093E900891771F07091EC002091ED00D4
:102470005091F00021FD09C09F5F973089F780934C
:10248000E9001CC0762F242F50E03091EB003E7FF6
:102490003093EB003091ED003D7F3093ED003091B3
:1024A000EB0031603093EB007093EC002093ED0073
:1024B0005093F0002091EE0027FDDECFE2E00C9477
:1024C0003636A0E0B0E0E7E6F2E10C94123608ED13
:1024D00010E0F80180818F7E8083E7EDF0E080815D
:1024E0008160808384E082BF81E080934B02F801A9
:1024F00080818E7F808382EEE82EF12CF70110829E
:102500001092DA0091EEA92EB12CF5011082F8019B
:1025100080818F77808380818068808380818F7DB8
:10252000808319BC1092E90210924A02109296021E
:102530001092490220EEC22ED12CF60180818B7FB1
:102540008083F80180818160808342E060E080E0E8
:1025500080DFF50180818E7F8083F701808181603B
:102560008083808188608083F60180818E7F808374
:10257000F801808180618083EAE00C942E36A0E02F
:10258000B0E0E5ECF2E10C941A36E09197039091FB
:10259000960329E0E91304C080E0E2E00C943636AB
:1025A000AE2FB0E02E9FF0011124E856FC4F318190
:1025B000361306C03081381303C03581341304C08C
:1025C000FD013196E770E6CF81E0E7CFA0E0B0E013
:1025D000ECEEF2E10C941A3631B33D7F21B3226068
:1025E0004FB7F89484E692E0FC010196508168E0D0
:1025F00021BB000000C057FF31BB550F000000C0D9
:1026000000C000C031BB00C06A9591F752E082382B
:10261000950751F74FBF8FE594E00197F1F700C0A0
:102620000000E2E00C943636A0E0B0E0EAE1F3E12D
:102630000C941A3681E08093E00080E28093D80009
:102640001092C9008FE19EE40197F1F700C00000ED
:1026500087E090EBDC018093EB039093EC03A09375
:10266000ED03B093EE0388E19CE00FB6F894A895D3
:10267000809360000FBE90936000FFCFA0E0B0E0B9
:10268000E4E4F3E10C9416367B018A019091E902AF
:10269000943059F58093E9008FEF9091E80095FD13
:1026A00006C095ED9A95F1F700008A95B1F78091F3
:1026B000E80085FF1AC03ADD811112C08091E80060
:1026C00085FD06C08091E8008E778093E800F3CF07
:1026D000F70181917F018093F1000150104071F763
:1026E0008091E8008E778093E800E6E00C94323623
:1026F000A0E0B0E0EEE7F3E10C941A36792F6032F7
:1027000029F440E250E0682F82E0B8DFE2E00C9468
:102710003636A0E0B0E0EFE8F3E10C9418368C0117
:1027200048E050E0BC0181E0A9DF88E0F801A4E5C1
:10273000B2E001900D928A95E1F7E4E00C94343612
:10274000A0E0B0E0E6EAF3E10C941A36BC0146E002
:1027500050E084E093DFE2E00C943636A0E0B0E095
:10276000E4EBF3E10C941A36BC0143E050E084E062
:1027700085DFE2E00C943636A0E0B0E0E2ECF3E175
:102780000C941A369091EA0392FB222720F928171D
:1027900079F080FB92F99093EA036091E9037091DC
:1027A000EA0384E090E00E94A43682E00E949A0648
:1027B000E2E00C943636A0E0B0E0E1EEF3E10C94F8
:1027C0001736062FF22E632F8430D0F40A30C0F46F
:1027D0004830B0F490E1099F80011124040F111DCD
:1027E000040F111D90EA899F000D111D1124C801CD
:1027F00089960E948A366F2DC8018A960E948A3671
:10280000E5E00C943336A0E0B0E0E9E0F4E10C94AC
:102810001636962FF42EE22E632F8430E8F49111B1
:102820001BC024E0829F8001112407551D4F81E0C9
:1028300084279801280F311D280F311DC9010E94DE
:102840008A3681E090E0F11002C083E090E06E2DC6
:10285000800F911F0E948A36E6E00C943236A0E089
:10286000B0E0E5E3F4E10C94183610918C0380910C
:102870009003182B80918B038115F1F06DDA209174
:10288000940330919503821B930B8838934110F089
:102890000E94CD0600918B0320E08EE392E0FC01C4
:1028A0003081019631112F5F32E084349307B9F7FC
:1028B00021110E94CD06102B10933C0248E050E0FD
:1028C00062EF72E08CE392E00E944A36892BB9F005
:1028D00088E0ECE3F2E0A2EFB2E001900D928A957D
:1028E000E1F7E091F002F091F102309741F00280BF
:1028F000F381E02D309719F08CE392E00995E4E044
:102900000C943436A0E0B0E0E8E8F4E10C94193619
:1029100010928C0316E0EEE3F2E0DF01812F1D92AE
:102920008A95E9F780E090E088D980E090E0ADD921
:102930001092900394DFEEE1F3E0DF011D921A950F
:10294000E9F710921C0310921B0310921D0354DA36
:10295000E3E00C943536A0E0B0E0E1EBF4E10C9458
:102960001A36D0DF2FEF84E39CE021508040904066
:10297000E1F700C0000088E19CE00FB6F894A8954C
:10298000809360000FBE90936000FFCFAAE2B0E09A
:10299000ECECF4E10C9419368CE492E0FC01019625
:1029A0002091F100208322E084359207B9F78091CD
:1029B0004D02893009F457C0C8F4823009F4B2C01E
:1029C000833009F482C0813081F18091E80083FF77
:1029D000E6C080914C0290914D029A3008F0DFC021
:1029E000E92FF0E0EC52F94C0C94ED358A3009F403
:1029F00089C08B3051F780914C02813231F7809140
:102A0000500290915102892B01F78091E800877F55
:102A10008093E80064DB81E090914E02911101C047
:102A200080E080930C016EDFD0CF80914C02813A20
:102A300061F68091E800877F8093E80080915002E2
:102A400090915102892B59F060E080E090E070E0B5
:102A5000E5DA8091E8008B778093E800B6CF68E0F4
:102A600084E592E0F4CF80914C02813209F0ADCF41
:102A700080915002909151028D7F892B09F0A5CF52
:102A80008091E800877F8093E8008091E80082FFD2
:102A900017C09091F3008091F200029731F4809179
:102AA000F100813011F0863021F48091F1008093A3
:102AB0000B018091E8008B778093E80010DB85CFD5
:102AC0008091E9028111E1CF80CF80914C02813A5F
:102AD00009F07BCF8091500290915102892B09F02F
:102AE00074CF8091E800877F8093E8008091E800B0
:102AF00080FFFCCF80910C018093F1008091E80071
:102B00008E77DACF80914C02813209F05ECF8091CE
:102B1000E800877F8093E800E2DA80914F0280939B
:102B20000A0153CF80914C02813A09F04ECF809137
:102B3000E800877F8093E8008091E80080FFFCCF69
:102B400080910A01D9CF803889F0823841F580918F
:102B500050028F70873018F58093E9008091EB0068
:102B600085FB882780F91092E90006C080919602C3
:102B7000880F90914902892B9091E800977F90935C
:102B8000E8008093F1001092F1008091E8008E77C8
:102B900023C0811116C080914E02813009F18091CD
:102BA000E80083FF0AC08091E800877F8093E800F7
:102BB0008091EB0080628093EB00AA96E3E00C9496
:102BC0003536823061F780914E02811581F0109286
:102BD000E9008091E800877F8093E80080DADFCF0A
:102BE00081E0933009F080E080939602F0CF8091ED
:102BF00050028F702FEF280F263088F68093E9005F
:102C00002091EB0020FFE3CF933031F48091EB0073
:102C100080628093EB00DBCF9091EB00906190930A
:102C2000EB0021E030E0A90102C0440F551F8A9556
:102C3000E2F74093EA001092EA008091EB0088608E
:102C4000E8CF8111ACCF10914E021F778091E30045
:102C50008078812B8093E3008091E800877F8093C8
:102C6000E8003DDA8091E80080FFFCCF8091E3002E
:102C700080688093E30083E0111101C082E08093BB
:102C8000E9028DCF8058823008F089CF80914E02C2
:102C900090914F028C3D53E0950791F583E08A8334
:102CA0008AE289834FB7F894DE01139620E03EE074
:102CB00051E2E32FF0E050935700849120FF03C0CE
:102CC00082958F703F5F8F708A30C0F0895C90E092
:102CD0008D939D932F5F243161F74FBF8091E80062
:102CE000877F8093E8006AE270E0CE01019696D972
:102CF0008091E8008B778093E80051CF805DE7CF2B
:102D0000292F33272330310509F44EC078F52130BF
:102D1000310509F488C08BE590E0EDE3F2E0223064
:102D2000310509F03CCF2091E800277F2093E8008F
:102D300020915202309153028217930708F49C01AC
:102D400040E02115310509F073C0411171C0809137
:102D5000E80082FDCDCF8091E902811549F28530EE
:102D600039F28091E80083FFF2CFC2CF8091500208
:102D7000909151022132310509F446C022323105C9
:102D800009F00DCF8330910508F009CFFC01EE0F5B
:102D9000FF1FE75DFE4F0190F081E02D8A5D9E4FA1
:102DA000DC018C9190E010C09C013327823021F12E
:102DB0002330310568F4232BB9F4EEEEF2E0E49110
:102DC0008E2F90E0EEEEF2E0009709F4E8CEABCF64
:102DD0002330310509F0E3CEEAEAF2E0E4918E2FE8
:102DE00090E0EAEAF2E0F0CFE2EEF2E0E4918E2F3A
:102DF00090E0E2EEF2E0E8CFE8ECF2E0E4918E2F32
:102E000090E0E8ECF2E0E0CF8330910508F0C7CE27
:102E1000FC01EE0FFF1FE15DFE4F0190F081E02D00
:102E200089E090E080CF82E190E0E8E9F2E07BCFBA
:102E30008091E902811509F45BCF853009F458CF00
:102E40008091E80083FD54CF8091E80082FD7FCF20
:102E50008091E80080FF75CF9091F3008091F2009F
:102E60002115310519F08830910550F041E008979F
:102E700009F040E08091E8008E778093E80061CF10
:102E800044914093F1003196215031090196E8CFE9
:102E9000803809F084CE8091E800877F8093E80035
:102EA00080914A028093F10070CE811178CE10910A
:102EB0004E02123008F073CE8091E800877F809335
:102EC000E80010934A020BD91115D9F084E08093E1
:102ED000E90242E061EC81E0BCDA42E261EC84E0CC
:102EE000B8DA42E261EC82E0B4DA42E260EC83E01C
:102EF000B0DA8091E902843051F482E080930D01D0
:102F00004ECE8091E30087FDE1CF81E0E0CF81E00C
:102F1000F5CFA0E0B0E0EFE8F7E10C941936182FF8
:102F20008115B9F08238C1F40E94130E81FD11C0E1
:102F300089E30E946D0E93DC2FEF37EE83E0215082
:102F400030408040E1F700C0000089E30E948D0E10
:102F500086DCE3E00C943536833899F40E94130E36
:102F600080FDF7CF83E50E946D0E79DC9FEF21EEA7
:102F700034E0915020403040E1F700C0000083E58C
:102F8000E5CF843899F40E94130E82FDE2CF87E4E6
:102F90000E946D0E64DC8FEF91EE24E08150904032
:102FA0002040E1F700C0000087E4D0CF8CEF810F14
:102FB000813A70F4EEE3F2E084E492E0219112179A
:102FC000E1F18E179F07D1F7812F0E946D0EC0CFC0
:102FD00080E2810F883070F4177021E030E0012E1C
:102FE00001C0220F0A94EAF780918C03822B809310
:102FF0008C03AECF8BE5810F833038F4212F245220
:10300000330BC9010E941D0EA4CFE8E5E10FEB319F
:1030100050F4F0E0EE0FFF1FED5FFD4F80819181D6
:103020000E94450E96CF83E3810F833108F091CF44
:1030300061E0812F0E942D0F8CCF812F0E948D0E79
:103040000EDCC2CFA0E0B0E0E8E2F8E10C941A3662
:10305000811571F0823879F40E94130E81FF08C047
:1030600089E30E946D0EFBDB89E30E948D0EF7DB86
:10307000E2E00C943636833851F40E94130E80FF40
:10308000F7CF83E50E946D0EEADB83E5EECF84384F
:1030900051F40E94130E82FFEBCF87E40E946D0E65
:1030A000DEDB87E4E2CF9CEF980F913AF0F290E2FA
:1030B000980F983050F4877091E001C0990F8A956D
:1030C000EAF7892F0E94BD06D2CF9BE5980F933077
:1030D00028F480E090E00E941D0ECACF98E5980F7A
:1030E0009B3128F480E090E00E94450EC1CF93E32D
:1030F000980F933108F0BCCF60E00E942D0FB8CF3D
:10310000EF92FF921F93CF93DF93CDB7DEB7182FC7
:103110007B01FFDEE114F10441F4812F93DFDF91A5
:10312000CF911F91FF90EF9008958FE99FE0019755
:10313000F1F700C0000091E0E91AF108EBCFA0E040
:10314000B0E0E5EAF8E10C941A36811531F090917F
:103150008C03892B80938C0382DBE2E00C9436365F
:10316000A0E0B0E0E6EBF8E10C941A36811519F016
:103170000E94BD0674DBE2E00C943636A1E0B0E0BC
:10318000E4ECF8E10C941436162F042FF22E81157E
:10319000A1F0609388030E94AC0E90934802809344
:1031A0004702177081E0012E01C0880F0A94EAF7E8
:1031B000C6DF2196E8E00C943036809188036813CE
:1031C00035C0C0904702D09048020E94AC0E8C19C6
:1031D0009D09883C910550F580E2800F8983101786
:1031E000A9F01770EE24E3948E2D012E01C0880FF4
:1031F0000A94EAF7B5DF8981883040F4802F877020
:1032000001C0EE0C8A95EAF78E2D99DF6AE070E036
:103210008F2D76DF8981883060F6077081E0002E7F
:1032200001C0880F0A94EAF79BDFC3CF177081E0D3
:10323000012E01C0880F0A94EAF7F6CFA0E0B0E0B3
:10324000E4E2F9E10C941A36811531F09091900383
:10325000892B8093900303DBE2E00C943636A0E0E8
:10326000B0E0E5E3F9E10C941A36811539F0809568
:1032700090919003892380939003F1DAE2E00C941B
:103280003636A0E0B0E0E7E4F9E10C941A3680911C
:103290008403811521F082E2E2DF10928403E2E0F0
:1032A0000C943636A0E0B0E0E8E5F9E10C9416366F
:1032B000843018F56A3008F54830F8F420E1629F50
:1032C00080011124040F111D040F111D30EA839F8A
:1032D000000D111D1124C80189960E946E36E82E3A
:1032E000F12CFE2CEE24C8018A960E946E369701BE
:1032F000282BC901E6E00C94323680E090E0FACF4A
:10330000A0E0B0E0E6E8F9E10C941536D42E843064
:1033100040F5611126C024E0829F7001112437E539
:10332000E31A3DEFF30A81E084279701280F311D4E
:10333000280F311DC9010E946E36082F10E0102F92
:10334000002781E090E0D11002C083E090E08E0D74
:103350009F1D0E946E369801282BC901E7E00C944E
:10336000313680E090E0FACFA0E0B0E0EAEBF9E19E
:103370000C941A36462F672F2091EC023091ED0203
:10338000232B41F4703F49F48091EA029091EB02C3
:10339000403F51F080E090E007C07A3040F4483080
:1033A000C8F78430B8F77EDFE2E00C9436367D3F14
:1033B00041F44111EFCF41E0843060F760E0A0DFDD
:1033C000F3CF7C3F39F74111E5CF843018F7F6CFC2
:1033D000A0E0B0E0EEEEF9E10C9413366C01E09061
:1033E0008F0380918E03E82A03E010E0F12CC701DF
:1033F000002E02C0959587950A94E2F780FD08C0DB
:1034000001501109A0F7B12C8B2DE9E00C942F3657
:10341000B02EB601802FA8DF0E94E007019781F34C
:10342000F3CFCF92DF92EF92FF921F93CF93DF9370
:10343000CDB7DEB7FC01E780F084E114F10491F42C
:103440008581C080D1808115B1F06115A1F0C601E0
:10345000BFDF182F682FC6010E941C06B601812FFE
:1034600083DF7C01C701DF91CF911F91FF90EF9027
:10347000DF90CF900895C6010E943E06182FEECF30
:10348000A0E0B0E0E6E4FAE10C9418368C01A0DF8D
:10349000B8016ADF0E94E007E4E00C943436A0E053
:1034A000B0E0E5E5FAE10C941A36FC01848181155F
:1034B000B9F0878190850097A9F00E94E007282F36
:1034C00092959F709630D1F088F4925F9F70923001
:1034D00038F481E0203F79F058F481E0283E58F03C
:1034E00080E009C080819181CBDFE9CF9A5FEECF88
:1034F00081E0243FA9F7E2E00C94363691E0813F69
:1035000009F090E081E0283E08F080E0892BF3CFBD
:10351000A0E0B0E0EEE8FAE10C9418368B019C01D3
:10352000073181E018072105310540F4CB018751AF
:103530009D4F0E946E36E4E00C94343680E0FBCF61
:10354000A0E0B0E0E6EAFAE10C941A3685E290E0F9
:103550000E946E36873599F486E290E00E946E36BE
:103560008A3669F487E290E00E946E3691E0843AF0
:1035700009F090E0892F8170E2E00C94363680E00B
:10358000FACFA6E0B0E0E7ECFAE10C9415360EE2D3
:1035900013E089EBE82E82E0F82E98E0D92E46E081
:1035A00050E0B701CE0101960E945E36F8018D2DE4
:1035B00011928A95E9F7B8016C5F7F4F89819A81F2
:1035C0000E946F0CF80191838083B8016B5F7F4F7D
:1035D0008B819C810E946F0CF801938382838D8183
:1035E00086838E818783F6E0EF0EF11C085F1F4F04
:1035F00089EEE81682E0F80691F62696E7E00C944C
:103600003136A6E0B0E0E7E0FBE10C940D36A09087
:10361000E702B090E80281E090E09093E8028093A6
:10362000E70232E7E32E35E0F32EC12CD12C10E077
:10363000360100E014C0F40125913591452D602F2D
:10364000812FB9D822E0820E911C539438E0531296
:10365000F2CF88E0680E711C0F5F0A3049F0C30199
:10366000880F991FDC01AE50BD4F4D01512CE3CFA7
:10367000F7012591359141E060E0812FC4D8F70131
:1036800032962591359140E060E0812FBCD8B4E0BE
:10369000EB0EF11C1F5F20E5C20ED11C143009F0A7
:1036A000C7CFFE01319686E0DF011D928A95E9F7CA
:1036B00009EB12E07F0146E050E0B801C7010E942B
:1036C000A8360A5F1F4F093EB2E01B07A1F7B09270
:1036D000E802A092E7022696EFE00C942936A0E0DB
:1036E000B0E0E5E7FBE10C9411368C01F801808134
:1036F000811589F1813009F056C08181813089F4CA
:1037000082810D5F1F4F60E570E0893311F06AE040
:1037100070E0F6DC8FE39CE90197F1F700C0000050
:10372000E5CF823029F482810D5F1F4FF2DBF2CFAB
:10373000833029F482810D5F1F4F84DCEBCF84300E
:1037400069F00E5F1F4FEFE3FCE93197F1F700C01E
:1037500000008111CBCFEBE00C942D3682810D5F00
:103760001F4F20E030E09AE0682F6053770BAB01E9
:103770006A30710560F02115310529F3EFE9FFE0AA
:103780003197F1F700C0000021503109F4CF929F2A
:10379000B001939F700D11249A01260F371FF80175
:1037A00081918F01E1CFE82FF0E0E354FE4F949038
:1037B000282F26952695269530E0F901E355FE4FF2
:1037C000C4908770D12C082E02C0D594C7940A9457
:1037D000E2F7C0FACC24DD24C0F8F901E356FE4F2D
:1037E000A490B12C082E02C0B594A7940A94E2F7D5
:1037F000A0FAAA24BB24A0F8F901E357FE4FE490F5
:10380000F12C02C0F594E7948A95E2F7E0FAEE24F1
:10381000FF24E0F8C114D10441F081EE7ADB8FE39C
:103820009CE90197F1F700C00000A114B10441F038
:1038300086EE6FDBEFE3FCE93197F1F700C00000A3
:103840006AE070E0892D5CDC8FE39CE90197F1F779
:1038500000C00000A114B10441F086EEF3DBEFE3F9
:10386000FCE93197F1F700C00000C114D10441F028
:1038700081EEE8DB8FE39CE90197F1F700C00000DF
:10388000E114F10451F06AE070E08CE239DCEFE31E
:10389000FCE93197F1F700C000000F5F1F4F26CF02
:1038A000A9E0B0E0E6E5FCE10C940A368C01DC010D
:1038B00014968C91811509F4C0C061E0C801B1DD96
:1038C0007C0180918303811136C0F80185818115C7
:1038D00009F468C0E114F0E5FF0608F04DC0E114FA
:1038E00020E2F20608F0ADC0E11437E0F30619F16A
:1038F000F0F4C701805E91090897E8F030918C03DD
:103900008091900320918B0399E0F801AFE6B3E03A
:1039100001900D929A95E1F7F0927703E092760389
:1039200010927903832B822B80936E0304C0E114E1
:103930005FE0F50619F7F8014581411184C153E7AD
:10394000E5165CE7F50609F467C0A2EAEA16A2E507
:10395000FA0609F496C208F06BC2C70190528115AD
:10396000904208F480C2B1EEEB16F10409F489C26A
:10397000E5EEEE16F10460C290EEE91692E5F90666
:1039800050F4A0E6EA16A2E5FA06A8F6C701925599
:1039900080349105B2CF970127573C472530310538
:1039A00008F0ACCFF9E7EF16FCE7FF0609F04DC0D1
:1039B0002091760330917703232B71F1811599F0D3
:1039C00081E00E94C60D80916E0338DC89E0EFE64D
:1039D000F3E0A5E2B3E001900D928A95E1F78091C2
:1039E00079038093240386E0F801A5E2B3E0019017
:1039F0000D928A95E1F7809124038093830385E2F9
:103A000093E04EDF10928303D80115968C918111BB
:103A100003C080916E0323DC809191038770811530
:103A200061F0D80115968C91811539F08091EA03E7
:103A300082FF03C082E00E949A062996E2E10C947C
:103A40002636F8018681803158CFBAE7EB16BCE7FD
:103A5000FB0609F070CF811509F4CAC0A090760367
:103A6000B0907703E0916E03E887E983BE016F5F52
:103A70007F4FC5010E946F0C2C01F981F987FEE28E
:103A8000CF2EF3E0DF2EEE24E394F12C22242A94AF
:103A9000D60117963C90179733FE54C06D907C90DA
:103AA000119712968D909C90139746145704B9F471
:103AB0001496BC91BF83232DF60146816B2F898517
:103AC0000E94920C811559F08F810E945005281692
:103AD00034F4D60115969C917401F92A282E4814C5
:103AE0005904C9F431FE17C0F601F581FF83232D77
:103AF000D60116964C916F2F89850E94920C8115E4
:103B000051F08F810E94500528162CF4F601948103
:103B10007301F92A282E30FE15C0FFEF2F1212C0B4
:103B200021E0E216F10471F4232DD60116964C9192
:103B300060E089850E94920C811521F0F601858153
:103B40007401F82AF8E0CF0ED11C2EE633E02C15D4
:103B50003D0509F09DCF31E0E316F104F1F59885BC
:103B600092959F704885942B9F7081E0403108F4B6
:103B700080E0F82EF294E0EFFE22F92AA11450E240
:103B8000B50620F5A11481E0B80608F055C0EA2C6E
:103B90008F2D8D704A2D811509F451C06AE08CEB90
:103BA00099E00E94DF0D282F30E02115310551F4F6
:103BB0004E2D6EE186E999E00E94DF0D282F30E05E
:103BC000811549F0F901FF297F0107C0C501905215
:103BD0008115904390F1E12CF12C87E0EAE7F3E0C6
:103BE000DF011D928A95E9F7F0928203E09281034A
:103BF0008091810390918203892B09F40DCFF80104
:103C00008581811539F08FEF0E94C60D809179036F
:103C10008093780386E0F801AAE7B3E001900D9263
:103C20008A95E1F780917803809383038AE793E094
:103C300037DE10928303F0CEFB28BB24A8CF68E0C8
:103C400084EB99E0AECFC70197578038910508F013
:103C5000FCC6BE2CF0E1EF1608F0DECE66E171E0A6
:103C600080E090E055DC8111D7CEC12CD12C7601BB
:103C7000B11042C074E0272EAE014F5F5F4F5E83EC
:103C80004D83AD81BE81E22D1D92EA95E9F7460193
:103C90005701FFEF8F1A9F0AAF0ABF0AC701B6018B
:103CA00037DC8983811509F4B7CE813009F0ACC0C7
:103CB0002601370122E0420E511C611C711CC50116
:103CC000B40126DC382E8A83811509F4A5CE8FEF46
:103CD000830D833028F5C301B2011ADC8B83811573
:103CE00019F0CE010196FBDC4601570133E0830E4B
:103CF000911CA11CB11C51C027E1C21621E0D206C3
:103D0000E104F10409F488CEC701B60101DC3FEFFC
:103D1000C31AD30AE30AF30A8111EECFBA94A8CFEB
:103D20008BEF830D8330E0F54601570143E0840EAD
:103D3000911CA11CB11CC301B201EADB8B8381156C
:103D400061F1C501B401E4DB8C838115F9F0AB802E
:103D5000BC8051E0A5165FEFB50610F0BA2CAA247E
:103D600086E0381681F097E0391649F0C5010E94C7
:103D70009C27AFE3BCE91197F1F700C00000C50133
:103D80000E94CE2703C0C5010E949C27460157010F
:103D900054E0850E911CA11CB11C7501640171CF0A
:103DA000B4E0530142013B12F8CFC301B201B0DBD2
:103DB000782E46015701E4E08E0E911CA11CB11C27
:103DC000C701B6016D5F7F4F8F4F9F4FA1DB71140D
:103DD00009F422CE811509F41FCE8150990B4FEFC3
:103DE000489F9001499F300D1124472D4150550B9C
:103DF000240F351F2150310980F28FE99FE0019790
:103E0000F1F700C00000F6CFCE01019668DCC5CF07
:103E100010928C030E94CD060E94AC0E88579C4ED7
:103E2000909386038093850381E080938403F4CD8F
:103E3000F2EBEF16F2E5FF06E9F525EE30E027702C
:103E4000332781E090E001C0880F2A95EAF720919E
:103E50008703309184033115E1F04115A9F0282B37
:103E600020938703D9CDD80116968C91803110F517
:103E70008F2D99278F7199278230910511F04297E4
:103E8000DBCF21EE30E0DBCF809582238093870368
:103E9000C3CD322F3823311569F0982F9095922396
:103EA000909387030E94BD06D80115968C918115C9
:103EB00009F4B2CD80918403811509F4CFC0C0907C
:103EC0008C03D0908B030E94AC0E88579C4E90932D
:103ED000860380938503F8018581811509F4BEC0AE
:103EE0008D2D8C298D79811190C0E114F0E5FF06AC
:103EF00008F5E11420E4F20608F099C036EEE31666
:103F0000F10409F449C0C70190528115904208F0AC
:103F100095C0D80116968C91803108F46EC0C70107
:103F20009927109290038D32910509F582E08093D4
:103F3000900388C0B0EEEB16B2E5FB0608F04DC06A
:103F4000E0ECEE16E2E5FE0638F5F0EAEF16F2E5F3
:103F5000FF06E8F420E6E21622E5F206E8F4C701DF
:103F6000925580349105C0F010929003C7018E32B3
:103F7000910508F080C08832910508F061C08E314B
:103F8000910508F05FC004974A9780F23EC034EB79
:103F9000E31632E5F30641F7D80115969C91911589
:103FA00009F42BC51092880397013057233231054D
:103FB00008F032C584E090E00E9476369093EA03E0
:103FC0008093E903F701E150F047E232F10508F090
:103FD00074C0E252F94C0C94ED3549E7E4164CE715
:103FE000F40630F457E7E5165CE7F506A8F6BCCF13
:103FF0008BE7E8168CE7F806CECF8F2D8F718431D2
:1040000059F2863159F4109290033BD980918C0378
:1040100090918703892B80938C0320C032D98091A3
:104020008C0390918703892B80938C03B5CFD801A3
:1040300016968C91803108F072CFAECFC70171CF48
:104040008A9719F780918703811531F08091900349
:1040500092E08927809390030E942F14F8018581B4
:10406000F701E851FC47E730F10508F095CFE05043
:10407000F94C0C94ED358C34910521F38D3292403E
:10408000E0CF26E241EE61EE79D8C6CC27E245EEDC
:1040900065EEFACF26E241EE60EEF6CF27E245EE7E
:1040A00064EEF2CF26E241EE62EEEECF27E245EE7D
:1040B00066EEEACF28E241E0EBCF8091E903816030
:1040C0008093E9036091E9037091EA0384E090E052
:1040D0000E94A4360E9482149FCC8091EA038860DB
:1040E0008093EA03EFCF8091E9038260E9CF80916A
:1040F000E9038460E5CF8091E9038860E1CF809196
:10410000EA038160EDCF8091EA038260E9CF80917C
:10411000E9038061D5CF8091E9038062D1CF80919E
:10412000E9038064CDCF0E9482148091E903806806
:10413000C7CF8091E9038C60C3CF8091EA0383608D
:10414000CFCF8091E9038E7FBBCF8091EA03877F39
:10415000C7CF8091E9038D7FB3CF8091E9038B7F37
:10416000AFCF8091E903877FABCF8091EA038E7F49
:10417000B7CF8091EA038D7FB3CF8091E9038F7E23
:104180009FCF8091E9038F7D9BCF8091E9038F7B47
:1041900097CF0E9482148091E9038F7791CF80910D
:1041A000E903837F8DCF8091EA038C7F99CF809143
:1041B000E903992782FF939590FB82F990FB83F99D
:1041C0007FCF8091EA03982F909590FB80F990FB28
:1041D00081F986CF9091E903892F8F7B96FF8064C8
:1041E0006FCF0E9482149091E903892F97FB87F982
:1041F000805866CF61E08EE090E00E948A3662CF00
:1042000060E0F9CF9091E903892F8F7E94FF806160
:1042100057CF9091E903892F8E7F90FF816050CF17
:104220009091EA03892F877F93FF886059CF89E2B5
:1042300006C489E2EEC380918C038272F701E054D8
:10424000F847ED30F10508F04EC0E95FF84C0C94EA
:10425000ED358272F701E052F847EB30F10508F0D6
:1042600042C0EC5EF84C0C94ED350E94340BD4CB7C
:10427000811511F10E94A80BCFCB811511F10E947D
:10428000E30BCACB811511F10E940A0CC5CB811535
:1042900011F10E94340CC0CB811511F10E945C0C0D
:1042A000BBCB0E94470B81E00E94030BB5CB0E9461
:1042B0005D0BF9CF8115F1F20E94950BADCB811505
:1042C000F1F20E94D10BA8CB8115F1F20E94F50BFF
:1042D000A3CB8115F1F20E941F0C9ECB8115F1F248
:1042E0000E94490C99CBB7E7EB16BCE7FB0609F136
:1042F000E8E7EE16ECE7FE0639F19701205E32455D
:104300002032310530F5911124C0FE2DFF7181E07E
:1043100090E09C0102C0220F331FFA95E2F7790169
:10432000622F83E090E00E948A368E2D0E947605EF
:1043300073CB81E0911551F00E948C0543E062E05F
:1043400081E00E94600668CB82E0F4CF0E949F0566
:10435000F5CF40918A0380918F03282F30E020957C
:10436000309570E024233723232B19F04823409302
:104370008A033BE7E3163CE7F30641F4911509F4A1
:104380004BCB0E945B050E942E0D46CB40E4E41609
:1043900042E5F40608F05AC050E2E51652E5F5068B
:1043A00008F05BC0E11480E5F80670F5E114A0E4C4
:1043B000FA0608F068C0911509F47DC0FAE5EF1619
:1043C000FCE7FF0609F4D5C008F0B7C031E0E316FA
:1043D0003CE7F30609F4CBC043E0E4164CE7F406EF
:1043E00009F4BFC0E1145CE7F50609F064C00E945F
:1043F0008214AFEFB4E3ECE0A150B040E040E1F74D
:1044000000C000000E94141397013055211532405E
:1044100090F6970145E0369527954A95E1F7822F6A
:104420008F7020918A0330E041E050E0082E02C0F6
:10443000440F551F0A94E2F724233523232B09F454
:10444000BACF9111A0CF10928C03FBC29701205CD0
:1044500032452032310508F0AECF8E2D8F7120917C
:104460008A0330E041E050E0082E02C0440F551F9F
:104470000A94E2F724233523232B09F49CCF9115CA
:1044800009F4CACA80CFF8018681803108F093CF41
:10449000911111C02F2D2F7081E090E002C0880F84
:1044A000991F2A95E2F720918A0330E08223932313
:1044B000892B09F0B1CAF80187819085009709F42A
:1044C0005CC00E94E0077C01F801B580A680A29440
:1044D0002FE0A222809191038770811509F1CB2CE6
:1044E000B114F9F08F2D807F803469F080E28E0D59
:1044F0008830B0F08F2D807E803229F4F2E0EF1604
:1045000078F0A11469F08091EA0382FF09C082E08B
:104510000E949A06809191038770CC24C3948111E4
:10452000C12CEF2DE295EF7020ECF21608F09EC042
:10453000F0E0E15EF84C0C94ED358BE5E8168CE785
:10454000F806C9F08091EA03002482FF0394802DCD
:104550009CE5E9169CE7F90609F0ADCF0E94BC1373
:10456000AACF6FEF7FEF80E090E00E94A4360E9418
:10457000AB1481E0F3CF80E0F1CF8581C080D180A2
:10458000811569F0C6010E94E819F82E682FC6014E
:104590000E941C06B6018F2D0E94B41992CFC6014D
:1045A0000E943E06F82EF6CF3F2D3F70D32E40E1FD
:1045B000F41618F0D29490EFD922B114B9F0D114B6
:1045C00069F080E28E0D883010F0E11009C0809112
:1045D0008C038D2980938C030E942F148E2D44C050
:1045E000809190038D2980939003F6CF8E2D0E94A9
:1045F0002218D114D9F180E28E0D883010F0E1102C
:1046000004C08D2D0E94BD0606C0D09480919003F9
:104610008D21809390030E942F1428C05F2D5F701E
:10462000D52E8F2D807F803219F0D29480EFD82242
:10463000E11451F081E0E81609F484C0B11409F4E2
:1046400090C0A114B1F1CACF8091EA0382FD2DC0C0
:10465000B11429F1D11439F080918C038D29809304
:104660008C030E942F1480E00E948917C11409F462
:10467000DFC08091910380FDDBC0D80115961C92AC
:104680008695869586950E948C05C80109D98091EA
:1046900091038695869586950E949F05C9C080E006
:1046A0000E942218D11411F3ACCFB11469F1A110FA
:1046B00004C08D2D0E949F18D9CF91E0A91210C07F
:1046C000F0908B038D2D8F21D81681F20E94AC0EB5
:1046D0009093950380939403FD28F0928B03C6CFAB
:1046E000A5E0AA12C3CF8D2D0E949F188D2D0E9488
:1046F000DF0E80918D039D2D9823D91609F4B6CF36
:104700008D2980938D03B2CFA11012C08D2D0E94F0
:10471000B0188D2D0E94DF0E80918D039D2D982362
:10472000911509F4A3CFD094D822D0928D039ECFB7
:10473000B1E0AB129BCF80918C038D21811509F4E0
:1047400095CFE4CFB11429F0E6E0AE1608F08ECF95
:10475000B0CFF5E0AF1608F089CF8D2D0E94B018CC
:1047600085CFA114D1F329E3E2120DC03FEF47EE4C
:1047700053E0315040405040E1F700C000008E2D22
:104780000E94221873CF8FE39CE90197F1F7F5CFD0
:104790008F2D869586958370811561F0813009F0A3
:1047A00065CFC7019370B11002C080E090E00E9415
:1047B000450E5CCFC7019370B11002C080E090E05D
:1047C0000E941D0E53CF6B2D8E2D0E942D0F4ECFAC
:1047D0008F2D8370811139C0B11028C04E2D4295A4
:1047E00046954770440F440F8E2D8F70042E01C0E4
:1047F000880F0A94EAF72E2D2071E4FE07C02FE0FF
:1048000030E001C0220F4A95EAF720953F2D3695FA
:10481000369533703230A1F0333081F040918E0301
:10482000313059F0822B84230E9476050E94FC0DC2
:1048300060E0C8010E94111A00C9842B822BF4CFBA
:10484000822B90918E038927EFCFB11459F1F0FE9E
:10485000EDCF4E2D429546954770440F440F8E2D57
:104860008F70042E01C0880F0A94EAF72E2D207154
:10487000E4FE07C02FE030E001C0220F4A95EAF7BE
:1048800020953F2D369536953370323089F0333090
:1048900069F040918F03313041F0822B84230E94D4
:1048A0008105C4CF8230A8F6C1CF842B822BF7CFED
:1048B000822B90918F038927F2CF9F2D9F70F92E25
:1048C000B11439F0892F0E948C058E2D0E949F18FB
:1048D000ADCF8E2D0E94B0188F2D0E949F05A6CFC0
:1048E000A2EFEA16A1F1B3EFEB1680F4E0EFEE16BB
:1048F000E1F0F1EFEF16A1F0B11409F467C0A114D3
:1049000009F461C08E2D0E94891790CF23EFE21623
:1049100029F134EFE312F0CF8091EA0382FD2AC03F
:104920008F2D8F71B114C9F216C0B11469F045E032
:10493000A41608F07BCF2F2D2F7181E090E001C0ED
:10494000880F2A95EAF7B5CF56E0A516F2CF8F2D3E
:104950008F71B110C2CF0E948C0568CF80E0B11476
:1049600009F49DCF9F2D9F7181E001C0880F9A951A
:10497000EAF795CFB114C1F080919103877084302C
:1049800049F41092910310929303109292038F2D89
:104990008F71A3CF85E063E0A81608F047CF8F2D75
:1049A0008F710E94C00E42CF95E0A91640F0109280
:1049B0009103109293031092920364E0F0CF81E090
:1049C0000E949A0633CF8F2D8F71C5CFA114F9F2B3
:1049D000A9E3EA120DC0BFEFE7EEF3E0B150E0400B
:1049E000F040E1F700C000008E2D0E9422181ECF7B
:1049F0008FE39CE90197F1F7F5CFF6E1EF16FCE7BD
:104A0000FF0609F018CC80918903811509F411CCB7
:104A100085E30E948D0E15C080918C0326E1E2167D
:104A20002CE7F20609F015CC8A7A91E0811101C0D9
:104A300090E090938903811509F4F9CB85E30E94F6
:104A40006D0E0E942F140C940C1D33E7E3163CE707
:104A5000F30611F00C94A51C80918403811509F4D0
:104A6000D7C90E9441190C940C1DA0E0B0E0EBE303
:104A7000F5E20C941A368091E603803108F048C0C4
:104A80008091E503811509F443C0E09197032091DB
:104A900096033091E1034091E00359E02E17C1F1F4
:104AA0006E2F70E05E9FF0011124DF01A856BC4F0D
:104AB00014968C911497811571F111968C91119720
:104AC000831329C08C91841326C015968C91159759
:104AD000811121C012968D919C91A091E203B09119
:104AE000E3038A1B9B0B883C9105A8F48091E603A5
:104AF0008F7080618093E603E256FC4F80818F7057
:104B00008061808380EE93E00E94501C0E948806A2
:104B1000E2E00C943636FB013196E770BFCFAFE090
:104B2000B0E0E5E9F5E20C940F368C0186E0F8017F
:104B3000DE011A9601900D928A95E1F7F801F58051
:104B4000848190EE892E93E0992E7090E403711089
:104B500017C0811591F0F11409F417C1C8010E9422
:104B60004F1A811509F411C189E0F801A0EEB3E0F4
:104B700001900D928A95E1F778DFFF24F39456C0F7
:104B8000D080A280B380C090E5032091E2033091F1
:104B9000E303A501421B530BC11409F4C6C0483CF2
:104BA000510508F079C0811541F38091E1039180AE
:104BB000E090E60350E1E51608F059C0981215C0E0
:104BC0008091E0038D1111C0F1104BC08E2D8F70BC
:104BD00080618093E60380EE93E00E94501C8091F8
:104BE000E603F8018683F12C21C0F1103AC040E0C1
:104BF000692D8D2D0E94BF1240E0692D8D2D0E94E0
:104C0000BF12F82E8111EFCF8A859B850E94401A32
:104C1000292F22952F70903470F49F702230A0F0CD
:104C20009115B1F0F8019681903190F48F2D2F9667
:104C3000EDE00C942B362A5F2F70223068F0C8010B
:104C40000E94501CFC2CF2CF911511F0811571F3CC
:104C5000805E883058F3F3CF803F40F3815F83302C
:104C6000F9CF8091E60381608093E603BCCF981270
:104C70003AC08091E0038D1136C0F11034C0E68255
:104C8000C8010E94501C89E0F801A0EEB3E0019039
:104C90000D928A95E1F771CFE090E60340E1E416CA
:104CA00050F480EE93E00E94501C89E0F4011192D0
:104CB0008A95E9F798CF811509F45FCF9091E103C8
:104CC0008181981310C08091E0038D110CC0F11008
:104CD0000AC0E682C8010E94501C89E0F4011192CA
:104CE0008A95E9F74ACFC8010E944F1A811509F445
:104CF0004CC0F11409F449C0F0E2EF1608F434CFC7
:104D00001E821F82188619868091E0039091E1032C
:104D10009A838983BC82AB827D828091E6038F83F4
:104D2000CE0101960E94501C1FCF483C510508F04F
:104D3000BCCF811509F421CFF11439F19091E10331
:104D40008181981318C08091E0038D1114C0809167
:104D5000E60380FD98CF803108F495CF8683807F6D
:104D6000803F09F48DCF8681982F907F905F8F7060
:104D7000892B868385CFC8010E944F1A8111F4CEFA
:104D80008091E60381608093E603C8010E94501C75
:104D9000F4CEA1E2B0E0EFECF6E20C9418364C8FC2
:104DA0005D8F6E8F7F8F88A3192F99A39111109219
:104DB0009003198E1A8E1B8E86E0FE017C96DE0112
:104DC000539601900D928A95E1F708A18091EA032C
:104DD00082FF1FC00E94AC0E20919203309193037A
:104DE000821B930B8838934138F08091910382FDA8
:104DF00003C082E00E949A060E94AC0E20919403A8
:104E000030919503821B930B8838934110F00E94D8
:104E1000CD06011561F00F8B188F61E0CE0143962E
:104E20000E94111A61E0CE0143960E94111A0F8B65
:104E3000188F89E0FE017396DE011A9601900D929B
:104E40008A95E1F7CE010A966ADE811110C02091A1
:104E500096033091970389E0FE013A96DE011196A0
:104E600001900D928A95E1F78E8581110BC019E0B2
:104E7000809197039091960389132BC0A196E4E04B
:104E80000C943436822F90E001968770992738175A
:104E9000190671F40E9482141092960310929703DF
:104EA00089E0E0EEF3E0DF011D928A95E9F7DFCFBC
:104EB00099E0929FD0011124A856BC4FFE01319673
:104EC00001900D929A95E1F7809396030E948806CF
:104ED000CECF189FC001112488569C4F20DE81152B
:104EE00069F28091970390E00196877099278093EB
:104EF0009703BECFA6E0B0E0E0E8F7E20C941836E6
:104F00000E94AC0E8C018091EE029091EF0280170E
:104F1000910771F019821A820E94AC0EBC0149817E
:104F20005A8180E090E035DF1093EF020093EE02AB
:104F30002696E4E00C943436A6E0B0E0E2EAF7E22C
:104F40000C9418368C019093EB028093EA020115C1
:104F500080E21807B0F4C801805E9109089728F034
:104F60006EE179E10115110511F46FE978E1C801ED
:104F70000E941C05802F0E9489172696E4E00C945D
:104F8000343680EF89838A830E94AC0E8160BC0135
:104F900049815A8181E091E0FCDEEFCFA6E0B0E0EC
:104FA000E4EDF7E20C9418368C019093EB028093B9
:104FB000EA02011580E21807B0F4802F0E9422183F
:104FC000C801805E9109089728F06FE279E1011528
:104FD000110511F460EB78E1C8010E941C052696CA
:104FE000E4E00C94343680EF89838A830E94AC0E0F
:104FF0008160BC0149815A8181E090E0CADEEFCF37
:10500000A0E0B0E0E6E0F8E20C941A3648E050E0A8
:1050100067E170E085ED92E00E947B361092940289
:10502000E2E00C943636A0E0B0E0E9E1F8E20C945E
:105030001A36E5EDF2E085E2808380911A019091C5
:105040001B01A0911C0181839283A3838FE784833A
:105050008FEF8583D5DFE2E00C943636A2E0B0E036
:10506000E4E3F8E20C9410360E94F10F60938202A0
:105070007093830280938402909385022091D502DD
:10508000122F1370111519F0122F169516953091D5
:105090000901323009F474C280F4311115C0109244
:1050A0000401609386027093870280938802909334
:1050B000890281E08093090103C0333009F469C299
:1050C0002296ECE00C942C3680910801181320C035
:1050D00023704091070150E081E02417150609F480
:1050E00080E0809306018091DA0290910501981783
:1050F00039F08093050140E060E080E00E941B0BE6
:10510000103188F4E12FF0E0E55DF84C0C94ED35BA
:1051100081E0E7CF80910601811529F040E060E051
:1051200080E00E941B0B80E0E4C0809104010E949B
:10513000250BC82E092F6091D6027091D70280915D
:10514000D8020E940A09F62EE72EB82ED12C0C1593
:1051500009F018F481E00A3039C0F601ED53FE4F32
:105160008081909105018923811531F02B2D4E2DE1
:105170006F2DC6010E94110B2FEFC21AD20AE7CF82
:10518000809104010E94250BC82EF92E0091D602B1
:105190009090D702D090D802602F792D8D2D0E944B
:1051A0000A09E62EB72EA82E8091D902602F680F2B
:1051B000792D8D2D0E940A09962E872E082FD12C2D
:1051C000FC1409F030F481E09AE0F91608F491C07B
:1051D000AACFF601ED53FE4F8081309105013823AF
:1051E000311559F0202F482D692D80FD03C02A2D3F
:1051F0004B2D6E2DC6010E94110B3FEFC31AD30A2F
:10520000DFCF809104010E94250BC82E092FE0906A
:10521000D702B090D8026091D90280E40E948C0934
:10522000F82ED12C0C1509F008F494CFF601ED53AB
:10523000FE4F80819091050189238115B1F0F6011F
:10524000EE0FFF1FE055FE4F808182958F706091B9
:10525000D6028F9D600D11247E2D8B2D0E940A0990
:10526000472F282FC6010E94110BEFEFCE1ADE0A3E
:10527000D9CF809104010E94250BC82E092FE09000
:10528000D702B090D8026091D90280E40E948C09C4
:10529000F82ED12C0C1509F008F45CCFF601ED5373
:1052A000FE4F80819091050189238115D1F0F6018F
:1052B000EE0FFF1FE155FE4F20812F9D900111241D
:1052C00045E0359527954A95E1F76091D602620F42
:1052D0007E2D8B2D0E940A09472F282FC6010E9480
:1052E000110BFFEFCF1ADF0AD5CF8EE09AE00E94B4
:1052F0000C119091040121E0290F209304018111E8
:105300003CC182E08093090180910601811135C181
:10531000111509F43CC1892F0E94250B092F182F64
:105320000E94130E81FFCCCE011708F4C9CE812F45
:1053300090E0FC01ED53FE4F208121FF05C020E0ED
:1053400040E06FEF0E94110B1F5FEECF83E29AE007
:10535000CECF8AE59AE00E944D11CBCF81E79AE04B
:10536000C6CF8BE79AE0C3CF8CE89AE0C0CF8DE937
:105370009AE0F1CF809104010E94250BC82EB92E2E
:105380006091D902669580918602909187020E9471
:105390009C09A82ED12CC601880F991F9C0121556C
:1053A0003E4F7901BC1409F020F481E03AE0B316D5
:1053B0000DCFF601ED53FE4F8081909105018923B9
:1053C0008115B9F0F70121812052330B40814057FC
:1053D000550B6091D6027091D7028091D8020A2DA8
:1053E0000E94B40A0E940A09472F282FC6010E9472
:1053F000110BF2E0EF0EF11C2FEFC21AD20AD2CF3E
:10540000809104010E94250BC82EB92E6091D9020B
:105410006695669580918602909187020E949C090C
:10542000F82E80E48F0D0E94B109805889838F2D5A
:105430000E94B10980588A83D12CCB1420F081E0DE
:105440009AE0B916C3CEF601ED53FE4F80819091DC
:1054500005018923811599F06091D6027091D702D8
:105460008091D802EF2C0C2D2A8149810E94C60A16
:105470000E940A09472F282FC6010E94110B8FEFA7
:10548000C81AD80ADACF00910401011131C0609125
:10549000D90220E1620F08F46FEF809186029091AB
:1054A00087020E949C096AE070E00E94C635892B41
:1054B000F9F4409100015091010125E038E0429F4C
:1054C000C001439F900D529F900D1124875E994C0F
:1054D0009093010180930001890FEAE08E9FC00143
:1054E0001124892F880F880B909302018093030168
:1054F000802F0E94250B282F092FF82E809106015E
:10550000811119C0809102019091030182179105C8
:1055100008F420CE8017910508F01CCE0E94D71108
:105520008BE090E0909303018093020113CE8F2DC6
:105530000E94D711F394F016D0F30CCE80910401A1
:105540000E94250B092FC82ED12CC01608F002CEC0
:10555000F601EE0FFF1FEC0DFD1DE954FD4F6081BC
:10556000718182810E940A09472F282FC6010E945B
:10557000110BFFEFCF1ADF0AE8CF1111CCCEA0CD6F
:10558000109308012370209307010E94E61283E024
:1055900091CD80919402811133DDC0908602D0902C
:1055A0008702E0908802F09089020E94F10F6C1946
:1055B0007D098E099F09603171058105910508F407
:1055C0007FCD109209017CCDA0E1B0E0EAEEFAE2D5
:1055D0000C940C36FE01319680E1DF011D928A9514
:1055E000E9F702E110E099EEA92E92E0B92E27E149
:1055F000422E55245394612C712C4F01730162018A
:10560000B1E14B165104610471041CF080E1C82E15
:10561000D12CA601B501C4010E947B36AC0CBD1C87
:105620000D2C000CEE08FF084C185D086E087F0872
:105630000150104019F76096E0E10C942836A0E084
:10564000B0E0E5E2FBE20C941A366FEF85E290E001
:105650000E948A366FEF86E290E00E948A366FEFF2
:1056600087E290E00E948A3660E088E290E00E9443
:105670008A360E94011BA8DF67E585E290E00E9460
:105680008A366AE686E290E00E948A3664EA87E219
:1056900090E00E948A36E2E00C943636AAE0B0E050
:1056A000E4E5FBE20C940F36FE0131968AE0DF015F
:1056B0001D928A95E9F78DE3A82E81E0B82E95E436
:1056C000E92E91E0F92E992493947E2E8F2ECC24EE
:1056D000C394D12CF50181915F018F3F09F443C040
:1056E000F894E82FE295EF70F0E021A18F70A60109
:1056F00002C0440F551F8A95E2F7CA01922F982BDA
:1057000091A392A18095892382A3789400C0E5E4B7
:10571000F1E0072D182D492D40959191D8018D91DB
:105720008D019F3F09F444C0A92FA295AF70A05EE0
:10573000B0E02C9130E09F7002C0359527959A9586
:10574000E2F720FD35C08929D8018E93B1E0EF340E
:10575000FB0719F7F50182918F3F11F00E94E908CC
:10576000E0EAEA95F1F7990CEA14FB0409F0B2CFEC
:105770004AE050E0672D782D8AE892E00E944A3690
:10578000892BC1F08AE0E72DF82DAAE8B2E001905C
:105790000D928A95E1F781E0809346020E94AC0E5B
:1057A00090934502809344022A96EDE00C942B36A8
:1057B0008423CACF809146028115B1F3009144023F
:1057C000109145020E94AC0E801B910B059760F36F
:1057D0004AE050E06AE872E08DED92E00E944A36BD
:1057E000892B49F08AE0EAE8F2E0ADEDB2E0019001
:1057F0000D928A95E1F710924602D6CFCDB7DEB76B
:10580000E8970FB6F894DEBF0FBECDBF85B78068AE
:1058100085BF85B7806885BF84B7877F84BF0FB693
:10582000F894A89580916000886180936000109240
:1058300060000FBE80E890E00FB6F894809361009E
:10584000909361000FBE81E080930D018FED98E091
:1058500090933B0280933A020E94C11A0E94CF109B
:105860000E9461128091E20084608093E20078944B
:105870008091E902811599F08091E9001091EC0086
:105880008F70179511271795182B1092E9008091AA
:10589000E80083FD0E94C6141F701093E90082E0A7
:1058A00084BD93E095BD9AEF97BD80936E000E94F2
:1058B000A01A811101C0C3DEE5EAF2E088E0DF0151
:1058C0001D928A95E9F781E08093A40260E080E070
:1058D0000E94BB0C61E080E00E94BB0CEFE8F1E0AD
:1058E0003197F1F700C0000010E08091A402181772
:1058F00008F485C00DE311E035E4E32E31E0F32E2A
:10590000D8018D918D018F3F11F00E94E908E016BA
:10591000F106B1F705E411E02FE4E22E21E0F22ECA
:10592000F80181918F018F3F11F00E94E908E01684
:10593000F106B1F78AE0EDEDF2E0DF01282F1D92CC
:105940002A95E9F7EAE8F2E0DF011D928A95E9F786
:1059500080E090E00E947636833E9E4F21F40E94C4
:10596000A01A81112AC063EE7EEF80E090E00E94D1
:10597000A43660E082E090E00E948A3681E0809365
:105980008E0361E083E090E00E948A3660E074E17B
:1059900084E090E00E94A43646DB51DE40E050E017
:1059A000BA018FE090E00E949C3640E050E0BA01DE
:1059B00083E190E00E949C3623DB82E090E00E942D
:1059C0006E368093970284E090E00E947636909342
:1059D000EA038093E90362DEEFE3FCE93197F1F734
:1059E00000C000005BDE8091DD0280FF1AC06FEF17
:1059F0007FEF80E090E00E94A4360E94141360E0E4
:105A0000812F0E94DE0C082F61E0812F0E94DE0CA6
:105A1000E12FF0E0ED55FD4F880F802B80831F5F55
:105A200064CF83E090E00E946E360E9476050E946B
:105A3000F90C81E08093940248E050E067E170E067
:105A400085ED92E00E945E36109294028091D5021C
:105A5000843008F4E8DA8EE091E09093F1028093CC
:105A6000F0028E010F5F1F4F8091E902853069F4CB
:105A700080E4F82E92E1E92E8091E902853009F464
:105A80004DC00E9482140E94FC0D08DEA8E9EA2E97
:105A9000A2E0FA2EBDEDCB2EB2E0DB2ED601F7014F
:105AA00091918D9162EA72E06E177F0709F46AC0E6
:105AB0009817B1F3B12CD601AD906D01F70171903B
:105AC0007F017A1421F17A24912C88248394872DE4
:105AD00088218115A9F09982BA820E94AC0E9C831C
